S01700006D6F746F725F636F6E74726F6C65722E73726563A5
S11300000C94E4000C9401010C9401010C946D0B0C
S11300100C9401010C9401010C9401010C94010154
S11300200C9401010C9401010C94D00C0C940E0D51
S11300300C9401010C9401010C9401010C94010134
S11300400C9401010C944B0B0C94570B0C94620B05
S11300500C9401010C9401010C9401010C94010114
S11300600C9401010C9401010C9401010C94010104
S11300700C9401010C9401010C9401010C940101F4
S11300800C9401010C9401010C9401010C940101E4
S11300900C9401010C9401010C9401010C940101D4
S11300A00C9401010C9401010C940101084AD73B02
S11300B03BCE016E84BCBFFDC12F3D6C74319ABD33
S11300C056833DDA3D00C77F11BED9E4BB4C3E9157
S11300D06BAAAABE000000803F05A84CCDB2D44E46
S11300E0B93836A9020C50B9918688083CA6AAAA48
S11300F02ABE000000803F0020204F435231633A63
S1130100200020204F435231423A20000A4F4352EC
S113011031413A200000010000AC0112000200004D
S1130120690143000300006501040103090451014E
S11301301202030904490106030309043F010808E4
S113014003340031003000000006034D003200008B
S11301500012034A002E0020004600690065006E6C
S113016000650000000403090409024300020100C1
S1130170C03209040000010202010005240010013C
S113018005240101010424020605240600010705D3
S1130190820310004009040100020A000000070560
S11301A0030240000007058402400000120100021F
S11301B002000010C0167A040001010203010001CC
S11301C0C11201803601813611241FBECFEFDAE05F
S11301D0DEBFCDBF11E0A0E0B1E0E8E1F9E202C08A
S11301E005900D92A232B107D9F721E0A2E2B1E065
S11301F001C01D92A139B207E1F70E94B70A0C941D
S11302008A140C94000082309105F9F02CF40097C4
S113021051F0019789F042C08430910551F1F4F016
S1130220059791F13BC0E2E2F1E01182108281E096
S113023090E09383828332C0E2E2F1E01182108283
S113024082E090E09383828329C0E2E2F1E01182AC
S1130250108283E090E09383828320C0E2E2F1E0A5
S113026081E090E09183808382E090E093838283B5
S113027015C0E2E2F1E081E090E09183808383E0C5
S113028090E0938382830AC0E2E2F1E082E090E0AE
S11302909183808383E090E09383828382E291E080
S11302A008952F923F924F925F926F927F928F9216
S11302B09F92AF92BF92CF92DF92EF92FF920F93F1
S11302C01F93CF93DF9300D000D0CDB7DEB75C018E
S11302D04A013A832983062F172FF8014190519040
S11302E0619071908F011C821B82212C312C12C0D1
S11302F0F801C190D190E190F1908F01A70196018E
S1130300C301B2010E946B13181624F426013701AD
S11303102B803C808B819C8101969C838B830697E8
S113032039F7822D932D0E940301FC012081318134
S113033062817381F501408151812417350759F495
S1130340F40131832083F50182819381E981FA816B
S11303509183808337C0F5018281938128173907FF
S113036059F4F40131832083F50180819181E9817D
S1130370FA819183808326C06417750759F4F401C8
S113038071836083F50182819381E981FA8191838C
S1130390808318C06817790759F4F4017183608366
S11303A0F50180819181E981FA81918380830AC07A
S11303B0F40191838083F50180819181E981FA813F
S11303C0918380830F900F900F900F90DF91CF91C6
S11303D01F910F91FF90EF90DF90CF90BF90AF905F
S11303E09F908F907F906F905F904F903F902F9051
S11303F008952F923F924F925F926F927F928F92C5
S11304009F92AF92BF92CF92DF92EF92FF920F939F
S11304101F93CF93DF93CDB7DEB7C254D1090FB684
S1130420F894DEBF0FBECDBF2C01FC010480F58122
S1130430E02DFAA3E9A3FC010081118169A17AA14D
S1130440601B710B072E000C880B990B0E94551230
S11304506B017C01F2010680F781E02DFEA3EDA380
S1130460F20122803380ADA0BEA0A218B3089B0184
S1130470AC010E94781369A77AA78BA79CA7AA9CB2
S11304804001AB9C900C900C1124092C000CAA0880
S1130490BB08A7019601C701B6010E9478136B013E
S11304A07C01C501B4010E9455129B01AC01C70136
S11304B0B6010E94CA100E94F3136BAF7CAF8DAFDC
S11304C09EAFF2010084F185E02DFAA7E9A7BF01F0
S11304D0601B710B072E000C880B990B0E945512A0
S11304E06B017C01F201628473845301A218B30886
S11304F09B01AC010E9478136DA77EA78FA798ABD0
S1130500AA9C4001AB9C900C900C1124092C000C6B
S1130510AA08BB08A7019601C701B6010E94781377
S11305206B017C01C501B4010E9455129B01AC0111
S1130530C701B6010E94CA100E94F31323966CAF40
S11305407DAF8EAF9FAF2397F2010484F585E02D34
S1130550FEA7EDA7BF01601B710B072E000C880BD3
S1130560990B0E9455124B015C01F2010684F78538
S1130570E02DFAABE9AB8F01021913099B01AC0121
S11305800E9478136BAB7CAB8DAB9EAB009F60017C
S1130590019FD00CD00C11240D2C000CEE08FF0888
S11305A0A5019401C501B4010E9478134B015C01BB
S11305B0C701B6010E9455129B01AC01C501B401EB
S11305C00E94CA100E94F3136BAB7CAB8DAB9EAB45
S11305D069A57AA529A13AA1621B730B072E000C09
S11305E0880B990B0E9455124B015C0183014DA1AC
S11305F05EA1041B150B9B01AC010E9478136FAB29
S113060078AF89AF9AAF009F6001019FD00CD00CE6
S113061011240D2C000CEE08FF08A5019401C5015E
S1130620B4010E9478134B015C01C701B6010E941A
S113063055129B01AC01C501B4010E94CA100E946D
S1130640F3136FAB78AF89AF9AAF6DA57EA589A17F
S11306509AA1681B790B072E000C880B990B0E943A
S113066055124B015C0109A91AA9EDA1FEA10E1BAB
S11306701F0B9B01AC010E94781369A37AA38BA37F
S11306809CA3009F6001019FD00CD00C11240D2C61
S1130690000CEE08FF08A5019401C501B4010E94F5
S11306A078134B015C01C701B6010E9455129B01EE
S11306B0AC01C501B4010E94CA100E94F3134B019E
S11306C05C016DA57EA529A53AA5621B730B072EB7
S11306D0000C880B990B0E94551269A37AA38BA373
S11306E09CA309A91AA9061917099B01AC010E9428
S11306F078136DA37EA38FA398A7009F6001019F29
S1130700D00CD00C11240D2C000CEE08FF0829A1EC
S11307103AA14BA15CA1CA01B9010E94781369A353
S11307207AA38BA39CA3C701B6010E9455129B0117
S1130730AC0169A17AA18BA19CA10E94CA100E945C
S1130740F3132BAD3CAD4DAD5EAD29833A834B83A2
S11307505C8323962CAD3DAD4EAD5FAD23972D83C9
S11307603E834F8358872BA93CA94DA95EA92987AD
S11307703A874B875C872FA938AD49AD5AAD2D8791
S11307803E874F87588B898A9A8AAB8ABC8A6D8B3D
S11307907E8B8F8B988FAE014F5F5F4F7A0100E0A5
S11307A010E0612C712CC12CD12C212C312CF7019F
S11307B081909190A190B1907F01262D372D4C2DE1
S11307C05D2DC501B4010E946B13181634F4682C16
S11307D0792CCA2CDB2C202E312E0F5F1F4F0630B4
S11307E0110529F7822D932D0E940301FC01E0805D
S11307F0F180FA8EE98E028113811C8F0B8FEE0C2F
S1130800FF1CEE0CFF1CE40CF51C000F111F000F65
S1130810111F040D151DF70160817181F80180819C
S11308209181680F791F772314F46F5F7F4F75955B
S11308306795072E000C880B990B0E9455124B01EB
S11308405C01F70162817381F80182819381680FF1
S1130850791F772314F46F5F7F4F75956795072E83
S1130860000C880B990B0E94551269A37AA38BA3E1
S11308709CA39E01215E3F4FAE01435E5F4FBE01CC
S11308806F5F7F4FCE0149960E9451010D8D1E8DE1
S1130890000F111F000F111F040D151D2F8C38A000
S11308A0220C331C220C331C240C351CF8016081EF
S11308B07181F10180819181681B790B072E000CF5
S11308C0880B990B0E9455126B017C01F80162811F
S11308D07381F10182819381681B790B072E000CCF
S11308E0880B990B0E9455129058A70196010E94FB
S11308F049112BED3FE049EC5FE30E94CA106B0104
S11309007C01A501940160E070E080E094E40E9421
S1130910C9104B015C0129A13AA14BA15CA160E083
S113092070E08FEB93E40E94C9102B013C01C701D6
S1130930B6010E94E51369A37AA38BA39CA3C70104
S1130940B6010E94AD116DA37EA38FA398A706E202
S113095011E029A13AA14BA15CA1C301B2010E94FB
S1130960781369A77AA78BA79CA72DA13EA14FA1B5
S113097058A5C501B4010E9478139B01AC0169A577
S11309807AA58BA59CA50E94C910F8016083718388
S1130990828393832DA13EA14FA158A5C301B20127
S11309A00E9478132B013C0129A13AA14BA15CA11F
S11309B0C501B4010E9478139B01AC01C301B201CB
S11309C00E94CA10F8016483758386839783F7FABB
S11309D0F094F7F8F094C086D186E286F386C801D5
S11309E0CE5BDF4F0FB6F894DEBF0FBECDBFDF91F5
S11309F0CF911F910F91FF90EF90DF90CF90BF9018
S1130A00AF909F908F907F906F905F904F903F90AA
S1130A102F9008954F925F926F927F92AF92BF9200
S1130A20CF92DF92EF92FF920F931F93CF93DF93B6
S1130A30CDB7DEB768970FB6F894DEBF0FBECDBF53
S1130A40FC010DB71EB7808191819A8389838085CB
S1130A5091859C838B83828193819E838D83828500
S1130A60938598878F83848195819A8789878485E4
S1130A7095859C878B87868197819E878D878685C0
S1130A809785988B8F87FE01719688E0DF011D9210
S1130A908A95E9F7709720E030E080E090E04081AB
S1130AA051814F3F534071F0DC01AA0FBB1F41E05D
S1130AB050E04C0F5D1FA40FB51F51963C932E932D
S1130AC0509701962F5F3F4F34962430310539F704
S1130AD0009709F48BC0EDB6FEB66C01CC0CDD1C9E
S1130AE0CC0CDD1CADB7BEB7AC19BD090FB6F8947C
S1130AF0BEBF0FBEADBFEDB7FEB731965F0118168E
S1130B00190624F59E012F5E3F4FDF01CE0EDF1E36
S1130B10F901419151919F01FA01EE0FFF1FEE0F70
S1130B20FF1F41E050E04C0F5D1FE40FF51F4081B3
S1130B30518111965C934E934281538113965C9339
S1130B404E9312971496AC15BD0511F76E9A7698CC
S1130B50DB014D905D906D907C901397EEE3F1E096
S1130B60408251826282738214964D905D906D90A2
S1130B707C901797448255826682778218964D91AD
S1130B805D916D917C911B97408751876287738734
S1130B90049729F4C5010E94F901DC0102C0AEE307
S1130BA0B1E04D915D916D917C911397E2E3F1E099
S1130BB0408351836283738314964D915D916D914B
S1130BC07C911797448355836683778318968D9118
S1130BD09D910D90BC91A02D80879187A287B387AA
S1130BE00FB6F894FEBE0FBEEDBE22C0FB0180819D
S1130BF09181A281B381E2E3F1E080839183A283B6
S1130C00B383DB011496CD90DD90ED90FC901797A3
S1130C10C482D582E682F78218964D915D916D91DA
S1130C207C911B9740875187628773876E9A769A67
S1130C3082E391E00FB6F8941EBF0FBE0DBF689615
S1130C400FB6F894DEBF0FBECDBFDF91CF911F91D9
S1130C500F91FF90EF90DF90CF90BF90AF907F9077
S1130C606F905F904F900895E1E6F0E080E8808314
S1130C70108250985198209A219A229A239A28985F
S1130C8029982A982B980E94910B0E94150F88236B
S1130C90E1F378940895CF93DF93E1E8F0E0808165
S1130CA08B7F808380818D7F80838081816080833E
S1130CB080818F7E8083808188608083E0E8F0E09B
S1130CC080818D7F808380818E7F808380818F7DF2
S1130CD0808380818F7E8083C8E8D0E080E89EE3B3
S1130CE0998388836881798180E090E00E9453121F
S1130CF0209116013091170140911801509119016A
S1130D000E9478130E94241270938B0060938A00CF
S1130D106881798180E090E00E9453122091120151
S1130D203091130140911401509115010E947813E0
S1130D300E94241270938D0060938C00EFE6F0E023
S1130D4080818260808380818460808380818860E8
S1130D508083DF91CF910895E1E9F0E080818B7F7A
S1130D60808380818D7F8083808181608083808186
S1130D708F7E8083808188608083E0E9F0E08081D9
S1130D808D7F808380818E7F808380E89EE3909333
S1130D9099008093980008958F929F92AF92BF928A
S1130DA0CF92DF92EF92FF926B017C014B015C01C9
S1130DB0E894B7F82BED3FE049E450E4C501B401F1
S1130DC00E946B131816BCF42BED3FE049EC50E481
S1130DD0C701B6010E947813A50194010E94B211C3
S1130DE09B01AC01C701B6010E94C910562F472FC1
S1130DF0382F292F04C05C2D4D2D3E2D2F2D652F0E
S1130E00742F832F922FFF90EF90DF90CF90BF909D
S1130E10AF909F908F9008954F925F926F927F92C0
S1130E208F929F92AF92BF92CF92DF92EF92FF92F6
S1130E300F931F93CF93DF93CDB7DEB760970FB6B1
S1130E40F894DEBF0FBECDBF2091670130916801D9
S1130E504091690150916A0160915F017091600154
S1130E6080916101909162010E94C9100E94CC0698
S1130E706B017C0120915B0130915C0140915D012B
S1130E8050915E010E94C9102FE632E143E85AE313
S1130E900E94B21120E030E0A9010E9478139B0166
S1130EA0AC01C701B6010E94C910C0925B01D09287
S1130EB05C01E0925D01F0925E012BED3FE049E4BC
S1130EC050E40E94B2112B013C01DC01CB01B0586B
S1130ED08D879E87AF87B88B20916B0130916C0111
S1130EE040916D0150916E016091630170916401B4
S1130EF080916501909166010E94C91069837A838B
S1130F008B839C8320916F0130917001409171011A
S1130F105091720160910E0170910F018091100146
S1130F20909111010E94C9106D837E838F839887ED
S1130F30C701B6010E94AD114B015C0129813A81C0
S1130F404B815C81CA01B9010E94781369877A8751
S1130F508B879C8729813A814B815C81CA01B901C5
S1130F600E94781369837A838B839C832D813E81CD
S1130F704F815885CA01B9010E9478139B01AC01C5
S1130F8069817A818B819C810E94CA100E94F3132B
S1130F909B01AC01C501B4019F770E9478134B01FA
S1130FA05C012DEC3CEC4CE45EE30E947813698315
S1130FB07A838B839C83209157013091580140910F
S1130FC0590150915A01C501B4010E94C9102FE67C
S1130FD032E143E85AE30E94B21120E030E0A90173
S1130FE00E9478139B01AC0169817A818B819C8179
S1130FF00E94C91069837A838B839C8380925701F2
S113100090925801A0925901B0925A0120E030E028
S113101040E252E40E946B13181644F480E090E01E
S1131020A0E2B2E489839A83AB83BC8320E030E0FE
S113103040E252E469817A818B819C810E94B211E1
S11310404B015C01C701B6019F772BED3FE049ECF2
S11310505FE30E94A8118823ECF4A3019201C50167
S1131060B4010E94C9106093160170931701809314
S1131070180190931901A5019401C301B2010E94C2
S1131080CA1060931201709313018093140190931A
S113109015011EC0A50194016D857E858F859889F3
S11310A00E94C91060931601709317018093180170
S11310B090931901A5019401C301B2010E94C910C2
S11310C0609312017093130180931401909315019E
S11310D020E030E0A9016091160170911701809120
S11310E01801909119010E94A811882314F42998D9
S11310F001C0299A20E030E0A901609112017091A9
S1131100130180911401909115010E94A811882364
S113111014F42B9801C02B9A80901601909017011B
S1131120A0901801B0901901E894B7F880921601C4
S113113090921701A0921801B0921901C090120167
S1131140D0901301E0901401F0901501E894F7F8A1
S1131150C0921201D0921301E0921401F092150191
S1131160A7019601C501B4010E946B1318162CF057
S11311706C2C7D2C1E2D0F2D04C0682C792C1A2D5F
S11311800B2D2DEC3CEC4CEC5EE3662D772D812F82
S1131190902F0E946B13181664F5262D372D412FBE
S11311A0502FC501B4010E94B2112DEC3CEC4CEC63
S11311B05EE30E9478136093160170931701809385
S11311C0180190931901262D372D412F502FC70157
S11311D0B6010E94B2112DEC3CEC4CEC5EE30E9493
S11311E07813609312017093130180931401909308
S11311F015018091000190910101892B81F01092D9
S113120016011092170110921801109219011092F0
S1131210120110921301109214011092150108E8A2
S113122010E0D8016D917C9180E090E00E9453120F
S11312302091160130911701409118015091190124
S11312400E9478130E94241270938B0060938A008A
S1131250F8016081718180E090E00E945312209136
S113126012013091130140911401509115010E9413
S113127078130E94241270938D0060938C00609602
S11312800FB6F894DEBF0FBECDBFDF91CF911F9193
S11312900F91FF90EF90DF90CF90BF90AF909F9011
S11312A08F907F906F905F904F9008958F929F9250
S11312B0AF92BF92CF92DF92EF92FF920F931F9360
S11312C0CF93DF93CDB7DEB760970FB6F894DEBF48
S11312D00FBECDBF89E791E00E943610E9E7F1E047
S11312E062817381E680F780408551850485158588
S11312F026853785A289B389848995890190F081EF
S1131300E02DFA83E983FC82EB821E830D83B88788
S1131310AF837A8769875C874B873E872D87988B55
S11313208F8762E071E0CE0101960E940A058C016C
S11313309093780180937701FC0180859185A28543
S1131340B38580930A0190930B01A0930C01B09391
S11313500D0160857185828593850E94CC066B01A1
S11313607C01F801608771878287938724EA30E7DC
S11313704DE75FE360817181828193810E947813DC
S11313804B015C0120E037ED43E25CE360916F01C7
S11313907091700180917101909172010E94781393
S11313A09B01AC01C501B4010E94CA1060936F0196
S11313B070937001809371019093720124EA30E775
S11313C04DE75FE3F80164817581868197810E940E
S11313D078134B015C0120E037ED43E25CE360915C
S11313E06B0170916C0180916D0190916E010E946E
S11313F078139B01AC01C501B4010E94CA1060932B
S11314006B0170936C0180936D0190936E0124EADB
S113141030E74DE75FE3C701B6010E9478136B0123
S11314207C0120E037ED43E25CE360916701709159
S113143068018091690190916A010E9478139B016F
S1131440AC01C701B6010E94CA1060936701709392
S113145068018093690190936A01C19B53C0C19A4A
S113146020916F013091700140917101509172018E
S113147060910E0170910F01809110019091110102
S11314800E94C9106B017C0120916B0130916C01A9
S113149040916D0150916E016091630170916401FE
S11314A080916501909166010E94C910A70196017F
S11314B00E94491160935F01709360018093610100
S11314C0909362010E940C078CE091E00E94910EBF
S11314D080918800909189000E94AD0E82E091E095
S11314E00E94910E80918A0090918B000E94AD0E13
S11314F088EF90E00E94910E80918C0090918D0075
S11315000E94AD0EE2E0F1E080916F0190917001D4
S1131510A0917101B091720180839183A283B383FE
S113152080916B0190916C01A0916D01B0916E015D
S113153084839583A683B78360960FB6F894DEBF41
S11315400FBECDBFDF91CF911F910F91FF90EF9010
S1131550DF90CF90BF90AF909F908F9008950E949E
S1131560910B4AE060E281E00E94A20B08956A9A1E
S113157072986E9A76980E9434060E945C0C0E94BF
S1131580AF0A0E944B060E94AC060E945609FDCF8A
S113159080914C01833A09F44EC028F4813A69F0F1
S11315A0823AD1F10895863A09F45BC0873A09F486
S11315B05FC0843A09F062C04DC0109201011092DC
S11315C000010E94560920E030E0A90160916F01FA
S11315D07091700180917101909172010E946B135E
S11315E018166CF480E090E0AFEAB3EC80930E013F
S11315F090930F01A0931001B0931101089580E01E
S113160090E0AFEAB3E480930E0190930F01A093AE
S11316101001B09311010895EDE4F1E0818180930C
S11316204B01828180934A0181E090E09093010113
S1131630809300010895EDE4F1E0818180934B01F2
S1131640828180934A0181E090E09093010180932C
S11316500001089581E090E09093010180930001DE
S1131660089581E090E09093010180930001089532
S113167081E090E0909301018093000108956AE075
S11316808DE491E00E94F80B80914D0180934C0110
S11316900E94C80A08951F920F920FB60F92112448
S11316A0289A2A9A0F900FBE0F901F9018951F9298
S11316B00F920FB60F92112428980F900FBE0F901F
S11316C01F9018951F920F920FB60F9211242A980B
S11316D00F900FBE0F901F9018951F920F920FB688
S11316E00F9211242F933F934F935F936F937F93A4
S11316F08F939F93AF93BF93EF93FF930E943F0BFE
S1131700FF91EF91BF91AF919F918F917F916F91D5
S11317105F914F913F912F910F900FBE0F901F90AB
S11317201895589A599A5A9A8CE08093B800E9E629
S1131730F0E080818062808380818F7E8083EA9A5A
S1131740789408951F93CF93DF93182FD62FC42F27
S11317500E94910B94EA9093BC00ECEBF0E0908132
S11317609923ECF790E59093BB0094E89093BC0028
S1131770ECEBF0E090819923ECF79091B900987F1D
S1131780903229F484E98093BC0080E02DC081E08C
S11317908093BB0084E88093BC00ECEBF0E0908184
S11317A09923ECF71093BB0084E88093BC00ECEB26
S11317B0F0E080818823ECF7D093BB0084E8809329
S11317C0BC00ECEBF0E080818823ECF7C093BB0015
S11317D084E88093BC00ECEBF0E080818823ECF794
S11317E084E98093BC0081E0DF91CF911F9108953B
S11317F0CF93DF939C0184EA8093BC00ECEBF0E090
S113180090819923ECF781E58093BB0084E8809371
S1131810BC00ECEBF0E090819923ECF78091B900E7
S1131820887F883429F484E98093BC0080E041C037
S113183084EC8093BC00ECEBF0E090819923ECF70E
S11318404091BB00461309C0842F90E001971816FD
S1131850190644F040E050E01AC084E98093BC00CB
S113186080E027C0D90150E041505109B901640F0B
S1131870751FECEBF0E084ECCBEBD0E0808390813F
S11318809923ECF798819D93A617B707B9F784E8D5
S11318908093BC00ECEBF0E090819923ECF780910D
S11318A0BB00F901E40FF51F808384E98093BC0039
S11318B081E0DF91CF91089581E08093D70080EAA1
S11318C08093D80082E189BD09B400FEFDCF80E990
S11318D08093D8001092E000109276011092730168
S11318E08CE08093E20078940895CF93DF939091F5
S11318F07601992309F44CC09FB7F89424E020930F
S1131900E90020917401222349F02091E80025FD8B
S113191003C09FBF8FEF41C0109274013091E40067
S1131920375E2091E80025FD24C09FBF9091E4001C
S1131930931781F090917601992361F1A9EEB0E0BB
S113194044E0E8EEF0E0C4EED0E00DC09FBF988123
S1131950931305C081E0809374018FEF1EC09091B2
S113196076019923C9F09FB7F8944C93208125FF01
S1131970EDCF8093F1008091E80085FD03C08AE3F8
S11319808093E80085E0809375019FBF80E005C0E7
S11319908FEF03C08FEF01C08FEFDF91CF910895D8
S11319A01F920F920FB60F9211248F939F93EF9370
S11319B0FF93E1EEF0E08081108283FF11C010926A
S11319C0E90091E09093EB001092EC0092E1909387
S11319D0ED0098E09093F00010927601109273015C
S11319E082FF13C080917601882379F0809175017C
S11319F0882359F0815080937501811106C084E0D9
S1131A008093E9008AE38093E800FF91EF919F912E
S1131A108F910F900FBE0F901F9018951F920F92E9
S1131A200FB60F9211240F931F932F933F934F934D
S1131A305F936F937F938F939F93AF93BF93CF9352
S1131A40DF93EF93FF931092E9008091E80083FF06
S1131A504CC1E1EFF0E0608180812081908130E031
S1131A60392B4081908150E0592B7081C08192EFD5
S1131A709093E800863009F058C004C081E2809356
S1131A80EB003AC166E085E191E0FC01A591B491D7
S1131A902A173B0711F0079623C0FC013296A59143
S1131AA0B4914A175B0711F007961AC0FC013496EB
S1131AB045915491FC0136962491872F90E09C2BFC
S1131AC08F3F910519F010F08FEF90E0821708F422
S1131AD0282FA8EEB0E070E16EEFC1EFD0E003C0B4
S1131AE0615099F6CBCF8C91982F9570E1F382FDDC
S1131AF003C1322F213108F0372F332309F4F9C001
S1131B00FA01832F94919883815031968111FACFF1
S1131B108FEF830F90E00196480F591F231B6C939E
S1131B202111E1CF3031F9F2E7C0853061F48EEF55
S1131B308093E800E8EEF0E0808180FFFDCF20682C
S1131B402093E300D9C0893009F035C06111CDC0BC
S1131B502093760110927301109275018EEF809399
S1131B60E80081E02EEB31E0C9EED0E0ABEEB0E06E
S1131B700CEE10E06DEE70E08883A9014F5F5F4FBB
S1131B80F90194919C93992361F0FA014491F8012D
S1131B904083F901329694912D5F3F4FFB0190836E
S1131BA001C09A018F5F853039F7EAEEF0E08EE1EB
S1131BB080831082A1C0883081F4603809F095C018
S1131BC0E8EEF0E0808180FFFDCF80917601809384
S1131BD0F1008EEF8093E8008FC08132B9F4613A4E
S1131BE009F083C0E8EEF0E0808180FFFDCFEAE1F8
S1131BF0F1E021E231E0A1EFB0E081918C93E217B2
S1131C00F307D9F78EEF8093E80076C08032D1F4E1
S1131C10613209F06AC0E8EEF0E0808182FFFDCF16
S1131C20EAE1F1E021E231E0A1EFB0E08C918193AF
S1131C30E217F307D9F7E8EEF0E08BEF80838EEF3D
S1131C4080835AC0823271F4613209F04EC020930D
S1131C507301E8EEF0E0808180FFFDCF8EEF80938A
S1131C60E8004AC081111AC0E8EEF0E0808180FFEC
S1131C70FDCF623851F4E9EEF0E040838091EB004F
S1131C8085FB882780F9108201C080E0E1EFF0E055
S1131C90808310828EEF8093E8002EC0982F9D7F62
S1131CA0913019F5623009F5232BF9F44F779FEF42
S1131CB0940F9430D0F49EEF9093E8004093E900A1
S1131CC0833021F481E28093EB0016C089E1809394
S1131CD0EB0081E090E002C0880F991F4A95E2F77B
S1131CE0EAEEF0E08083108207C081E28093EB008B
S1131CF003C06C932111F7CEFF91EF91DF91CF9147
S1131D00BF91AF919F918F917F916F915F914F910F
S1131D103F912F911F910F910F900FBE0F901F9025
S1131D2018950F931F93CF938C010F5F1F4FFC01E6
S1131D30C491CC2371F0CA3019F48DE00E94750C63
S1131D408C2F0E94750CF801C4910F5F1F4FC111B5
S1131D50F2CFCF911F910F910895EF92FF920F93BD
S1131D601F93CF93DF9300D000D000D0CDB7DEB760
S1131D708E010F5F1F4F26E0F80111922A95E9F7B3
S1131D804AE0B8010E9460147E01F6E0EF0EF11CF7
S1131D90F80181918F0181110E94750C0E151F05A8
S1131DA0B9F726960FB6F894DEBF0FBECDBFDF910C
S1131DB0CF911F910F91FF90EF90089520E030E0B4
S1131DC0ECEBF0E08081882334F02F5F3F4F293E15
S1131DD083E03807B9F781E0283E334009F480E016
S1131DE008958093BB0084E88093BC000E94DE0EBB
S1131DF0882319F08091B900887F0895CF93C82F64
S1131E0094EA9093BC000E94DE0E882361F08C2F2C
S1131E10880F0E94F10E803229F484E98093BC007B
S1131E2080E001C081E0CF9108950E94910B88E584
S1131E300E94FE0E882309F4CDC080E30E94F10EB7
S1131E40882309F4C9C081E00E94F10E882309F4B3
S1131E50C5C084E98093BC0083EC99E00197F1F755
S1131E6000C0000088E50E94FE0E882309F4B8C073
S1131E7080E00E94F10E882309F4B4C080E00E943F
S1131E80F10E882309F4B0C080E00E94F10E88238B
S1131E9009F4ACC080E00E94F10E882309F4A8C0C4
S1131EA080E00E94F10E882309F4A4C080E00E941F
S1131EB0F10E882309F4A0C080E00E94F10E88236B
S1131EC009F49CC080E90E94F10E882309F498C0AB
S1131ED084E98093BC0083EC99E00197F1F700C09A
S1131EE0000088E50E94FE0E882309F48BC087E079
S1131EF00E94F10E882309F487C080E00E94F10E4D
S1131F00882309F483C081E40E94F10E882309F434
S1131F107FC084E98093BC0083EC99E00197F1F7DA
S1131F2000C0000088E50E94FE0E882309F472C0F8
S1131F308AE10E94F10E882309F46EC080E40E94B5
S1131F40F10E882309F46AC080E00E94F10E882310
S1131F5009F466C084E98093BC0083EC99E001979E
S1131F60F1F700C0000088E50E94FE0E882309F402
S1131F7059C083E30E94F10E882309F455C083E01D
S1131F800E94F10E882309F451C084E98093BC00B7
S1131F9083EC99E00197F1F700C0000088E50E9406
S1131FA0FE0E882309F444C080E30E94F10E8823C6
S1131FB009F440C088E00E94F10E8823E9F184E925
S1131FC08093BC0083EC99E00197F1F700C0000016
S1131FD081E0089580E0089580E0089580E0089508
S1131FE080E0089580E0089580E0089580E00895F9
S1131FF080E0089580E0089580E0089580E00895E9
S113200080E0089580E0089580E0089580E00895D8
S113201080E0089580E0089580E0089580E00895C8
S113202080E0089580E0089580E0089580E00895B8
S113203080E0089580E0089580E00895CF93C82F4C
S113204084EA8093BC000E94DE0E882369F08C2F02
S1132050880F8F5F0E94F10E883429F484E98093FD
S1132060BC0080E001C081E0CF9108950F931F93DD
S1132070CF93DF93CDB7DEB760970FB6F894DEBF8A
S11320800FBECDBF8C01FE01319680E1DF011D92B0
S11320908A95E9F788E50E94FE0E882309F469C051
S11320A086E30E94F10E882309F465C084E98093D5
S11320B0BC00B8E0BA95F1F7000088E50E941E1054
S11320C0882309F45AC0BE016F5F7F4FAE01405FA1
S11320D05F4FECEBF0E084EC2BEB30E080839081FD
S11320E09923ECF7D9019C91DB019D93BD01A417C1
S11320F0B507A1F784E88093BC00ECEBF0E08081A5
S11321008823ECF78091BB00888B84E98093BC0022
S1132110BE016C5F7F4FF801085E1F4FDB012C91FD
S1132120322F3073CB010297DC018C9190E0B0E147
S11321303B9F800D911D112491838083422F407C0D
S113214050E0440F551F440F551FCB010197DC018C
S11321508C91480F511D538342832F7030E0358397
S113216024836D5F7F4F3696E017F107B9F681E05F
S113217005C080E003C080E001C080E060960FB637
S1132180F894DEBF0FBECDBFDF91CF911F910F91A9
S113219008955058BB27AA270E94E1100C941D13E0
S11321A00E94E41238F00E94EB1220F039F49F3FB1
S11321B019F426F40C94BA120EF4E095E7FB0C948F
S11321C0B412E92F0E94421358F3BA176207730737
S11321D08407950720F079F4A6F50C9464130EF4A3
S11321E0E0950B2EBA2FA02D0B01B90190010C0123
S11321F0CA01A0011124FF27591B99F0593F50F43B
S1132200503E68F11A16F040A22F232F342F442792
S1132210585FF3CF469537952795A795F04053958A
S1132220C9F77EF41F16BA0B620B730B840BBAF05A
S11322309150A1F0FF0FBB1F661F771F881FC2F7C5
S11322400EC0BA0F621F731F841F48F487957795D9
S11322506795B795F7959E3F08F0B0CF9395880F93
S113226008F09927EE0F9795879508950E94E41238
S113227060F080E891E009F49EEF0E94EB1228F0F0
S113228040E851E071F45EEF0CC00C94BA120C9467
S11322906413E92FE0780E94421340F3092E052AC3
S11322A0B1F3261737074807590738F00E2E07F8F9
S11322B0E02569F0E025E0640AC0EF6307F80094C4
S11322C007FADB01B9019D01DC01CA01AD01EF93FD
S11322D00E94C9110E941D130E9479115F91552318
S11322E039F02BED3FE049E450FD49EC0C94CA1061
S11322F00895DF93DD27B92FBF7740E85FE3161613
S1132300170648075B0718F4D92F0E9470139F9390
S11323108F937F936F930E943314ECEAF0E00E9452
S1132320BD120E941D132F913F914F915F910E9406
S11323308B13DD2351F09058A2EA2AED3FE049ECDB
S11323405FE3D0785D270E94E110DF910C941D13A8
S11323500E94901208F481E008950E94F412E3951B
S11323600C942E130E94C6110C941D130E94EB12A0
S113237058F00E94E41240F029F45F3F29F00C94D5
S1132380B41251110C9465130C94BA120E944213A6
S113239068F39923B1F3552391F3951B550BBB2790
S11323A0AA2762177307840738F09F5F5F4F220FD5
S11323B0331F441FAA1FA9F335D00E2E3AF0E0E8CC
S11323C032D091505040E695001CCAF72BD0FE2F16
S11323D029D0660F771F881FBB1F261737074807AA
S11323E0AB07B0E809F0BB0B802DBF01FF27935862
S11323F05F4F3AF09E3F510578F00C94B4120C9460
S113240065135F3FE4F3983ED4F38695779567951B
S1132410B795F7959F5FC9F7880F911D9695879596
S113242097F90895E1E0660F771F881FBB1F6217B5
S113243073078407BA0720F0621B730B840BBA0B73
S1132440EE1F88F7E09508950E944A1388F09F577D
S113245098F0B92F9927B751B0F0E1F0660F771FC4
S1132460881F991F1AF0BA95C9F714C0B13091F0BA
S11324700E946413B1E008950C946413672F782FBD
S11324808827B85F39F0B93FCCF38695779567957F
S1132490B395D9F73EF490958095709561957F4FEB
S11324A08F4F9F4F0895E89409C097FB3EF4909591
S11324B08095709561957F4F8F4F9F4F9923A9F019
S11324C0F92F96E9BB279395F695879577956795A8
S11324D0B795F111F8CFFAF4BB0F11F460FF1BC0EC
S11324E06F5F7F4F8F4F9F4F16C0882311F096E97F
S11324F011C0772321F09EE8872F762F05C066232D
S113250071F096E8862F70E060E02AF09A95660FE5
S1132510771F881FDAF7880F9695879597F908959E
S1132520990F0008550FAA0BE0E8FEEF16161706E0
S1132530E807F907C0F012161306E407F50798F048
S1132540621B730B840B950B39F40A2661F0232B61
S1132550242B252B21F408950A2609F4A140A695DD
S11325608FEF811D811D089597F99F6780E870E0C2
S113257060E008959FEF80EC0895DF93CF931F935D
S11325800F93FF92EF92DF927B018C01689406C057
S1132590DA2EEF010E948B13FE01E894A591259198
S11325A0359145915591A6F3EF010E94E110FE018A
S11325B09701A801DA9469F7DF90EF90FF900F91EB
S11325C01F91CF91DF91089500240A9416161706DF
S11325D018060906089500240A9412161306140610
S11325E0050608950C94BA120E944A13D8F3E8948D
S11325F0E0E0BB279F57F0F02AED3FE049EC06C02E
S1132600EE0FBB0F661F771F881F28F0B23A6207D0
S11326107307840728F0B25A620B730B840BE3959B
S11326209A9572F7803830F49A95BB0F661F771F1E
S1132630881FD2F790480C943914092E0394000C87
S113264011F4882352F0BB0F40F4BF2B11F460FF48
S113265004C06F5F7F4F8F4F9F4F0895EF93E0FF4C
S113266007C0A2EA2AED3FE049EC5FEB0E94E110CB
S11326700E941D130F90039401FC9058E9EDF0E0C3
S11326800C944C1457FD9058440F551F59F05F3F5C
S113269071F04795880F97FB991F61F09F3F79F080
S11326A087950895121613061406551FF2CF469502
S11326B0F1DF08C0161617061806991FF1CF869584
S11326C07105610508940895E894BB276627772768
S11326D0CB0197F908950E94901208F48FEF0895A2
S11326E09B01AC0160E070E080E89FE30C94B211C0
S11326F00E948B130C941D130E94E41238F00E9464
S1132700EB1220F0952311F00C94B4120C94BA122D
S113271011240C9465130E94421370F3959FC1F326
S1132720950F50E0551F629FF001729FBB27F00D7B
S1132730B11D639FAA27F00DB11DAA1F649F6627D0
S1132740B00DA11D661F829F2227B00DA11D621F1F
S1132750739FB00DA11D621F839FA00D611D221FD9
S1132760749F3327A00D611D231F849F600D211DBD
S1132770822F762F6A2F11249F5750409AF0F1F040
S113278088234AF0EE0FFF1FBB1F661F771F881FA9
S113279091505040A9F79E3F510580F00C94B4121B
S11327A00C9465135F3FE4F3983ED4F386957795D4
S11327B06795B795F795E7959F5FC1F7FE2B880F4F
S11327C0911D9695879597F908959F930E94F41209
S11327D00F9007FCEE5F0C942E1319F416F40C946E
S11327E0BA120C9437140E944A13B8F39923C9F30C
S11327F0B6F39F57550B87FF0E9445140024A0E6AB
S113280040EA900180585695979528F4805C660FAD
S1132810771F881F20F026173707480730F4621BFC
S1132820730B840B202931294A2BA69517940794FE
S1132830202531254A2758F7660F771F881F20F077
S113284026173707480730F4620B730B840B200DEF
S1132850311D411DA09581F7B901842F9158880F2E
S11328609695879508959B01AC010C9478139F3F2E
S113287031F0915020F4879577956795B795880F37
S1132880911D9695879597F9089591505040660F3C
S1132890771F881FD2F708959F938F937F936F9329
S11328A0FF93EF939B01AC010E947813EF91FF918A
S11328B00E94BD122F913F914F915F910C94781318
S11328C0BB27FB015527AA27880F991FAA1FA41706
S11328D010F0A41B83955051B9F7A05DAA3308F0FA
S11328E0A95DA193009779F7B111B1931192CB012E
S11328F00C947A14DC01FC01672F71917723E1F7C2
S1132900329704C07C916D9370836291AE17BF07B8
S10B2910C8F30895F894FFCF09
S1132918010000C07F4400C07F440000B4430000AD
S1132928AFC3CDCCCC3DCDCCCC3D00E10000000004
S1052938080091
S9030000FC
