:100000000C94D6000C94F3000C94F3000C94F300C1
:100010000C94F3000C94F3000C94F3000C94F30094
:100020000C94F3000C94F3000C94E60A0C94240B4B
:100030000C94F3000C94F3000C94F3000C94F30074
:100040000C94F3000C949A0A0C94A60A0C94B10A2E
:100050000C94F3000C94F3000C94F3000C94F30054
:100060000C94F3000C94F3000C94F3000C94F30044
:100070000C94F3000C94F3000C94F3000C94F30034
:100080000C94F3000C94F3000C94F3000C94F30024
:100090000C94F3000C94F3000C94F3000C94F30014
:1000A0000C94F3000C94F3000C94F300084AD73B33
:1000B0003BCE016E84BCBFFDC12F3D6C74319ABD37
:1000C00056833DDA3D00C77F11BED9E4BB4C3E915B
:1000D0006BAAAABE000000803F05A84CCDB2D44E4A
:1000E000B93836A9020C50B9918688083CA6AAAA4C
:1000F0002ABE000000803F00000100008F011200B6
:100100000200004C01430003000048010401030900
:1001100004340112020309042C010603030904221A
:1001200001080803340031003000000006034D00D0
:100130003200000012034A002E0020004600690031
:1001400065006E0065000000040309040902430015
:10015000020100C03209040000010202010005246E
:1001600000100105240101010424020605240600F3
:10017000010705820310004009040100020A000083
:10018000000705030240000007058402400000123A
:1001900001000202000010C0167A040001010203EF
:1001A000010001C1120180360181360011241FBEF9
:1001B000CFEFDAE0DEBFCDBF11E0A0E0B1E0E4E6D2
:1001C000F4E202C005900D92AC31B107D9F721E0FD
:1001D000ACE1B1E001C01D92A138B207E1F70E9485
:1001E0008B0A0C9430120C94000082309105F9F0C7
:1001F0002CF4009751F0019789F042C084309105AA
:1002000051F1F4F0059791F13BC0ECE1F1E011827E
:10021000108281E090E09383828332C0ECE1F1E0D0
:100220001182108282E090E09383828329C0ECE106
:10023000F1E01182108283E090E09383828320C0FA
:10024000ECE1F1E081E090E09183808382E090E056
:100250009383828315C0ECE1F1E081E090E091832B
:10026000808383E090E0938382830AC0ECE1F1E035
:1002700082E090E09183808383E090E093838283A7
:100280008CE191E008952F923F924F925F926F928E
:100290007F928F929F92AF92BF92CF92DF92EF9216
:1002A000FF920F931F93CF93DF9300D000D0CDB771
:1002B000DEB75C014A013A832983062F172FF80124
:1002C00041905190619071908F011C821B82212C72
:1002D000312C12C0F801C190D190E190F1908F01C2
:1002E000A7019601C301B2010E943B11181624F424
:1002F000260137012B803C808B819C8101969C8359
:100300008B83069739F7822D932D0E94F500FC010F
:100310002081318142815381F501808191812817AB
:10032000390759F4F40131832083F50182819381E7
:10033000E981FA81918380833CC0F50162817381F8
:100340002617370759F4F40131832083F5018081A2
:100350009181E981FA81918380832BC048175907E5
:1003600059F4F40151834083F50182819381E9813D
:10037000FA81918380831DC04617570759F4F40111
:1003800051834083F50180819181E981FA819183D4
:1003900080830FC06A9A729AF50182819381F40179
:1003A00091838083F50180819181E981FA81918334
:1003B00080830F900F900F900F90DF91CF911F913E
:1003C0000F91FF90EF90DF90CF90BF90AF909F90F4
:1003D0008F907F906F905F904F903F902F900895F7
:1003E0002F923F924F925F926F927F928F929F9245
:1003F000AF92BF92CF92DF92EF92FF920F931F9333
:10040000CF93DF93CDB7DEB7C254D1090FB6F894BE
:10041000DEBF0FBECDBF2C01FC010480F581E02DB5
:10042000FAA3E9A3FC010081118169A17AA1601BF3
:10043000710B072E000C880B990B0E9425106B0185
:100440007C01F2010680F781E02DFEA3EDA3F2010D
:1004500022803380ADA0BEA0A218B3089B01AC01DE
:100460000E94481169A77AA78BA79CA7AA9C400164
:10047000AB9C900C900C1124092C000CAA08BB0812
:10048000A7019601C701B6010E9448116B017C01CA
:10049000C501B4010E9425109B01AC01C701B60142
:1004A0000E94930E0E94C3116BAF7CAF8DAF9EAFC5
:1004B000F2010084F185E02DFAA7E9A7BF01601BD6
:1004C000710B072E000C880B990B0E9425106B01F5
:1004D0007C01F201628473845301A218B3089B016A
:1004E000AC010E9448116DA77EA78FA798ABAA9C6C
:1004F0004001AB9C900C900C1124092C000CAA0814
:10050000BB08A7019601C701B6010E9448116B0103
:100510007C01C501B4010E9425109B01AC01C701FB
:10052000B6010E94930E0E94C31123966CAF7DAF5B
:100530008EAF9FAF2397F2010484F585E02DFEA7CF
:10054000EDA7BF01601B710B072E000C880B990BE8
:100550000E9425104B015C01F2010684F785E02D15
:10056000FAABE9AB8F01021913099B01AC010E94A0
:1005700048116BAB7CAB8DAB9EAB009F6001019FC4
:10058000D00CD00C11240D2C000CEE08FF08A50196
:100590009401C501B4010E9448114B015C01C701DF
:1005A000B6010E9425109B01AC01C501B4010E9457
:1005B000930E0E94C3116BAB7CAB8DAB9EAB69A558
:1005C0007AA529A13AA1621B730B072E000C880B98
:1005D000990B0E9425104B015C0183014DA15EA186
:1005E000041B150B9B01AC010E9448116FAB78AF47
:1005F00089AF9AAF009F6001019FD00CD00C1124ED
:100600000D2C000CEE08FF08A5019401C501B401F2
:100610000E9448114B015C01C701B6010E942510E0
:100620009B01AC01C501B4010E94930E0E94C3114D
:100630006FAB78AF89AF9AAF6DA57EA589A19AA15E
:10064000681B790B072E000C880B990B0E94251054
:100650004B015C0109A91AA9EDA1FEA10E1B1F0BFC
:100660009B01AC010E94481169A37AA38BA39CA3B0
:10067000009F6001019FD00CD00C11240D2C000CA8
:10068000EE08FF08A5019401C501B4010E944811BC
:100690004B015C01C701B6010E9425109B01AC0112
:1006A000C501B4010E94930E0E94C3114B015C016D
:1006B0006DA57EA529A53AA5621B730B072E000C1C
:1006C000880B990B0E94251069A37AA38BA39CA386
:1006D00009A91AA9061917099B01AC010E94481122
:1006E0006DA37EA38FA398A7009F6001019FD00CEC
:1006F000D00C11240D2C000CEE08FF0829A13AA102
:100700004BA15CA1CA01B9010E94481169A37AA357
:100710008BA39CA3C701B6010E9425109B01AC01CD
:1007200069A17AA18BA19CA10E94930E0E94C31182
:100730002BAD3CAD4DAD5EAD29833A834B835C83DD
:1007400023962CAD3DAD4EAD5FAD23972D833E83FB
:100750004F8358872BA93CA94DA95EA929873A87C1
:100760004B875C872FA938AD49AD5AAD2D873E87A1
:100770004F87588B898A9A8AAB8ABC8A6D8B7E8B0D
:100780008F8B988FAE014F5F5F4F7A0100E010E0D2
:10079000612C712CC12CD12C212C312CF701819092
:1007A0009190A190B1907F01262D372D4C2D5D2D7C
:1007B000C501B4010E943B11181634F4682C792C41
:1007C000CA2CDB2C202E312E0F5F1F4F0630110557
:1007D00029F7822D932D0E94F500FC01E080F18025
:1007E000FA8EE98E028113811C8F0B8FEE0CFF1C99
:1007F000EE0CFF1CE40CF51C000F111F000F111F65
:10080000040D151DF70160817181F80180819181CE
:10081000680F791F772314F46F5F7F4F7595679585
:10082000072E000C880B990B0E9425104B015C01D0
:10083000F70162817381F80182819381680F791FCA
:10084000772314F46F5F7F4F75956795072E000C23
:10085000880B990B0E94251069A37AA38BA39CA3F4
:100860009E01215E3F4FAE01435E5F4FBE016F5F51
:100870007F4FCE0149960E9443010D8D1E8D000FC2
:10088000111F000F111F040D151D2F8C38A0220CF5
:10089000331C220C331C240C351CF801608171813F
:1008A000F10180819181681B790B072E000C880B68
:1008B000990B0E9425106B017C01F8016281738104
:1008C000F10182819381681B790B072E000C880B44
:1008D000990B0E9425109058A70196010E94120FB3
:1008E0002BED3FE049EC5FE30E94930E6B017C012E
:1008F000A501940160E070E080E094E40E94920E13
:100900004B015C0129A13AA14BA15CA160E070E020
:100910008FEB93E40E94920E2B013C01C701B601BC
:100920000E94B51169A37AA38BA39CA3C701B6014A
:100930000E94760F6DA37EA38FA398A700E211E01B
:1009400029A13AA14BA15CA1C301B2010E944811A7
:1009500069A77AA78BA79CA72DA13EA14FA158A557
:10096000C501B4010E9448119B01AC0169A57AA59B
:100970008BA59CA50E94920EF801608371838283EF
:1009800093832DA13EA14FA158A5C301B2010E949E
:1009900048112B013C0129A13AA14BA15CA1C50141
:1009A000B4010E9448119B01AC01C301B2010E9435
:1009B000930EF8016483758386839783F7FAF09426
:1009C000F7F8F094C086D186E286F386C801CE5B44
:1009D000DF4F0FB6F894DEBF0FBECDBFDF91CF91D2
:1009E0001F910F91FF90EF90DF90CF90BF90AF904D
:1009F0009F908F907F906F905F904F903F902F903F
:100A000008954F925F926F927F92AF92BF92CF9272
:100A1000DF92EF92FF920F931F93CF93DF93CDB7A7
:100A2000DEB768970FB6F894DEBF0FBECDBFFC01EE
:100A30000DB71EB7808191819A83898380859185C6
:100A40009C838B83828193819E838D838285938512
:100A500098878F83848195819A87898784859585F6
:100A60009C878B87868197819E878D8786859785D2
:100A7000988B8F87FE01719688E0DF011D928A9521
:100A8000E9F7709720E030E080E090E0408151810C
:100A90004F3F534071F0DC01AA0FBB1F41E050E013
:100AA0004C0F5D1FA40FB51F51963C932E9350978A
:100AB00001962F5F3F4F34962430310539F7009768
:100AC00009F48BC0EDB6FEB66C01CC0CDD1CCC0C71
:100AD000DD1CADB7BEB7AC19BD090FB6F894BEBFEB
:100AE0000FBEADBFEDB7FEB731965F011816190600
:100AF00024F59E012F5E3F4FDF01CE0EDF1EF90170
:100B0000419151919F01FA01EE0FFF1FEE0FFF1F60
:100B100041E050E04C0F5D1FE40FF51F4081518113
:100B200011965C934E934281538113965C934E933E
:100B300012971496AC15BD0511F76E9A7698DB01E5
:100B40004D905D906D907C901397E8E3F1E04082CA
:100B500051826282738214964D905D906D907C906C
:100B60001797448255826682778218964D915D91DF
:100B70006D917C911B97408751876287738704979B
:100B800029F4C5010E94F001DC0102C0A8E3B1E034
:100B90004D915D916D917C911397ECE2F1E0408372
:100BA00051836283738314964D915D916D917C9115
:100BB0001797448355836683778318968D919D910B
:100BC0000D90BC91A02D80879187A287B3870FB627
:100BD000F894FEBE0FBEEDBE22C0FB018081918164
:100BE000A281B381ECE2F1E080839183A283B3839D
:100BF000DB011496CD90DD90ED90FC901797C482A8
:100C0000D582E682F78218964D915D916D917C9127
:100C10001B9740875187628773876E9A769A8CE21A
:100C200091E00FB6F8941EBF0FBE0DBF68960FB6C9
:100C3000F894DEBF0FBECDBFDF91CF911F910F9112
:100C4000FF90EF90DF90CF90BF90AF907F906F902C
:100C50005F904F900895E1E6F0E080E88083108295
:100C600050985198209A219A229A239A2898299844
:100C70002A982B980E94BC0A0E94DE0C8823E1F37C
:100C800078940895CF93DF93E1E8F0E080818B7F43
:100C9000808380818D7F808380818160808380815B
:100CA0008F7E8083808188608083E0E8F0E08081AF
:100CB0008D7F808380818E7F808380818F7D808304
:100CC00080818F7E8083C8E8D0E080E89EE39983AE
:100CD00088836881798180E090E00E9423102091D0
:100CE00010013091110140911201509113010E94A5
:100CF00048110E94F40F70938B0060938A00688102
:100D0000798180E090E00E94231020910C013091C5
:100D10000D0140910E0150910F010E9448110E9457
:100D2000F40F70938D0060938C00EFE6F0E080810B
:100D300082608083808184608083808188608083FA
:100D4000DF91CF910895E1E9F0E080818B7F80838E
:100D500080818D7F808380818160808380818F7E90
:100D60008083808188608083E0E9F0E080818D7FEE
:100D7000808380818E7F808380E89EE390939900BA
:100D80008093980008958F929F92AF92BF92CF92D6
:100D9000DF92EF92FF92CF93DF936B017C01EA0128
:100DA000B901330F880B990B0E942510A7019601FA
:100DB0000E9448114B015C01A701960160E070E0C0
:100DC00080E89FE30E94920E6B017C01BE01DD0F63
:100DD000880B990B0E9425109B01AC01C701B6013D
:100DE0000E9448119B01AC01C501B4010E94930E01
:100DF0000E94ED0FCB01DF91CF91FF90EF90DF903C
:100E0000CF90BF90AF909F908F9008958F929F92B8
:100E1000AF92BF92CF92DF92EF92FF926B017C0173
:100E20004B015C01E894B7F82BED3FE049E450E456
:100E3000C501B4010E943B111816BCF42BED3FE034
:100E400049EC50E4C701B6010E944811A501940184
:100E50000E947B0F9B01AC01C701B6010E94920E5C
:100E6000562F472F382F292F04C05C2D4D2D3E2D96
:100E70002F2D652F742F832F922FFF90EF90DF90EF
:100E8000CF90BF90AF909F908F9008954F925F92B8
:100E90006F927F928F929F92AF92BF92CF92DF928A
:100EA000EF92FF920F931F93CF93DF93CDB7DEB7EF
:100EB00028970FB6F894DEBF0FBECDBF2091580122
:100EC0003091590140915A0150915B0160914C0160
:100ED00070914D0180914E0190914F010E94920EB0
:100EE0000E9406072B013C012091480130914901E5
:100EF00040914A0150914B010E94920E2FE632E13F
:100F000043E85AE30E947B0F20E030E0A9010E94F1
:100F100048119B01AC01C301B2010E94920E4092A4
:100F200048015092490160924A0170924B012BEDA9
:100F30003FE049E450E40E947B0F6B017C01F7FA2B
:100F4000F094F7F8F094C0921001D0921101E09261
:100F50001201F092130160930C0170930D018093C4
:100F60000E0190930F0120915C0130915D01409141
:100F70005E0150915F01609150017091510180912B
:100F80005201909153010E94920E4B015C012091FD
:100F90006001309161014091620150916301609163
:100FA00054017091550180915601909157010E9412
:100FB000920E69837A838B839C83C301B2010E9462
:100FC000760F2B013C01A5019401C501B4010E94DB
:100FD00048116D837E838F839887A5019401C50195
:100FE000B4010E9448114B015C0129813A814B8177
:100FF0005C81CA01B9010E9448119B01AC01C50185
:10100000B4010E94930E0E94C3119B01AC01C30165
:10101000B2019F770E94481160934401709345018B
:10102000809346019093470120E030E0A901C70179
:10103000B6010E94710F882314F4299801C0299ADF
:1010400020E030E0A90160910C0170910D018091C8
:101050000E0190910F010E94710F882314F42B98B8
:1010600001C02B9A8091100190911101A091120161
:10107000B0911301BC01CD019F7760931001709373
:101080001101809312019093130180900C019090B4
:101090000D01A0900E01B0900F01E894B7F8809276
:1010A0000C0190920D01A0920E01B0920F01D62E6C
:1010B000E72EF82EC92E2DEC3CEC4CE45EE30E94AA
:1010C0003B1118160CF048C0582C692C7A2C8B2C2C
:1010D00026E636E646E65FE36D2D7E2D8F2D9C2DB0
:1010E0000E944811D62EE72EF82EC92E26E636E6A7
:1010F00046E65FE3652D762D872D982D0E944811D9
:10110000462E972EA82EB92E562E672E782E892E73
:101110002DEC3CEC4CE45EE36D2D7E2D8F2D9C2D53
:101120000E943B111816A4F28D2D9E2DAF2DBC2DC3
:101130008093100190931101A0931201B0931301B9
:10114000842D992DAA2DBB2D80930C0190930D0118
:10115000A0930E01B0930F01C0900C01D0900D012F
:10116000E0900E01F0900F012DEC3CEC4CE45EE3BE
:101170006C2D7D2D8E2D9F2D0E943B1118160CF08D
:1011800048C0409010015090110160901201709081
:10119000130126E636E646E65FE3642D752D862DBF
:1011A000972D0E944811862E972EA82EB92E26E63E
:1011B00036E646E65FE36C2D7D2D8E2D9F2D0E9439
:1011C0004811C62ED72EE82EF92E482C592C6A2C01
:1011D0007B2C2DEC3CEC4CE45EE30E943B1118169A
:1011E000C4F2882D992DAA2DBB2D809310019093C8
:1011F0001101A0931201B09313018C2D9D2DAE2DE2
:10120000BF2D80930C0190930D01A0930E01B0931C
:101210000F0108E810E0F8016081718180E090E042
:101220000E94231020911001309111014091120170
:10123000509113010E9448110E94F40F70938B008B
:1012400060938A00F8016081718180E090E00E94E3
:10125000231020910C0130910D0140910E0150910D
:101260000F010E9448110E94F40F70938D0060934B
:101270008C0028960FB6F894DEBF0FBECDBFDF916D
:10128000CF911F910F91FF90EF90DF90CF90BF9083
:10129000AF909F908F907F906F905F904F90089548
:1012A0008F929F92AF92BF92CF92DF92EF92FF9276
:1012B0000F931F93CF93DF93CDB7DEB760970FB631
:1012C000F894DEBF0FBECDBF89E691E00E94FF0D0E
:1012D000E9E6F1E062817381E680F780408551851F
:1012E0000485158526853785A289B38984899589E2
:1012F0000190F081E02DFA83E983FC82EB821E836A
:101300000D83B887AF837A8769875C874B873E8771
:101310002D87988B8F8760E071E0CE0101960E9447
:1013200001058C019093680180936701FC01808521
:101330009185A285B3858093080190930901A093BC
:101340000A01B0930B0160857185828593850E94A7
:1013500006076B017C01F80160877187828793879C
:1013600060817181828193810E94ED0F4B015C014C
:1013700060916001709161018091620190916301BF
:101380000E94ED0F9401AB0166E676E686E69FE3E8
:101390000E94C306BC01990F880B990B0E9425106F
:1013A0006093600170936101809362019093630187
:1013B000F80164817581868197810E94ED0F4B0150
:1013C0005C0160915C0170915D0180915E01909182
:1013D0005F010E94ED0F9401AB0166E676E686E6BA
:1013E0009FE30E94C306BC01990F880B990B0E94D2
:1013F000251060935C0170935D0180935E01909372
:101400005F01C701B6010E94ED0F6B017C01609185
:1014100058017091590180915A0190915B010E948D
:10142000ED0F9601AB0166E676E686E69FE30E9445
:10143000C306BC01990F880B990B0E94251060937D
:1014400058017093590180935A0190935B01C19B9D
:1014500035C0C19A209160013091610140916201D3
:101460005091630160915401709155018091560132
:10147000909157010E94920E6B017C0120915C01BA
:1014800030915D0140915E0150915F01609150018A
:101490007091510180915201909153010E94920EDE
:1014A000A70196010E94120F60934C0170934D01A9
:1014B00080934E0190934F010E944607E0E0F1E0D7
:1014C0008091600190916101A0916201B0916301EE
:1014D00080839183A283B38380915C0190915D01AD
:1014E000A0915E01B0915F0184839583A683B78349
:1014F00060960FB6F894DEBF0FBECDBFDF91CF91DF
:101500001F910F91FF90EF90DF90CF90BF90AF9021
:101510009F908F9008956E9A76980E942B060E9455
:10152000CD0A0E9442060E94A3066A9A72980E94FF
:101530005009FDCF1F920F920FB60F921124289AD7
:101540002A9A0F900FBE0F901F9018951F920F921E
:101550000FB60F92112428980F900FBE0F901F9076
:1015600018951F920F920FB60F9211242A980F9080
:101570000FBE0F901F901895589A599A5A9A8CE05E
:101580008093B800E9E6F0E080818062808380810A
:101590008F7E8083EA9A7894089581E08093D700C3
:1015A00080EA8093D80082E189BD09B400FEFDCFB6
:1015B00080E98093D8001092E000109266011092AA
:1015C00064018CE08093E200789408951F920F925A
:1015D0000FB60F9211248F939F93EF93FF93E1EE39
:1015E000F0E08081108283FF11C01092E90091E049
:1015F0009093EB001092EC0092E19093ED0098E054
:101600009093F000109266011092640182FF13C063
:1016100080916601882379F080916501882359F0D3
:10162000815080936501811106C084E08093E900B8
:101630008AE38093E800FF91EF919F918F910F9043
:101640000FBE0F901F9018951F920F920FB60F921A
:1016500011240F931F932F933F934F935F936F9397
:101660007F938F939F93AF93BF93CF93DF93EF932A
:10167000FF931092E9008091E80083FF4CC1E1EFF5
:10168000F0E0608180812081908130E0392B4081C1
:10169000908150E0592B7081C08192EF9093E800C7
:1016A000863009F058C004C081E28093EB003AC153
:1016B00066E088EF90E0FC01A591B4912A173B0702
:1016C00011F0079623C0FC013296A591B4914A17F8
:1016D0005B0711F007961AC0FC01349645915491AE
:1016E000FC0136962491872F90E09C2B8F3F91052B
:1016F00019F010F08FEF90E0821708F4282FA8EE71
:10170000B0E070E16EEFC1EFD0E003C0615099F638
:10171000CBCF8C91982F9570E1F382FD03C1322FCE
:10172000213108F0372F332309F4F9C0FA01832F50
:1017300094919883815031968111FACF8FEF830F66
:1017400090E00196480F591F231B6C932111E1CFA4
:101750003031F9F2E7C0853061F48EEF8093E80014
:10176000E8EEF0E0808180FFFDCF20682093E30069
:10177000D9C0893009F035C06111CDC02093660110
:1017800010926401109265018EEF8093E80081E071
:1017900021EA31E0C9EED0E0ABEEB0E00CEE10E0B3
:1017A0006DEE70E08883A9014F5F5F4FF90194915E
:1017B0009C93992361F0FA014491F8014083F90167
:1017C000329694912D5F3F4FFB01908301C09A01A7
:1017D0008F5F853039F7EAEEF0E08EE1808310828A
:1017E000A1C0883081F4603809F095C0E8EEF0E0DF
:1017F000808180FFFDCF809166018093F1008EEFA4
:101800008093E8008FC08132B9F4613A09F083C057
:10181000E8EEF0E0808180FFFDCFE4E1F1E02BE134
:1018200031E0A1EFB0E081918C93E217F307D9F793
:101830008EEF8093E80076C08032D1F4613209F0F7
:101840006AC0E8EEF0E0808182FFFDCFE4E1F1E0E4
:101850002BE131E0A1EFB0E08C918193E217F30727
:10186000D9F7E8EEF0E08BEF80838EEF80835AC0EB
:10187000823271F4613209F04EC020936401E8EEC7
:10188000F0E0808180FFFDCF8EEF8093E8004AC0BA
:1018900081111AC0E8EEF0E0808180FFFDCF623850
:1018A00051F4E9EEF0E040838091EB0085FB88275E
:1018B00080F9108201C080E0E1EFF0E080831082C7
:1018C0008EEF8093E8002EC0982F9D7F913019F500
:1018D000623009F5232BF9F44F779FEF940F943082
:1018E000D0F49EEF9093E8004093E900833021F418
:1018F00081E28093EB0016C089E18093EB0081E0E8
:1019000090E002C0880F991F4A95E2F7EAEEF0E0F6
:101910008083108207C081E28093EB0003C06C9348
:101920002111F7CEFF91EF91DF91CF91BF91AF9150
:101930009F918F917F916F915F914F913F912F91E7
:101940001F910F910F900FBE0F901F90189520E0E0
:1019500030E0ECEBF0E08081882334F02F5F3F4FE4
:10196000293E83E03807B9F781E0283E334009F487
:1019700080E008958093BB0084E88093BC000E94BF
:10198000A70C882319F08091B900887F0895CF9320
:10199000C82F94EA9093BC000E94A70C882361F0A2
:1019A0008C2F880F0E94BA0C803229F484E980932E
:1019B000BC0080E001C081E0CF9108950E94BC0A84
:1019C00088E50E94C70C882309F4CDC080E30E94FB
:1019D000BA0C882309F4C9C081E00E94BA0C88239C
:1019E00009F4C5C084E98093BC0083EC99E00197B9
:1019F000F1F700C0000088E50E94C70C882309F4B5
:101A0000B8C080E00E94BA0C882309F4B4C080E01A
:101A10000E94BA0C882309F4B0C080E00E94BA0C7E
:101A2000882309F4ACC080E00E94BA0C882309F432
:101A3000A8C080E00E94BA0C882309F4A4C080E00A
:101A40000E94BA0C882309F4A0C080E00E94BA0C5E
:101A5000882309F49CC080E90E94BA0C882309F409
:101A600098C084E98093BC0083EC99E00197F1F77A
:101A700000C0000088E50E94C70C882309F48BC0D1
:101A800087E00E94BA0C882309F487C080E00E9496
:101A9000BA0C882309F483C081E40E94BA0C88231D
:101AA00009F47FC084E98093BC0083EC99E001973E
:101AB000F1F700C0000088E50E94C70C882309F4F4
:101AC00072C08AE10E94BA0C882309F46EC080E4D7
:101AD0000E94BA0C882309F46AC080E00E94BA0C04
:101AE000882309F466C084E98093BC0083EC99E004
:101AF0000197F1F700C0000088E50E94C70C882319
:101B000009F459C083E30E94BA0C882309F455C034
:101B100083E00E94BA0C882309F451C084E98093C1
:101B2000BC0083EC99E00197F1F700C0000088E564
:101B30000E94C70C882309F444C080E30E94BA0CB9
:101B4000882309F440C088E00E94BA0C8823E9F198
:101B500084E98093BC0083EC99E00197F1F700C021
:101B6000000081E0089580E0089580E0089580E01D
:101B7000089580E0089580E0089580E0089580E071
:101B8000089580E0089580E0089580E0089580E061
:101B9000089580E0089580E0089580E0089580E051
:101BA000089580E0089580E0089580E0089580E041
:101BB000089580E0089580E0089580E0089580E031
:101BC000089580E0089580E0089580E00895CF931F
:101BD000C82F84EA8093BC000E94A70C882369F078
:101BE0008C2F880F8F5F0E94BA0C883429F484E907
:101BF0008093BC0080E001C081E0CF9108950F93F5
:101C00001F93CF93DF93CDB7DEB760970FB6F894ED
:101C1000DEBF0FBECDBF8C01FE01319680E1DF013A
:101C20001D928A95E9F788E50E94C70C882309F47C
:101C300069C086E30E94BA0C882309F465C084E970
:101C40008093BC00B8E0BA95F1F7000088E50E94E7
:101C5000E70D882309F45AC0BE016F5F7F4FAE01C4
:101C6000405F5F4FECEBF0E084EC2BEB30E08083E7
:101C700090819923ECF7D9019C91DB019D93BD01E3
:101C8000A417B507A1F784E88093BC00ECEBF0E063
:101C900080818823ECF78091BB00888B84E9809356
:101CA000BC00BE016C5F7F4FF801085E1F4FDB0177
:101CB0002C91322F3073CB010297DC018C9190E094
:101CC000B0E13B9F800D911D112491838083422FB1
:101CD000407C50E0440F551F440F551FCB01019726
:101CE000DC018C91480F511D538342832F7030E0EB
:101CF000358324836D5F7F4F3696E017F107B9F681
:101D000081E005C080E003C080E001C080E0609613
:101D10000FB6F894DEBF0FBECDBFDF91CF911F91FC
:101D20000F9108955058BB27AA270E94AA0E0C9421
:101D3000ED100E94B41038F00E94BB1020F039F46E
:101D40009F3F19F426F40C948A100EF4E095E7FBFB
:101D50000C948410E92F0E94121158F3BA176207ED
:101D600073078407950720F079F4A6F50C943411D5
:101D70000EF4E0950B2EBA2FA02D0B01B9019001A6
:101D80000C01CA01A0011124FF27591B99F0593FEA
:101D900050F4503E68F11A16F040A22F232F342F32
:101DA0004427585FF3CF469537952795A795F04080
:101DB0005395C9F77EF41F16BA0B620B730B840B95
:101DC000BAF09150A1F0FF0FBB1F661F771F881F4D
:101DD000C2F70EC0BA0F621F731F841F48F48795A5
:101DE00077956795B795F7959E3F08F0B0CF939597
:101DF000880F08F09927EE0F9795879508950E9410
:101E0000B41060F080E891E009F49EEF0E94BB10EE
:101E100028F040E851E071F45EEF0CC00C948A1099
:101E20000C943411E92FE0780E94121140F3092E2E
:101E3000052AB1F3261737074807590738F00E2E41
:101E400007F8E02569F0E025E0640AC0EF6307F8D1
:101E5000009407FADB01B9019D01DC01CA01AD0163
:101E6000EF930E94920F0E94ED100E94420F5F912B
:101E7000552339F02BED3FE049E450FD49EC0C943B
:101E8000930E0895DF93DD27B92FBF7740E85FE316
:101E90001616170648075B0718F4D92F0E94401141
:101EA0009F938F937F936F930E940312ECEAF0E06D
:101EB0000E948D100E94ED102F913F914F915F91E4
:101EC0000E945B11DD2351F09058A2EA2AED3FE019
:101ED00049EC5FE3D0785D270E94AA0EDF910C9455
:101EE000ED100E94601008F481E008950E94C41073
:101EF000E3950C94FE100E948F0F0C94ED100E943D
:101F0000BB1058F00E94B41040F029F45F3F29F054
:101F10000C94841051110C9435110C948A100E9469
:101F2000121168F39923B1F3552391F3951B550BC7
:101F3000BB27AA2762177307840738F09F5F5F4F9C
:101F4000220F331F441FAA1FA9F335D00E2E3AF0DB
:101F5000E0E832D091505040E695001CCAF72BD0F3
:101F6000FE2F29D0660F771F881FBB1F2617370744
:101F70004807AB07B0E809F0BB0B802DBF01FF2776
:101F800093585F4F3AF09E3F510578F00C948410BF
:101F90000C9435115F3FE4F3983ED4F38695779522
:101FA0006795B795F7959F5FC9F7880F911D96952F
:101FB000879597F90895E1E0660F771F881FBB1F8B
:101FC000621773078407BA0720F0621B730B840B38
:101FD000BA0BEE1F88F7E09508950E94F40F6894FD
:101FE000B1110C94351108950E941A1188F09F5771
:101FF00098F0B92F9927B751B0F0E1F0660F771F2D
:10200000881F991F1AF0BA95C9F714C0B13091F022
:102010000E943411B1E008950C943411672F782F89
:102020008827B85F39F0B93FCCF3869577956795E7
:10203000B395D9F73EF490958095709561957F4F53
:102040008F4F9F4F0895E89409C097FB3EF49095F9
:102050008095709561957F4F8F4F9F4F9923A9F081
:10206000F92F96E9BB279395F69587957795679510
:10207000B795F111F8CFFAF4BB0F11F460FF1BC054
:102080006F5F7F4F8F4F9F4F16C0882311F096E9E7
:1020900011C0772321F09EE8872F762F05C0662395
:1020A00071F096E8862F70E060E02AF09A95660F4E
:1020B000771F881FDAF7880F9695879597F9089507
:1020C000990F0008550FAA0BE0E8FEEF1616170649
:1020D000E807F907C0F012161306E407F50798F0B1
:1020E000621B730B840B950B39F40A2661F0232BCA
:1020F000242B252B21F408950A2609F4A140A69546
:102100008FEF811D811D089597F99F6780E870E02A
:1021100060E008959FEF80EC0895DF93CF931F93C5
:102120000F93FF92EF92DF927B018C01689406C0BF
:10213000DA2EEF010E945B11FE01E894A591259132
:10214000359145915591A6F3EF010E94AA0EFE012B
:102150009701A801DA9469F7DF90EF90FF900F9153
:102160001F91CF91DF91089500240A941616170647
:1021700018060906089500240A9412161306140678
:10218000050608950C948A100E941A11D8F3E89459
:10219000E0E0BB279F57F0F02AED3FE049EC06C096
:1021A000EE0FBB0F661F771F881F28F0B23A620739
:1021B0007307840728F0B25A620B730B840BE39504
:1021C0009A9572F7803830F49A95BB0F661F771F87
:1021D000881FD2F790480C940912092E0394000C22
:1021E00011F4882352F0BB0F40F4BF2B11F460FFB1
:1021F00004C06F5F7F4F8F4F9F4F0895EF93E0FFB5
:1022000007C0A2EA2AED3FE049EC5FEB0E94AA0E6C
:102210000E94ED100F90039401FC9058E9EDF0E05E
:102220000C941C1257FD9058440F551F59F05F3FF6
:1022300071F04795880F97FB991F61F09F3F79F0E8
:1022400087950895121613061406551FF2CF46956A
:10225000F1DF08C0161617061806991FF1CF8695EC
:102260007105610508940895E894BB2766277727D0
:10227000CB0197F908950E94601008F48FEF08953C
:102280009B01AC0160E070E080E89FE30C947B0F61
:102290000E945B110C94ED100E94B41038F00E9463
:1022A000BB1020F0952311F00C9484100C948A102C
:1022B00011240C9435110E94121170F3959FC1F3F3
:1022C000950F50E0551F629FF001729FBB27F00DE4
:1022D000B11D639FAA27F00DB11DAA1F649F662739
:1022E000B00DA11D661F829F2227B00DA11D621F88
:1022F000739FB00DA11D621F839FA00D611D221F42
:10230000749F3327A00D611D231F849F600D211D25
:10231000822F762F6A2F11249F5750409AF0F1F0A8
:1023200088234AF0EE0FFF1FBB1F661F771F881F11
:1023300091505040A9F79E3F510580F00C948410B5
:102340000C9435115F3FE4F3983ED4F3869577956E
:102350006795B795F795E7959F5FC1F7FE2B880FB7
:10236000911D9695879597F908959F930E94C410A3
:102370000F9007FCEE5F0C94FE1019F416F40C9409
:102380008A100C9407120E941A11B8F39923C9F30A
:10239000B6F39F57550B87FF0E9415120024A0E645
:1023A00040EA900180585695979528F4805C660F16
:1023B000771F881F20F026173707480730F4621B65
:1023C000730B840B202931294A2BA6951794079467
:1023D000202531254A2758F7660F771F881F20F0E0
:1023E00026173707480730F4620B730B840B200D58
:1023F000311D411DA09581F7B901842F9158880F97
:102400009695879508959B01AC010C9448119F3FC8
:1024100031F0915020F4879577956795B795880F9F
:10242000911D9695879597F9089591505040660FA4
:10243000771F881FD2F708959F938F937F936F9391
:10244000FF93EF939B01AC010E944811EF91FF9124
:102450000E948D102F913F914F915F910C944811E4
:04246000F894FFCF1E
:1024640000C07F4400C07F440000B443CDCCCC3DC9
:0C247400CDCCCC3D00E1000000000800D1
:00000001FF
