:100000000C94DE000C94FB000C94FB000C94FB00A1
:100010000C94FB000C94FB000C94FB000C94FB0074
:100020000C94FB000C94FB000C940C060C944A06F8
:100030000C94FB000C94FB000C94FB000C94FB0054
:100040000C94FB000C94FB000C94FB000C94FB0044
:100050000C94FB000C94FB000C94FB000C94FB0034
:100060000C94FB000C94FB000C94FB000C94FB0024
:100070000C94FB000C94FB000C94FB000C94FB0014
:100080000C94FB000C94FB000C94FB000C94FB0004
:100090000C94FB000C94FB000C94FB000C94FB00F4
:1000A0000C94FB000C94FB000C94FB00084AD73B1B
:1000B0003BCE016E84BCBFFDC12F3D6C74319ABD37
:1000C00056833DDA3D00C77F11BED9E4BB4C3E915B
:1000D0006BAAAABE000000803F05A84CCDB2D44E4A
:1000E000B93836A9020C50B9918688083CA6AAAA4C
:1000F0002ABE000000803F00202000202079203D03
:1001000020000A78203D2000000100009F0112001D
:100110000200005C014300030000580104010309D0
:1001200004440112020309043C01060303090432DA
:1001300001080803340031003000000006034D00C0
:100140003200000012034A002E0020004600690021
:1001500065006E0065000000040309040902430005
:10016000020100C03209040000010202010005245E
:1001700000100105240101010424020605240600E3
:10018000010705820310004009040100020A000073
:10019000000705030240000007058402400000122A
:1001A00001000202000010C0167A040001010203DF
:1001B000010001C1120180360181360011241FBEE9
:1001C000CFEFDAE0DEBFCDBF11E0A0E0B1E0EEE5B9
:1001D000FBE102C005900D92AC30B107D9F721E0E8
:1001E000ACE0B1E001C01D92A832B207E1F70E9475
:1001F00030050C94AD0D0C9400008330910501F195
:1002000034F48130910551F0029789F042C0853075
:10021000910551F1F4F0069791F13BC0ECE0F1E06B
:100220001182108281E090E09383828332C0ECE0FF
:10023000F1E01182108282E090E09383828329C0F2
:10024000ECE0F1E01182108283E090E093838283FE
:1002500020C0ECE0F1E081E090E09183808382E0D7
:1002600090E09383828315C0ECE0F1E081E090E0C0
:100270009183808383E090E0938382830AC0ECE0E3
:10028000F1E082E090E09183808383E090E09383CB
:1002900082838CE091E00895EF92FF920F931F9379
:1002A000CF93DF93EC017A018901E62FF72F21919B
:1002B000319160E070E080E090E008C0A191B191E0
:1002C000A217B3071CF49D01862F972F6F5F7F4FF6
:1002D0006630710599F70E94FD00FC012081318193
:1002E000488159812417350749F4F7013183208368
:1002F0008A819B81F8019183808325C06A817B81FB
:100300002617370749F4F7013183208388819981C3
:10031000F8019183808317C0FC0182819381481783
:10032000590749F4F701518340838A819B81F80181
:100330009183808308C0F7017183608388819981EC
:10034000F80191838083DF91CF911F910F91FF90EE
:10035000EF9008952F923F924F925F926F927F920B
:100360008F929F92AF92BF92CF92DF92EF92FF92C5
:100370000F931F93CF93DF93CDB7DEB7A8970FB638
:10038000F894DEBF0FBECDBF1C01DC0114960D90AA
:10039000BC91A02DBA8BA98BFC01E080F180CD012E
:1003A0008E199F09268137813E8B2D8B0281138107
:1003B000201B310B889F4001899F900C900C1124C9
:1003C000229FC001239F900D900D1124880E991E2D
:1003D000092C000CAA08BB08C501B4010E94920BAD
:1003E0000E94070D6D8F7E8F8F8F98A3D101189675
:1003F000AD90BC901997C5018E199F091A966D9002
:100400007C901B979301201B310B889F4001899F93
:10041000900C900C1124229FC001239F900D900DF1
:100420001124880E991E9401990C440B550B298FA9
:100430003A8F4B8F5C8F698D7A8D8B8D9C8D0E944E
:10044000920B0E94070D698F7A8F8B8F9C8FD10141
:100450001C968D909C901D97C4018E199F091E9625
:100460004D905C901F979201201B310B889F60017B
:10047000899FD00CD00C1124229FC001239F900D86
:10048000900D1124C80ED91E0D2C000CEE08FF088B
:10049000C701B6010E94920B0E94070D69A37AA3BF
:1004A0008BA39CA3C501E989FA898E1B9F0B93013D
:1004B0004D895E89241B350B889F6001899FD00C74
:1004C000D00C1124229FC001239F900D900D112468
:1004D000C80ED91E0D2C000CEE08FF08C701B6018E
:1004E0000E94920B0E94070D6DA37EA38FA398A775
:1004F000C401A989BA898A1B9B0B9201ED89FE89E7
:100500002E1B3F0B889F6001899FD00CD00C1124BB
:10051000229FC001239F900D900D1124C80ED91E5B
:100520000D2C000CEE08FF08C701B6010E94920BCB
:100530000E94070D698B7A8B8B8B9C8B94012A19F7
:100540003B09C20186199709229F6001239FD00CA5
:10055000D00C1124889F9001899F300D300D1124FB
:10056000C20ED31E0D2C000CEE08FF08C701B60109
:100570000E94920B0E94070D6B017C016D8D7E8D98
:100580008F8D98A10E945A0B7A836983698D7A8D29
:100590008B8D9C8D0E945A0B7C836B8369A17AA101
:1005A0008BA19CA10E945A0B7E836D836DA17EA1BD
:1005B0008FA198A50E945A0B78876F8369897A89E1
:1005C0008B899C890E945A0B7A876987C701B6017B
:1005D0000E945A0B7C876B87FE01319620E030E049
:1005E00060E070E080E090E0419151916417750700
:1005F0001CF4BA01822F932F2F5F3F4F2630310515
:1006000099F70E94FD00FC01A081B181AA0FBB1FD8
:10061000AA0FBB1FA20DB31D22813381F901EE0F7A
:10062000FF1FEE0FFF1FE20DF31D0D911C9111979F
:1006300020813181020F131F112314F40F5F1F4F0C
:10064000159507951296AD90BC9013972281338132
:10065000A20EB31EBB201CF4FFEFAF1ABF0AB59465
:10066000A7949E01215F3F4FAE01435F5F4FBE01E4
:100670006F5F7F4F0E944C01ED84FE84EE0CFF1CE7
:10068000EE0CFF1CE20CF31C8F859889880F991FD4
:10069000880F991F280E391ED7016D917C91F101A9
:1006A00080819181681B790B072E000C880B990BB8
:1006B0000E94920B2B013C01D70112966D917C9107
:1006C0001397F10182819381681B790B072E000C2F
:1006D000880B990B0E94920B9058A30192010E94E3
:1006E000880A2BED3FE049EC5FE30E94090A2B01E9
:1006F0003C010E94F90C6B017C016EE771E06A1904
:100700007B09072E000C880B990B0E94920B4B0162
:100710005C01C301B2010E94E70A698B7A8B8B8B63
:100720009C8B60E072E0601B710B072E000C880B45
:10073000990B0E94920B2B013C010CE111E0A501E9
:100740009401C701B6010E948C0C6D8B7E8B8F8B40
:10075000988FA301920169897A898B899C890E946B
:100760008C0C9B01AC016D897E898F89988D0E94CC
:10077000080A0E945A0BD8016D937C9329893A8903
:100780004B895C89C501B4010E948C0C4B015C0152
:10079000A3019201C701B6010E948C0C9B01AC0120
:1007A000C501B4010E94090A0E945A0BF801738323
:1007B0006283C801A8960FB6F894DEBF0FBECDBF06
:1007C000DF91CF911F910F91FF90EF90DF90CF902D
:1007D000BF90AF909F908F907F906F905F904F9061
:1007E0003F902F900895AF92BF92CF92DF92EF92F9
:1007F000FF920F931F93CF93DF93CDB7DEB7689728
:100800000FB6F894DEBF0FBECDBFFC01EDB6FEB64D
:10081000808191819A838983808591859C838B8354
:10082000828193819E838D838285938598878F8330
:10083000848195819A878987848595859C878B8714
:10084000868197819E878D8786859785988B8F87F0
:100850009E012F5F3F4F6901AE014F5E5F4FF9016F
:100860006FEF73E00CC0D90111967C936E931396D1
:100870007C936E9312973496E417F50761F09F010D
:10088000808191818F3F934071F3828193818F3F6B
:10089000934089F7E8CFFE01719688E0DF011D9251
:1008A0008A95E9F720E030E000E010E0F601808171
:1008B00091818F3F934071F00F5F1F4FF801EE0F52
:1008C000FF1FAA24A394B12CAC0EBD1EEA0DFB1D84
:1008D000318B208B2F5F3F4F44E0C40ED11C24305E
:1008E000310521F7C8010E94E9070115110509F436
:1008F0008AC0CDB6DEB6B801660F771F660F771FC8
:100900008DB79EB7861B970B0FB6F8949EBF0FBE90
:100910008DBF0196101611067CF5AE014F5E5F4F3C
:10092000DC01680F791FFA0121913191AF01F901C2
:10093000EE0FFF1FEE0FFF1FAA24A394B12CAC0EE5
:10094000BD1EEA0DFB1D0280F381E02D1396FC9382
:10095000EE931297F9013196EE0FFF1FEE0FFF1F76
:10096000EA0DFB1D2081318115963C932E9314973F
:100970001496A617B707B9F66E9A76980230110545
:10098000C9F024F401301105F9F028C00330110535
:1009900039F00430110511F50E94AA01DC0120C0D4
:1009A000E8E1F1E08FEF93E091838083938382838A
:1009B000DF0116C0E4E1F1E08FEF93E091838083E3
:1009C00093838283DF010CC0E0E1F1E08FEF93E0DD
:1009D0009183808393838283DF0102C0A0E0B1E032
:1009E0008D919C911197E0E2F1E0918380831296C2
:1009F0008D919C911397938382830FB6F894DEBEFA
:100A00000FBECDBE0AC0E0E2F1E08FEF93E091832C
:100A10008083938382836E9A769A80E291E00FB608
:100A2000F894FEBE0FBEEDBE68960FB6F894DEBF1A
:100A30000FBECDBFDF91CF911F910F91FF90EF902F
:100A4000DF90CF90BF90AF9008956E9A76980E94F5
:100A500054088823E1F36E9A769A0E9498050895C7
:100A6000CF93DF93CDB7DEB7AC970FB6F894DEBF68
:100A70000FBECDBF0E9425056A9A72988FEF93E052
:100A80009A8F898F9C8F8B8FCE0101960E9475095A
:100A90006B817C810F81188549855A85AD85BE851E
:100AA0002F853889EB89FC898D899E89E980FA80B8
:100AB000FE8EED8E18A30F8FBAA3A9A3FCA3EBA300
:100AC0007EA36DA358A74FA33AA729A79CA78BA7DE
:100AD000BE01675E7F4FCE014D960E94F3038C01ED
:100AE00082E091E00E94CD07F801808191810E940F
:100AF000E9078BEF90E00E94CD07F8018281938196
:100B00000E94E90788EF90E00E94CD07BDCF589A78
:100B1000599A5A9A8CE08093B800E9E6F0E0808117
:100B20008062808380818F7E8083EA9A78940895A2
:100B300081E08093D70080EA8093D80082E189BD6C
:100B400009B400FEFDCF80E98093D8001092E00048
:100B500010922701109224018CE08093E200789497
:100B60000895CF93DF9390912701992309F44CC006
:100B70009FB7F89424E02093E900209125012223D7
:100B800049F02091E80025FD03C09FBF8FEF41C0D1
:100B9000109225013091E400375E2091E80025FD98
:100BA00024C09FBF9091E400931781F0909127019A
:100BB000992361F1A9EEB0E044E0E8EEF0E0C4EE84
:100BC000D0E00DC09FBF9881931305C081E0809352
:100BD00025018FEF1EC0909127019923C9F09FB77F
:100BE000F8944C93208125FFEDCF8093F100809104
:100BF000E80085FD03C08AE38093E80085E08093E8
:100C000026019FBF80E005C08FEF03C08FEF01C0BA
:100C10008FEFDF91CF9108951F920F920FB60F9231
:100C200011248F939F93EF93FF93E1EEF0E0808187
:100C3000108283FF11C01092E90091E09093EB00C5
:100C40001092EC0092E19093ED0098E09093F00008
:100C5000109227011092240182FF13C08091270176
:100C6000882379F080912601882359F08150809360
:100C70002601811106C084E08093E9008AE3809315
:100C8000E800FF91EF919F918F910F900FBE0F9011
:100C90001F9018951F920F920FB60F9211240F9369
:100CA0001F932F933F934F935F936F937F938F93F4
:100CB0009F93AF93BF93CF93DF93EF93FF931092E4
:100CC000E9008091E80083FF4CC1E1EFF0E0608132
:100CD00080812081908130E0392B4081908150E0EB
:100CE000592B7081C08192EF9093E800863009F013
:100CF00058C004C081E28093EB003AC166E088E00E
:100D000091E0FC01A591B4912A173B0711F00796D9
:100D100023C0FC013296A591B4914A175B0711F0EC
:100D200007961AC0FC01349645915491FC01369601
:100D30002491872F90E09C2B8F3F910519F010F0A4
:100D40008FEF90E0821708F4282FA8EEB0E070E152
:100D50006EEFC1EFD0E003C0615099F6CBCF8C911C
:100D6000982F9570E1F382FD03C1322F213108F0F5
:100D7000372F332309F4F9C0FA01832F9491988314
:100D8000815031968111FACF8FEF830F90E0019659
:100D9000480F591F231B6C932111E1CF3031F9F219
:100DA000E7C0853061F48EEF8093E800E8EEF0E074
:100DB000808180FFFDCF20682093E300D9C0893077
:100DC00009F035C06111CDC0209327011092240194
:100DD000109226018EEF8093E80081E021EB31E054
:100DE000C9EED0E0ABEEB0E00CEE10E06DEE70E0DE
:100DF0008883A9014F5F5F4FF90194919C939923D8
:100E000061F0FA014491F8014083F901329694911E
:100E10002D5F3F4FFB01908301C09A018F5F8530AA
:100E200039F7EAEEF0E08EE180831082A1C08830CD
:100E300081F4603809F095C0E8EEF0E0808180FF31
:100E4000FDCF809127018093F1008EEF8093E80021
:100E50008FC08132B9F4613A09F083C0E8EEF0E066
:100E6000808180FFFDCFE4E0F1E02BE031E0A1EFF5
:100E7000B0E081918C93E217F307D9F78EEF80935E
:100E8000E80076C08032D1F4613209F06AC0E8EE41
:100E9000F0E0808182FFFDCFE4E0F1E02BE031E083
:100EA000A1EFB0E08C918193E217F307D9F7E8EE58
:100EB000F0E08BEF80838EEF80835AC0823271F432
:100EC000613209F04EC020932401E8EEF0E0808109
:100ED00080FFFDCF8EEF8093E8004AC081111AC0D9
:100EE000E8EEF0E0808180FFFDCF623851F4E9EE5A
:100EF000F0E040838091EB0085FB882780F9108229
:100F000001C080E0E1EFF0E0808310828EEF8093FB
:100F1000E8002EC0982F9D7F913019F5623009F5B9
:100F2000232BF9F44F779FEF940F9430D0F49EEF7A
:100F30009093E8004093E900833021F481E28093AC
:100F4000EB0016C089E18093EB0081E090E002C0E5
:100F5000880F991F4A95E2F7EAEEF0E0808310824D
:100F600007C081E28093EB0003C06C932111F7CEA0
:100F7000FF91EF91DF91CF91BF91AF919F918F91B1
:100F80007F916F915F914F913F912F911F910F91A1
:100F90000F900FBE0F901F9018950F931F93CF9334
:100FA0008C010F5F1F4FFC01C491CC2371F0CA303C
:100FB00019F48DE00E94B1058C2F0E94B105F80153
:100FC000C4910F5F1F4FC111F2CFCF911F910F91AD
:100FD0000895EF92FF920F931F93CF93DF93CDB7B6
:100FE000DEB727970FB6F894DEBF0FBECDBF8E01D8
:100FF0000F5F1F4F27E0F80111922A95E9F74AE0A9
:10100000B8010E94780D7E01F8E0EF0EF11CF801A6
:1010100081918F0181110E94B1050E151F05B9F74D
:1010200027960FB6F894DEBF0FBECDBFDF91CF91EC
:101030001F910F91FF90EF90089520E030E0ECEBCE
:10104000F0E08081882334F02F5F3F4F293E83E01A
:101050003807B9F781E0283E334009F480E008956D
:101060008093BB0084E88093BC000E941D08882305
:1010700019F08091B900887F0895CF93C82F94EA22
:101080009093BC000E941D08882361F08C2F880F6C
:101090000E943008803229F484E98093BC0080E00B
:1010A00001C081E0CF9108950E94870588E50E94E4
:1010B0003D08882309F4CDC080E30E9430088823CE
:1010C00009F4C9C081E00E943008882309F4C5C032
:1010D00084E98093BC0083EC99E00197F1F700C0AC
:1010E000000088E50E943D08882309F4B8C080E02C
:1010F0000E943008882309F4B4C080E00E943008C0
:10110000882309F4B0C080E00E943008882309F4E5
:10111000ACC080E00E943008882309F4A8C080E0B9
:101120000E943008882309F4A4C080E00E9430089F
:10113000882309F4A0C080E00E943008882309F4C5
:101140009CC080E90E943008882309F498C084E993
:101150008093BC0083EC99E00197F1F700C0000098
:1011600088E50E943D08882309F48BC087E00E942F
:101170003008882309F487C080E00E943008882363
:1011800009F483C081E40E943008882309F47FC0F9
:1011900084E98093BC0083EC99E00197F1F700C0EB
:1011A000000088E50E943D08882309F472C08AE1A6
:1011B0000E943008882309F46EC080E40E94300841
:1011C000882309F46AC080E00E943008882309F46B
:1011D00066C084E98093BC0083EC99E00197F1F745
:1011E00000C0000088E50E943D08882309F459C02A
:1011F00083E30E943008882309F455C083E00E94ED
:101200003008882309F451C084E98093BC0083EC42
:1012100099E00197F1F700C0000088E50E943D08C1
:10122000882309F444C080E30E943008882309F42D
:1012300040C088E00E9430088823E9F184E9809367
:10124000BC0083EC99E00197F1F700C0000081E059
:10125000089580E0089580E0089580E0089580E09A
:10126000089580E0089580E0089580E0089580E08A
:10127000089580E0089580E0089580E0089580E07A
:10128000089580E0089580E0089580E0089580E06A
:10129000089580E0089580E0089580E0089580E05A
:1012A000089580E0089580E0089580E0089580E04A
:1012B000089580E0089580E00895CF93C82F84EAD0
:1012C0008093BC000E941D08882369F08C2F880F32
:1012D0008F5F0E943008883429F484E98093BC0031
:1012E00080E001C081E0CF9108950F931F93CF93C9
:1012F000DF93CDB7DEB760970FB6F894DEBF0FBEB1
:10130000CDBF8C01FE01319680E1DF011D928A95EF
:10131000E9F788E50E943D08882309F469C086E35F
:101320000E943008882309F465C084E98093BC00DA
:10133000B8E0BA95F1F7000088E50E945D098823BE
:1013400009F45AC0BE016F5F7F4FAE01405F5F4F2F
:10135000ECEBF0E084EC2BEB30E080839081992380
:10136000ECF7D9019C91DB019D93BD01A417B50752
:10137000A1F784E88093BC00ECEBF0E08081882347
:10138000ECF78091BB00888B84E98093BC00BE01A0
:101390006C5F7F4FF801085E1F4FDB012C91322FED
:1013A0003073CB010297DC018C9190E0B0E13B9F60
:1013B000800D911D112491838083422F407C50E049
:1013C000440F551F440F551FCB010197DC018C9131
:1013D000480F511D538342832F7030E0358324839F
:1013E0006D5F7F4F3696E017F107B9F681E005C0D3
:1013F00080E003C080E001C080E060960FB6F89402
:10140000DEBF0FBECDBFDF91CF911F910F91089529
:101410005058BB27AA270E94200A0C94360C0E9421
:10142000FD0B38F00E94040C20F039F49F3F19F4B2
:1014300026F40C94D30B0EF4E095E7FB0C94CD0B43
:10144000E92F0E945B0C58F3BA17620773078407F1
:10145000950720F079F4A6F50C947D0C0EF4E09538
:101460000B2EBA2FA02D0B01B90190010C01CA015E
:10147000A0011124FF27591B99F0593F50F4503E09
:1014800068F11A16F040A22F232F342F4427585FFB
:10149000F3CF469537952795A795F0405395C9F713
:1014A0007EF41F16BA0B620B730B840BBAF09150CB
:1014B000A1F0FF0FBB1F661F771F881FC2F70EC06A
:1014C000BA0F621F731F841F48F48795779567953D
:1014D000B795F7959E3F08F0B0CF9395880F08F029
:1014E0009927EE0F9795879508950E94FD0B60F060
:1014F00080E891E009F49EEF0E94040C28F040E897
:1015000051E071F45EEF0CC00C94D30B0C947D0C85
:10151000E92FE0780E945B0C40F3092E052AB1F315
:10152000261737074807590738F00E2E07F8E02529
:1015300069F0E025E0640AC0EF6307F8009407FA59
:10154000DB01B9019D01DC01CA01AD01EF930E94ED
:10155000FF0A0E94360C0E94B80A5F91552339F0A9
:101560002BED3FE049E450FD49EC0C94090A089545
:10157000DF93DD27B92FBF7740E85FE31616170624
:1015800048075B0718F4D92F0E94840C9F938F9310
:101590007F936F930E94470DECEAF0E00E94D60B18
:1015A0000E94360C2F913F914F915F910E949F0CAA
:1015B000DD2351F09058A2EA2AED3FE049EC5FE3C9
:1015C000D0785D270E94200ADF910C94360C0E948F
:1015D0000D0CE3950C94470C0E94040C58F00E94EB
:1015E000FD0B40F029F45F3F29F00C94CD0B511115
:1015F0000C947E0C0C94D30B0E945B0C68F3992323
:10160000B1F3552391F3951B550BBB27AA276217FE
:101610007307840738F09F5F5F4F220F331F441F0B
:10162000AA1FA9F335D00E2E3AF0E0E832D091503F
:101630005040E695001CCAF72BD0FE2F29D0660F2C
:10164000771F881FBB1F261737074807AB07B0E86F
:1016500009F0BB0B802DBF01FF2793585F4F3AF075
:101660009E3F510578F00C94CD0B0C947E0C5F3F9F
:10167000E4F3983ED4F3869577956795B795F795FB
:101680009F5FC9F7880F911D9695879597F90895E3
:10169000E1E0660F771F881FBB1F6217730784077F
:1016A000BA0720F0621B730B840BBA0BEE1F88F78E
:1016B000E09508950E94610B6894B1110C947E0C22
:1016C00008950E94630C88F09F5798F0B92F9927CE
:1016D000B751B0F0E1F0660F771F881F991F1AF01D
:1016E000BA95C9F714C0B13091F00E947D0CB1E0F9
:1016F00008950C947D0C672F782F8827B85F39F0F8
:10170000B93FCCF3869577956795B395D9F73EF4B5
:1017100090958095709561957F4F8F4F9F4F08955D
:10172000E89409C097FB3EF490958095709561957B
:101730007F4F8F4F9F4F9923A9F0F92F96E9BB2731
:101740009395F695879577956795B795F111F8CFAD
:10175000FAF4BB0F11F460FF1BC06F5F7F4F8F4F18
:101760009F4F16C0882311F096E911C0772321F00E
:101770009EE8872F762F05C0662371F096E8862FA6
:1017800070E060E02AF09A95660F771F881FDAF7FD
:10179000880F9695879597F9089597F99F6780E840
:1017A00070E060E008959FEF80EC0895DF93CF93A1
:1017B0001F930F93FF92EF92DF927B018C0168944D
:1017C00006C0DA2EEF010E949F0CFE01E894A5915D
:1017D0002591359145915591A6F3EF010E94200A7C
:1017E000FE019701A801DA9469F7DF90EF90FF906E
:1017F0000F911F91CF91DF91089500240A9416163E
:10180000170618060906089500240A9412161306EE
:101810001406050608950C94D30B0E94630CD8F3AC
:10182000E894E0E0BB279F57F0F02AED3FE049EC59
:1018300006C0EE0FBB0F661F771F881F28F0B23A55
:1018400062077307840728F0B25A620B730B840B8C
:10185000E3959A9572F7803830F49A95BB0F661F1E
:10186000771F881FD2F790480C94510D092E0394CE
:10187000000C11F4882352F0BB0F40F4BF2B11F47D
:1018800060FF04C06F5F7F4F8F4F9F4F0895EF93AE
:10189000E0FF07C0A2EA2AED3FE049EC5FEB0E94BF
:1018A000200A0E94360C0F90039401FC9058E9ED39
:1018B000F0E00C94640D57FD9058440F551F59F0FB
:1018C0005F3F71F04795880F97FB991F61F09F3F2D
:1018D00079F087950895121613061406551FF2CF56
:1018E0004695F1DF08C0161617061806991FF1CFA6
:1018F00086957105610508940895E894BB276627CD
:101900007727CB0197F908959B01AC0160E070E067
:1019100080E89FE30C944B0D0E949F0C0C94360CB6
:101920000E94FD0B38F00E94040C20F0952311F06A
:101930000C94CD0B0C94D30B11240C947E0C0E94B0
:101940005B0C70F3959FC1F3950F50E0551F629F9C
:10195000F001729FBB27F00DB11D639FAA27F00D08
:10196000B11DAA1F649F6627B00DA11D661F829F2F
:101970002227B00DA11D621F739FB00DA11D621F14
:10198000839FA00D611D221F749F3327A00D611D31
:10199000231F849F600D211D822F762F6A2F112413
:1019A0009F5750409AF0F1F088234AF0EE0FFF1F46
:1019B000BB1F661F771F881F91505040A9F79E3F9D
:1019C000510580F00C94CD0B0C947E0C5F3FE4F33A
:1019D000983ED4F3869577956795B795F795E795F3
:1019E0009F5FC1F7FE2B880F911D9695879597F9FC
:1019F00008959F930E940D0C0F9007FCEE5F0C94CE
:101A0000470C19F416F40C94D30B0C944F0D0E9450
:101A1000630CB8F39923C9F3B6F39F57550B87FFAF
:101A20000E945D0D0024A0E640EA90018058569582
:101A3000979528F4805C660F771F881F20F0261783
:101A40003707480730F4621B730B840B20293129B8
:101A50004A2BA69517940794202531254A2758F735
:101A6000660F771F881F20F026173707480730F4C6
:101A7000620B730B840B200D311D411DA09581F766
:101A8000B901842F9158880F9695879508959B01E9
:101A9000AC010C948C0C0E94FC0A0C94360C9F3FF9
:101AA00031F0915020F4879577956795B795880F19
:101AB000911D9695879597F9089591505040660F1E
:101AC000771F881FD2F708959F938F937F936F930B
:101AD000FF93EF939B01AC010E948C0CEF91FF915F
:101AE0000E94D60B2F913F914F915F910C948C0CDB
:101AF000BB274A3031F4992322F4BDE290958195B9
:101B00009F4F0C94840DBB27FB015527AA27880FF4
:101B1000991FAA1FA41710F0A41B83955051B9F761
:101B2000A05DAA3308F0A95DA193009779F7B111E0
:101B3000B1931192CB010C949D0DDC01FC01672F38
:101B400071917723E1F7329704C07C916D93708394
:0E1B50006291AE17BF07C8F30895F894FFCF57
:0C1B5E00FF03FF0300E10000000008008E
:00000001FF
