:100000000C94B8000C94D5000C94D5000C94D50039
:100010000C94D5000C94D5000C94D5000C94D5000C
:100020000C94D5000C94D5000C9487040C94C50452
:100030000C94D5000C94D5000C94D5000C94D500EC
:100040000C94D5000C94D5000C94D5000C94D500DC
:100050000C94D5000C94D5000C94D5000C94D500CC
:100060000C94D5000C94D5000C94D5000C94D500BC
:100070000C94D5000C94D5000C94D5000C94D500AC
:100080000C94D5000C94D5000C94D5000C94D5009C
:100090000C94D5000C94D5000C94D5000C94D5008C
:1000A0000C94D5000C94D5000C94D5002020002091
:1000B0002079203D20000A78203D2000000100002A
:1000C00053011200020000100143000300000C0164
:1000D0000401030904F8001202030904F0000603F6
:1000E000030904E600080803340031003000000072
:1000F00006034D003200000012034A002E002000CB
:100100004600690065006E006500000004030904F4
:1001100009024300020100C032090400000102028A
:100120000100052400100105240101010424020638
:1001300005240600010705820310004009040100A0
:10014000020A0000000705030240000007058402C0
:100150004000001201000202000010C0167A0400E4
:1001600001010203010001C1120180360181360044
:1001700011241FBECFEFDAE0DEBFCDBF11E0A0E05B
:10018000B1E0E8E6F3E102C005900D92AC30B107B2
:10019000D9F721E0ACE0B1E001C01D92A832B2076E
:1001A000E1F70E94AB030C94B2090C940000833079
:1001B000910501F134F48130910551F0029789F0F5
:1001C00042C08530910551F1F4F0069791F13BC0A2
:1001D000ECE0F1E01182108281E090E09383828371
:1001E00032C0ECE0F1E01182108282E090E0938373
:1001F000828329C0ECE0F1E01182108283E090E07C
:100200009383828320C0ECE0F1E081E090E0918371
:10021000808382E090E09383828315C0ECE0F1E07C
:1002200081E090E09183808383E090E093838283F8
:100230000AC0ECE0F1E082E090E09183808383E00B
:1002400090E0938382838CE091E008952F923F9217
:100250004F925F926F927F928F929F92AF92BF92D6
:10026000CF92DF92EF92FF920F931F93CF93DF9382
:10027000CDB7DEB7A0970FB6F894DEBF0FBECDBFE7
:100280008C01FC0124803580C080D180C1018C1993
:100290009D09268137813E872D87E280F3802E19C4
:1002A0003F09889F4001899F900C900C1124229F48
:1002B000C001239F900D900D1124880E991E092CCA
:1002C000000CAA08BB08C501B4010E94BB080E942B
:1002D0002509698B7A8B8B8B9C8BF8014084518428
:1002E000C2018C199D096284738493012E193F0900
:1002F000889F4001899F900C900C1124229FC0017F
:10030000239F900D900D1124880E991E092C000C2E
:10031000AA08BB08C501B4010E94BB080E942509B8
:100320006D8B7E8B8F8B988FF801A484B584C5016B
:100330008C199D090685178598012E193F09889FFC
:100340006001899FD00CD00C1124229FC001239FF3
:10035000900D900D1124C80ED91E0D2C000CEE0826
:10036000FF08C701B6010E94BB080E942509698FDA
:100370007A8F8B8F9C8FC2018219930993014D85CF
:100380005E85241B350B889F6001899FD00CD00CA3
:100390001124229FC001239F900D900D1124C80E9F
:1003A000D91E0D2C000CEE08FF08C701B6010E94F3
:1003B000BB080E9425096D8F7E8F8F8F98A3C50182
:1003C000821993099801ED85FE852E1B3F0B889FAE
:1003D0006001899FD00CD00C1124229FC001239F63
:1003E000900D900D1124C80ED91E0D2C000CEE0896
:1003F000FF08C701B6010E94BB080E9425096D874E
:100400007E878F87988BC50184199509061917096E
:10041000889F6001899FD00CD00C1124009FC001DF
:10042000019F900D900D1124C80ED91E0D2C000CAB
:10043000EE08FF08C701B6010E94BB080E9425090B
:100440006B017C0169897A898B899C890E94830868
:100450007A8369836D897E898F89988D0E9483084C
:100460007C836B83698D7A8D8B8D9C8D0E94830834
:100470007E836D836D8D7E8D8F8D98A10E94830804
:1004800078876F836D857E858F8598890E94830824
:100490007A876987C701B6010E9483087C876B87CA
:1004A000FE01319620E030E060E070E080E090E016
:1004B00041915191641775071CF4BA01822F932F53
:1004C0002F5F3F4F2630310599F70E94D7008CE10E
:1004D00091E0A0960FB6F894DEBF0FBECDBFDF91BE
:1004E000CF911F910F91FF90EF90DF90CF90BF9031
:1004F000AF909F908F907F906F905F904F903F90C4
:100500002F900895AF92BF92CF92DF92EF92FF9219
:100510000F931F93CF93DF93CDB7DEB768970FB6D6
:10052000F894DEBF0FBECDBFFC01EDB6FEB68081F4
:1005300091819A838983808591859C838B83828135
:1005400093819E838D838285938598878F83848111
:1005500095819A878987848595859C878B878681F5
:1005600097819E878D8786859785988B8F879E013B
:100570002F5F3F4F6901AE014F5E5F4FF9016FEF93
:1005800073E00CC0D90111967C936E9313967C9303
:100590006E9312973496E417F50761F09F018081FE
:1005A00091818F3F934071F3828193818F3F93407C
:1005B00089F7E8CFFE01719688E0DF011D928A95E8
:1005C000E9F720E030E000E010E0F6018081918161
:1005D0008F3F934071F00F5F1F4FF801EE0FFF1F29
:1005E000AA24A394B12CAC0EBD1EEA0DFB1D318BC9
:1005F000208B2F5F3F4F44E0C40ED11C24303105C7
:1006000021F7C8010E9464060115110509F476C09E
:10061000CDB6DEB6B801660F771F660F771F8DB7B0
:100620009EB7861B970B0FB6F8949EBF0FBE8DBF6B
:100630000196101611067CF5AE014F5E5F4FDC018E
:10064000680F791FFA0121913191AF01F901EE0F85
:10065000FF1FEE0FFF1FAA24A394B12CAC0EBD1EEA
:10066000EA0DFB1D0280F381E02D1396FC93EE93BF
:100670001297F9013196EE0FFF1FEE0FFF1FEA0DE3
:10068000FB1D2081318115963C932E93149714966F
:10069000A617B707B9F66E9A76980230110599F049
:1006A00024F40130110591F014C00330110521F03C
:1006B0000430110521F00DC0A8E1B1E00CC00E948A
:1006C0002601DC0108C0A4E1B1E005C0A0E1B1E071
:1006D00002C0A0E0B1E08D919C911197E0E2F1E0C1
:1006E0009183808312968D919C911397938382833B
:1006F0000FB6F894DEBE0FBECDBE0AC0E0E2F1E058
:100700008FEF93E091838083938382836E9A769AAE
:1007100080E291E00FB6F894FEBE0FBEEDBE689683
:100720000FB6F894DEBF0FBECDBFDF91CF911F9102
:100730000F91FF90EF90DF90CF90BF90AF90089512
:100740006E9A76980E94CF068823E1F36E9A769A85
:100750000E9413040895CF93DF93CDB7DEB7AC9713
:100760000FB6F894DEBF0FBECDBF0E94A0036A9AF9
:1007700072988FEF93E09A8F898F9C8F8B8FCE0129
:1007800001960E94F0076B817C810F811885498555
:100790005A85AD85BE852F853889EB89FC898D8981
:1007A0009E89E980FA80FE8EED8E18A30F8FBAA382
:1007B000A9A3FCA3EBA37EA36DA358A74FA33AA7BD
:1007C00029A79CA78BA7BE01675E7F4FCE014D96E0
:1007D0000E9482028C0186EB90E00E944806F8019C
:1007E000808191810E9464068FEA90E00E94480611
:1007F000F801828193810E9464068CEA90E00E9455
:100800004806BDCF589A599A5A9A8CE08093B800FE
:10081000E9E6F0E080818062808380818F7E808342
:10082000EA9A7894089581E08093D70080EA8093D3
:10083000D80082E189BD09B400FEFDCF80E9809334
:10084000D8001092E00010922701109224018CE051
:100850008093E20078940895CF93DF9390912701DD
:10086000992309F44CC09FB7F89424E02093E90041
:1008700020912501222349F02091E80025FD03C0A5
:100880009FBF8FEF41C0109225013091E400375E89
:100890002091E80025FD24C09FBF9091E4009317AC
:1008A00081F090912701992361F1A9EEB0E044E035
:1008B000E8EEF0E0C4EED0E00DC09FBF9881931346
:1008C00005C081E0809325018FEF1EC09091270124
:1008D0009923C9F09FB7F8944C93208125FFEDCF61
:1008E0008093F1008091E80085FD03C08AE3809346
:1008F000E80085E0809326019FBF80E005C08FEF70
:1009000003C08FEF01C08FEFDF91CF9108951F9249
:100910000F920FB60F9211248F939F93EF93FF9333
:10092000E1EEF0E08081108283FF11C01092E900B7
:1009300091E09093EB001092EC0092E19093ED0027
:1009400098E09093F000109227011092240182FF0A
:1009500013C080912701882379F080912601882394
:1009600059F0815080932601811106C084E0809364
:10097000E9008AE38093E800FF91EF919F918F91C6
:100980000F900FBE0F901F9018951F920F920FB6E9
:100990000F9211240F931F932F933F934F935F93C5
:1009A0006F937F938F939F93AF93BF93CF93DF9377
:1009B000EF93FF931092E9008091E80083FF4CC110
:1009C000E1EFF0E0608180812081908130E0392B7F
:1009D0004081908150E0592B7081C08192EF9093BB
:1009E000E800863009F058C004C081E28093EB0033
:1009F0003AC166E08CEB90E0FC01A591B4912A1716
:100A00003B0711F0079623C0FC013296A591B491E3
:100A10004A175B0711F007961AC0FC0134964591FE
:100A20005491FC0136962491872F90E09C2B8F3FA8
:100A3000910519F010F08FEF90E0821708F4282F3D
:100A4000A8EEB0E070E16EEFC1EFD0E003C06150FE
:100A500099F6CBCF8C91982F9570E1F382FD03C16D
:100A6000322F213108F0372F332309F4F9C0FA016E
:100A7000832F94919883815031968111FACF8FEF13
:100A8000830F90E00196480F591F231B6C9321118F
:100A9000E1CF3031F9F2E7C0853061F48EEF809319
:100AA000E800E8EEF0E0808180FFFDCF2068209331
:100AB000E300D9C0893009F035C06111CDC0209361
:100AC000270110922401109226018EEF8093E800F6
:100AD00081E025E631E0C9EED0E0ABEEB0E00CEE0F
:100AE00010E06DEE70E08883A9014F5F5F4FF90160
:100AF00094919C93992361F0FA014491F801408309
:100B0000F901329694912D5F3F4FFB01908301C014
:100B10009A018F5F853039F7EAEEF0E08EE180834D
:100B20001082A1C0883081F4603809F095C0E8EEE9
:100B3000F0E0808180FFFDCF809127018093F1005C
:100B40008EEF8093E8008FC08132B9F4613A09F0EA
:100B500083C0E8EEF0E0808180FFFDCFE4E0F1E0CB
:100B60002BE031E0A1EFB0E081918C93E217F30725
:100B7000D9F78EEF8093E80076C08032D1F46132ED
:100B800009F06AC0E8EEF0E0808182FFFDCFE4E08A
:100B9000F1E02BE031E0A1EFB0E08C918193E2171E
:100BA000F307D9F7E8EEF0E08BEF80838EEF8083D8
:100BB0005AC0823271F4613209F04EC02093240190
:100BC000E8EEF0E0808180FFFDCF8EEF8093E800BB
:100BD0004AC081111AC0E8EEF0E0808180FFFDCFAD
:100BE000623851F4E9EEF0E040838091EB0085FB40
:100BF000882780F9108201C080E0E1EFF0E0808377
:100C000010828EEF8093E8002EC0982F9D7F913048
:100C100019F5623009F5232BF9F44F779FEF940F04
:100C20009430D0F49EEF9093E8004093E900833035
:100C300021F481E28093EB0016C089E18093EB0000
:100C400081E090E002C0880F991F4A95E2F7EAEE32
:100C5000F0E08083108207C081E28093EB0003C044
:100C60006C932111F7CEFF91EF91DF91CF91BF915E
:100C7000AF919F918F917F916F915F914F913F9134
:100C80002F911F910F910F900FBE0F901F901895ED
:100C90000F931F93CF938C010F5F1F4FFC01C491E3
:100CA000CC2371F0CA3019F48DE00E942C048C2FF3
:100CB0000E942C04F801C4910F5F1F4FC111F2CFA5
:100CC000CF911F910F910895EF92FF920F931F9371
:100CD000CF93DF93CDB7DEB727970FB6F894DEBF7B
:100CE0000FBECDBF8E010F5F1F4F27E0F80111929D
:100CF0002A95E9F74AE0B8010E947D097E01F8E0F3
:100D0000EF0EF11CF80181918F0181110E942C04DA
:100D10000E151F05B9F727960FB6F894DEBF0FBE64
:100D2000CDBFDF91CF911F910F91FF90EF9008956C
:100D300020E030E0ECEBF0E08081882334F02F5F9E
:100D40003F4F293E83E03807B9F781E0283E334022
:100D500009F480E008958093BB0084E88093BC0090
:100D60000E949806882319F08091B900887F089521
:100D7000CF93C82F94EA9093BC000E9498068823D2
:100D800061F08C2F880F0E94AB06803229F484E931
:100D90008093BC0080E001C081E0CF9108950E9463
:100DA000020488E50E94B806882309F4CDC080E3D8
:100DB0000E94AB06882309F4C9C081E00E94AB06FB
:100DC000882309F4C5C084E98093BC0083EC99E0D2
:100DD0000197F1F700C0000088E50E94B80688235B
:100DE00009F4B8C080E00E94AB06882309F4B4C0BF
:100DF00080E00E94AB06882309F4B0C080E00E9426
:100E0000AB06882309F4ACC080E00E94AB068823BF
:100E100009F4A8C080E00E94AB06882309F4A4C0AE
:100E200080E00E94AB06882309F4A0C080E00E9405
:100E3000AB06882309F49CC080E90E94AB06882396
:100E400009F498C084E98093BC0083EC99E0019791
:100E5000F1F700C0000088E50E94B806882309F475
:100E60008BC087E00E94AB06882309F487C080E02E
:100E70000E94AB06882309F483C081E40E94AB067C
:100E8000882309F47FC084E98093BC0083EC99E057
:100E90000197F1F700C0000088E50E94B80688239A
:100EA00009F472C08AE10E94AB06882309F46EC07F
:100EB00080E40E94AB06882309F46AC080E00E94A7
:100EC000AB06882309F466C084E98093BC0083ECF8
:100ED00099E00197F1F700C0000088E50E94B8068C
:100EE000882309F459C083E30E94AB06882309F4E0
:100EF00055C083E00E94AB06882309F451C084E901
:100F00008093BC0083EC99E00197F1F700C00000EA
:100F100088E50E94B806882309F444C080E30E9453
:100F2000AB06882309F440C088E00E94AB06882302
:100F3000E9F184E98093BC0083EC99E00197F1F733
:100F400000C0000081E0089580E0089580E00895E9
:100F500080E0089580E0089580E0089580E008959D
:100F600080E0089580E0089580E0089580E008958D
:100F700080E0089580E0089580E0089580E008957D
:100F800080E0089580E0089580E0089580E008956D
:100F900080E0089580E0089580E0089580E008955D
:100FA00080E0089580E0089580E0089580E008954D
:100FB000CF93C82F84EA8093BC000E9498068823B0
:100FC00069F08C2F880F8F5F0E94AB06883429F45C
:100FD00084E98093BC0080E001C081E0CF91089556
:100FE0000F931F93CF93DF93CDB7DEB760970FB604
:100FF000F894DEBF0FBECDBF8C01FE01319680E1BB
:10100000DF011D928A95E9F788E50E94B8068823DA
:1010100009F469C086E30E94AB06882309F465C021
:1010200084E98093BC00B8E0BA95F1F7000088E548
:101030000E94D807882309F45AC0BE016F5F7F4F12
:10104000AE01405F5F4FECEBF0E084EC2BEB30E067
:10105000808390819923ECF7D9019C91DB019D93CA
:10106000BD01A417B507A1F784E88093BC00ECEBA1
:10107000F0E080818823ECF78091BB00888B84E9C5
:101080008093BC00BE016C5F7F4FF801085E1F4F6C
:10109000DB012C91322F3073CB010297DC018C9154
:1010A00090E0B0E13B9F800D911D112491838083DE
:1010B000422F407C50E0440F551F440F551FCB0179
:1010C0000197DC018C91480F511D538342832F708F
:1010D00030E0358324836D5F7F4F3696E017F1074C
:1010E000B9F681E005C080E003C080E001C080E087
:1010F00060960FB6F894DEBF0FBECDBFDF91CF91E3
:101100001F910F9108950E948A086894B1110C9460
:10111000190908950E94FE0888F09F5798F0B92F8A
:101120009927B751B0F0E1F0660F771F881F991F1C
:101130001AF0BA95C9F714C0B13091F00E9418099D
:10114000B1E008950C941809672F782F8827B85FAD
:1011500039F0B93FCCF3869577956795B395D9F774
:101160003EF490958095709561957F4F8F4F9F4F7E
:101170000895E89409C097FB3EF49095809570958A
:1011800061957F4F8F4F9F4F9923A9F0F92F96E9D3
:10119000BB279395F695879577956795B795F11148
:1011A000F8CFFAF4BB0F11F460FF1BC06F5F7F4FE5
:1011B0008F4F9F4F16C0882311F096E911C07723F7
:1011C00021F09EE8872F762F05C0662371F096E800
:1011D000862F70E060E02AF09A95660F771F881FCF
:1011E000DAF7880F9695879597F9089557FD9058E7
:1011F000440F551F59F05F3F71F04795880F97FBDB
:10120000991F61F09F3F79F0879508951216130694
:101210001406551FF2CF4695F1DF08C016161706C3
:101220001806991FF1CF86957105610508940895F8
:10123000E894BB2766277727CB0197F9089519F41F
:1012400016F40C9473090C9465090E94FE08B8F317
:101250009923C9F3B6F39F57550B87FF0E94760970
:101260000024A0E640EA900180585695979528F40E
:10127000805C660F771F881F20F026173707480706
:1012800030F4621B730B840B202931294A2BA6955D
:1012900017940794202531254A2758F7660F771FA2
:1012A000881F20F026173707480730F4620B730BAE
:1012B000840B200D311D411DA09581F7B901842FAC
:1012C0009158880F9695879508959F3F31F09150DA
:1012D00020F4879577956795B795880F911D96951A
:1012E000879597F908959FEF80EC089591505040AD
:1012F000660F771F881FD2F70895BB274A3031F455
:10130000992322F4BDE2909581959F4F0C94890911
:10131000BB27FB015527AA27880F991FAA1FA417CF
:1013200010F0A41B83955051B9F7A05DAA3308F0C3
:10133000A95DA193009779F7B111B1931192CB01F7
:101340000C94A209DC01FC01672F71917723E1F76E
:10135000329704C07C916D9370836291AE17BF0782
:08136000C8F30895F894FFCFD3
:0C136800FF03FF0300E10000000008008C
:00000001FF
