S01B00004C6F63616C697A6174696F6E54657374696E672E7372656342
S11300000C94B8000C94D5000C94D5000C94D50035
S11300100C94D5000C94D5000C94D5000C94D50008
S11300200C94D5000C94D5000C9416020C94540234
S11300300C94D5000C94D5000C94D5000C94D500E8
S11300400C94D5000C94D5000C94D5000C94D500D8
S11300500C94D5000C94D5000C94D5000C94D500C8
S11300600C94D5000C94D5000C94D5000C94D500B8
S11300700C94D5000C94D5000C94D5000C94D500A8
S11300800C94D5000C94D5000C94D5000C94D50098
S11300900C94D5000C94D5000C94D5000C94D50088
S11300A00C94D5000C94D5000C94D5000A002000C3
S11300B0200020002000200020002000000100007B
S11300C053011200020000100143000300000C0160
S11300D00401030904F8001202030904F0000603F2
S11300E0030904E60008080334003100300000006E
S11300F006034D003200000012034A002E002000C7
S11301004600690065006E006500000004030904F0
S113011009024300020100C0320904000001020286
S11301200100052400100105240101010424020634
S1130130052406000107058203100040090401009C
S1130140020A0000000705030240000007058402BC
S11301504000001201000202000010C0167A0400E0
S113016001010203010001C1120180360181360040
S113017011241FBECFEFDAE0DEBFCDBF11E0A0E057
S1130180B1E0E2E9FCE002C005900D92A830B107AD
S1130190D9F721E0A8E0B1E001C01D92AC30B2076C
S11301A0E1F70E94E2000C9447060C9400006E9A5A
S11301B076980E945E048823E1F36E9A769A0E94F0
S11301C05F010895CF93DF93CDB7DEB769970FB67C
S11301D0F894DEBF0FBECDBF0E94D7006A9A729812
S11301E0CE0101960E947F0589809A800B811C8133
S11301F0AF80B88469847A84CD84DE844F8458883F
S1130200EB88FC882D883E880E9496018823E1F3C0
S11302100E947801898F0E94A501898D813001F7A0
S11302206E9A8EB190E489278EB9C4010E94F303BB
S11302308AEB90E00E94D703C5010E94F30388EB88
S113024090E00E94D703C6010E94F30386EB90E07E
S11302500E94D703C7010E94F30384EB90E00E943D
S1130260D703C8010E94F30382EB90E00E94D703F6
S1130270C3010E94F30380EB90E00E94D703C20104
S11302800E94F3038EEA90E00E94D703C1010E940A
S1130290F3038CEA90E00E94D703A2CF589A599AAC
S11302A05A9A8CE08093B800E9E6F0E0808180629D
S11302B0808380818F7E8083EA9A7894089581E098
S11302C08093D70080EA8093D80082E189BD09B485
S11302D000FEFDCF80E98093D8001092E0001092D8
S11302E00B01109208018CE08093E2007894089549
S11302F09FB7F89480910B01811103C09FBF8FEFCA
S1130300089583E08093E9008091E80085FD03C0AF
S11303109FBF8FEF08958091F1002091E80025FDA3
S113032003C02BE62093E8009FBF08959FB7F8947D
S113033080910B01882331F083E08093E900809160
S1130340F20001C080E09FBF089580910B018823D3
S113035089F02FB7F89483E08093E9008091E80056
S113036085FF07C0E8EEF0E09BE69083808185FD81
S1130370FCCF2FBF0895CF93DF9390910B01992366
S113038009F44CC09FB7F89424E02093E90020912D
S11303900901222349F02091E80025FD03C09FBFF5
S11303A08FEF41C0109209013091E400375E209133
S11303B0E80025FD24C09FBF9091E400931781F0CD
S11303C090910B01992361F1A9EEB0E044E0E8EECD
S11303D0F0E0C4EED0E00DC09FBF9881931305C038
S11303E081E0809309018FEF1EC090910B01992346
S11303F0C9F09FB7F8944C93208125FFEDCF8093EB
S1130400F1008091E80085FD03C08AE38093E80051
S113041085E080930A019FBF80E005C08FEF03C091
S11304208FEF01C08FEFDF91CF9108951F920F924C
S11304300FB60F9211248F939F93EF93FF93E1EEE6
S1130440F0E08081108283FF11C01092E90091E0F6
S11304509093EB001092EC0092E19093ED0098E001
S11304609093F00010920B011092080182FF13C0C8
S113047080910B01882379F080910A01882359F037
S1130480815080930A01811106C084E08093E900C1
S11304908AE38093E800FF91EF919F918F910F90F1
S11304A00FBE0F901F9018951F920F920FB60F92C8
S11304B011240F931F932F933F934F935F936F9345
S11304C07F938F939F93AF93BF93CF93DF93EF93D8
S11304D0FF931092E9008091E80083FF4CC1E1EFA3
S11304E0F0E0608180812081908130E0392B40816F
S11304F0908150E0592B7081C08192EF9093E80075
S1130500863009F058C004C081E28093EB003AC100
S113051066E08CEB90E0FC01A591B4912A173B07AF
S113052011F0079623C0FC013296A591B4914A17A5
S11305305B0711F007961AC0FC013496459154915B
S1130540FC0136962491872F90E09C2B8F3F9105D8
S113055019F010F08FEF90E0821708F4282FA8EE1E
S1130560B0E070E16EEFC1EFD0E003C0615099F6E6
S1130570CBCF8C91982F9570E1F382FD03C1322F7C
S1130580213108F0372F332309F4F9C0FA01832FFE
S113059094919883815031968111FACF8FEF830F14
S11305A090E00196480F591F231B6C932111E1CF52
S11305B03031F9F2E7C0853061F48EEF8093E800C2
S11305C0E8EEF0E0808180FFFDCF20682093E30017
S11305D0D9C0893009F035C06111CDC020930B0119
S11305E01092080110920A018EEF8093E80081E0D6
S11305F025E631E0C9EED0E0ABEEB0E00CEE10E061
S11306006DEE70E08883A9014F5F5F4FF90194910B
S11306109C93992361F0FA014491F8014083F90114
S1130620329694912D5F3F4FFB01908301C09A0154
S11306308F5F853039F7EAEEF0E08EE18083108237
S1130640A1C0883081F4603809F095C0E8EEF0E08C
S1130650808180FFFDCF80910B018093F1008EEFAC
S11306608093E8008FC08132B9F4613A09F083C005
S1130670E8EEF0E0808180FFFDCFE0E0F1E027E0EC
S113068031E0A1EFB0E081918C93E217F307D9F741
S11306908EEF8093E80076C08032D1F4613209F0A5
S11306A06AC0E8EEF0E0808182FFFDCFE0E0F1E097
S11306B027E031E0A1EFB0E08C918193E217F307DA
S11306C0D9F7E8EEF0E08BEF80838EEF80835AC099
S11306D0823271F4613209F04EC020930801E8EED1
S11306E0F0E0808180FFFDCF8EEF8093E8004AC068
S11306F081111AC0E8EEF0E0808180FFFDCF6238FE
S113070051F4E9EEF0E040838091EB0085FB88270B
S113071080F9108201C080E0E1EFF0E08083108274
S11307208EEF8093E8002EC0982F9D7F913019F5AD
S1130730623009F5232BF9F44F779FEF940F94302F
S1130740D0F49EEF9093E8004093E900833021F4C5
S113075081E28093EB0016C089E18093EB0081E095
S113076090E002C0880F991F4A95E2F7EAEEF0E0A4
S11307708083108207C081E28093EB0003C06C93F6
S11307802111F7CEFF91EF91DF91CF91BF91AF91FE
S11307909F918F917F916F915F914F913F912F9195
S11307A01F910F910F900FBE0F901F9018950F93EC
S11307B01F93CF938C010F5F1F4FFC01C491CC2377
S11307C071F0CA3019F48DE00E94BB018C2F0E9495
S11307D0BB01F801C4910F5F1F4FC111F2CFCF913C
S11307E01F910F910895EF92FF920F931F93CF9350
S11307F0DF93CDB7DEB727970FB6F894DEBF0FBEF1
S1130800CDBF8E010F5F1F4F27E0F80111922A958B
S1130810E9F74AE0B8010E9412067E01F8E0EF0E03
S1130820F11CF80181918F0181110E94BB010E1509
S11308301F05B9F727960FB6F894DEBF0FBECDBFDC
S1130840DF91CF911F910F91FF90EF90089520E0D9
S113085030E0ECEBF0E08081882334F02F5F3F4FF1
S1130860293E83E03807B9F781E0283E334009F494
S113087080E008958093BB0084E88093BC000E94CC
S11308802704882319F08091B900887F0895CF93B5
S1130890C82F94EA9093BC000E942704882361F037
S11308A08C2F880F0E943A04803229F484E98093C3
S11308B0BC0080E001C081E0CF9108950E944E0108
S11308C088E50E944704882309F4CDC080E30E9490
S11308D03A04882309F4C9C081E00E943A048823B9
S11308E009F4C5C084E98093BC0083EC99E00197C6
S11308F0F1F700C0000088E50E944704882309F44A
S1130900B8C080E00E943A04882309F4B4C080E0AF
S11309100E943A04882309F4B0C080E00E943A049B
S1130920882309F4ACC080E00E943A04882309F4C7
S1130930A8C080E00E943A04882309F4A4C080E09F
S11309400E943A04882309F4A0C080E00E943A047B
S1130950882309F49CC080E90E943A04882309F49E
S113096098C084E98093BC0083EC99E00197F1F787
S113097000C0000088E50E944704882309F48BC066
S113098087E00E943A04882309F487C080E00E942B
S11309903A04882309F483C081E40E943A0488233A
S11309A009F47FC084E98093BC0083EC99E001974B
S11309B0F1F700C0000088E50E944704882309F489
S11309C072C08AE10E943A04882309F46EC080E46C
S11309D00E943A04882309F46AC080E00E943A0421
S11309E0882309F466C084E98093BC0083EC99E011
S11309F00197F1F700C0000088E50E9447048823AE
S1130A0009F459C083E30E943A04882309F455C0C9
S1130A1083E00E943A04882309F451C084E9809356
S1130A20BC0083EC99E00197F1F700C0000088E571
S1130A300E944704882309F444C080E30E943A04D6
S1130A40882309F440C088E00E943A048823E9F12D
S1130A5084E98093BC0083EC99E00197F1F700C02E
S1130A60000081E0089580E0089580E0089580E02A
S1130A70089580E0089580E0089580E0089580E07E
S1130A80089580E0089580E0089580E0089580E06E
S1130A90089580E0089580E0089580E0089580E05E
S1130AA0089580E0089580E0089580E0089580E04E
S1130AB0089580E0089580E0089580E0089580E03E
S1130AC0089580E0089580E0089580E00895CF932C
S1130AD0C82F84EA8093BC000E942704882369F00D
S1130AE08C2F880F8F5F0E943A04883429F484E99C
S1130AF08093BC0080E001C081E0CF9108950F9302
S1130B001F93CF93DF93CDB7DEB760970FB6F894FA
S1130B10DEBF0FBECDBF8C01FE01319680E1DF0147
S1130B201D928A95E9F788E50E944704882309F411
S1130B3069C086E30E943A04882309F465C084E905
S1130B408093BC00B8E0BA95F1F7000088E50E94F4
S1130B506705882309F45AC0BE016F5F7F4FAE0159
S1130B60405F5F4FECEBF0E084EC2BEB30E08083F4
S1130B7090819923ECF7D9019C91DB019D93BD01F0
S1130B80A417B507A1F784E88093BC00ECEBF0E070
S1130B9080818823ECF78091BB00888B84E9809363
S1130BA0BC00BE016C5F7F4FF801085E1F4FDB0184
S1130BB02C91322F3073CB010297DC018C9190E0A1
S1130BC0B0E13B9F800D911D112491838083422FBE
S1130BD0407C50E0440F551F440F551FCB01019733
S1130BE0DC018C91480F511D538342832F7030E0F8
S1130BF0358324836D5F7F4F3696E017F107B9F68E
S1130C0081E005C080E003C080E001C080E0609620
S1130C100FB6F894DEBF0FBECDBFDF91CF911F9109
S1130C200F910895BB274A3031F4992322F4BDE291
S1130C30909581959F4F0C941E06BB27FB01552769
S1130C40AA27880F991FAA1FA41710F0A41B839525
S1130C505051B9F7A05DAA3308F0A95DA19300979C
S1130C6079F7B111B1931192CB010C943706DC01E1
S1130C70FC01672F71917723E1F7329704C07C91CF
S1130C806D9370836291AE17BF07C8F30895F8940B
S1050C90FFCF90
S10B0C9200E10000000008006D
S9030000FC
