:100000000C94D6000C94F3000C94F3000C948A0723
:100010000C94F3000C94F3000C94F3000C94F30094
:100020000C94F3000C94F3000C94F10C0C942F0D31
:100030000C94F3000C94F3000C94F3000C94F30074
:100040000C94F3000C9468070C9474070C947F07CD
:100050000C94F3000C94F3000C94F3000C94F30054
:100060000C94F3000C94F3000C94F3000C94F30044
:100070000C94F3000C94F3000C94F3000C94F30034
:100080000C94AE070C94F3000C94F3000C94F30062
:100090000C94F3000C94F3000C94F3000C94F30014
:1000A0000C94F3000C94F3000C94F300084AD73B33
:1000B0003BCE016E84BCBFFDC12F3D6C74319ABD37
:1000C00056833DDA3D00C77F11BED9E4BB4C3E915B
:1000D0006BAAAABE000000803F05A84CCDB2D44E4A
:1000E000B93836A9020C50B9918688083CA6AAAA4C
:1000F0002ABE000000803F00000100008F011200B6
:100100000200004C01430003000048010401030900
:1001100004340112020309042C010603030904221A
:1001200001080803340031003000000006034D00D0
:100130003200000012034A002E0020004600690031
:1001400065006E0065000000040309040902430015
:10015000020100C03209040000010202010005246E
:1001600000100105240101010424020605240600F3
:10017000010705820310004009040100020A000083
:10018000000705030240000007058402400000123A
:1001900001000202000010C0167A040001010203EF
:1001A000010001C1120180360181360011241FBEF9
:1001B000CFEFDAE0DEBFCDBF11E0A0E0B1E0ECE6CA
:1001C000F8E202C005900D92A233B107D9F721E001
:1001D000A2E3B1E001C01D92AA38B207E1F70E9484
:1001E000CB060C9434140C9400000F931F93CF9300
:1001F000DF93E1E6F0E080E8808310825098519828
:10020000209A219A229A239A289829982A982B98FA
:100210000E940D0C0E94E90E8823E1F378940E945D
:10022000D80CE1E8F0E080818B7F808380818D7F36
:10023000808380818160808380818F7E80838081C4
:1002400088608083E0E8F0E080818D7F808380811A
:100250008E7F808380818F7D808380818F7E80836D
:1002600008E810E0C0E8DEE3F801D183C0836081D4
:10027000718180E090E00E9427122DEC3CEC4CEC68
:100280005DE30E944C130E94F81170938B00609301
:100290008A00F8016081718180E090E00E9427125D
:1002A0002DEC3CEC4CEC5DE30E944C130E94F811E9
:1002B00070938D0060938C00EFE6F0E080818260A7
:1002C0008083808184608083808188608083E1E98D
:1002D000F0E080818B7F808380818D7F808380812F
:1002E0008160808380818F7E80838081886080832D
:1002F000E0E9F0E080818D7F808380818E7F808344
:10030000D0939900C0939800E1E7F0E0808182608B
:1003100080830E940D0C4AE060E281E00E941E0C86
:10032000DF91CF911F910F91089582309105F9F0DF
:100330002CF4009751F0019789F042C08430910568
:1003400051F1F4F0059791F13BC0E2E3F1E0118245
:10035000108281E090E09383828332C0E2E3F1E097
:100360001182108282E090E09383828329C0E2E3CD
:10037000F1E01182108283E090E09383828320C0B9
:10038000E2E3F1E081E090E09183808382E090E01D
:100390009383828315C0E2E3F1E081E090E09183F2
:1003A000808383E090E0938382830AC0E2E3F1E0FC
:1003B00082E090E09183808383E090E09383828366
:1003C00082E391E008952F923F924F925F926F9255
:1003D0007F928F929F92AF92BF92CF92DF92EF92D5
:1003E000FF920F931F93CF93DF9300D000D0CDB730
:1003F000DEB75C014A013A832983062F172FF801E3
:1004000041905190619071908F011C821B82212C30
:10041000312C12C0F801C190D190E190F1908F0180
:10042000A7019601C301B2010E943F13181624F4DC
:10043000260137012B803C808B819C8101969C8317
:100440008B83069739F7822D932D0E949501FC012D
:100450002081318142815381F5018081918128176A
:10046000390759F4F40131832083F50182819381A6
:10047000E981FA81918380833CC0F50162817381B7
:100480002617370759F4F40131832083F501808161
:100490009181E981FA81918380832BC048175907A4
:1004A00059F4F40151834083F50182819381E981FC
:1004B000FA81918380831DC04617570759F4F401D0
:1004C00051834083F50180819181E981FA81918393
:1004D00080830FC06A9A729AF50182819381F40138
:1004E00091838083F50180819181E981FA819183F3
:1004F00080830F900F900F900F90DF91CF911F91FD
:100500000F91FF90EF90DF90CF90BF90AF909F90B2
:100510008F907F906F905F904F903F902F900895B5
:100520002F923F924F925F926F927F928F929F9203
:10053000AF92BF92CF92DF92EF92FF920F931F93F1
:10054000CF93DF93CDB7DEB7C254D1090FB6F8947D
:10055000DEBF0FBECDBF2C01FC010480F581E02D74
:10056000FAA3E9A3FC010081118169A17AA1601BB2
:10057000710B072E000C880B990B0E9429126B013E
:100580007C01F2010680F781E02DFEA3EDA3F201CC
:1005900022803380ADA0BEA0A218B3089B01AC019D
:1005A0000E944C1369A77AA78BA79CA7AA9C40011D
:1005B000AB9C900C900C1124092C000CAA08BB08D1
:1005C000A7019601C701B6010E944C136B017C0183
:1005D000C501B4010E9429129B01AC01C701B601FB
:1005E0000E949E100E94C7136BAF7CAF8DAF9EAF71
:1005F000F2010084F185E02DFAA7E9A7BF01601B95
:10060000710B072E000C880B990B0E9429126B01AD
:100610007C01F201628473845301A218B3089B0128
:10062000AC010E944C136DA77EA78FA798ABAA9C24
:100630004001AB9C900C900C1124092C000CAA08D2
:10064000BB08A7019601C701B6010E944C136B01BC
:100650007C01C501B4010E9429129B01AC01C701B4
:10066000B6010E949E100E94C71323966CAF7DAF07
:100670008EAF9FAF2397F2010484F585E02DFEA78E
:10068000EDA7BF01601B710B072E000C880B990BA7
:100690000E9429124B015C01F2010684F785E02DCE
:1006A000FAABE9AB8F01021913099B01AC010E945F
:1006B0004C136BAB7CAB8DAB9EAB009F6001019F7D
:1006C000D00CD00C11240D2C000CEE08FF08A50155
:1006D0009401C501B4010E944C134B015C01C70198
:1006E000B6010E9429129B01AC01C501B4010E9410
:1006F0009E100E94C7136BAB7CAB8DAB9EAB69A504
:100700007AA529A13AA1621B730B072E000C880B56
:10071000990B0E9429124B015C0183014DA15EA13E
:10072000041B150B9B01AC010E944C136FAB78AFFF
:1007300089AF9AAF009F6001019FD00CD00C1124AB
:100740000D2C000CEE08FF08A5019401C501B401B1
:100750000E944C134B015C01C701B6010E94291293
:100760009B01AC01C501B4010E949E100E94C713F9
:100770006FAB78AF89AF9AAF6DA57EA589A19AA11D
:10078000681B790B072E000C880B990B0E9429120D
:100790004B015C0109A91AA9EDA1FEA10E1B1F0BBB
:1007A0009B01AC010E944C1369A37AA38BA39CA369
:1007B000009F6001019FD00CD00C11240D2C000C67
:1007C000EE08FF08A5019401C501B4010E944C1375
:1007D0004B015C01C701B6010E9429129B01AC01CB
:1007E000C501B4010E949E100E94C7134B015C0119
:1007F0006DA57EA529A53AA5621B730B072E000CDB
:10080000880B990B0E94291269A37AA38BA39CA33E
:1008100009A91AA9061917099B01AC010E944C13DA
:100820006DA37EA38FA398A7009F6001019FD00CAA
:10083000D00C11240D2C000CEE08FF0829A13AA1C0
:100840004BA15CA1CA01B9010E944C1369A37AA310
:100850008BA39CA3C701B6010E9429129B01AC0186
:1008600069A17AA18BA19CA10E949E100E94C7132E
:100870002BAD3CAD4DAD5EAD29833A834B835C839C
:1008800023962CAD3DAD4EAD5FAD23972D833E83BA
:100890004F8358872BA93CA94DA95EA929873A8780
:1008A0004B875C872FA938AD49AD5AAD2D873E8760
:1008B0004F87588B898A9A8AAB8ABC8A6D8B7E8BCC
:1008C0008F8B988FAE014F5F5F4F7A0100E010E091
:1008D000612C712CC12CD12C212C312CF701819051
:1008E0009190A190B1907F01262D372D4C2D5D2D3B
:1008F000C501B4010E943F13181634F4682C792CFA
:10090000CA2CDB2C202E312E0F5F1F4F0630110515
:1009100029F7822D932D0E949501FC01E080F18042
:10092000FA8EE98E028113811C8F0B8FEE0CFF1C57
:10093000EE0CFF1CE40CF51C000F111F000F111F23
:10094000040D151DF70160817181F801808191818D
:10095000680F791F772314F46F5F7F4F7595679544
:10096000072E000C880B990B0E9429124B015C0189
:10097000F70162817381F80182819381680F791F89
:10098000772314F46F5F7F4F75956795072E000CE2
:10099000880B990B0E94291269A37AA38BA39CA3AD
:1009A0009E01215E3F4FAE01435E5F4FBE016F5F10
:1009B0007F4FCE0149960E94E3010D8D1E8D000FE1
:1009C000111F000F111F040D151D2F8C38A0220CB4
:1009D000331C220C331C240C351CF80160817181FE
:1009E000F10180819181681B790B072E000C880B27
:1009F000990B0E9429126B017C01F80162817381BD
:100A0000F10182819381681B790B072E000C880B02
:100A1000990B0E9429129058A70196010E941D115E
:100A20002BED3FE049EC5FE30E949E106B017C01DF
:100A3000A501940160E070E080E094E40E949D10C4
:100A40004B015C0129A13AA14BA15CA160E070E0DF
:100A50008FEB93E40E949D102B013C01C701B6016E
:100A60000E94B91369A37AA38BA39CA3C701B60103
:100A70000E9481116DA37EA38FA398A706E311E0C6
:100A800029A13AA14BA15CA1C301B2010E944C1360
:100A900069A77AA78BA79CA72DA13EA14FA158A516
:100AA000C501B4010E944C139B01AC0169A57AA554
:100AB0008BA59CA50E949D10F801608371838283A1
:100AC00093832DA13EA14FA158A5C301B2010E945D
:100AD0004C132B013C0129A13AA14BA15CA1C501FA
:100AE000B4010E944C139B01AC01C301B2010E94EE
:100AF0009E10F8016483758386839783F7FAF094D8
:100B0000F7F8F094C086D186E286F386C801CE5B02
:100B1000DF4F0FB6F894DEBF0FBECDBFDF91CF9190
:100B20001F910F91FF90EF90DF90CF90BF90AF900B
:100B30009F908F907F906F905F904F903F902F90FD
:100B400008954F925F926F927F92AF92BF92CF9231
:100B5000DF92EF92FF920F931F93CF93DF93CDB766
:100B6000DEB768970FB6F894DEBF0FBECDBFFC01AD
:100B70000DB71EB7808191819A8389838085918585
:100B80009C838B83828193819E838D8382859385D1
:100B900098878F83848195819A87898784859585B5
:100BA0009C878B87868197819E878D878685978591
:100BB000988B8F87FE01719688E0DF011D928A95E0
:100BC000E9F7709720E030E080E090E040815181CB
:100BD0004F3F534071F0DC01AA0FBB1F41E050E0D2
:100BE0004C0F5D1FA40FB51F51963C932E93509749
:100BF00001962F5F3F4F34962430310539F7009727
:100C000009F48BC0EDB6FEB66C01CC0CDD1CCC0C2F
:100C1000DD1CADB7BEB7AC19BD090FB6F894BEBFA9
:100C20000FBEADBFEDB7FEB731965F0118161906BE
:100C300024F59E012F5E3F4FDF01CE0EDF1EF9012E
:100C4000419151919F01FA01EE0FFF1FEE0FFF1F1F
:100C500041E050E04C0F5D1FE40FF51F40815181D2
:100C600011965C934E934281538113965C934E93FD
:100C700012971496AC15BD0511F76E9A7698DB01A4
:100C80004D905D906D907C901397EEE4F1E0408282
:100C900051826282738214964D905D906D907C902B
:100CA0001797448255826682778218964D915D919E
:100CB0006D917C911B97408751876287738704975A
:100CC00029F4C5010E949002DC0102C0AEE4B1E04B
:100CD0004D915D916D917C911397E2E4F1E0408339
:100CE00051836283738314964D915D916D917C91D4
:100CF0001797448355836683778318968D919D91CA
:100D00000D90BC91A02D80879187A287B3870FB6E5
:100D1000F894FEBE0FBEEDBE22C0FB018081918122
:100D2000A281B381E2E4F1E080839183A283B38363
:100D3000DB011496CD90DD90ED90FC901797C48266
:100D4000D582E682F78218964D915D916D917C91E6
:100D50001B9740875187628773876E9A769A82E4E1
:100D600091E00FB6F8941EBF0FBE0DBF68960FB688
:100D7000F894DEBF0FBECDBFDF91CF911F910F91D1
:100D8000FF90EF90DF90CF90BF90AF907F906F90EB
:100D90005F904F9008956E9A76980E94F5006A9A37
:100DA00072980E94A708FDCFCF93DF93CDB7DEB72F
:100DB0002C970FB6F894DEBF0FBECDBF0E94A708D8
:100DC000CE0101960E94400820E030E0A90169812F
:100DD0007A818B819C810E943F1318166CF480E00D
:100DE00090E0AFEAB3EC80930A0190930B01A093DB
:100DF0000C01B0930D010CC080E090E0AFEAB3E4C9
:100E000080930A0190930B01A0930C01B0930D0104
:100E100010920101109200012C960FB6F894DEBFDB
:100E20000FBECDBFDF91CF91089580915C01833AD1
:100E3000F9F028F4813A51F0823A59F00895863A4F
:100E400069F1873A91F1843AB1F521C00E94D40644
:100E50000895EDE5F1E0818180935B0182818093CB
:100E60005A0181E090E09093010180930001089580
:100E7000EDE5F1E0818180935B01828180935A01ED
:100E800081E090E09093010180930001089581E05A
:100E900090E09093010180930001089581E090E03B
:100EA0009093010180930001089581E090E0909378
:100EB00001018093000108956AE08DE591E00E94B0
:100EC000740C80915D0180935C010E941507089568
:100ED0001F920F920FB60F921124289A2A9A0F9000
:100EE0000FBE0F901F9018951F920F920FB60F9282
:100EF000112428980F900FBE0F901F9018951F92E5
:100F00000F920FB60F9211242A980F900FBE0F90D8
:100F10001F9018951F920F920FB60F9211242F93C6
:100F20003F934F935F936F937F938F939F93AF9371
:100F3000BF93EF93FF930E945C07FF91EF91BF91E6
:100F4000AF919F918F917F916F915F914F913F9161
:100F50002F910F900FBE0F901F9018951F920F9218
:100F60000FB60F921124AF92BF92CF92DF92EF9201
:100F7000FF920F931F932F933F934F935F936F9322
:100F80007F938F939F93AF93BF93EF93FF93A09023
:100F90000E01B0900F01C0901001D0901101E090AF
:100FA0001201F0901301009114011091150120918C
:100FB0006F01309170014091710150917201609107
:100FC0000A0170910B0180910C0190910D01E0914B
:100FD0000101EF93E0910001EF93E0916A01EF933B
:100FE000E0916901EF93E0916801EF93E09167016F
:100FF000EF93E0910501EF93E0910401EF93E0910D
:101000000301EF93E0910201EF93E0916E01EF9302
:10101000E0916D01EF93E0916C01EF93E0916B0132
:10102000EF93E0910901EF93E0910801EF93E091D4
:101030000701EF93E0910601EF930E94A7098DB796
:101040009EB742960FB6F8949EBF0FBE8DBFFF911C
:10105000EF91BF91AF919F918F917F916F915F9130
:101060004F913F912F911F910F91FF90EF90DF9043
:10107000CF90BF90AF900F900FBE0F901F9018951C
:10108000FC018091830190918401A0918501B09130
:10109000860180839183A283B38380917F019091A5
:1010A0008001A0918101B091820184839583A68300
:1010B000B78380917B0190917C01A0917D01B091DB
:1010C0007E0180879187A287B38781E008958F9200
:1010D0009F92AF92BF92CF92DF92EF92FF926B01FD
:1010E0007C014B015C01E894B7F82BED3FE049E44B
:1010F00050E4C501B4010E943F131816BCF42BED57
:101100003FE049EC50E4C701B6010E944C13A50131
:1011100094010E9486119B01AC01C701B6010E9497
:101120009D10562F472F382F292F04C05C2D4D2D91
:101130003E2D2F2D652F742F832F922FFF90EF9030
:10114000DF90CF90BF90AF909F908F9008952F9297
:101150003F924F925F926F927F928F929F92AF9247
:10116000BF92CF92DF92EF92FF920F931F93CF9394
:10117000DF93CDB7DEB7A8970FB6F894DEBF0FBEEA
:10118000CDBFCE0101960E940A106B817C810F8138
:10119000188549855A85AD85BE852F853889EB89A7
:1011A000FC898D899E89E980FA80FA8EE98E1C8FF0
:1011B0000B8FBE8FAD8FF8A3EF8F7AA369A35CA3CB
:1011C0004BA33EA32DA398A78FA36EE171E0CE01A0
:1011D00049960E94A1058C01FC0180859185A2851C
:1011E000B3850F2EFEE12F2EF1E03F2EF02DF10101
:1011F00080879187A287B387F80160857185828592
:1012000093850E9467082B013C01F8016087718774
:101210008287938724EA30E74DE75FE3608171813D
:10122000828193810E944C134B015C0120E037EDD9
:1012300043E25CE3609183017091840180918501B8
:10124000909186010E944C139B01AC01C501B40131
:101250000E949E104B015C01609383017093840196
:10126000809385019093860124EA30E74DE75FE3A0
:10127000F80164817581868197810E944C136B010E
:101280007C0120E037ED43E25CE360917F017091E7
:10129000800180918101909182010E944C139B01F9
:1012A000AC01C701B6010E949E106B017C016093E6
:1012B0007F0170938001809381019093820124EAE1
:1012C00030E74DE75FE3C301B2010E944C132B01ED
:1012D0003C0120E037ED43E25CE360917B017091DB
:1012E0007C0180917D0190917E010E944C139B01B5
:1012F000AC01C301B2010E949E1060937B01709308
:101300007C0180937D0190937E01F1018082918226
:10131000A282B382C482D582E682F782A8960FB6F3
:10132000F894DEBF0FBECDBFDF91CF911F910F911B
:10133000FF90EF90DF90CF90BF90AF909F908F90F5
:101340007F906F905F904F903F902F9008954F92B5
:101350005F926F927F928F929F92AF92BF92CF9245
:10136000DF92EF92FF920F931F93CF93DF93CDB74E
:10137000DEB764970FB6F894DEBF0FBECDBF29016C
:101380003A01ED86FE860F87188B209183013091FC
:10139000840140918501509186010E949D106D83CA
:1013A0007E838F83988720917F01309180014091C7
:1013B000810150918201C301B2010E949D10698791
:1013C0007A878B879C872D813E814F8158850E942B
:1013D0001D1120917B0130917C0140917D01509144
:1013E0007E010E949D1069837A838B839C832B01ED
:1013F0003C01E89477F8A6019501C301B2010E946F
:101400003F13181684F429813A814B815C81C30112
:10141000B2010E948611A60195010E944C136983B6
:101420007A838B839C8369817A818B819C810E94E2
:1014300067084B015C019B01AC016FA178A589A5F0
:101440009AA50E944C136B017C0120917701309189
:1014500078014091790150917A01C501B4010E944F
:101460009D102FE632E143E85AE30E9486119B016A
:10147000AC016BA57CA58DA59EA50E944C139B017C
:10148000AC01C701B6010E949D1080927701909235
:101490007801A0927901B0927A012BED3FE049E406
:1014A00050E40E94861169837A838B839C83DC01DC
:1014B000CB01B058898B9A8BAB8BBC8BC501B40127
:1014C0000E9481112B013C0129853A854B855C8561
:1014D000CA01B9010E944C136B017C012D813E8130
:1014E0004F815885CA01B9010E944C139B01AC0180
:1014F000C701B6010E949E100E94C7139B01AC0158
:10150000C301B2019F770E944C136B017C019B01C8
:10151000AC016FA578A989A99AA90E944C132B0147
:101520003C012091730130917401409175015091FB
:101530007601C701B6010E949D102FE632E143E813
:101540005AE30E9486119B01AC016BA97CA98DA96D
:101550009EA90E944C139B01AC01C301B2010E94E1
:101560009D102B013C01C0927301D0927401E09256
:101570007501F092760120E030E040E252E40E94F2
:101580003F13181644F40F2E412C512CF0E26F2E0D
:10159000F2E47F2EF02D20E030E040E252E4C3017F
:1015A000B2010E9486116B017C01C501B4019F77D5
:1015B0002BED3FE049EC5FE30E947C1188230CF5A2
:1015C00029813A814B815C81C701B6010E949D103F
:1015D00060931A0170931B0180931C0190931D016D
:1015E000A701960169817A818B819C810E949E105E
:1015F000609316017093170180931801909319015D
:1016000020C0A701960169897A898B899C890E94EB
:101610009D1060931A0170931B0180931C0190939D
:101620001D01A701960169817A818B819C810E94AD
:101630009D10609316017093170180931801909389
:10164000190120E030E0A90160911A0170911B019D
:1016500080911C0190911D010E947C11882314F43B
:10166000299801C0299A20E030E0A9016091160173
:101670007091170180911801909119010E947C11BD
:10168000882314F42B9801C02B9A80901A01909013
:101690001B01A0901C01B0901D01E894B7F8809246
:1016A0001A0190921B01A0921C01B0921D01C090E2
:1016B0001601D0901701E0901801F0901901E894FC
:1016C000F7F8C0921601D0921701E0921801F0923B
:1016D0001901A7019601C501B4010E943F13181614
:1016E0002CF01C2D0D2D7E2C6F2C04C0182D092DD7
:1016F0007A2C6B2C2D853E854F855889612F702F54
:10170000872D962D0E943F13181664F5212F302F38
:10171000472D562DC501B4010E9486112D853E85A9
:101720004F8558890E944C1360931A0170931B01D6
:1017300080931C0190931D01212F302F472D562D92
:10174000C701B6010E9486112D853E854F855889B7
:101750000E944C1360931601709317018093180137
:10176000909319018FA998AD892B81F010921A01DD
:1017700010921B0110921C0110921D011092160173
:1017800010921701109218011092190108E810E048
:10179000D8016D917C9180E090E00E942712209109
:1017A0001A0130911B0140911C0150911D010E94B2
:1017B0004C130E94F81170938B0060938A00F8011B
:1017C0006081718180E090E00E94271220911601D3
:1017D0003091170140911801509119010E944C134A
:1017E0000E94F81170938D0060938C0064960FB680
:1017F000F894DEBF0FBECDBFDF91CF911F910F9147
:10180000FF90EF90DF90CF90BF90AF909F908F9020
:101810007F906F905F904F900895589A599A5A9A76
:101820008CE08093B800E9E6F0E0808180628083FC
:1018300080818F7E8083EA9A789408951F93CF9356
:10184000DF93182FD62FC42F0E940D0C94EA90938B
:10185000BC00ECEBF0E090819923ECF790E59093DD
:10186000BB0094E89093BC00ECEBF0E090819923EE
:10187000ECF79091B900987F903229F484E9809335
:10188000BC0080E02DC081E08093BB0084E88093A1
:10189000BC00ECEBF0E090819923ECF71093BB00D7
:1018A00084E88093BC00ECEBF0E080818823ECF7C7
:1018B000D093BB0084E88093BC00ECEBF0E0808127
:1018C0008823ECF7C093BB0084E88093BC00ECEB6A
:1018D000F0E080818823ECF784E98093BC0081E00C
:1018E000DF91CF911F910895CF93DF939C0184EAFC
:1018F0008093BC00ECEBF0E090819923ECF781E55C
:101900008093BB0084E88093BC00ECEBF0E0908116
:101910009923ECF78091B900887F883429F484E911
:101920008093BC0080E041C084EC8093BC00ECEB71
:10193000F0E090819923ECF74091BB00461309C079
:10194000842F90E001971816190644F040E050E00B
:101950001AC084E98093BC0080E027C0D90150E020
:1019600041505109B901640F751FECEBF0E084ECB4
:10197000CBEBD0E0808390819923ECF798819D9305
:10198000A617B707B9F784E88093BC00ECEBF0E04A
:1019900090819923ECF78091BB00F901E40FF51FCA
:1019A000808384E98093BC0081E0DF91CF9108952A
:1019B00081E08093D70080EA8093D80082E189BDDE
:1019C00009B400FEFDCF80E98093D8001092E000BA
:1019D00010928901109287018CE08093E200789444
:1019E00008951F920F920FB60F9211248F939F9319
:1019F000EF93FF93E1EEF0E08081108283FF11C04E
:101A00001092E90091E09093EB001092EC0092E1CB
:101A10009093ED0098E09093F0001092890110925D
:101A2000870182FF13C080918901882379F080911A
:101A30008801882359F0815080938801811106C064
:101A400084E08093E9008AE38093E800FF91EF91BE
:101A50009F918F910F900FBE0F901F9018951F921E
:101A60000F920FB60F9211240F931F932F933F9352
:101A70004F935F936F937F938F939F93AF93BF9396
:101A8000CF93DF93EF93FF931092E9008091E800EA
:101A900083FF4CC1E1EFF0E0608180812081908183
:101AA00030E0392B4081908150E0592B7081C0810A
:101AB00092EF9093E800863009F058C004C081E2AC
:101AC0008093EB003AC166E088EF90E0FC01A591BD
:101AD000B4912A173B0711F0079623C0FC013296F8
:101AE000A591B4914A175B0711F007961AC0FC0143
:101AF000349645915491FC0136962491872F90E0BD
:101B00009C2B8F3F910519F010F08FEF90E082171A
:101B100008F4282FA8EEB0E070E16EEFC1EFD0E03E
:101B200003C0615099F6CBCF8C91982F9570E1F35B
:101B300082FD03C1322F213108F0372F332309F4FE
:101B4000F9C0FA01832F94919883815031968111C5
:101B5000FACF8FEF830F90E00196480F591F231B98
:101B60006C932111E1CF3031F9F2E7C0853061F497
:101B70008EEF8093E800E8EEF0E0808180FFFDCFFB
:101B800020682093E300D9C0893009F035C0611185
:101B9000CDC02093890110928701109288018EEFA9
:101BA0008093E80081E021EA31E0C9EED0E0ABEEBD
:101BB000B0E00CEE10E06DEE70E08883A9014F5F9D
:101BC0005F4FF90194919C93992361F0FA0144913C
:101BD000F8014083F901329694912D5F3F4FFB014C
:101BE000908301C09A018F5F853039F7EAEEF0E00B
:101BF0008EE180831082A1C0883081F4603809F0C2
:101C000095C0E8EEF0E0808180FFFDCF80918901F2
:101C10008093F1008EEF8093E8008FC08132B9F499
:101C2000613A09F083C0E8EEF0E0808180FFFDCFEB
:101C3000EAE2F1E021E331E0A1EFB0E081918C93A1
:101C4000E217F307D9F78EEF8093E80076C0803271
:101C5000D1F4613209F06AC0E8EEF0E0808182FFE1
:101C6000FDCFEAE2F1E021E331E0A1EFB0E08C91B9
:101C70008193E217F307D9F7E8EEF0E08BEF80836A
:101C80008EEF80835AC0823271F4613209F04EC007
:101C900020938701E8EEF0E0808180FFFDCF8EEF9A
:101CA0008093E8004AC081111AC0E8EEF0E080811C
:101CB00080FFFDCF623851F4E9EEF0E0408380917F
:101CC000EB0085FB882780F9108201C080E0E1EFFE
:101CD000F0E0808310828EEF8093E8002EC0982F72
:101CE0009D7F913019F5623009F5232BF9F44F7778
:101CF0009FEF940F9430D0F49EEF9093E8004093C0
:101D0000E900833021F481E28093EB0016C089E181
:101D10008093EB0081E090E002C0880F991F4A9504
:101D2000E2F7EAEEF0E08083108207C081E2809360
:101D3000EB0003C06C932111F7CEFF91EF91DF917F
:101D4000CF91BF91AF919F918F917F916F915F9153
:101D50004F913F912F911F910F910F900FBE0F90B8
:101D60001F90189520E030E0ECEBF0E080818823B4
:101D700034F02F5F3F4F293E83E03807B9F781E009
:101D8000283E334009F480E008958093BB0084E846
:101D90008093BC000E94B20E882319F08091B90094
:101DA000887F0895CF93C82F94EA9093BC000E9437
:101DB000B20E882361F08C2F880F0E94C50E8032EE
:101DC00029F484E98093BC0080E001C081E0CF91D8
:101DD00008950E940D0C88E50E94D20E882309F414
:101DE000CDC080E30E94C50E882309F4C9C081E0FC
:101DF0000E94C50E882309F4C5C084E98093BC0005
:101E000083EC99E00197F1F700C0000088E50E949B
:101E1000D20E882309F4B8C080E00E94C50E882342
:101E200009F4B4C080E00E94C50E882309F4B0C054
:101E300080E00E94C50E882309F4ACC080E00E94B7
:101E4000C50E882309F4A8C080E00E94C50E88232F
:101E500009F4A4C080E00E94C50E882309F4A0C044
:101E600080E00E94C50E882309F49CC080E90E948E
:101E7000C50E882309F498C084E98093BC0083ECE4
:101E800099E00197F1F700C0000088E50E94D20EAA
:101E9000882309F48BC087E00E94C50E882309F4CB
:101EA00087C080E00E94C50E882309F483C081E4C6
:101EB0000E94C50E882309F47FC084E98093BC008A
:101EC00083EC99E00197F1F700C0000088E50E94DB
:101ED000D20E882309F472C08AE10E94C50E8823BD
:101EE00009F46EC080E40E94C50E882309F46AC01C
:101EF00080E00E94C50E882309F466C084E98093BF
:101F0000BC0083EC99E00197F1F700C0000088E580
:101F10000E94D20E882309F459C083E30E94C50EA3
:101F2000882309F455C083E00E94C50E882309F474
:101F300051C084E98093BC0083EC99E00197F1F7EC
:101F400000C0000088E50E94D20E882309F444C036
:101F500080E30E94C50E882309F440C088E00E94F7
:101F6000C50E8823E9F184E98093BC0083EC99E0F5
:101F70000197F1F700C0000081E0089580E0089526
:101F800080E0089580E0089580E0089580E008955D
:101F900080E0089580E0089580E0089580E008954D
:101FA00080E0089580E0089580E0089580E008953D
:101FB00080E0089580E0089580E0089580E008952D
:101FC00080E0089580E0089580E0089580E008951D
:101FD00080E0089580E0089580E0089580E008950D
:101FE00080E00895CF93C82F84EA8093BC000E94BC
:101FF000B20E882369F08C2F880F8F5F0E94C50E68
:10200000883429F484E98093BC0080E001C081E039
:10201000CF9108950F931F93CF93DF93CDB7DEB782
:1020200060970FB6F894DEBF0FBECDBF8C01FE01E6
:10203000319680E1DF011D928A95E9F788E50E94DB
:10204000D20E882309F469C086E30E94C50E882356
:1020500009F465C084E98093BC00B8E0BA95F1F753
:10206000000088E50E94F20F882309F45AC0BE01DF
:102070006F5F7F4FAE01405F5F4FECEBF0E084ECB1
:102080002BEB30E0808390819923ECF7D9019C9170
:10209000DB019D93BD01A417B507A1F784E88093E8
:1020A000BC00ECEBF0E080818823ECF78091BB0072
:1020B000888B84E98093BC00BE016C5F7F4FF80180
:1020C000085E1F4FDB012C91322F3073CB0102973A
:1020D000DC018C9190E0B0E13B9F800D911D1124BB
:1020E00091838083422F407C50E0440F551F440F62
:1020F000551FCB010197DC018C91480F511D538373
:1021000042832F7030E0358324836D5F7F4F369696
:10211000E017F107B9F681E005C080E003C080E078
:1021200001C080E060960FB6F894DEBF0FBECDBF51
:10213000DF91CF911F910F9108955058BB27AA2787
:102140000E94B5100C94F1120E94B81238F00E944F
:10215000BF1220F039F49F3F19F426F40C948E122C
:102160000EF4E095E7FB0C948812E92F0E941613F9
:1021700058F3BA17620773078407950720F079F4BC
:10218000A6F50C9438130EF4E0950B2EBA2FA02D63
:102190000B01B90190010C01CA01A0011124FF2714
:1021A000591B99F0593F50F4503E68F11A16F0400F
:1021B000A22F232F342F4427585FF3CF469537950E
:1021C0002795A795F0405395C9F77EF41F16BA0BD3
:1021D000620B730B840BBAF09150A1F0FF0FBB1F81
:1021E000661F771F881FC2F70EC0BA0F621F731FCA
:1021F000841F48F4879577956795B795F7959E3F27
:1022000008F0B0CF9395880F08F09927EE0F9795B7
:10221000879508950E94B81260F080E891E009F473
:102220009EEF0E94BF1228F040E851E071F45EEF8B
:102230000CC00C948E120C943813E92FE0780E9495
:10224000161340F3092E052AB1F32617370748075E
:10225000590738F00E2E07F8E02569F0E025E06414
:102260000AC0EF6307F8009407FADB01B9019D018A
:10227000DC01CA01AD01EF930E949D110E94F11291
:102280000E944D115F91552339F02BED3FE049E459
:1022900050FD49EC0C949E100895DF93DD27B92F73
:1022A000BF7740E85FE31616170648075B0718F488
:1022B000D92F0E9444139F938F937F936F930E9413
:1022C0000714ECEAF0E00E9491120E94F1122F91A3
:1022D0003F914F915F910E945F13DD2351F0905821
:1022E000A2EA2AED3FE049EC5FE3D0785D270E9447
:1022F000B510DF910C94F1120E94641208F481E091
:1023000008950E94C812E3950C9402130E949A113A
:102310000C94F1120E94BF1258F00E94B81240F0C3
:1023200029F45F3F29F00C94881251110C94391351
:102330000C948E120E94161368F39923B1F355235F
:1023400091F3951B550BBB27AA27621773078407C8
:1023500038F09F5F5F4F220F331F441FAA1FA9F35E
:1023600035D00E2E3AF0E0E832D091505040E6954C
:10237000001CCAF72BD0FE2F29D0660F771F881FAD
:10238000BB1F261737074807AB07B0E809F0BB0BA0
:10239000802DBF01FF2793585F4F3AF09E3F5105B4
:1023A00078F00C9488120C9439135F3FE4F3983E54
:1023B000D4F3869577956795B795F7959F5FC9F79D
:1023C000880F911D9695879597F90895E1E0660F1E
:1023D000771F881FBB1F621773078407BA0720F097
:1023E000621B730B840BBA0BEE1F88F7E095089500
:1023F0000E941E1388F09F5798F0B92F9927B75164
:10240000B0F0E1F0660F771F881F991F1AF0BA9598
:10241000C9F714C0B13091F00E943813B1E00895AB
:102420000C943813672F782F8827B85F39F0B93F9D
:10243000CCF3869577956795B395D9F73EF490954B
:102440008095709561957F4F8F4F9F4F0895E894C9
:1024500009C097FB3EF490958095709561957F4FEC
:102460008F4F9F4F9923A9F0F92F96E9BB2793959A
:10247000F695879577956795B795F111F8CFFAF4AA
:10248000BB0F11F460FF1BC06F5F7F4F8F4F9F4FDB
:1024900016C0882311F096E911C0772321F09EE839
:1024A000872F762F05C0662371F096E8862F70E09F
:1024B00060E02AF09A95660F771F881FDAF7880F79
:1024C0009695879597F90895990F0008550FAA0BCF
:1024D000E0E8FEEF16161706E807F907C0F0121637
:1024E0001306E407F50798F0621B730B840B950B3A
:1024F00039F40A2661F0232B242B252B21F408958F
:102500000A2609F4A140A6958FEF811D811D08952B
:1025100097F99F6780E870E060E008959FEF80EC96
:102520000895DF93CF931F930F93FF92EF92DF9263
:102530007B018C01689406C0DA2EEF010E945F13C4
:10254000FE01E894A5912591359145915591A6F309
:10255000EF010E94B510FE019701A801DA9469F716
:10256000DF90EF90FF900F911F91CF91DF91089531
:1025700000240A9416161706180609060895002462
:102580000A94121613061406050608950C948E126A
:102590000E941E13D8F3E894E0E0BB279F57F0F0A9
:1025A0002AED3FE049EC06C0EE0FBB0F661F771F18
:1025B000881F28F0B23A62077307840728F0B25ADE
:1025C000620B730B840BE3959A9572F7803830F4A5
:1025D0009A95BB0F661F771F881FD2F790480C94FF
:1025E0000D14092E0394000C11F4882352F0BB0F34
:1025F00040F4BF2B11F460FF04C06F5F7F4F8F4F1B
:102600009F4F0895EF93E0FF07C0A2EA2AED3FE055
:1026100049EC5FEB0E94B5100E94F1120F900394F9
:1026200001FC9058E9EDF0E00C94201457FD90580F
:10263000440F551F59F05F3F71F04795880F97FB86
:10264000991F61F09F3F79F0879508951216130640
:102650001406551FF2CF4695F1DF08C0161617066F
:102660001806991FF1CF86957105610508940895A4
:10267000E894BB2766277727CB0197F908950E9436
:10268000641208F48FEF08959B01AC0160E070E0E4
:1026900080E89FE30C9486110E945F130C94F11262
:1026A0000E94B81238F00E94BF1220F0952311F05A
:1026B0000C9488120C948E1211240C9439130E94DD
:1026C000161370F3959FC1F3950F50E0551F629F4D
:1026D000F001729FBB27F00DB11D639FAA27F00D7B
:1026E000B11DAA1F649F6627B00DA11D661F829FA2
:1026F0002227B00DA11D621F739FB00DA11D621F87
:10270000839FA00D611D221F749F3327A00D611DA3
:10271000231F849F600D211D822F762F6A2F112485
:102720009F5750409AF0F1F088234AF0EE0FFF1FB8
:10273000BB1F661F771F881F91505040A9F79E3F0F
:10274000510580F00C9488120C9439135F3FE4F328
:10275000983ED4F3869577956795B795F795E79565
:102760009F5FC1F7FE2B880F911D9695879597F96E
:1027700008959F930E94C8120F9007FCEE5F0C947F
:10278000021319F416F40C948E120C940B140E947C
:102790001E13B8F39923C9F3B6F39F57550B87FF60
:1027A0000E9419140024A0E640EA90018058569532
:1027B000979528F4805C660F771F881F20F02617F6
:1027C0003707480730F4621B730B840B202931292B
:1027D0004A2BA69517940794202531254A2758F7A8
:1027E000660F771F881F20F026173707480730F439
:1027F000620B730B840B200D311D411DA09581F7D9
:10280000B901842F9158880F9695879508959B015B
:10281000AC010C944C139F3F31F0915020F48795FC
:1028200077956795B795880F911D9695879597F938
:10283000089591505040660F771F881FD2F7089572
:102840009F938F937F936F93FF93EF939B01AC01C3
:102850000E944C13EF91FF910E9491122F913F9192
:0C2860004F915F910C944C13F894FFCF43
:10286C000100CDCC4C3E0000803F0000AFC3DB0F1D
:10287C004940CDCCCC3ECDCCCC3DCDCCCC3D00C01C
:10288C007F4400C07F440000B44300E1000000001E
:02289C00080032
:00000001FF
