:100000000C94E2000C94FF000C94FF000C943B094C
:100010000C94FF000C94FF000C94FF000C94FF0064
:100020000C94FF000C94FF000C94FA0D0C94380E05
:100030000C94FF000C94FF000C94FF000C94FF0044
:100040000C94FF000C9419090C9425090C943009A8
:100050000C94FF000C94FF000C94FF000C94FF0024
:100060000C94FF000C94FF000C94FF000C94FF0014
:100070000C94FF000C94FF000C94FF000C94FF0004
:100080000C94FF000C94FF000C94FF000C94FF00F4
:100090000C94FF000C94FF000C94FF000C94FF00E4
:1000A0000C94FF000C94FF000C94FF009512B51205
:1000B000D512F51215133513551375139513B51382
:1000C000D513F513084AD73B3BCE016E84BCBFFD68
:1000D000C12F3D6C74319ABD56833DDA3D00C77F18
:1000E00011BED9E4BB4C3E916BAAAABE00000080B1
:1000F0003F05A84CCDB2D44EB93836A9020C50B940
:10010000918688083CA6AAAA2ABE000000803F006B
:1001100000010000A7011200020000640143000377
:100120000000600104010309044C011202030904E8
:10013000440106030309043A0108080334003100AE
:100140003000000006034D003200000012034A0098
:100150002E0020004600690065006E00650000006A
:100160000403090409024300020100C0320904002B
:100170000001020201000524001001052401010113
:10018000042402060524060001070582031000402E
:1001900009040100020A00000007050302400000F4
:1001A000070584024000001201000202000010C096
:1001B000167A040001010203010001C11201803618
:1001C0000181360011241FBECFEFDAE0DEBFCDBFC4
:1001D00011E0A0E0B1E0E8E7FFE202C005900D9277
:1001E000A435B107D9F721E0A4E5B1E001C01D9223
:1001F000AC3DB207E1F70E9400090C94BA170C94C9
:1002000000000F931F93CF93DF93E1E6F0E080E8C7
:100210008083108285BF85BF50985198209A219A7B
:10022000229A239A3E9A3F9A289829982A982B989E
:10023000469847980E94160D0E94F20F8823E1F31A
:1002400078940E94E10D4AE060E281E00E94270D6F
:100250008823C9F3E1E8F0E080818B7F808380818F
:100260008D7F808380818E7F808380818F7E80835D
:10027000808188608083E0E8F0E080818D7F8083EA
:1002800080818E7F808380818F7D808380818F7E3F
:10029000808308E810E0C0E8DEE3F801D183C08382
:1002A0006081718180E090E00E94A7152DEC3CEC0C
:1002B0004CEC5DE30E94CC160E94781570938B0085
:1002C00060938A00F8016081718180E090E00E9473
:1002D000A7152DEC3CEC4CEC5DE30E94CC160E9483
:1002E000781570938D0060938C00EFE6F0E08081CC
:1002F0008260808380818460808380818860808345
:10030000E1E9F0E080818B7F808380818D7F808335
:1003100080818160808380818F7E808380818860FE
:100320008083E0E9F0E080818D7F808380818E7F13
:100330008083D0939900C0939800CCE7D0E0888167
:100340008F778883888180648883EAE7F0E0808102
:100350008B7F8083808182608083808181608083C5
:10036000AEE7B0E08C9181608C938C9182608C932D
:100370008C9180618C938C9180628C938C91806441
:100380008C938C9180688C93ADE7B0E08C91816008
:100390008C938C9182608C938C9184608C938C91E3
:1003A00088608C938C9180618C938C9180628C930B
:1003B00080818F7D8083ABE7B0E08C9180628C93ED
:1003C00088818460888388818D7F8883888181602B
:1003D0008883808180688083808180648083DF91CE
:1003E000CF911F910F91089582309105F9F02CF46F
:1003F000009751F0019789F042C08430910551F186
:10040000F4F0059791F13BC0E4E5F1E01182108230
:1004100081E090E09383828332C0E4E5F1E01182D1
:10042000108282E090E09383828329C0E4E5F1E0CA
:100430001182108283E090E09383828320C0E4E500
:10044000F1E081E090E09183808382E090E093830B
:10045000828315C0E4E5F1E081E090E09183808340
:1004600083E090E0938382830AC0E4E5F1E082E0D8
:1004700090E09183808383E090E09383828384E59E
:1004800091E008952F923F924F925F926F927F92E8
:100490008F929F92AF92BF92CF92DF92EF92FF9294
:1004A0000F931F93CF93DF9300D000D0CDB7DEB76B
:1004B0005C014A013A832983062F172FF8014190E6
:1004C0005190619071908F011C821B82212C312CE4
:1004D00012C0F801C190D190E190F1908F01A70175
:1004E0009601C301B2010E94BF16181624F426011A
:1004F00037012B803C808B819C8101969C838B8370
:10050000069739F7822D932D0E94F401FC0120817A
:10051000318162817381F501408151812417350752
:1005200059F4F40131832083F50182819381E981BB
:10053000FA819183808337C0F501828193812817E6
:10054000390759F4F40131832083F50180819181C9
:10055000E981FA819183808326C06417750759F475
:10056000F40171836083F50182819381E981FA81CD
:100570009183808318C06817790759F4F401718357
:100580006083F50180819181E981FA819183808383
:100590000AC0F40191838083F50180819181E98112
:1005A000FA81918380830F900F900F900F90DF91CD
:1005B000CF911F910F91FF90EF90DF90CF90BF9060
:1005C000AF909F908F907F906F905F904F903F90F3
:1005D0002F9008952F923F924F925F926F927F9249
:1005E0008F929F92AF92BF92CF92DF92EF92FF9243
:1005F0000F931F93CF93DF93CDB7DEB7C254D109CA
:100600000FB6F894DEBF0FBECDBF2C01FC010480F5
:10061000F581E02DFAA3E9A3FC010081118169A114
:100620007AA1601B710B072E000C880B990B0E949E
:10063000A9156B017C01F2010680F781E02DFEA374
:10064000EDA3F20122803380ADA0BEA0A218B308B2
:100650009B01AC010E94CC1669A77AA78BA79CA727
:10066000AA9C4001AB9C900C900C1124092C000C0E
:10067000AA08BB08A7019601C701B6010E94CC16C3
:100680006B017C01C501B4010E94A9159B01AC015D
:10069000C701B6010E941E140E9447176BAF7CAFC2
:1006A0008DAF9EAFF2010084F185E02DFAA7E9A796
:1006B000BF01601B710B072E000C880B990B0E9469
:1006C000A9156B017C01F201628473845301A218A5
:1006D000B3089B01AC010E94CC166DA77EA78FA723
:1006E00098ABAA9C4001AB9C900C900C1124092C57
:1006F000000CAA08BB08A7019601C701B6010E9419
:10070000CC166B017C01C501B4010E94A9159B01A7
:10071000AC01C701B6010E941E140E944717239620
:100720006CAF7DAF8EAF9FAF2397F2010484F58548
:10073000E02DFEA7EDA7BF01601B710B072E000C7B
:10074000880B990B0E94A9154B015C01F2010684EC
:10075000F785E02DFAABE9AB8F01021913099B0174
:10076000AC010E94CC166BAB7CAB8DAB9EAB009FFB
:100770006001019FD00CD00C11240D2C000CEE0850
:10078000FF08A5019401C501B4010E94CC164B01DC
:100790005C01C701B6010E94A9159B01AC01C5010E
:1007A000B4010E941E140E9447176BAB7CAB8DAB4B
:1007B0009EAB69A57AA529A13AA1621B730B072EEE
:1007C000000C880B990B0E94A9154B015C01830159
:1007D0004DA15EA1041B150B9B01AC010E94CC1620
:1007E0006FAB78AF89AF9AAF009F6001019FD00CCB
:1007F000D00C11240D2C000CEE08FF08A50194016B
:10080000C501B4010E94CC164B015C01C701B601C1
:100810000E94A9159B01AC01C501B4010E941E14E0
:100820000E9447176FAB78AF89AF9AAF6DA57EA5D1
:1008300089A19AA1681B790B072E000C880B990BD4
:100840000E94A9154B015C0109A91AA9EDA1FEA1FD
:100850000E1B1F0B9B01AC010E94CC1669A37AA34F
:100860008BA39CA3009F6001019FD00CD00C11248E
:100870000D2C000CEE08FF08A5019401C501B40180
:100880000E94CC164B015C01C701B6010E94A9155C
:100890009B01AC01C501B4010E941E140E944717C0
:1008A0004B015C016DA57EA529A53AA5621B730BC2
:1008B000072E000C880B990B0E94A91569A37AA337
:1008C0008BA39CA309A91AA9061917099B01AC01BE
:1008D0000E94CC166DA37EA38FA398A7009F6001F2
:1008E000019FD00CD00C11240D2C000CEE08FF0839
:1008F00029A13AA14BA15CA1CA01B9010E94CC1661
:1009000069A37AA38BA39CA3C701B6010E94A91572
:100910009B01AC0169A17AA18BA19CA10E941E142C
:100920000E9447172BAD3CAD4DAD5EAD29833A8398
:100930004B835C8323962CAD3DAD4EAD5FAD2397CD
:100940002D833E834F8358872BA93CA94DA95EA9CF
:1009500029873A874B875C872FA938AD49AD5AADB7
:100960002D873E874F87588B898A9A8AAB8ABC8AA3
:100970006D8B7E8B8F8B988FAE014F5F5F4F7A01AF
:1009800000E010E0612C712CC12CD12C212C312CD9
:10099000F70181909190A190B1907F01262D372D84
:1009A0004C2D5D2DC501B4010E94BF16181634F4FC
:1009B000682C792CCA2CDB2C202E312E0F5F1F4F78
:1009C0000630110529F7822D932D0E94F401FC01B8
:1009D000E080F180FA8EE98E028113811C8F0B8FEB
:1009E000EE0CFF1CEE0CFF1CE40CF51C000F111F9D
:1009F000000F111F040D151DF70160817181F801B1
:100A000080819181680F791F772314F46F5F7F4F86
:100A100075956795072E000C880B990B0E94A915F8
:100A20004B015C01F70162817381F801828193813E
:100A3000680F791F772314F46F5F7F4F7595679563
:100A4000072E000C880B990B0E94A91569A37AA3A5
:100A50008BA39CA39E01215E3F4FAE01435E5F4F7F
:100A6000BE016F5F7F4FCE0149960E9442020D8DFD
:100A70001E8D000F111F000F111F040D151D2F8C4F
:100A800038A0220C331C220C331C240C351CF8011A
:100A900060817181F10180819181681B790B072E42
:100AA000000C880B990B0E94A9156B017C01F801C1
:100AB00062817381F10182819381681B790B072E1A
:100AC000000C880B990B0E94A9159058A70196015C
:100AD0000E949D142BED3FE049EC5FE30E941E1441
:100AE0006B017C01A501940160E070E080E094E47A
:100AF0000E941D144B015C0129A13AA14BA15CA1EC
:100B000060E070E08FEB93E40E941D142B013C0128
:100B1000C701B6010E94391769A37AA38BA39CA3CE
:100B2000C701B6010E9401156DA37EA38FA398A7EC
:100B300008E511E029A13AA14BA15CA1C301B201D2
:100B40000E94CC1669A77AA78BA79CA72DA13EA1CE
:100B50004FA158A5C501B4010E94CC169B01AC0160
:100B600069A57AA58BA59CA50E941D14F801608338
:100B70007183828393832DA13EA14FA158A5C30108
:100B8000B2010E94CC162B013C0129A13AA14BA134
:100B90005CA1C501B4010E94CC169B01AC01C3014C
:100BA000B2010E941E14F8016483758386839783C3
:100BB000F7FAF094F7F8F094C086D186E286F386CF
:100BC000C801CE5BDF4F0FB6F894DEBF0FBECDBFBE
:100BD000DF91CF911F910F91FF90EF90DF90CF9019
:100BE000BF90AF909F908F907F906F905F904F904D
:100BF0003F902F9008954F925F926F927F92AF92A5
:100C0000BF92CF92DF92EF92FF920F931F93CF93F9
:100C1000DF93CDB7DEB768970FB6F894DEBF0FBE8F
:100C2000CDBFFC010DB71EB7808191819A83898366
:100C3000808591859C838B83828193819E838D8324
:100C40008285938598878F83848195819A87898708
:100C5000848595859C878B87868197819E878D87E4
:100C600086859785988B8F87FE01719688E0DF01D6
:100C70001D928A95E9F7709720E030E080E090E0DF
:100C8000408151814F3F534071F0DC01AA0FBB1FDF
:100C900041E050E04C0F5D1FA40FB51F51963C93EF
:100CA0002E93509701962F5F3F4F34962430310595
:100CB00039F7009709F489C0EDB6FEB66C01CC0C8B
:100CC000DD1CCC0CDD1CADB7BEB7AC19BD090FB631
:100CD000F894BEBF0FBEADBFEDB7FEB731965F0152
:100CE0001816190624F59E012F5E3F4FDF01CE0E28
:100CF000DF1EF901419151919F01FA01EE0FFF1F93
:100D0000EE0FFF1F41E050E04C0F5D1FE40FF51F99
:100D10004081518111965C934E9342815381139689
:100D20005C934E9312971496AC15BD0511F7DB0139
:100D30004D905D906D907C901397E0E7F1E04082DC
:100D400051826282738214964D905D906D907C907A
:100D50001797448255826682778218964D915D91ED
:100D60006D917C911B9740875187628773870497A9
:100D700029F4C5010E94EA02DC0102C0A0E7B1E04B
:100D80004D915D916D917C911397E4E6F1E0408384
:100D900051836283738314964D915D916D917C9123
:100DA0001797448355836683778318968D919D9119
:100DB0000D90BC91A02D80879187A287B3870FB635
:100DC000F894FEBE0FBEEDBE20C0FB018081918174
:100DD000A281B381E4E6F1E080839183A283B383AF
:100DE000DB011496CD90DD90ED90FC901797C482B6
:100DF000D582E682F78218964D915D916D917C9136
:100E00001B97408751876287738784E691E00FB60E
:100E1000F8941EBF0FBE0DBF68960FB6F894DEBFE4
:100E20000FBECDBFDF91CF911F910F91FF90EF903B
:100E3000DF90CF90BF90AF907F906F905F904F907A
:100E40000895AF92BF92CF92DF92EF92FF920F93ED
:100E50001F93C19AA0900801B0900901C0900A01A7
:100E6000D0900B01E0900C01F0900D0100910E016B
:100E700010910F012091A3013091A4014091A5018F
:100E80005091A6016091A7017091A8018091A901DC
:100E90009091AA01E0919E01EF93E0919D01EF9363
:100EA000E0919C01EF93E0919B01EF93E0910301AE
:100EB000EF93E0910201EF93E0910101EF93E09154
:100EC0000001EF93E091A201EF93E091A101EF9374
:100ED000E091A001EF93E0919F01EF93E091070172
:100EE000EF93E0910601EF93E0910501EF93E0911C
:100EF0000401EF930E94C60A8DB79EB740960FB6C5
:100F0000F8949EBF0FBE8DBF1F910F91FF90EF9081
:100F1000DF90CF90BF90AF9008950E947412882305
:100F2000C9F180918A0190918B01A0918C01B091BF
:100F30008D018093A7019093A801A093A901B0937C
:100F4000AA018091860190918701A0918801B091BA
:100F500089018093A3019093A401A093A501B0936C
:100F6000A60182E99AE0A6E8BFE380930801909386
:100F70000901A0930A01B0930B0183E393E3A3E378
:100F8000BFE380930C0190930D01A0930E01B093E9
:100F90000F0108950E947412811138C08091800160
:100FA00090918101A0918201B09183018093A7016A
:100FB0009093A801A093A901B093AA0180917C010C
:100FC00090917D01A0917E01B0917F018093A3015A
:100FD0009093A401A093A501B093A6018BED9FE08F
:100FE000A9E4B0E48093080190930901A0930A0159
:100FF000B0930B0184EA90E7ADE7BFE380930C0167
:1010000090930D01A0930E01B0930F010895CF931B
:10101000DF93CDB7DEB728970FB6F894DEBF0FBECB
:10102000CDBFEAE7F0E08081806180830E94841276
:101030008823E1F0CE0101960E94A61189819A8150
:10104000AB81BC818093800190938101A093820148
:10105000B09383018D819E81AF81B88580937C019F
:1010600090937D01A0937E01B0937F0128960FB6E7
:10107000F894DEBF0FBECDBFDF91CF910895E1E8B8
:10108000F0E08081816080830895E1E8F0E0808174
:101090008E7F808328982A9808950E94450820E032
:1010A00030E0A90160918A0170918B0180918C01DF
:1010B00090918D010E94BF1618166CF480E090E0AC
:1010C000AFEAB3EC80938A0190938B01A0938C01DB
:1010D000B0938D01089580E090E0AFEAB3E480938F
:1010E0008A0190938B01A0938C01B0938D01089598
:1010F00080919001833AD9F028F4813A51F0823AF4
:1011000059F00895863A09F1873A11F1843A11F5B8
:1011100019C00E943F080895E1E9F1E081818093C0
:101120008F01828180938E010E9445080895E1E934
:10113000F1E0818180938F01828180938E010E94F2
:10114000450808950E94450808950E944D08089595
:101150000E94450808956AE081E991E00E947D0DB2
:1011600080919101809390010E9478080895CF9317
:10117000DF93CDB7DEB72C970FB6F894DEBF0FBE66
:10118000CDBF0E94C609CE0101960E945F0920E0F2
:1011900030E0A90169817A818B819C810E94BF1610
:1011A00018169CF480E090E0AFEAB3EC80938A01DB
:1011B00090938B01A0938C01B0938D0182E090E01D
:1011C000909385018093840112C080E090E0AFEAA3
:1011D000B3E480938A0190938B01A0938C01B09328
:1011E0008D0181E090E090938501809384012C969D
:1011F0000FB6F894DEBF0FBECDBFDF91CF9108953B
:101200006E9A76980E9401010E9445086A9A729827
:101210000E94B708CAE7D0E00E94C609888184FD11
:101220000E9407080E948D07C19BF6CF0E942107EC
:10123000F3CF1F920F920FB60F921124289A2A9A79
:101240000F900FBE0F901F9018951F920F920FB620
:101250000F92112428980F900FBE0F901F90189591
:101260001F920F920FB60F9211242A980F900FBE63
:101270000F901F9018951F920F920FB60F92112486
:101280002F933F934F935F936F937F938F939F938E
:10129000AF93BF93EF93FF930E94AB08FF91EF9141
:1012A000BF91AF919F918F917F916F915F914F917E
:1012B0003F912F910F900FBE0F901F901895FC013A
:1012C0008091BB019091BC01A091BD01B091BE0184
:1012D00080839183A283B3838091B7019091B801F9
:1012E000A091B901B091BA0184839583A683B78395
:1012F0008091B3019091B401A091B501B091B60174
:1013000080879187A287B38781E008958F929F920B
:10131000AF92BF92CF92DF92EF92FF926B017C016E
:101320004B015C01E894B7F82BED3FE049E450E451
:10133000C501B4010E94BF161816BCF42BED3FE0A6
:1013400049EC50E4C701B6010E94CC16A5019401F6
:101350000E9406159B01AC01C701B6010E941D1435
:10136000562F472F382F292F04C05C2D4D2D3E2D91
:101370002F2D652F742F832F922FFF90EF90DF90EA
:10138000CF90BF90AF909F908F9008952F923F92F3
:101390004F925F926F927F928F929F92AF92BF9285
:1013A000CF92DF92EF92FF920F931F93CF93DF9331
:1013B000CDB7DEB7A8970FB6F894DEBF0FBECDBF8E
:1013C000CE0101960E9413116B817C810F811885DB
:1013D00049855A85AD85BE852F853889EB89FC897D
:1013E0008D899E89E980FA80FA8EE98E1C8F0B8F99
:1013F000BE8FAD8FF8A3EF8F7AA369A35CA34BA335
:101400003EA32DA398A78FA368E171E0CE01499672
:101410000E94FB058C01FC0180859185A285B38526
:101420000F2EF8E12F2EF1E03F2EF02DF1018087F5
:101430009187A287B387F80160857185828593853E
:101440000E9486092B013C01F80160877187828721
:10145000938724EA30E74DE75FE360817181828101
:1014600093810E94CC164B015C0120E037ED43E2F2
:101470005CE36091BB017091BC018091BD019091D2
:10148000BE010E94CC169B01AC01C501B4010E94B3
:101490001E144B015C016093BB017093BC018093EF
:1014A000BD019093BE0124EA30E74DE75FE3F80108
:1014B00064817581868197810E94CC166B017C01C5
:1014C00020E037ED43E25CE36091B7017091B80131
:1014D0008091B9019091BA010E94CC169B01AC0198
:1014E000C701B6010E941E146B017C016093B70115
:1014F0007093B8018093B9019093BA0124EA30E760
:101500004DE75FE3C301B2010E94CC162B013C0101
:1015100020E037ED43E25CE36091B3017091B401E8
:101520008091B5019091B6010E94CC169B01AC014F
:10153000C301B2010E941E146093B3017093B40101
:101540008093B5019093B601F10180829182A282CD
:10155000B382C482D582E682F782A8960FB6F89449
:10156000DEBF0FBECDBFDF91CF911F910F91FF90D6
:10157000EF90DF90CF90BF90AF909F908F907F9033
:101580006F905F904F903F902F9008954F925F9291
:101590006F927F928F929F92AF92BF92CF92DF9283
:1015A000EF92FF920F931F93CF93DF93CDB7DEB7E8
:1015B00064970FB6F894DEBF0FBECDBF29013A0184
:1015C000ED86FE860F87188B2091BB013091BC0100
:1015D0004091BD015091BE010E941D146D837E8318
:1015E0008F8398872091B7013091B8014091B9015C
:1015F0005091BA01C301B2010E941D1469877A8714
:101600008B879C872D813E814F8158850E949D1438
:101610002091B3013091B4014091B5015091B601D0
:101620000E941D140E94860969837A838B839C83A0
:101630002B013C01E89477F8A6019501C301B201A2
:101640000E94BF16181684F429813A814B815C816F
:10165000C301B2010E940615A60195010E94CC1695
:1016600069837A838B839C8329813A814B815C8156
:101670006FA178A589A59AA50E94CC166B017C0163
:101680002091AF013091B0014091B1015091B20170
:1016900069817A818B819C810E941D142FE632E141
:1016A00043E85AE30E9406159B01AC016BA57CA59B
:1016B0008DA59EA50E94CC169B01AC01C701B60169
:1016C0000E941D1429813A814B815C812093AF01D6
:1016D0003093B0014093B1015093B2012BED3FE044
:1016E00049E450E40E9406152B013C01DC01CB01CA
:1016F000B058898B9A8BAB8BBC8B69817A818B813B
:101700009C810E9401156B017C0129853A854B85DE
:101710005C85CA01B9010E94CC164B015C012D8188
:101720003E814F815885CA01B9010E94CC169B01A8
:10173000AC01C501B4010E941E140E9447179B0111
:10174000AC01C701B6019F770E94CC166B017C01EA
:101750009B01AC016FA578A989A99AA90E94CC1612
:101760004B015C012091AB013091AC014091AD0186
:101770005091AE01C701B6010E941D142FE632E15F
:1017800043E85AE30E9406159B01AC016BA97CA9B2
:101790008DA99EA90E94CC169B01AC01C501B40184
:1017A0000E941D144B015C01C092AB01D092AC01B0
:1017B000E092AD01F092AE0120E030E040E252E470
:1017C0000E94BF16181644F40F2E812C912CF0E2C3
:1017D000AF2EF2E4BF2EF02D20E030E040E252E4E4
:1017E000C501B4010E9406156B017C0169817A81F3
:1017F0008B819C819F772BED3FE049EC5FE30E945A
:10180000FC148823ECF4A3019201C701B6010E94E5
:101810001D14609314017093150180931601909329
:101820001701A7019601C301B2010E941E14609323
:1018300010017093110180931201909313011EC047
:10184000A701960169897A898B899C890E941D1458
:101850006093140170931501809316019093170102
:10186000A7019601C301B2010E941D1460931001EB
:1018700070931101809312019093130120E030E0E6
:10188000A901609114017091150180911601909148
:1018900017010E94FC14882314F4299801C0299A86
:1018A00020E030E0A9016091100170911101809158
:1018B0001201909113010E94FC14882314F42B98B8
:1018C00001C02B9A8090140190901501A0901601F0
:1018D000B0901701E894B7F8809214019092150126
:1018E000A0921601B0921701C0901001D090110182
:1018F000E0901201F0901301E894F7F8C092100103
:10190000D0921101E0921201F0921301A701960109
:10191000C501B4010E94BF1618162CF01C2D0D2D08
:101920007E2C6F2C04C0182D092D7A2C6B2C2D8544
:101930003E854F855889612F702F872D962D0E94E7
:10194000BF16181664F5212F302F472D562DC501CF
:10195000B4010E9406152D853E854F8558890E9449
:10196000CC16609314017093150180931601909327
:101970001701212F302F472D562DC701B6010E9488
:1019800006152D853E854F8558890E94CC1660939B
:10199000100170931101809312019093130108E8D4
:1019A00010E0D8016D917C9180E090E00E94A71535
:1019B00020911401309115014091160150911701A9
:1019C0000E94CC160E94781570938B0060938A0059
:1019D000F8016081718180E090E00E94A71520915C
:1019E00010013091110140911201509113010E9498
:1019F000CC160E94781570938D0060938C006496CD
:101A00000FB6F894DEBF0FBECDBFDF91CF911F910F
:101A10000F91FF90EF90DF90CF90BF90AF909F908D
:101A20008F907F906F905F904F900895589A599A39
:101A30005A9A8CE08093B800E9E6F0E080818062F9
:101A4000808380818F7E8083EA9A789408951F93A3
:101A5000CF93DF93182FD62FC42F0E94160D94EA30
:101A60009093BC00ECEBF0E090819923ECF790E5CB
:101A70009093BB0094E89093BC00ECEBF0E0908175
:101A80009923ECF79091B900987F903229F484E97A
:101A90008093BC0080E02DC081E08093BB0084E88F
:101AA0008093BC00ECEBF0E090819923ECF710936D
:101AB000BB0084E88093BC00ECEBF0E080818823DD
:101AC000ECF7D093BB0084E88093BC00ECEBF0E033
:101AD00080818823ECF7C093BB0084E88093BC002E
:101AE000ECEBF0E080818823ECF784E98093BC0084
:101AF00081E0DF91CF911F910895CF93DF939C01F7
:101B000084EA8093BC00ECEBF0E090819923ECF741
:101B100081E58093BB0084E88093BC00ECEBF0E0AF
:101B200090819923ECF78091B900887F883429F45B
:101B300084E98093BC0080E041C084EC8093BC00C9
:101B4000ECEBF0E090819923ECF74091BB00461359
:101B500009C0842F90E001971816190644F040E060
:101B600050E01AC084E98093BC0080E027C0D9010E
:101B700050E041505109B901640F751FECEBF0E0E2
:101B800084ECCBEBD0E0808390819923ECF79881B3
:101B90009D93A617B707B9F784E88093BC00ECEBD8
:101BA000F0E090819923ECF78091BB00F901E40FFC
:101BB000F51F808384E98093BC0081E0DF91CF91A1
:101BC000089581E08093D70080EA8093D80082E175
:101BD00089BD09B400FEFDCF80E98093D800109242
:101BE000E0001092C1011092BF018CE08093E200EE
:101BF000789408951F920F920FB60F9211248F932D
:101C00009F93EF93FF93E1EEF0E08081108283FFDA
:101C100011C01092E90091E09093EB001092EC005B
:101C200092E19093ED0098E09093F0001092C10142
:101C30001092BF0182FF13C08091C101882379F007
:101C40008091C001882359F081508093C001811197
:101C500006C084E08093E9008AE38093E800FF9166
:101C6000EF919F918F910F900FBE0F901F9018953D
:101C70001F920F920FB60F9211240F931F932F9361
:101C80003F934F935F936F937F938F939F93AF9304
:101C9000BF93CF93DF93EF93FF931092E90080916E
:101CA000E80083FF4CC1E1EFF0E06081808120819A
:101CB000908130E0392B4081908150E0592B708128
:101CC000C08192EF9093E800863009F058C004C0BC
:101CD00081E28093EB003AC166E080E191E0FC0193
:101CE000A591B4912A173B0711F0079623C0FC0178
:101CF0003296A591B4914A175B0711F007961AC066
:101D0000FC01349645915491FC0136962491872F1D
:101D100090E09C2B8F3F910519F010F08FEF90E031
:101D2000821708F4282FA8EEB0E070E16EEFC1EF43
:101D3000D0E003C0615099F6CBCF8C91982F95706D
:101D4000E1F382FD03C1322F213108F0372F332315
:101D500009F4F9C0FA01832F949198838150319648
:101D60008111FACF8FEF830F90E00196480F591F32
:101D7000231B6C932111E1CF3031F9F2E7C085309C
:101D800061F48EEF8093E800E8EEF0E0808180FF60
:101D9000FDCF20682093E300D9C0893009F035C019
:101DA0006111CDC02093C1011092BF011092C001FA
:101DB0008EEF8093E80081E029EB31E0C9EED0E0BE
:101DC000ABEEB0E00CEE10E06DEE70E08883A901A0
:101DD0004F5F5F4FF90194919C93992361F0FA0151
:101DE0004491F8014083F901329694912D5F3F4F61
:101DF000FB01908301C09A018F5F853039F7EAEECD
:101E0000F0E08EE180831082A1C0883081F46038D8
:101E100009F095C0E8EEF0E0808180FFFDCF809171
:101E2000C1018093F1008EEF8093E8008FC0813272
:101E3000B9F4613A09F083C0E8EEF0E0808180FFF8
:101E4000FDCFE4E2F1E02BE231E0A1EFB0E08191DF
:101E50008C93E217F307D9F78EEF8093E80076C0F2
:101E60008032D1F4613209F06AC0E8EEF0E080819E
:101E700082FFFDCFE4E2F1E02BE231E0A1EFB0E040
:101E80008C918193E217F307D9F7E8EEF0E08BEF3E
:101E900080838EEF80835AC0823271F4613209F000
:101EA0004EC02093BF01E8EEF0E0808180FFFDCFBF
:101EB0008EEF8093E8004AC081111AC0E8EEF0E08E
:101EC000808180FFFDCF623851F4E9EEF0E040837D
:101ED0008091EB0085FB882780F9108201C080E0AB
:101EE000E1EFF0E0808310828EEF8093E8002EC057
:101EF000982F9D7F913019F5623009F5232BF9F465
:101F00004F779FEF940F9430D0F49EEF9093E800BA
:101F10004093E900833021F481E28093EB0016C006
:101F200089E18093EB0081E090E002C0880F991F67
:101F30004A95E2F7EAEEF0E08083108207C081E282
:101F40008093EB0003C06C932111F7CEFF91EF91CA
:101F5000DF91CF91BF91AF919F918F917F916F91C1
:101F60005F914F913F912F911F910F910F900FBE55
:101F70000F901F90189520E030E0ECEBF0E08081AE
:101F8000882334F02F5F3F4F293E83E03807B9F7AD
:101F900081E0283E334009F480E008958093BB003F
:101FA00084E88093BC000E94BB0F882319F08091C5
:101FB000B900887F0895CF93C82F94EA9093BC000E
:101FC0000E94BB0F882361F08C2F880F0E94CE0FD8
:101FD000803229F484E98093BC0080E001C081E074
:101FE000CF9108950E94160D88E50E94DB0F88238B
:101FF00009F4CDC080E30E94CE0F882309F4C9C044
:1020000081E00E94CE0F882309F4C5C084E9809343
:10201000BC0083EC99E00197F1F700C0000088E56F
:102020000E94DB0F882309F4B8C080E00E94CE0F25
:10203000882309F4B4C080E00E94CE0F882309F4FD
:10204000B0C080E00E94CE0F882309F4ACC080E0CD
:102050000E94CE0F882309F4A8C080E00E94CE0F12
:10206000882309F4A4C080E00E94CE0F882309F4DD
:10207000A0C080E00E94CE0F882309F49CC080E9B4
:102080000E94CE0F882309F498C084E98093BC0095
:1020900083EC99E00197F1F700C0000088E50E9409
:1020A000DB0F882309F48BC087E00E94CE0F8823C2
:1020B00009F487C080E00E94CE0F882309F483C012
:1020C00081E40E94CE0F882309F47FC084E98093C5
:1020D000BC0083EC99E00197F1F700C0000088E5AF
:1020E0000E94DB0F882309F472C08AE10E94CE0FA0
:1020F000882309F46EC080E40E94CE0F882309F47F
:102100006AC080E00E94CE0F882309F466C084E98B
:102110008093BC0083EC99E00197F1F700C00000C8
:1021200088E50E94DB0F882309F459C083E30E94ED
:10213000CE0F882309F455C083E00E94CE0F882378
:1021400009F451C084E98093BC0083EC99E00197C5
:10215000F1F700C0000088E50E94DB0F882309F436
:1021600044C080E30E94CE0F882309F440C088E079
:102170000E94CE0F8823E9F184E98093BC0083ECB0
:1021800099E00197F1F700C0000081E0089580E038
:10219000089580E0089580E0089580E0089580E04B
:1021A000089580E0089580E0089580E0089580E03B
:1021B000089580E0089580E0089580E0089580E02B
:1021C000089580E0089580E0089580E0089580E01B
:1021D000089580E0089580E0089580E0089580E00B
:1021E000089580E0089580E0089580E0089580E0FB
:1021F000089580E00895CF93C82F84EA8093BC00AF
:102200000E94BB0F882369F08C2F880F8F5F0E947C
:10221000CE0F883429F484E98093BC0080E001C0AB
:1022200081E0CF9108950F931F93CF93DF93CDB7A4
:10223000DEB760970FB6F894DEBF0FBECDBF8C013E
:10224000FE01319680E1DF011D928A95E9F788E56C
:102250000E94DB0F882309F469C086E30E94CE0F39
:10226000882309F465C084E98093BC00B8E0BA957E
:10227000F1F7000088E50E94FB10882309F45AC09A
:10228000BE016F5F7F4FAE01405F5F4FECEBF0E050
:1022900084EC2BEB30E0808390819923ECF7D9011B
:1022A0009C91DB019D93BD01A417B507A1F784E8BC
:1022B0008093BC00ECEBF0E080818823ECF7809108
:1022C000BB00888B84E98093BC00BE016C5F7F4FAC
:1022D000F801085E1F4FDB012C91322F3073CB01C8
:1022E0000297DC018C9190E0B0E13B9F800D911D45
:1022F000112491838083422F407C50E0440F551F6E
:10230000440F551FCB010197DC018C91480F511DE3
:10231000538342832F7030E0358324836D5F7F4F7A
:102320003696E017F107B9F681E005C080E003C0FA
:1023300080E001C080E060960FB6F894DEBF0FBE6B
:10234000CDBFDF91CF911F910F9108952F923F92B2
:102350004F925F926F927F928F929F92AF92BF92B5
:10236000CF92DF92EF92FF920F931F93CF93DF9361
:10237000CDB7DEB762970FB6F894DEBF0FBECDBF04
:102380009A8B898BCE0101960E945F090F2EF6EC85
:102390008F2EF1E09F2EF02D0F2EFBE2EF2EF1E0BD
:1023A000FF2EF02D0F2EF3E5AF2EF1E0BF2EF02D16
:1023B0001D861E861F86188AC12CD12C212C312CFB
:1023C000F401019111914F01C00ED11EF70141900E
:1023D0005190619071907F01B801012E000C880B23
:1023E000990B0E94A9159B01AC01C301B2010E9487
:1023F000CC169B01AC016D857E858F8598890E94E6
:102400001E146D877E878F87988B201631060CF4FB
:102410001801EA14FB04A1F6F4E62F1631045CF46B
:10242000E989FA891082118212821382148215823C
:102430001682178240C0B601DD0C880B990B0E94F2
:10244000A9159B01AC016D857E858F8598890E94B9
:10245000061529853A854B855C850E941E146B0103
:102460007C010E94011520E030E04FE254E40E941C
:10247000CC1629813A814B815C810E941E14E98926
:10248000FA896083718382839383C701B6010E94B6
:10249000391720E030E04FE254E40E94CC162D8141
:1024A0003E814F8158850E941E14E989FA89648310
:1024B00075838683978362960FB6F894DEBF0FBE4E
:1024C000CDBFDF91CF911F910F91FF90EF90DF90E3
:1024D000CF90BF90AF909F908F907F906F905F90C4
:1024E0004F903F902F9008952091C4013091C501E5
:1024F0008091C2019091C301280F391F81E02B33D5
:1025000037400CF480E00895EAE7F0E080818F77AF
:102510008083E091DA01F091DB01EC30F10508F005
:1025200082C1EA5AFF4F0C94B41781E090E0909377
:10253000DB018093DA01EBE7F0E080818F7D80831F
:10254000ECE7F0E080818B7F808380818D7F8083CA
:1025500080818E7F80838091780090917900909324
:10256000CB018093CA0180E05FC182E090E090934C
:10257000DB018093DA01EBE7F0E080818F7D8083DF
:10258000ECE7F0E080818B7F808380818D7F80838A
:102590008081816080838091780090917900909310
:1025A000CF018093CE0180E03FC183E090E0909323
:1025B000DB018093DA01EBE7F0E080818F7D80839F
:1025C000ECE7F0E080818460808380818D7F808370
:1025D00080818E7F808380917800909179009093A4
:1025E000C3018093C20180E01FC184E090E090931A
:1025F000DB018093DA01EBE7F0E080818F7D80835F
:10260000ECE7F0E080818460808380818D7F80832F
:10261000808181608083809178009091790090938F
:10262000D1018093D00180E0FFC085E090E09093DD
:10263000DB018093DA01EBE7F0E080818F7D80831E
:10264000ECE7F0E080818460808380818260808319
:1026500080818E7F80838091780090917900909323
:10266000D5018093D40180E0DFC086E090E09093B4
:10267000DB018093DA01EBE7F0E080818F7D8083DE
:10268000ECE7F0E0808184608083808182608083D9
:10269000808181608083809178009091790090930F
:1026A000D7018093D60180E0BFC087E090E090938F
:1026B000DB018093DA01EBE7F0E0808180628083C8
:1026C000ECE7F0E080818B7F808380818D7F808349
:1026D00080818E7F808380917800909179009093A3
:1026E000D9018093D80180E09FC088E090E090936A
:1026F000DB018093DA01EBE7F0E080818062808388
:10270000ECE7F0E080818B7F808380818D7F808308
:10271000808181608083809178009091790090938E
:10272000C7018093C60180E07FC089E090E090936C
:10273000DB018093DA01EBE7F0E080818062808347
:10274000ECE7F0E080818B7F8083808182608083F2
:1027500080818E7F80838091780090917900909322
:10276000D3018093D20180E05FC08AE090E0909333
:10277000DB018093DA01EBE7F0E080818062808307
:10278000ECE7F0E080818B7F8083808182608083B2
:10279000808181608083809178009091790090930E
:1027A000CD018093CC0180E03FC08BE090E090931E
:1027B000DB018093DA01EBE7F0E0808180628083C7
:1027C000ECE7F0E080818460808380818D7F80836E
:1027D00080818E7F808380917800909179009093A2
:1027E000C9018093C80180E01FC01092DB011092E4
:1027F000DA01EBE7F0E0808180628083ECE7F0E0D3
:1028000080818460808380818D7F808380818160EE
:10281000808380917800909179009093C501809396
:10282000C40181E001C080E0EAE7F0E090819068B7
:10283000908390819064908308955058BB27AA2775
:102840000E9435140C9471160E94381638F00E94BC
:102850003F1620F039F49F3F19F426F40C940E161D
:102860000EF4E095E7FB0C940816E92F0E949616EB
:1028700058F3BA17620773078407950720F079F4B5
:10288000A6F50C94B8160EF4E0950B2EBA2FA02DD9
:102890000B01B90190010C01CA01A0011124FF270D
:1028A000591B99F0593F50F4503E68F11A16F04008
:1028B000A22F232F342F4427585FF3CF4695379507
:1028C0002795A795F0405395C9F77EF41F16BA0BCC
:1028D000620B730B840BBAF09150A1F0FF0FBB1F7A
:1028E000661F771F881FC2F70EC0BA0F621F731FC3
:1028F000841F48F4879577956795B795F7959E3F20
:1029000008F0B0CF9395880F08F09927EE0F9795B0
:10291000879508950E94381660F080E891E009F4E8
:102920009EEF0E943F1628F040E851E071F45EEF00
:102930000CC00C940E160C94B816E92FE0780E9487
:10294000961640F3092E052AB1F3261737074807D4
:10295000590738F00E2E07F8E02569F0E025E0640D
:102960000AC0EF6307F8009407FADB01B9019D0183
:10297000DC01CA01AD01EF930E941D150E94711682
:102980000E94CD145F91552339F02BED3FE049E4CF
:1029900050FD49EC0C941E140895DF93DD27B92FE8
:1029A000BF7740E85FE31616170648075B0718F481
:1029B000D92F0E94C4169F938F937F936F930E9489
:1029C0008717E4ECF0E00E9411160E9471162F9117
:1029D0003F914F915F910E94DF16DD2351F0905897
:1029E000A2EA2AED3FE049EC5FE3D0785D270E9440
:1029F0003514DF910C9471160E94E41508F481E0FF
:102A000008950E944816E3950C9482160E941A15A8
:102A10000C9471160E943F1658F00E94381640F030
:102A200029F45F3F29F00C94081651110C94B91643
:102A30000C940E160E94961668F39923B1F3552351
:102A400091F3951B550BBB27AA27621773078407C1
:102A500038F09F5F5F4F220F331F441FAA1FA9F357
:102A600035D00E2E3AF0E0E832D091505040E69545
:102A7000001CCAF72BD0FE2F29D0660F771F881FA6
:102A8000BB1F261737074807AB07B0E809F0BB0B99
:102A9000802DBF01FF2793585F4F3AF09E3F5105AD
:102AA00078F00C9408160C94B9165F3FE4F3983E46
:102AB000D4F3869577956795B795F7959F5FC9F796
:102AC000880F911D9695879597F90895E1E0660F17
:102AD000771F881FBB1F621773078407BA0720F090
:102AE000621B730B840BBA0BEE1F88F7E0950895F9
:102AF0000E949E1688F09F5798F0B92F9927B751DA
:102B0000B0F0E1F0660F771F881F991F1AF0BA9591
:102B1000C9F714C0B13091F00E94B816B1E0089521
:102B20000C94B816672F782F8827B85F39F0B93F13
:102B3000CCF3869577956795B395D9F73EF4909544
:102B40008095709561957F4F8F4F9F4F0895E894C2
:102B500009C097FB3EF490958095709561957F4FE5
:102B60008F4F9F4F9923A9F0F92F96E9BB27939593
:102B7000F695879577956795B795F111F8CFFAF4A3
:102B8000BB0F11F460FF1BC06F5F7F4F8F4F9F4FD4
:102B900016C0882311F096E911C0772321F09EE832
:102BA000872F762F05C0662371F096E8862F70E098
:102BB00060E02AF09A95660F771F881FDAF7880F72
:102BC0009695879597F90895990F0008550FAA0BC8
:102BD000E0E8FEEF16161706E807F907C0F0121630
:102BE0001306E407F50798F0621B730B840B950B33
:102BF00039F40A2661F0232B242B252B21F4089588
:102C00000A2609F4A140A6958FEF811D811D089524
:102C100097F99F6780E870E060E008959FEF80EC8F
:102C20000895DF93CF931F930F93FF92EF92DF925C
:102C30007B018C01689406C0DA2EEF010E94DF163A
:102C4000FE01E894A5912591359145915591A6F302
:102C5000EF010E943514FE019701A801DA9469F78B
:102C6000DF90EF90FF900F911F91CF91DF9108952A
:102C700000240A941616170618060906089500245B
:102C80000A94121613061406050608950C940E16DF
:102C90000E949E16D8F3E894E0E0BB279F57F0F01F
:102CA0002AED3FE049EC06C0EE0FBB0F661F771F11
:102CB000881F28F0B23A62077307840728F0B25AD7
:102CC000620B730B840BE3959A9572F7803830F49E
:102CD0009A95BB0F661F771F881FD2F790480C94F8
:102CE0008D17092E0394000C11F4882352F0BB0FAA
:102CF00040F4BF2B11F460FF04C06F5F7F4F8F4F14
:102D00009F4F0895EF93E0FF07C0A2EA2AED3FE04E
:102D100049EC5FEB0E9435140E9471160F900394EA
:102D200001FC9058E1EFF0E00C94A01757FD90588B
:102D3000440F551F59F05F3F71F04795880F97FB7F
:102D4000991F61F09F3F79F0879508951216130639
:102D50001406551FF2CF4695F1DF08C01616170668
:102D60001806991FF1CF869571056105089408959D
:102D7000E894BB2766277727CB0197F908950E942F
:102D8000E41508F48FEF08959B01AC0160E070E05A
:102D900080E89FE30C9406150E94DF160C947116D0
:102DA0000E94381638F00E943F1620F0952311F04B
:102DB0000C9408160C940E1611240C94B9160E944B
:102DC000961670F3959FC1F3950F50E0551F629FC3
:102DD000F001729FBB27F00DB11D639FAA27F00D74
:102DE000B11DAA1F649F6627B00DA11D661F829F9B
:102DF0002227B00DA11D621F739FB00DA11D621F80
:102E0000839FA00D611D221F749F3327A00D611D9C
:102E1000231F849F600D211D822F762F6A2F11247E
:102E20009F5750409AF0F1F088234AF0EE0FFF1FB1
:102E3000BB1F661F771F881F91505040A9F79E3F08
:102E4000510580F00C9408160C94B9165F3FE4F31A
:102E5000983ED4F3869577956795B795F795E7955E
:102E60009F5FC1F7FE2B880F911D9695879597F967
:102E700008959F930E9448160F9007FCEE5F0C94F4
:102E8000821619F416F40C940E160C948B170E94EB
:102E90009E16B8F39923C9F3B6F39F57550B87FFD6
:102EA0000E9499170024A0E640EA900180585695A8
:102EB000979528F4805C660F771F881F20F02617EF
:102EC0003707480730F4621B730B840B2029312924
:102ED0004A2BA69517940794202531254A2758F7A1
:102EE000660F771F881F20F026173707480730F432
:102EF000620B730B840B200D311D411DA09581F7D2
:102F0000B901842F9158880F9695879508959B0154
:102F1000AC010C94CC169F3F31F0915020F4879572
:102F200077956795B795880F911D9695879597F931
:102F3000089591505040660F771F881FD2F708956B
:102F40009F938F937F936F93FF93EF939B01AC01BC
:102F50000E94CC16EF91FF910E9411162F913F9184
:102F60004F915F910C94CC16EE0FFF1F0590F491DA
:082F7000E02D0994F894FFCF55
:102F7800CDCC4C3E0000803FDB0F4940A4707D3F24
:102F8800CDCCCC3DCDCCCC3D00C07F4400C07F44EF
:102F98000000B44300E10000000008DB0FC9BFC314
:102FA800B832BFC3B8B2BE00000000C3B8B23EC357
:102FB800B8323FDB0FC93F378D2740DB0F49403719
:042FC8008D27C00091
:00000001FF
