S01A00005265645F42756C6C5F4D61696E5F436F64652E7372656343
S11300000C94EC000C9409010C9409010C94FE0B63
S11300100C9409010C9409010C9409010C94090134
S11300200C9409010C9409010C9494110C94D211B0
S11300300C9409010C9409010C9409010C94090114
S11300400C9409010C94DC0B0C94E80B0C94F30B4A
S11300500C9409010C9409010C9409010C94120CE0
S11300600C9409010C9409010C9409010C940901E4
S11300700C9409010C9409010C9409010C940901D4
S11300800C9409010C9409010C9409010C940901C4
S11300900C9409010C9409010C9409010C940901B4
S11300A00C9409010C9409010C940901F308F60855
S11300B0F90804090F09260912091509260918095E
S11300C073169316B316D316F31613173317531761
S11300D073179317B317D317084AD73B3BCE016E58
S11300E084BCBFFDC12F3D6C74319ABD56833DDA8B
S11300F03D00C77F11BED9E4BB4C3E916BAAAABE9A
S1130100000000803F05A84CCDB2D44EB93836A9C2
S1130110020C50B9918688083CA6AAAA2ABE0000FF
S113012000803F0000010000BB01120002000078C3
S11301300143000300007401040103090460011277
S113014002030904580106030309044E01080803C5
S1130150340031003000000006034D00320000007E
S113016012034A002E0020004600690065006E005C
S1130170650000000403090409024300020100C0F1
S113018032090400000102020100052400100105E7
S11301902401010104240206052406000107058246
S11301A00310004009040100020A000000070503CF
S11301B00240000007058402400000120100020210
S11301C0000010C0167A040001010203010001C1FD
S11301D0120180360181360011241FBECFEFDAE010
S11301E0DEBFCDBF11E0A0E0B1E0E8E8F7E302C074
S11301F005900D92A436B107D9F721E0A4E6B1E049
S113020001C01D92AB3FB207E1F70E94AA0B0C9408
S1130210C21B0C940000CF93DF93C82FE1E6F0E0FB
S113022090E89083108295BF95BF50985198209A7A
S1130230219A229A239A539A559A289829982A9867
S11302402B98469847980E945F100E948C1388232D
S1130250E1F378940E947B11C11108C04AE060E286
S113026081E00E9470108823C9F313C0C13041F4A7
S11302704AE061E281E00E9470108823C9F309C05A
S1130280C23039F44AE062E281E00E9470108823AF
S1130290C9F3E1E8F0E080818B7F808380818D7FEA
S11302A0808380818E7F808380818F7E8083808124
S11302B088608083E0E8F0E080818D7F80838081A6
S11302C08E7F808380818F7D808380818F7E8083F9
S11302D0C8E8D0E08AEA99E29983888368817981C1
S11302E080E090E00E94AF192DEC3CEC4CEC5DE317
S11302F00E94D41A0E94801970938B0060938A0024
S11303006881798180E090E00E94AF192DEC3CEC8B
S11303104CEC5DE30E94D41A0E94801970938D0006
S113032060938C00EFE6F0E08081826080838081BE
S113033084608083808188608083E1E9F0E080814B
S11303408B7F808380818D7F8083808181608083A7
S113035080818F7E8083808188608083E0E9F0E003
S113036080818D7F808380818E7F808380E89EE37F
S1130370909399008093980085B58B7F85BD85B552
S11303808D7F85BD85B58E7F85BD85B5877F85BD10
S113039084B58D7F84BD84B58E7F84BDEEE6F0E0A8
S11303A0808181608083CCE7D0E088818F778883E7
S11303B0888180648883EAE7F0E080818B7F808392
S11303C0808182608083808181608083AEE7B0E039
S11303D08C9181608C938C9182608C938C918061E0
S11303E08C938C9180628C938C9180648C938C918F
S11303F080688C93ADE7B0E08C9181608C938C9194
S113040082608C938C9184608C938C9188608C93A3
S11304108C9180618C938C9180628C9380818F7D90
S11304208083ABE7B0E08C9180628C938881846098
S1130430888388818D7F8883888181608883808197
S113044080688083808180648083DF91CF91089568
S11304508130910541F08230910541F0892B41F4BE
S11304605B985D9808955D9A5B9808955D985B9A92
S1130470089582309105F9F02CF4009751F001971A
S113048089F042C08430910551F1F4F0059791F15F
S11304903BC0E4E6F1E01182108281E090E09383B6
S11304A0828332C0E4E6F1E01182108282E090E0BF
S11304B09383828329C0E4E6F1E01182108283E011
S11304C090E09383828320C0E4E6F1E081E090E051
S11304D09183808382E090E09383828315C0E4E675
S11304E0F1E081E090E09183808383E090E0938366
S11304F082830AC0E4E6F1E082E090E091838083A5
S113050083E090E09383828384E691E008952F92C0
S11305103F924F925F926F927F928F929F92AF928F
S1130520BF92CF92DF92EF92FF920F931F93CF93DC
S1130530DF9300D000D0CDB7DEB75C014A013A8327
S11305402983062F172FF8014190519061907190E3
S11305508F011C821B82212C312C12C0F801C19006
S1130560D190E190F1908F01A7019601C301B201EE
S11305700E94C71A181624F4260137012B803C80E8
S11305808B819C8101969C838B83069739F7822DFE
S1130590932D0E943902FC01208131816281738193
S11305A0F501408151812417350759F4F401318351
S11305B02083F50182819381E981FA81918380838B
S11305C037C0F501828193812817390759F4F40162
S11305D031832083F50180819181E981FA819183BE
S11305E0808326C06417750759F4F401718360830E
S11305F0F50182819381E981FA819183808318C016
S11306006817790759F4F40171836083F5018081D7
S11306109181E981FA81918380830AC0F4019183F5
S11306208083F50180819181E981FA8191838083BE
S11306300F900F900F900F90DF91CF911F910F911A
S1130640FF90EF90DF90CF90BF90AF909F908F90EE
S11306507F906F905F904F903F902F9008952F92CE
S11306603F924F925F926F927F928F929F92AF923E
S1130670BF92CF92DF92EF92FF920F931F93CF938B
S1130680DF93CDB7DEB7C254D1090FB6F894DEBFFD
S11306900FBECDBF2C01FC010480F581E02DFAA32F
S11306A0E9A3FC010081118169A17AA1601B710B8E
S11306B0072E000C880B990B0E94B1196B017C0169
S11306C0F2010680F781E02DFEA3EDA3F201228062
S11306D03380ADA0BEA0A218B3089B01AC010E9458
S11306E0D41A69A77AA78BA79CA7AA9C4001AB9CA4
S11306F0900C900C1124092C000CAA08BB08A7012B
S11307009601C701B6010E94D41A6B017C01C50190
S1130710B4010E94B1199B01AC01C701B6010E944A
S113072026180E944F1B6BAF7CAF8DAF9EAFF201BA
S11307300084F185E02DFAA7E9A7BF01601B710BC6
S1130740072E000C880B990B0E94B1196B017C01D8
S1130750F201628473845301A218B3089B01AC01B3
S11307600E94D41A6DA77EA78FA798ABAA9C4001BC
S1130770AB9C900C900C1124092C000CAA08BB080B
S1130780A7019601C701B6010E94D41A6B017C012E
S1130790C501B4010E94B1199B01AC01C701B601A6
S11307A00E9426180E944F1B23966CAF7DAF8EAF1C
S11307B09FAF2397F2010484F585E02DFEA7EDA7F2
S11307C0BF01601B710B072E000C880B990B0E9454
S11307D0B1194B015C01F2010684F785E02DFAABF7
S11307E0E9AB8F01021913099B01AC010E94D41AD1
S11307F06BAB7CAB8DAB9EAB009F6001019FD00CBB
S1130800D00C11240D2C000CEE08FF08A501940156
S1130810C501B4010E94D41A4B015C01C701B601A1
S11308200E94B1199B01AC01C501B4010E942618B4
S11308300E944F1B6BAB7CAB8DAB9EAB69A57AA5BD
S113084029A13AA1621B730B072E000C880B990B8C
S11308500E94B1194B015C0183014DA15EA1041BEF
S1130860150B9B01AC010E94D41A6FAB78AF89AF12
S11308709AAF009F6001019FD00CD00C11240D2C65
S1130880000CEE08FF08A5019401C501B4010E9403
S1130890D41A4B015C01C701B6010E94B1199B0136
S11308A0AC01C501B4010E9426180E944F1B6FAB16
S11308B078AF89AF9AAF6DA57EA589A19AA1681B6F
S11308C0790B072E000C880B990B0E94B1194B0170
S11308D05C0109A91AA9EDA1FEA10E1B1F0B9B0126
S11308E0AC010E94D41A69A37AA38BA39CA3009F92
S11308F06001019FD00CD00C11240D2C000CEE08CB
S1130900FF08A5019401C501B4010E94D41A4B014A
S11309105C01C701B6010E94B1199B01AC01C5017C
S1130920B4010E9426180E944F1B4B015C016DA567
S11309307EA529A53AA5621B730B072E000C880B14
S1130940990B0E94B11969A37AA38BA39CA309A94B
S11309501AA9061917099B01AC010E94D41A6DA3A8
S11309607EA38FA398A7009F6001019FD00CD00C99
S113097011240D2C000CEE08FF0829A13AA14BA16B
S11309805CA1CA01B9010E94D41A69A37AA38BA3FA
S11309909CA3C701B6010E94B1199B01AC0169A1D6
S11309A07AA18BA19CA10E9426180E944F1B2BADFB
S11309B03CAD4DAD5EAD29833A834B835C83239676
S11309C02CAD3DAD4EAD5FAD23972D833E834F835C
S11309D058872BA93CA94DA95EA929873A874B873B
S11309E05C872FA938AD49AD5AAD2D873E874F8717
S11309F0588B898A9A8AAB8ABC8A6D8B7E8B8F8B43
S1130A00988FAE014F5F5F4F7A0100E010E0612CD8
S1130A10712CC12CD12C212C312CF7018190919077
S1130A20A190B1907F01262D372D4C2D5D2DC50150
S1130A30B4010E94C71A181634F4682C792CCA2CF5
S1130A40DB2C202E312E0F5F1F4F0630110529F7A6
S1130A50822D932D0E943902FC01E080F180FA8EF0
S1130A60E98E028113811C8F0B8FEE0CFF1CEE0CA0
S1130A70FF1CE40CF51C000F111F000F111F040DC7
S1130A80151DF70160817181F80180819181680FE2
S1130A90791F772314F46F5F7F4F75956795072E41
S1130AA0000C880B990B0E94B1194B015C01F701F2
S1130AB062817381F80182819381680F791F7723A2
S1130AC014F46F5F7F4F75956795072E000C880BA4
S1130AD0990B0E94B11969A37AA38BA39CA39E01CD
S1130AE0215E3F4FAE01435E5F4FBE016F5F7F4F9C
S1130AF0CE0149960E9487020D8D1E8D000F111F95
S1130B00000F111F040D151D2F8C38A0220C331C4F
S1130B10220C331C240C351CF80160817181F10115
S1130B2080819181681B790B072E000C880B990B2F
S1130B300E94B1196B017C01F80162817381F1019A
S1130B4082819381681B790B072E000C880B990B0B
S1130B500E94B1199058A70196010E94A5182BED87
S1130B603FE049EC5FE30E9426186B017C01A5017C
S1130B70940160E070E080E094E40E9425184B0149
S1130B805C0129A13AA14BA15CA160E070E08FEB6C
S1130B9093E40E9425182B013C01C701B6010E9471
S1130BA0411B69A37AA38BA39CA3C701B6010E942E
S1130BB009196DA37EA38FA398A708E611E029A1C4
S1130BC03AA14BA15CA1C301B2010E94D41A69A746
S1130BD07AA78BA79CA72DA13EA14FA158A5C5011B
S1130BE0B4010E94D41A9B01AC0169A57AA58BA516
S1130BF09CA50E942518F8016083718382839383E6
S1130C002DA13EA14FA158A5C301B2010E94D41A3F
S1130C102B013C0129A13AA14BA15CA1C501B4015E
S1130C200E94D41A9B01AC01C301B2010E94261890
S1130C30F8016483758386839783F7FAF094F7F851
S1130C40F094C086D186E286F386C801CE5BDF4F7E
S1130C500FB6F894DEBF0FBECDBFDF91CF911F91C9
S1130C600F91FF90EF90DF90CF90BF90AF909F9047
S1130C708F907F906F905F904F903F902F9008954A
S1130C804F925F926F927F92AF92BF92CF92DF9218
S1130C90EF92FF920F931F93CF93DF93CDB7DEB7FD
S1130CA068970FB6F894DEBF0FBECDBFFC010DB739
S1130CB01EB7808191819A838983808591859C83E5
S1130CC08B83828193819E838D838285938598878C
S1130CD08F83848195819A878987848595859C876C
S1130CE08B87868197819E878D8786859785988B4C
S1130CF08F87FE01719688E0DF011D928A95E9F7DE
S1130D00709720E030E080E090E0408151814F3FD7
S1130D10534071F0DC01AA0FBB1F41E050E04C0FBF
S1130D205D1FA40FB51F51963C932E9350970196C7
S1130D302F5F3F4F34962430310539F7009709F47B
S1130D4089C0EDB6FEB66C01CC0CDD1CCC0CDD1CF0
S1130D50ADB7BEB7AC19BD090FB6F894BEBF0FBE90
S1130D60ADBFEDB7FEB731965F011816190624F52D
S1130D709E012F5E3F4FDF01CE0EDF1EF901419130
S1130D8051919F01FA01EE0FFF1FEE0FFF1F41E08B
S1130D9050E04C0F5D1FE40FF51F40815181119607
S1130DA05C934E934281538113965C934E931297B6
S1130DB01496AC15BD0511F7DB014D905D906D9057
S1130DC07C901397E0E8F1E0408251826282738262
S1130DD014964D905D906D907C9017974482558247
S1130DE06682778218964D915D916D917C911B97E7
S1130DF04087518762877387049729F4C5010E944D
S1130E002F03DC0102C0A0E8B1E04D915D916D912A
S1130E107C911397E4E7F1E0408351836283738309
S1130E2014964D915D916D917C91179744835583F0
S1130E306683778318968D919D910D90BC91A02D1A
S1130E4080879187A287B3870FB6F894FEBE0FBE42
S1130E50EDBE20C0FB0180819181A281B381E4E7D2
S1130E60F1E080839183A283B383DB011496CD9058
S1130E70DD90ED90FC901797C482D582E682F782CC
S1130E8018964D915D916D917C911B974087518788
S1130E906287738784E791E00FB6F8941EBF0FBE94
S1130EA00DBF68960FB6F894DEBF0FBECDBFDF91BD
S1130EB0CF911F910F91FF90EF90DF90CF90BF9053
S1130EC0AF907F906F905F904F900895AF92BF92D4
S1130ED0CF92DF92EF92FF920F931F93C19AA0904B
S1130EE01601B0901701C0901801D0901901E0903C
S1130EF01A01F0901B0100911C0110911D01209119
S1130F00C0013091C1014091C2015091C30160916F
S1130F10C4017091C5018091C6019091C701E0910F
S1130F200D01EF93E0910C01EF93E0910B01EF932E
S1130F30E0910A01EF93E0911101EF93E091100128
S1130F40EF93E0910F01EF93E0910E01EF93E091A5
S1130F50BF01EF93E091BE01EF93E091BD01EF93E8
S1130F60E091BC01EF93E0911501EF93E09114013E
S1130F70EF93E0911301EF93E0911201EF930E943C
S1130F80B50D8DB79EB740960FB6F8949EBF0FBEB1
S1130F908DBF1F910F91FF90EF90DF90CF90BF9086
S1130FA0AF900895CF93DF93CDB7DEB728970FB6F0
S1130FB0F894DEBF0FBECDBFEAE7F0E08081806128
S1130FC080830E9462168823F1F1CE0101960E946B
S1130FD04015AC01909395018093940189819A8185
S1130FE0AB81BC8180939A0190939B01A0939C0157
S1130FF0B0939D018D819E81AF81B88580939601C8
S113100090939701A0939801B09399018091C8019E
S11310109091C901FC01EF56FE4F208120930201FB
S11310209A01552314F42D5F3F4F35952795359537
S1131030279520930301FC01E257FE4F208360E0D3
S113104071E00E94FB1728960FB6F894DEBF0FBE1E
S1131050CDBFDF91CF910895E1E8F0E08081816018
S113106080838091A0019091A1010E94280208959B
S1131070E1E8F0E080818E7F808328982A9880E0E0
S113108090E00E94280208950E94380820E030E091
S1131090A9016091A6017091A7018091A801909186
S11310A0A9010E94C71A18169CF480E090E0A8ECED
S11310B0B3EC8093A6019093A701A093A801B093E9
S11310C0A90182E090E09093A1018093A00108958A
S11310D080E090E0A8ECB3E48093A6019093A7018C
S11310E0A093A801B093A90181E090E09093A1019D
S11310F08093A0010895CF93DF93CDB7DEB72C97EB
S11311000FB6F894DEBF0FBECDBF81E090E09093A0
S11311109F0180939E010E94B50CCE0101960E940E
S11311204E0C20E030E0A90169817A818B819C8199
S11311300E94C71A18169CF480E090E0A8ECB3EC67
S11311408093A6019093A701A093A801B093A9014D
S113115082E090E09093A1018093A00112C080E00E
S113116090E0A8ECB3E48093A6019093A701A09328
S1131170A801B093A90181E090E09093A10180932C
S1131180A00181E090E090939F0180939E012C96B2
S11311900FB6F894DEBF0FBECDBFDF91CF91089597
S11311A080919E0190919F01892B11F40E947B08EC
S11311B085B5846085BD85B5816085BD8091A001BC
S11311C09091A1010E9428020895E091B2018E2F0E
S11311D090E0FC01E05AF109EA30F105B8F5EA5A69
S11311E0FF4F0C94BC1B0E94D00808950E942C0849
S11311F00895E2EBF1E081818093B10182818093D3
S1131200B0010E9438080895E2EBF1E081818093F7
S1131210B10182818093B0010E94380808950E9430
S1131220380808950E94440808950E9438080895D3
S1131230E2EBF1E0818190E0DC01AF56BE4F228108
S11312402C93DC01A257BE4F23812C9308950E9456
S11312503816882309F473C0E091C801F091C901DC
S1131260EF56FE4F81E080838091A6019091A70103
S1131270A091A801B091A9018093C4019093C501E4
S1131280A093C601B093C7018091A2019091A301DC
S1131290A091A401B091A5018093C0019093C101D4
S11312A0A093C201B093C3018BED9FE0A9ECBFE30F
S11312B08093160190931701A0931801B09319011C
S11312C08DEC9CECACE4BDE38093BC019093BD0138
S11312D0A093BE01B093BF018AE999E9A9E9BFE3EC
S11312E08093120190931301A0931401B0931501FC
S11312F08AE097EDA3E2BCE380930A0190930B018B
S1131300A0930C01B0930D018DEC9CECACE4BEE316
S113131080930E0190930F01A0931001B0931101DB
S11313208DEC9CECACECBEE380931A0190931B0112
S1131330A0931C01B0931D016A9A729A08950E94A9
S1131340381681116DC0E091C801F091C901EF56C2
S1131350FE4F108280919A0190919B01A0919C0173
S1131360B0919D018093C4019093C501A093C601DF
S1131370B093C7018091960190919701A091980133
S1131380B09199018093C0019093C101A093C201CF
S1131390B093C3018BED9FE0A9E4B0E48093160100
S11313A090931701A0931801B09319011092BC01F6
S11313B01092BD011092BE011092BF0186E696E61E
S11313C0A6EEBFE38093120190931301A09314013E
S11313D0B09315018AE097EDA3E2BCE380930A0180
S11313E090930B01A0930C01B0930D018DEC9CEC38
S11313F0ACE4BEE380930E0190930F01A09310011F
S1131400B09311018DEC9CECACECBEE380931A011B
S113141090931B01A0931C01B0931D016A9A7298CA
S113142008954F925F926F927F928F929F92AF92A4
S1131430BF92CF92DF92EF92FF92CF93DF93CDB71B
S1131440DEB72C970FB6F894DEBF0FBECDBFCE012A
S113145001960E944E0C2091A6013091A701409163
S1131460A8015091A90169817A818B819C810E9494
S113147026184B015C012091A2013091A3014091F7
S1131480A4015091A5016D817E818F8198850E9470
S113149025186B017C01A5019401C501B4010E94CA
S11314A0D41A4B015C01A7019601C701B6010E9441
S11314B0D41A9B01AC01C501B4010E9426180E94F4
S11314C04F1B2C960FB6F894DEBF0FBECDBFDF9135
S11314D0CF91FF90EF90DF90CF90BF90AF909F900F
S11314E08F907F906F905F904F900895CF92DF928E
S11314F0EF92FF92CF93DF93EC018091940190914E
S113150095018B3591053CF01092AB011092AA0124
S11315108C2F9D2F01C10E94110A6B017C0120E0D8
S113152030E046E153E40E94C71A18160CF082C05A
S1131530209709F07FC08091A6019091A701A09106
S1131540A801B091A901BC01CD0190582DEC3CEC4F
S11315504CE45FE30E94D41A6093C4017093C50104
S11315608093C6019093C7018091A2019091A30139
S1131570A091A401B091A5018093C0019093C101F1
S1131580A093C201B093C3018BED9FE0A9E4B0E442
S11315908093160190931701A0931801B093190139
S11315A08AE097EDA3E2BCE38093BC019093BD0174
S11315B0A093BE01B093BF0146E656E666EE7FE314
S11315C04093120150931301609314017093150119
S11315D080930A0190930B01A0930C01B0930D0129
S11315E08DEC9CECACE4BEE380930E0190930F0170
S11315F0A0931001B09311018DEC9CECACECBEE314
S113160080931A0190931B01A0931C01B0931D01B8
S11316106A9A7298D1E0C0E020E030E04BE153E4F4
S1131620C701B6010E94041988230CF0D0E08D2F65
S11316309C2F72C010920A0110920B0110920C019F
S113164010920D0110920E0110920F0110921001D0
S1131650109211018AE097EDA3EABCE38093BC01E8
S11316609093BD01A093BE01B093BF018DEC9CEC9F
S1131670ACE4BFE38093120190931301A09314018F
S1131680B093150120E030E040E253E4C701B60115
S11316900E94C71A1816F4F1809194019091950153
S11316A0CD971CF180919A0190919B01A0919C018E
S11316B0B0919D018093C4019093C501A093C6018C
S11316C0B093C7018091960190919701A0919801E0
S11316D0B09199018093C0019093C101A093C2017C
S11316E0B093C3018C2F9D2F17C01092C401109288
S11316F0C5011092C6011092C7011092C001109248
S1131700C1011092C2011092C3016A9A729A8C2F7D
S11317109D2F02C080E090E0DF91CF91FF90EF9089
S1131720DF90CF9008958091AA019091AB0100972A
S113173019F0019721F008950E94270908958091D6
S11317408C0190918D010E94760A90938D01809373
S11317508C0108956E9A7698C8ECD1E088810E9435
S11317600B018881809301010E9438086A9A72985B
S1131770CAE7D0E010E40E94B50C888184FD0E9481
S1131780D2070E94930BC1990E9466078091AE0113
S11317909091AF01892B79F31092AF011092AE01B1
S11317A06E9A8EB181278EB96AE082EB91E00E9435
S11317B0C6100E94E508DFCF1F920F920FB60F925A
S11317C01124289A2A9A0F900FBE0F901F901895F3
S11317D01F920F920FB60F92112428980F900FBEEC
S11317E00F901F9018951F920F920FB60F9211240D
S11317F02A980F900FBE0F901F9018951F920F926A
S11318000FB60F9211248F939F9381E090E09093F1
S1131810AF018093AE019F918F910F900FBE0F90F7
S11318201F9018951F920F920FB60F9211242F93A9
S11318303F934F935F936F937F938F939F93AF9354
S1131840BF93EF93FF938091AC019091AD018431EC
S1131850910534F401969093AD018093AC010DC0D1
S113186080E090E00E94280285B58B7F85BD85B518
S11318708D7F85BD85B58E7F85BDFF91EF91BF912D
S1131880AF919F918F917F916F915F914F913F9114
S11318902F910F900FBE0F901F901895FC0180910F
S11318A0DA019091DB01A091DC01B091DD0180832C
S11318B09183A283B3838091D6019091D701A091A3
S11318C0D801B091D90184839583A683B78380918D
S11318D0D2019091D301A091D401B091D501808718
S11318E09187A287B38781E008958F929F92AF92E8
S11318F0BF92CF92DF92EF92FF926B017C014B017A
S11319005C01E894B7F82BED3FE049E450E4C501ED
S1131910B4010E94C71A1816BCF42BED3FE049EC41
S113192050E4C701B6010E94D41AA50194010E9493
S11319300E199B01AC01C701B6010E942518562F50
S1131940472F382F292F04C05C2D4D2D3E2D2F2DD0
S1131950652F742F832F922FFF90EF90DF90CF90FD
S1131960BF90AF909F908F9008952F923F924F9287
S11319705F926F927F928F929F92AF92BF92CF921B
S1131980DF92EF92FF920F931F93CF93DF93CDB724
S1131990DEB7A8970FB6F894DEBF0FBECDBFCE0159
S11319A001960E94AD146B817C810F811885498555
S11319B05A85AD85BE852F853889EB89FC898D894B
S11319C09E89E980FA80FA8EE98E1C8F0B8FBE8F78
S11319D0AD8FF8A3EF8F7AA369A35CA34BA33EA3B7
S11319E02DA398A78FA366E271E0CE0149960E94C9
S11319F040068C01FC0180859185A285B3850F2E5C
S1131A00F6E22F2EF1E03F2EF02DF1018087918731
S1131A10A287B387F80160857185828593850E94CA
S1131A20750C2B013C01F8016087718782879387CD
S1131A3024EA30E74DE75FE360817181828193811D
S1131A400E94D41A4B015C0120E037ED43E25CE3D1
S1131A506091DA017091DB018091DC019091DD01EC
S1131A600E94D41A9B01AC01C501B4010E9426183E
S1131A704B015C016093DA017093DB018093DC011C
S1131A809093DD0124EA30E74DE75FE3F8016481D8
S1131A907581868197810E94D41A6B017C0120E0B4
S1131AA037ED43E25CE36091D6017091D7018091F8
S1131AB0D8019091D9010E94D41A9B01AC01C701AD
S1131AC0B6010E9426186B017C016093D6017093C5
S1131AD0D7018093D8019093D90124EA30E74DE7E8
S1131AE05FE3C301B2010E94D41A2B013C0120E040
S1131AF037ED43E25CE36091D2017091D3018091B0
S1131B00D4019091D5010E94D41A9B01AC01C30168
S1131B10B2010E9426186093D2017093D30180937E
S1131B20D4019093D501F10180829182A282B38283
S1131B30C482D582E682F782A8960FB6F894DEBFF7
S1131B400FBECDBFDF91CF911F910F91FF90EF900A
S1131B50DF90CF90BF90AF909F908F907F906F90C9
S1131B605F904F903F902F9008954F925F926F92A5
S1131B707F928F929F92AF92BF92CF92DF92EF9219
S1131B80FF920F931F93CF93DF93CDB7DEB7689780
S1131B900FB6F894DEBF0FBECDBF29013A01E98A22
S1131BA0FA8A0B8B1C8B2091DA013091DB01409176
S1131BB0DC015091DD010E9425186D837E838F83A3
S1131BC098872091D6013091D7014091D801509146
S1131BD0D901C301B2010E94251869877A878B87CE
S1131BE09C872D813E814F8158850E94A5182091A4
S1131BF0D2013091D3014091D4015091D5010E947A
S1131C0025180E94750C69837A838B839C832B012E
S1131C103C01E89477F8A6019501C301B2010E9442
S1131C20C71A181684F429813A814B815C81C30157
S1131C30B2010E940E19A60195010E94D41A69836B
S1131C407A838B839C832091CE013091CF01409184
S1131C50D0015091D10169817A818B819C810E944C
S1131C6025182FE632E143E85AE30E940E196D8BE2
S1131C707E8B8F8B988F29813A814B815C816BA5F8
S1131C807CA58DA59EA50E94D41A6B017C012D898B
S1131C903E894F89588D6FA578A989A99AA90E9470
S1131CA0D41A9B01AC01C701B6010E9425182981F1
S1131CB03A814B815C812093CE013093CF014093D4
S1131CC0D0015093D1012BED3FE049E450E40E9450
S1131CD00E196D877E878F87988B69817A818B81B6
S1131CE09C810E9409192B013C0129853A854B8569
S1131CF05C85CA01B9010E94D41A6B017C012D8153
S1131D003E814F815885CA01B9010E94D41A9B01B2
S1131D10AC01C701B6010E9426180E944F1B9B010B
S1131D20AC01C301B2019F770E94D41A6B017C01FC
S1131D300E9438168823E1F020E030E0A901C701B1
S1131D40B6010E94041988235CF020E030E040EFE3
S1131D5051E4C701B6010E9426186B017C0108C03A
S1131D600F2EC12CD12CF0EFEF2EF1E4FF2EF02D2D
S1131D702091CA013091CB014091CC015091CD0109
S1131D80C701B6010E9425182FE632E143E85AE361
S1131D900E940E194B015C01A70196016BA97CA955
S1131DA08DA99EA90E94D41A2B013C01A50194017E
S1131DB06FA978AD89AD9AAD0E94D41A9B01AC018C
S1131DC0C301B2010E9425182B013C01C092CA0133
S1131DD0D092CB01E092CC01F092CD0120E030E032
S1131DE040E252E40E94C71A181644F40F2E412C04
S1131DF0512CF0E26F2EF2E47F2EF02D20E030E043
S1131E0040E252E4C301B2010E940E196B017C014D
S1131E102DEC3CEC4CEC5DE3C501B4010E940419CB
S1131E2088230CF52AE037ED43E25CE36D897E8973
S1131E308F89988D0E9404198823ACF42DEC3CEC16
S1131E404CE45EE369817A818B819C819F770E9457
S1131E50D41A29813A814B815C810E940E196D87C5
S1131E607E878F87988B8D849E84AF84B888B7FAD9
S1131E70B094B7F8B09469817A818B819C819F7703
S1131E802BED3FE049EC5FE30E94041988230CF535
S1131E902D853E854F855889C701B6010E942518B6
S1131EA06093220170932301809324019093250170
S1131EB0A70196016D857E858F8598890E942618D5
S1131EC060931E0170931F01809320019093210160
S1131ED01EC0A7019601C501B4010E942518609394
S1131EE02201709323018093240190932501A7017B
S1131EF096016D857E858F8598890E94251860934B
S1131F001E0170931F01809320019093210120E012
S1131F1030E0A90160912201709123018091240194
S1131F20909125010E940419882314F4299801C072
S1131F30299A20E030E0A90160911E0170911F01EF
S1131F4080912001909121010E940419882314F4A6
S1131F502B9801C02B9A8090220190902301A0908D
S1131F602401B0902501E894B7F880922201909260
S1131F702301A0922401B0922501C0901E01D090AB
S1131F801F01E0902001F0902101E894F7F8C0923D
S1131F901E01D0921F01E0922001F0922101A701BD
S1131FA09601C501B4010E94C71A18162CF01C2D05
S1131FB00D2D7E2C6F2C04C0182D092D7A2C6B2C22
S1131FC029893A894B895C89612F702F872D962D39
S1131FD00E94C71A181664F5212F302F472D562D4D
S1131FE0C501B4010E940E1929893A894B895C897B
S1131FF00E94D41A609322017093230180932401D8
S113200090932501212F302F472D562DC701B6015E
S11320100E940E1929893A894B895C890E94D41A35
S113202060931E0170931F018093200190932101FE
S113203008E810E0F8016081718180E090E00E947E
S1132040AF19209122013091230140912401509134
S113205025010E94D41A0E94801970938B0060930A
S11320608A00F8016081718180E090E00E94AF19DC
S113207020911E0130911F014091200150912101B6
S11320800E94D41A0E94801970938D0060938C0072
S113209068960FB6F894DEBF0FBECDBFDF91CF9127
S11320A01F910F91FF90EF90DF90CF90BF90AF9072
S11320B09F908F907F906F905F904F900895589A63
S11320C0599A5A9A8CE08093B800E9E6F0E080814E
S11320D08062808380818F7E8083EA9A78940895D9
S11320E01F93CF93DF93182FD62FC42F0E945F1016
S11320F094EA9093BC00ECEBF0E090819923ECF728
S113210090E59093BB0094E89093BC00ECEBF0E076
S113211090819923ECF79091B900987F903229F43B
S113212084E98093BC0080E02DC081E08093BB00F3
S113213084E88093BC00ECEBF0E090819923ECF709
S11321401093BB0084E88093BC00ECEBF0E080814A
S11321508823ECF7D093BB0084E88093BC00ECEBBD
S1132160F0E080818823ECF7C093BB0084E880937F
S1132170BC00ECEBF0E080818823ECF784E98093E9
S1132180BC0081E0DF91CF911F910895CF93DF933D
S11321909C0184EA8093BC00ECEBF0E090819923ED
S11321A0ECF781E58093BB0084E88093BC00ECEB02
S11321B0F0E090819923ECF78091B900887F88340E
S11321C029F484E98093BC0080E041C084EC8093CE
S11321D0BC00ECEBF0E090819923ECF74091BB005C
S11321E0461309C0842F90E001971816190644F08D
S11321F040E050E01AC084E98093BC0080E027C02E
S1132200D90150E041505109B901640F751FECEB3D
S1132210F0E084ECCBEBD0E0808390819923ECF761
S113222098819D93A617B707B9F784E88093BC00FB
S1132230ECEBF0E090819923ECF78091BB00F9017D
S1132240E40FF51F808384E98093BC0081E0DF9173
S1132250CF910895CF93DF93F89494EA9093BC00C0
S1132260ECEBF0E090819923ECF790E59093BB00C0
S113227094E89093BC00ECEBF0E090819923ECF7A8
S11322809091B900987F903231F484E98093BC0036
S1132290789480E02DC093E09093BB0094E89093F1
S11322A0BC00ECEBF0E090819923ECF78093BB0049
S11322B084E88093BC00ECEBF0E080818823ECF7A9
S11322C0442389F0DB01640F711DCBEBD0E0ECEB10
S11322D0F0E094E88D918883908380818823ECF7E3
S11322E0A617B707B9F784E98093BC00789481E016
S11322F0DF91CF91089581E08093D70080EA8093A5
S1132300D80082E189BD09B400FEFDCF80E9809345
S1132310D8001092E0001092E0011092DE018CE0EF
S11323208093E200789408951F920F920FB60F9253
S113233011248F939F93EF93FF93E1EEF0E080815C
S1132340108283FF11C01092E90091E09093EB009A
S11323501092EC0092E19093ED0098E09093F000DD
S11323601092E0011092DE0182FF13C08091E0011F
S1132370882379F08091DF01882359F0815080937C
S1132380DF01811106C084E08093E9008AE3809331
S1132390E800FF91EF919F918F910F900FBE0F90E6
S11323A01F9018951F920F920FB60F9211240F933E
S11323B01F932F933F934F935F936F937F938F93C9
S11323C09F93AF93BF93CF93DF93EF93FF931092B9
S11323D0E9008091E80083FF4CC1E1EFF0E0608107
S11323E080812081908130E0392B4081908150E0C0
S11323F0592B7081C08192EF9093E800863009F0E8
S113240058C004C081E28093EB003AC166E084E2E4
S113241091E0FC01A591B4912A173B0711F00796AE
S113242023C0FC013296A591B4914A175B0711F0C1
S113243007961AC0FC01349645915491FC013696D6
S11324402491872F90E09C2B8F3F910519F010F079
S11324508FEF90E0821708F4282FA8EEB0E070E127
S11324606EEFC1EFD0E003C0615099F6CBCF8C91F1
S1132470982F9570E1F382FD03C1322F213108F0CA
S1132480372F332309F4F9C0FA01832F94919883E9
S1132490815031968111FACF8FEF830F90E001962E
S11324A0480F591F231B6C932111E1CF3031F9F2EE
S11324B0E7C0853061F48EEF8093E800E8EEF0E049
S11324C0808180FFFDCF20682093E300D9C089304C
S11324D009F035C06111CDC02093E0011092DE01F6
S11324E01092DF018EEF8093E80081E02DEC31E063
S11324F0C9EED0E0ABEEB0E00CEE10E06DEE70E0B3
S11325008883A9014F5F5F4FF90194919C939923AC
S113251061F0FA014491F8014083F90132969491F3
S11325202D5F3F4FFB01908301C09A018F5F85307F
S113253039F7EAEEF0E08EE180831082A1C08830A2
S113254081F4603809F095C0E8EEF0E0808180FF06
S1132550FDCF8091E0018093F1008EEF8093E8003D
S11325608FC08132B9F4613A09F083C0E8EEF0E03B
S1132570808180FFFDCFE2E3F1E029E331E0A1EFC8
S1132580B0E081918C93E217F307D9F78EEF809333
S1132590E80076C08032D1F4613209F06AC0E8EE16
S11325A0F0E0808182FFFDCFE2E3F1E029E331E056
S11325B0A1EFB0E08C918193E217F307D9F7E8EE2D
S11325C0F0E08BEF80838EEF80835AC0823271F407
S11325D0613209F04EC02093DE01E8EEF0E0808124
S11325E080FFFDCF8EEF8093E8004AC081111AC0AE
S11325F0E8EEF0E0808180FFFDCF623851F4E9EE2F
S1132600F0E040838091EB0085FB882780F91082FD
S113261001C080E0E1EFF0E0808310828EEF8093D0
S1132620E8002EC0982F9D7F913019F5623009F58E
S1132630232BF9F44F779FEF940F9430D0F49EEF4F
S11326409093E8004093E900833021F481E2809381
S1132650EB0016C089E18093EB0081E090E002C0BA
S1132660880F991F4A95E2F7EAEEF0E08083108222
S113267007C081E28093EB0003C06C932111F7CE75
S1132680FF91EF91DF91CF91BF91AF919F918F9186
S11326907F916F915F914F913F912F911F910F9176
S11326A00F900FBE0F901F90189520E030E0ECEBD8
S11326B0F0E08081882334F02F5F3F4F293E83E090
S11326C03807B9F781E0283E334009F480E00895E3
S11326D08093BB0084E88093BC000E945513882338
S11326E019F08091B900887F0895CF93C82F94EA98
S11326F09093BC000E945513882361F08C2F880F9F
S11327000E946813803229F484E98093BC0080E03D
S113271001C081E0CF9108950E945F1088E50E9476
S11327207513882309F4CDC080E30E9468138823BD
S113273009F4C9C081E00E946813882309F4C5C064
S113274084E98093BC0083EC99E00197F1F700C021
S1132750000088E50E947513882309F4B8C080E05E
S11327600E946813882309F4B4C080E00E946813AF
S1132770882309F4B0C080E00E946813882309F418
S1132780ACC080E00E946813882309F4A8C080E0EC
S11327900E946813882309F4A4C080E00E9468138F
S11327A0882309F4A0C080E00E946813882309F4F8
S11327B09CC080E90E946813882309F498C084E9C6
S11327C08093BC0083EC99E00197F1F700C000000E
S11327D088E50E947513882309F48BC087E00E9462
S11327E06813882309F487C080E00E946813882353
S11327F009F483C081E40E946813882309F47FC02C
S113280084E98093BC0083EC99E00197F1F700C060
S1132810000088E50E947513882309F472C08AE1D8
S11328200E946813882309F46EC080E40E94681330
S1132830882309F46AC080E00E946813882309F49D
S113284066C084E98093BC0083EC99E00197F1F7BA
S113285000C0000088E50E947513882309F459C05C
S113286083E30E946813882309F455C083E00E941F
S11328706813882309F451C084E98093BC0083EC75
S113288099E00197F1F700C0000088E50E947513F4
S1132890882309F444C080E30E946813882309F460
S11328A040C088E00E9468138823E9F184E980939A
S11328B0BC0083EC99E00197F1F700C0000081E0CF
S11328C0089580E0089580E0089580E0089580E010
S11328D0089580E0089580E0089580E0089580E000
S11328E0089580E0089580E0089580E0089580E0F0
S11328F0089580E0089580E0089580E0089580E0E0
S1132900089580E0089580E0089580E0089580E0CF
S1132910089580E0089580E0089580E0089580E0BF
S1132920089580E0089580E00895CF93C82F84EA45
S11329308093BC000E945513882369F08C2F880F64
S11329408F5F0E946813883429F484E98093BC0063
S113295080E001C081E0CF9108950F931F93CF933E
S1132960DF93CDB7DEB760970FB6F894DEBF0FBE26
S1132970CDBF8C01FE01319680E1DF011D928A9565
S1132980E9F788E50E947513882309F469C086E392
S11329900E946813882309F465C084E98093BC000D
S11329A0B8E0BA95F1F7000088E50E9495148823F1
S11329B009F45AC0BE016F5F7F4FAE01405F5F4FA5
S11329C0ECEBF0E084EC2BEB30E0808390819923F6
S11329D0ECF7D9019C91DB019D93BD01A417B507C8
S11329E0A1F784E88093BC00ECEBF0E080818823BD
S11329F0ECF78091BB00888B84E98093BC00BE0116
S1132A006C5F7F4FF801085E1F4FDB012C91322F62
S1132A103073CB010297DC018C9190E0B0E13B9FD5
S1132A20800D911D112491838083422F407C50E0BE
S1132A30440F551F440F551FCB010197DC018C91A6
S1132A40480F511D538342832F7030E03583248314
S1132A506D5F7F4F3696E017F107B9F681E005C048
S1132A6080E003C080E001C080E060960FB6F89477
S1132A70DEBF0FBECDBFDF91CF911F910F9108959F
S1132A802F923F924F925F926F927F928F929F927A
S1132A90AF92BF92CF92DF92EF92FF920F931F9368
S1132AA0CF93DF93CDB7DEB762970FB6F894DEBF4E
S1132AB00FBECDBF9A8B898BCE0101960E944E0C1E
S1132AC00F2EF5EE8F2EF1E09F2EF02D0F2EFBE34F
S1132AD0EF2EF1E0FF2EF02D0F2EF3E6AF2EF1E0F6
S1132AE0BF2EF02D1D861E861F86188AC12CD12C60
S1132AF0212C312CF401019111914F01C00ED11EF2
S1132B00F70141905190619071907F01B801012EBD
S1132B10000C880B990B0E94B1199B01AC01C301F5
S1132B20B2010E94D41A9B01AC016D857E858F850C
S1132B3098890E9426186D877E878F87988B201628
S1132B4031060CF41801EA14FB04A1F6F4E62F167E
S1132B5031046CF4E989FA89108211821282138299
S1132B60148215821682178280E090E068C0B60154
S1132B70DD0C880B990B0E94B1199B01AC016D858A
S1132B807E858F8598890E940E1929853A854B8503
S1132B905C850E9426184B015C010E9409192B01D7
S1132BA03C016FEF73E062197309072E000C880B68
S1132BB0990B0E94B1196B017C0120E030E04FE2D7
S1132BC054E4C301B2010E94D41AA70196010E94E1
S1132BD0D41A20E030E048E453E40E940E1929811D
S1132BE03A814B815C810E942618E989FA896083C5
S1132BF0718382839383C501B4010E94411B20E049
S1132C0030E04FE254E40E94D41A9B01AC01C701A6
S1132C10B6010E94D41A20E030E048E453E40E9454
S1132C200E192D813E814F8158850E942618E9890D
S1132C30FA896483758386839783822D932D6296A4
S1132C400FB6F894DEBF0FBECDBFDF91CF911F91B9
S1132C500F91FF90EF90DF90CF90BF90AF909F9037
S1132C608F907F906F905F904F903F902F9008953A
S1132C7080917A00882314F52091E3013091E401D6
S1132C808091E1019091E201820F931F85369105B5
S1132C9044F085E090E090933A018093390181E01B
S1132CA008958091390190913A01009749F0019774
S1132CB090933A018093390181E0089580E008956A
S1132CC080E00895EAE7F0E080818F778083E091E7
S1132CD0F901F091FA01EC30F10508F082C1E05AF3
S1132CE0FF4F0C94BC1B81E090E09093FA01809319
S1132CF0F901EBE7F0E080818F7D8083ECE7F0E081
S1132D0080818B7F808380818D7F808380818E7F93
S1132D10808380917800909179009093EA01809368
S1132D20E90180E05FC182E090E09093FA01809332
S1132D30F901EBE7F0E080818F7D8083ECE7F0E040
S1132D4080818B7F808380818D7F8083808181607F
S1132D50808380917800909179009093EE01809324
S1132D60ED0180E03FC183E090E09093FA0180930D
S1132D70F901EBE7F0E080818F7D8083ECE7F0E000
S1132D8080818460808380818D7F808380818E7F39
S1132D90808380917800909179009093E2018093F0
S1132DA0E10180E01FC184E090E09093FA018093F8
S1132DB0F901EBE7F0E080818F7D8083ECE7F0E0C0
S1132DC080818460808380818D7F80838081816025
S1132DD0808380917800909179009093F0018093A2
S1132DE0EF0180E0FFC085E090E09093FA018093CA
S1132DF0F901EBE7F0E080818F7D8083ECE7F0E080
S1132E0080818460808380818260808380818E7FE2
S1132E10808380917800909179009093F40180935D
S1132E20F30180E0DFC086E090E09093FA018093A4
S1132E30F901EBE7F0E080818F7D8083ECE7F0E03F
S1132E4080818460808380818260808380818160CE
S1132E50808380917800909179009093F60180931B
S1132E60F50180E0BFC087E090E09093FA01809381
S1132E70F901EBE7F0E0808180628083ECE7F0E029
S1132E8080818B7F808380818D7F808380818E7F12
S1132E90808380917800909179009093F8018093D9
S1132EA0F70180E09FC088E090E09093FA0180935E
S1132EB0F901EBE7F0E0808180628083ECE7F0E0E9
S1132EC080818B7F808380818D7F808380818160FE
S1132ED0808380917800909179009093E6018093AB
S1132EE0E50180E07FC089E090E09093FA0180934F
S1132EF0F901EBE7F0E0808180628083ECE7F0E0A9
S1132F0080818B7F808380818260808380818E7FBB
S1132F10808380917800909179009093F20180935E
S1132F20F10180E05FC08AE090E09093FA01809321
S1132F30F901EBE7F0E0808180628083ECE7F0E068
S1132F4080818B7F808380818260808380818160A7
S1132F50808380917800909179009093EC01809324
S1132F60EB0180E03FC08BE090E09093FA01809306
S1132F70F901EBE7F0E0808180628083ECE7F0E028
S1132F8080818460808380818D7F808380818E7F37
S1132F90808380917800909179009093E8018093E8
S1132FA0E70180E01FC01092FA011092F901EBE7EB
S1132FB0F0E0808180628083ECE7F0E080818460CF
S1132FC0808380818D7F80838081816080838091F4
S1132FD07800909179009093E4018093E30181E07B
S1132FE001C080E0EAE7F0E09081906890839081EE
S1132FF0906490830895CF93DF93EB01009751F48D
S11330004AE082E20E942A114AE0BE0181E20E9463
S11330102A1118C08130910551F44AE082E20E94DD
S11330202A114AE0BE0180E20E942A110BC00297D5
S113303049F44AE081E20E942A114AE0BE0180E29A
S11330400E942A11DF91CF9108955058BB27AA27D7
S11330500E943D180C94791A0E94401A38F00E947C
S1133060471A20F039F49F3F19F426F40C94161AE9
S11330700EF4E095E7FB0C94101AE92F0E949E1AB7
S113308058F3BA17620773078407950720F079F499
S1133090A6F50C94C01A0EF4E0950B2EBA2FA02DB1
S11330A00B01B90190010C01CA01A0011124FF27F1
S11330B0591B99F0593F50F4503E68F11A16F040EC
S11330C0A22F232F342F4427585FF3CF46953795EB
S11330D02795A795F0405395C9F77EF41F16BA0BB0
S11330E0620B730B840BBAF09150A1F0FF0FBB1F5E
S11330F0661F771F881FC2F70EC0BA0F621F731FA7
S1133100841F48F4879577956795B795F7959E3F03
S113311008F0B0CF9395880F08F09927EE0F979594
S1133120879508950E94401A60F080E891E009F4C0
S11331309EEF0E94471A28F040E851E071F45EEFD8
S11331400CC00C94161A0C94C01AE92FE0780E9453
S11331509E1A40F3092E052AB1F3261737074807AC
S1133160590738F00E2E07F8E02569F0E025E064F1
S11331700AC0EF6307F8009407FADB01B9019D0167
S1133180DC01CA01AD01EF930E9425190E94791A4E
S11331900E94D5185F91552339F02BED3FE049E4A7
S11331A050FD49EC0C9426180895DF93DD27B92FC0
S11331B0BF7740E85FE31616170648075B0718F465
S11331C0D92F0E94CC1A9F938F937F936F930E9461
S11331D08F1BE8EDF0E00E94191A0E94791A2F91D2
S11331E03F914F915F910E94E71ADD2351F090586F
S11331F0A2EA2AED3FE049EC5FE3D0785D270E9424
S11332003D18DF910C94791A0E94EC1908F481E0BE
S113321008950E94501AE3950C948A1A0E94221968
S11332200C94791A0E94471A58F00E94401A40F0F0
S113323029F45F3F29F00C94101A51110C94C11A0F
S11332400C94161A0E949E1A68F39923B1F355231D
S113325091F3951B550BBB27AA27621773078407A5
S113326038F09F5F5F4F220F331F441FAA1FA9F33B
S113327035D00E2E3AF0E0E832D091505040E69529
S1133280001CCAF72BD0FE2F29D0660F771F881F8A
S1133290BB1F261737074807AB07B0E809F0BB0B7D
S11332A0802DBF01FF2793585F4F3AF09E3F510591
S11332B078F00C94101A0C94C11A5F3FE4F3983E12
S11332C0D4F3869577956795B795F7959F5FC9F77A
S11332D0880F911D9695879597F90895E1E0660FFB
S11332E0771F881FBB1F621773078407BA0720F074
S11332F0621B730B840BBA0BEE1F88F7E0950895DD
S11333000E94A61A88F09F5798F0B92F9927B751B1
S1133310B0F0E1F0660F771F881F991F1AF0BA9575
S1133320C9F714C0B13091F00E94C01AB1E00895F9
S11333300C94C01A672F782F8827B85F39F0B93FEB
S1133340CCF3869577956795B395D9F73EF4909528
S11333508095709561957F4F8F4F9F4F0895E894A6
S113336009C097FB3EF490958095709561957F4FC9
S11333708F4F9F4F9923A9F0F92F96E9BB27939577
S1133380F695879577956795B795F111F8CFFAF487
S1133390BB0F11F460FF1BC06F5F7F4F8F4F9F4FB8
S11333A016C0882311F096E911C0772321F09EE816
S11333B0872F762F05C0662371F096E8862F70E07C
S11333C060E02AF09A95660F771F881FDAF7880F56
S11333D09695879597F90895990F0008550FAA0BAC
S11333E0E0E8FEEF16161706E807F907C0F0121614
S11333F01306E407F50798F0621B730B840B950B17
S113340039F40A2661F0232B242B252B21F408956B
S11334100A2609F4A140A6958FEF811D811D089508
S113342097F99F6780E870E060E008959FEF80EC73
S11334300895DF93CF931F930F93FF92EF92DF9240
S11334407B018C01689406C0DA2EEF010E94E71A12
S1133450FE01E894A5912591359145915591A6F3E6
S1133460EF010E943D18FE019701A801DA9469F763
S1133470DF90EF90FF900F911F91CF91DF9108950E
S113348000240A941616170618060906089500243F
S11334900A94121613061406050608950C94161AB7
S11334A00E94A61AD8F3E894E0E0BB279F57F0F0F7
S11334B02AED3FE049EC06C0EE0FBB0F661F771FF5
S11334C0881F28F0B23A62077307840728F0B25ABB
S11334D0620B730B840BE3959A9572F7803830F482
S11334E09A95BB0F661F771F881FD2F790480C94DC
S11334F0951B092E0394000C11F4882352F0BB0F82
S113350040F4BF2B11F460FF04C06F5F7F4F8F4FF7
S11335109F4F0895EF93E0FF07C0A2EA2AED3FE032
S113352049EC5FEB0E943D180E94791A0F900394B6
S113353001FC9058E5E0F1E00C94A81B57FD90586D
S1133540440F551F59F05F3F71F04795880F97FB63
S1133550991F61F09F3F79F087950895121613061D
S11335601406551FF2CF4695F1DF08C0161617064C
S11335701806991FF1CF8695710561050894089581
S1133580E894BB2766277727CB0197F908950E9413
S1133590EC1908F48FEF08959B01AC0160E070E032
S11335A080E89FE30C940E190E94E71A0C94791A90
S11335B00E94401A38F00E94471A20F0952311F017
S11335C00C94101A0C94161A11240C94C11A0E940B
S11335D09E1A70F3959FC1F3950F50E0551F629F9B
S11335E0F001729FBB27F00DB11D639FAA27F00D58
S11335F0B11DAA1F649F6627B00DA11D661F829F7F
S11336002227B00DA11D621F739FB00DA11D621F63
S1133610839FA00D611D221F749F3327A00D611D80
S1133620231F849F600D211D822F762F6A2F112462
S11336309F5750409AF0F1F088234AF0EE0FFF1F95
S1133640BB1F661F771F881F91505040A9F79E3FEC
S1133650510580F00C94101A0C94C11A5F3FE4F3E6
S1133660983ED4F3869577956795B795F795E79542
S11336709F5FC1F7FE2B880F911D9695879597F94B
S113368008959F930E94501A0F9007FCEE5F0C94CC
S11336908A1A19F416F40C94161A0C94931B0E94AB
S11336A0A61AB8F39923C9F3B6F39F57550B87FFAE
S11336B00E94A11B0024A0E640EA90018058569580
S11336C0979528F4805C660F771F881F20F02617D3
S11336D03707480730F4621B730B840B2029312908
S11336E04A2BA69517940794202531254A2758F785
S11336F0660F771F881F20F026173707480730F416
S1133700620B730B840B200D311D411DA09581F7B5
S1133710B901842F9158880F9695879508959B0138
S1133720AC010C94D41A9F3F31F0915020F487954A
S113373077956795B795880F911D9695879597F915
S1133740089591505040660F771F881FD2F708954F
S11337509F938F937F936F93FF93EF939B01AC01A0
S11337600E94D41AEF91FF910E94191A2F913F9150
S11337704F915F910C94D41AEE0FFF1F0590F491B2
S10B3780E02D0994F894FFCF39
S1133788A90000000000000000000AD7233CCDCCAB
S11337984C3E0000803FDB0F49403333333FCDCCF0
S11337A8CC3DCDCCCC3D00C07F4400C07F4400005C
S11337B8B44300E100000000080500DB0FC9BFC3E3
S11337C8B832BFC3B8B2BE00000000C3B8B23EC32B
S11337D8B8323FDB0FC93F378D2740DB0F494037ED
S10737E88D27C00065
S9030000FC
