S01A00005265645F42756C6C5F4D61696E5F436F64652E7372656343
S11300000C94EC000C9409010C9409010C942F0A33
S11300100C9409010C9409010C9409010C94090134
S11300200C9409010C9409010C9420100C945E109A
S11300300C9409010C9409010C9409010C94090114
S11300400C9409010C940D0A0C94190A0C94240ABA
S11300500C9409010C9409010C9409010C94430AB1
S11300600C9409010C9409010C9409010C940901E4
S11300700C9409010C9409010C9409010C940901D4
S11300800C9409010C9409010C9409010C940901C4
S11300900C9409010C9409010C9409010C940901B4
S11300A00C9409010C9409010C940901AB09AE09E3
S11300B0B109BC09C709DE09CA09CD09DE09D0099D
S11300C02F154F156F158F15AF15CF15EF150F168B
S11300D02F164F166F168F16084AD73B3BCE016E6C
S11300E084BCBFFDC12F3D6C74319ABD56833DDA8B
S11300F03D00C77F11BED9E4BB4C3E916BAAAABE9A
S1130100000000803F05A84CCDB2D44EB93836A9C2
S1130110020C50B9918688083CA6AAAA2ABE0000FF
S113012000803F0000010000BB01120002000078C3
S11301300143000300007401040103090460011277
S113014002030904580106030309044E01080803C5
S1130150340031003000000006034D00320000007E
S113016012034A002E0020004600690065006E005C
S1130170650000000403090409024300020100C0F1
S113018032090400000102020100052400100105E7
S11301902401010104240206052406000107058246
S11301A00310004009040100020A000000070503CF
S11301B00240000007058402400000120100020210
S11301C0000010C0167A040001010203010001C1FD
S11301D0120180360181360011241FBECFEFDAE010
S11301E0DEBFCDBF11E0A0E0B1E0E8E7F5E302C077
S11301F005900D92A436B107D9F721E0A4E6B1E049
S113020001C01D92A73FB207E1F70E94DF090C94D9
S1130210BA1A0C940000CF93DF93C82FE1E6F0E004
S113022090E89083108295BF95BF50985198209A7A
S1130230219A229A239A3E9A3F9A289829982A9892
S11302402B98469847980E94900E0E944C1288233F
S1130250E1F378940E94AC0FC11108C04AE060E257
S113026081E00E94A10E8823C9F313C0C13041F478
S11302704AE061E281E00E94A10E8823C9F309C02B
S1130280C23039F44AE062E281E00E94A10E882380
S1130290C9F3E1E8F0E080818B7F808380818D7FEA
S11302A0808380818E7F808380818F7E8083808124
S11302B088608083E0E8F0E080818D7F80838081A6
S11302C08E7F808380818F7D808380818F7E8083F9
S11302D0C8E8D0E08AEA99E29983888368817981C1
S11302E080E090E00E9472182DEC3CEC4CEC5DE355
S11302F00E9497190E94431870938B0060938A00A0
S11303006881798180E090E00E9472182DEC3CECC9
S11303104CEC5DE30E9497190E94431870938D0082
S113032060938C00EFE6F0E08081826080838081BE
S113033084608083808188608083E1E9F0E080814B
S11303408B7F808380818D7F8083808181608083A7
S113035080818F7E8083808188608083E0E9F0E003
S113036080818D7F808380818E7F808380E89EE37F
S1130370909399008093980085B58B7F85BD85B552
S11303808D7F85BD85B58E7F85BD85B5877F85BD10
S113039084B58D7F84BD84B58E7F84BDEEE6F0E0A8
S11303A0808181608083CCE7D0E088818F778883E7
S11303B0888180648883EAE7F0E080818B7F808392
S11303C0808182608083808181608083AEE7B0E039
S11303D08C9181608C938C9182608C938C918061E0
S11303E08C938C9180628C938C9180648C938C918F
S11303F080688C93ADE7B0E08C9181608C938C9194
S113040082608C938C9184608C938C9188608C93A3
S11304108C9180618C938C9180628C9380818F7D90
S11304208083ABE7B0E08C9180628C938881846098
S1130430888388818D7F8883888181608883808197
S113044080688083808180648083DF91CF91089568
S11304508130910541F08230910541F0892B41F4BE
S11304605B985D9808955D9A5B9808955D985B9A92
S1130470089582309105F9F02CF4009751F001971A
S113048089F042C08430910551F1F4F0059791F15F
S11304903BC0E4E6F1E01182108281E090E09383B6
S11304A0828332C0E4E6F1E01182108282E090E0BF
S11304B09383828329C0E4E6F1E01182108283E011
S11304C090E09383828320C0E4E6F1E081E090E051
S11304D09183808382E090E09383828315C0E4E675
S11304E0F1E081E090E09183808383E090E0938366
S11304F082830AC0E4E6F1E082E090E091838083A5
S113050083E090E09383828384E691E008952F92C0
S11305103F924F925F926F927F928F929F92AF928F
S1130520BF92CF92DF92EF92FF920F931F93CF93DC
S1130530DF9300D000D0CDB7DEB75C014A013A8327
S11305402983062F172FF8014190519061907190E3
S11305508F011C821B82212C312C12C0F801C19006
S1130560D190E190F1908F01A7019601C301B201EE
S11305700E948A19181624F4260137012B803C8026
S11305808B819C8101969C838B83069739F7822DFE
S1130590932D0E943902FC01208131816281738193
S11305A0F501408151812417350759F4F401318351
S11305B02083F50182819381E981FA81918380838B
S11305C037C0F501828193812817390759F4F40162
S11305D031832083F50180819181E981FA819183BE
S11305E0808326C06417750759F4F401718360830E
S11305F0F50182819381E981FA819183808318C016
S11306006817790759F4F40171836083F5018081D7
S11306109181E981FA81918380830AC0F4019183F5
S11306208083F50180819181E981FA8191838083BE
S11306300F900F900F900F90DF91CF911F910F911A
S1130640FF90EF90DF90CF90BF90AF909F908F90EE
S11306507F906F905F904F903F902F9008952F92CE
S11306603F924F925F926F927F928F929F92AF923E
S1130670BF92CF92DF92EF92FF920F931F93CF938B
S1130680DF93CDB7DEB7C254D1090FB6F894DEBFFD
S11306900FBECDBF2C01FC010480F581E02DFAA32F
S11306A0E9A3FC010081118169A17AA1601B710B8E
S11306B0072E000C880B990B0E9474186B017C01A7
S11306C0F2010680F781E02DFEA3EDA3F201228062
S11306D03380ADA0BEA0A218B3089B01AC010E9458
S11306E0971969A77AA78BA79CA7AA9C4001AB9CE2
S11306F0900C900C1124092C000CAA08BB08A7012B
S11307009601C701B6010E9497196B017C01C501CE
S1130710B4010E9474189B01AC01C701B6010E9488
S1130720E2160E94121A6BAF7CAF8DAF9EAFF2013E
S11307300084F185E02DFAA7E9A7BF01601B710BC6
S1130740072E000C880B990B0E9474186B017C0116
S1130750F201628473845301A218B3089B01AC01B3
S11307600E9497196DA77EA78FA798ABAA9C4001FA
S1130770AB9C900C900C1124092C000CAA08BB080B
S1130780A7019601C701B6010E9497196B017C016C
S1130790C501B4010E9474189B01AC01C701B601E4
S11307A00E94E2160E94121A23966CAF7DAF8EAFA0
S11307B09FAF2397F2010484F585E02DFEA7EDA7F2
S11307C0BF01601B710B072E000C880B990B0E9454
S11307D074184B015C01F2010684F785E02DFAAB35
S11307E0E9AB8F01021913099B01AC010E9497190F
S11307F06BAB7CAB8DAB9EAB009F6001019FD00CBB
S1130800D00C11240D2C000CEE08FF08A501940156
S1130810C501B4010E9497194B015C01C701B601DF
S11308200E9474189B01AC01C501B4010E94E21638
S11308300E94121A6BAB7CAB8DAB9EAB69A57AA5FB
S113084029A13AA1621B730B072E000C880B990B8C
S11308500E9474184B015C0183014DA15EA1041B2D
S1130860150B9B01AC010E9497196FAB78AF89AF50
S11308709AAF009F6001019FD00CD00C11240D2C65
S1130880000CEE08FF08A5019401C501B4010E9403
S113089097194B015C01C701B6010E9474189B01B2
S11308A0AC01C501B4010E94E2160E94121A6FAB9A
S11308B078AF89AF9AAF6DA57EA589A19AA1681B6F
S11308C0790B072E000C880B990B0E9474184B01AE
S11308D05C0109A91AA9EDA1FEA10E1B1F0B9B0126
S11308E0AC010E94971969A37AA38BA39CA3009FD0
S11308F06001019FD00CD00C11240D2C000CEE08CB
S1130900FF08A5019401C501B4010E9497194B0188
S11309105C01C701B6010E9474189B01AC01C501BA
S1130920B4010E94E2160E94121A4B015C016DA5EB
S11309307EA529A53AA5621B730B072E000C880B14
S1130940990B0E94741869A37AA38BA39CA309A989
S11309501AA9061917099B01AC010E9497196DA3E6
S11309607EA38FA398A7009F6001019FD00CD00C99
S113097011240D2C000CEE08FF0829A13AA14BA16B
S11309805CA1CA01B9010E94971969A37AA38BA338
S11309909CA3C701B6010E9474189B01AC0169A114
S11309A07AA18BA19CA10E94E2160E94121A2BAD7F
S11309B03CAD4DAD5EAD29833A834B835C83239676
S11309C02CAD3DAD4EAD5FAD23972D833E834F835C
S11309D058872BA93CA94DA95EA929873A874B873B
S11309E05C872FA938AD49AD5AAD2D873E874F8717
S11309F0588B898A9A8AAB8ABC8A6D8B7E8B8F8B43
S1130A00988FAE014F5F5F4F7A0100E010E0612CD8
S1130A10712CC12CD12C212C312CF7018190919077
S1130A20A190B1907F01262D372D4C2D5D2DC50150
S1130A30B4010E948A19181634F4682C792CCA2C33
S1130A40DB2C202E312E0F5F1F4F0630110529F7A6
S1130A50822D932D0E943902FC01E080F180FA8EF0
S1130A60E98E028113811C8F0B8FEE0CFF1CEE0CA0
S1130A70FF1CE40CF51C000F111F000F111F040DC7
S1130A80151DF70160817181F80180819181680FE2
S1130A90791F772314F46F5F7F4F75956795072E41
S1130AA0000C880B990B0E9474184B015C01F70130
S1130AB062817381F80182819381680F791F7723A2
S1130AC014F46F5F7F4F75956795072E000C880BA4
S1130AD0990B0E94741869A37AA38BA39CA39E010B
S1130AE0215E3F4FAE01435E5F4FBE016F5F7F4F9C
S1130AF0CE0149960E9487020D8D1E8D000F111F95
S1130B00000F111F040D151D2F8C38A0220C331C4F
S1130B10220C331C240C351CF80160817181F10115
S1130B2080819181681B790B072E000C880B990B2F
S1130B300E9474186B017C01F80162817381F101D8
S1130B4082819381681B790B072E000C880B990B0B
S1130B500E9474189058A70196010E9461172BED0A
S1130B603FE049EC5FE30E94E2166B017C01A501C2
S1130B70940160E070E080E094E40E94E1164B018F
S1130B805C0129A13AA14BA15CA160E070E08FEB6C
S1130B9093E40E94E1162B013C01C701B6010E94B7
S1130BA0041A69A37AA38BA39CA3C701B6010E946C
S1130BB0C5176DA37EA38FA398A708E611E029A10A
S1130BC03AA14BA15CA1C301B2010E94971969A784
S1130BD07AA78BA79CA72DA13EA14FA158A5C5011B
S1130BE0B4010E9497199B01AC0169A57AA58BA554
S1130BF09CA50E94E116F80160837183828393832C
S1130C002DA13EA14FA158A5C301B2010E9497197D
S1130C102B013C0129A13AA14BA15CA1C501B4015E
S1130C200E9497199B01AC01C301B2010E94E21614
S1130C30F8016483758386839783F7FAF094F7F851
S1130C40F094C086D186E286F386C801CE5BDF4F7E
S1130C500FB6F894DEBF0FBECDBFDF91CF911F91C9
S1130C600F91FF90EF90DF90CF90BF90AF909F9047
S1130C708F907F906F905F904F903F902F9008954A
S1130C804F925F926F927F92AF92BF92CF92DF9218
S1130C90EF92FF920F931F93CF93DF93CDB7DEB7FD
S1130CA068970FB6F894DEBF0FBECDBFFC010DB739
S1130CB01EB7808191819A838983808591859C83E5
S1130CC08B83828193819E838D838285938598878C
S1130CD08F83848195819A878987848595859C876C
S1130CE08B87868197819E878D8786859785988B4C
S1130CF08F87FE01719688E0DF011D928A95E9F7DE
S1130D00709720E030E080E090E0408151814F3FD7
S1130D10534071F0DC01AA0FBB1F41E050E04C0FBF
S1130D205D1FA40FB51F51963C932E9350970196C7
S1130D302F5F3F4F34962430310539F7009709F47B
S1130D4089C0EDB6FEB66C01CC0CDD1CCC0CDD1CF0
S1130D50ADB7BEB7AC19BD090FB6F894BEBF0FBE90
S1130D60ADBFEDB7FEB731965F011816190624F52D
S1130D709E012F5E3F4FDF01CE0EDF1EF901419130
S1130D8051919F01FA01EE0FFF1FEE0FFF1F41E08B
S1130D9050E04C0F5D1FE40FF51F40815181119607
S1130DA05C934E934281538113965C934E931297B6
S1130DB01496AC15BD0511F7DB014D905D906D9057
S1130DC07C901397E0E8F1E0408251826282738262
S1130DD014964D905D906D907C9017974482558247
S1130DE06682778218964D915D916D917C911B97E7
S1130DF04087518762877387049729F4C5010E944D
S1130E002F03DC0102C0A0E8B1E04D915D916D912A
S1130E107C911397E4E7F1E0408351836283738309
S1130E2014964D915D916D917C91179744835583F0
S1130E306683778318968D919D910D90BC91A02D1A
S1130E4080879187A287B3870FB6F894FEBE0FBE42
S1130E50EDBE20C0FB0180819181A281B381E4E7D2
S1130E60F1E080839183A283B383DB011496CD9058
S1130E70DD90ED90FC901797C482D582E682F782CC
S1130E8018964D915D916D917C911B974087518788
S1130E906287738784E791E00FB6F8941EBF0FBE94
S1130EA00DBF68960FB6F894DEBF0FBECDBFDF91BD
S1130EB0CF911F910F91FF90EF90DF90CF90BF9053
S1130EC0AF907F906F905F904F900895AF92BF92D4
S1130ED0CF92DF92EF92FF920F931F93C19AA0904B
S1130EE01601B0901701C0901801D0901901E0903C
S1130EF01A01F0901B0100911C0110911D01209119
S1130F00BC013091BD014091BE015091BF0160917F
S1130F10C0017091C1018091C2019091C301E0911F
S1130F200D01EF93E0910C01EF93E0910B01EF932E
S1130F30E0910A01EF93E0911101EF93E091100128
S1130F40EF93E0910F01EF93E0910E01EF93E091A5
S1130F50BB01EF93E091BA01EF93E091B901EF93F4
S1130F60E091B801EF93E0911501EF93E091140142
S1130F70EF93E0911301EF93E0911201EF930E943C
S1130F80E60B8DB79EB740960FB6F8949EBF0FBE82
S1130F908DBF1F910F91FF90EF90DF90CF90BF9086
S1130FA0AF9008950E94F414882309F45AC0E09184
S1130FB0C401F0E0E157FE4F81E080838091A401F9
S1130FC09091A501A091A601B091A7018093C001C1
S1130FD09093C101A093C201B093C3018091A00179
S1130FE09091A101A091A201B091A3018093BC01B1
S1130FF09093BD01A093BE01B093BF018BED9FE020
S1131000A9ECBFE38093160190931701A0931801F4
S1131010B09319018DEC9CECACE4BDE38093B80172
S11310209093B901A093BA01B093BB018AE999E9FD
S1131030A9E9BFE38093120190931301A0931401D3
S1131040B09315018DEC9CECACE4BFE380931A01E2
S113105090931B01A0931C01B0931D016A9A729A8C
S113106008950E94F414811154C0E091C401F0E089
S1131070E157FE4F10828091980190919901A091BF
S11310809A01B0919B018093C0019093C101A093F8
S1131090C201B093C3018091940190919501A091F4
S11310A09601B09197018093BC019093BD01A093E8
S11310B0BE01B093BF018BED9FE0A9E4B0E480933F
S11310C0160190931701A0931801B093190110927F
S11310D0B8011092B9011092BA011092BB0186E6D0
S11310E096E6A6EEBFE38093120190931301A093BA
S11310F01401B09315018DEC9CECACE4BFE3809338
S11311001A0190931B01A0931C01B0931D016A9ACC
S113111072980895CF93DF93CDB7DEB728970FB6B3
S1131120F894DEBF0FBECDBFEAE7F0E080818061B6
S113113080830E941E158823D9F1CE0101960E9456
S1131140001489819A81AB81BC818093980190932A
S11311509901A0939A01B0939B018D819E81AF81E7
S1131160B8858093940190939501A0939601B093D0
S113117097018091C40190E0FC01E157FE4F20816A
S1131180209302012091920130919301332314F4AE
S11311902D5F3F4F3595279535952795209303016E
S11311A0FC01E457FE4F208360E071E00E94B71613
S11311B028960FB6F894DEBF0FBECDBFDF91CF9156
S11311C00895E1E8F0E080818160808380919E0150
S11311D090919F010E9428020895E1E8F0E0808147
S11311E08E7F808328982A9880E090E00E942802CD
S11311F008950E94ED0820E030E0A9016091A40167
S11312007091A5018091A6019091A7010E948A196D
S113121018169CF480E090E0A8ECB3EC8093A40151
S11312209093A501A093A601B093A70182E090E05A
S113123090939F0180939E01089580E090E0A8EC34
S1131240B3E48093A4019093A501A093A601B09365
S1131250A70181E090E090939F0180939E010895FF
S1131260CF93DF93CDB7DEB72C970FB6F894DEBFDC
S11312700FBECDBF81E090E090939D0180939C01CF
S11312800E94E60ACE0101960E947F0A69817A8152
S11312908B819C810E943C18CB010E94E11120E0CB
S11312A030E0A90169817A818B819C810E948A192D
S11312B018169CF480E090E0A8ECB3EC8093A401B1
S11312C09093A501A093A601B093A70182E090E0BA
S11312D090939F0180939E0112C080E090E0A8EC5F
S11312E0B3E48093A4019093A501A093A601B093C5
S11312F0A70181E090E090939F0180939E012C963A
S11313000FB6F894DEBF0FBECDBFDF91CF91089525
S113131080919C0190919D01892B11F40E943009C8
S113132085B5846085BD85B5816085BD80919E014C
S113133090919F010E9428020895E091AE018E2FA2
S113134090E0FC01E05AF109EA30F105B8F5EA5AF7
S1131350FF4F0C947F1A0E94880908950E94E108A7
S11313600895EEEAF1E081818093AD01828180935A
S1131370AC010E94ED080895EEEAF1E081818093CA
S1131380AD0182818093AC010E94ED0808950E9412
S1131390ED0808950E94F90808950E94ED08089543
S11313A0EEEAF1E0818190E0DC01A157BE4F228199
S11313B02C93DC01A457BE4F23812C9308956E9A7D
S11313C076988091C4010E940B010E94ED086A9AEC
S11313D07298CAE7D0E010E40E94E60A888184FD8E
S11313E00E948A080E94D207C1990E9466078091D0
S11313F0AA019091AB01892B79F31092AB01109261
S1131400AA016E9A8EB181278EB96AE08EEA91E0C4
S11314100E94F70E0E949D09DFCF1F920F920FB614
S11314200F921124289A2A9A0F900FBE0F901F90A2
S113143018951F920F920FB60F92112428980F90AF
S11314400FBE0F901F9018951F920F920FB60F9218
S113145011242A980F900FBE0F901F9018951F9279
S11314600F920FB60F9211248F939F9381E090E017
S11314709093AB018093AA019F918F910F900FBE1F
S11314800F901F9018951F920F920FB60F92112470
S11314902F933F934F935F936F937F938F939F9378
S11314A0AF93BF93EF93FF938091A8019091A9010B
S11314B08431910534F401969093A9018093A80195
S11314C00DC080E090E00E94280285B58B7F85BD29
S11314D085B58D7F85BD85B58E7F85BDFF91EF91E7
S11314E0BF91AF919F918F917F916F915F914F9138
S11314F03F912F910F900FBE0F901F901895FC01F4
S11315008091D5019091D601A091D701B091D801D5
S113151080839183A283B3838091D1019091D2017E
S1131520A091D301B091D40184839583A683B7831A
S11315308091CD019091CE01A091CF01B091D001C5
S113154080879187A287B38781E008958F929F92C5
S1131550AF92BF92CF92DF92EF92FF926B017C0128
S11315604B015C01E894B7F82BED3FE049E450E40B
S1131570C501B4010E948A191816BCF42BED3FE092
S113158049EC50E4C701B6010E949719A5019401E2
S11315900E94CA179B01AC01C701B6010E94E11663
S11315A0562F472F382F292F04C05C2D4D2D3E2D4B
S11315B02F2D652F742F832F922FFF90EF90DF90A4
S11315C0CF90BF90AF909F908F9008952F923F92AD
S11315D04F925F926F927F928F929F92AF92BF923F
S11315E0CF92DF92EF92FF920F931F93CF93DF93EB
S11315F0CDB7DEB7A8970FB6F894DEBF0FBECDBF48
S1131600CE0101960E946D136B817C810F81188538
S113161049855A85AD85BE852F853889EB89FC8936
S11316208D899E89E980FA80FA8EE98E1C8F0B8F52
S1131630BE8FAD8FF8A3EF8F7AA369A35CA34BA3EE
S11316403EA32DA398A78FA366E271E0CE0149962D
S11316500E9440068C01FC0180859185A285B3859A
S11316600F2EF6E22F2EF1E03F2EF02DF1018087B0
S11316709187A287B387F8016085718582859385F8
S11316800E94A60A2B013C01F801608771878287BA
S1131690938724EA30E74DE75FE3608171818281BB
S11316A093810E9497194B015C0120E037ED43E2DE
S11316B05CE36091D5017091D6018091D70190913E
S11316C0D8010E9497199B01AC01C501B4010E9485
S11316D0E2164B015C016093D5017093D6018093AF
S11316E0D7019093D80124EA30E74DE75FE3F8018E
S11316F064817581868197810E9497196B017C01B1
S113170020E037ED43E25CE36091D1017091D201B6
S11317108091D3019091D4010E9497199B01AC014F
S1131720C701B6010E94E2166B017C016093D101EE
S11317307093D2018093D3019093D40124EA30E7CB
S11317404DE75FE3C301B2010E9497192B013C01ED
S113175020E037ED43E25CE36091CD017091CE016E
S11317608091CF019091D0010E9497199B01AC0107
S1131770C301B2010E94E2166093CD017093CE01C1
S11317808093CF019093D001F10180829182A28253
S1131790B382C482D582E682F782A8960FB6F89403
S11317A0DEBF0FBECDBFDF91CF911F910F91FF9090
S11317B0EF90DF90CF90BF90AF909F908F907F90ED
S11317C06F905F904F903F902F9008954F925F924B
S11317D06F927F928F929F92AF92BF92CF92DF923D
S11317E0EF92FF920F931F93CF93DF93CDB7DEB7A2
S11317F068970FB6F894DEBF0FBECDBF29013A013A
S1131800E98AFA8A0B8B1C8B2091D5013091D60181
S11318104091D7015091D8010E94E1166D837E83D7
S11318208F8398872091D1013091D2014091D301C7
S11318305091D401C301B2010E94E11669877A87ED
S11318408B879C872D813E814F8158850E9461172B
S11318502091CD013091CE014091CF015091D00122
S11318600E94E1160E94A60A69837A838B839C8373
S11318702B013C01E89477F8A6019501C301B2015C
S11318800E948A19181684F429813A814B815C815B
S1131890C301B2010E94CA17A60195010E949719BB
S11318A069837A838B839C832091C9013091CA0117
S11318B04091CB015091CC0169817A818B819C81CB
S11318C00E94E1162FE632E143E85AE30E94CA1768
S11318D06D8B7E8B8F8B988F29813A814B815C81B4
S11318E06BA57CA58DA59EA50E9497196B017C0113
S11318F02D893E894F89588D6FA578A989A99AA900
S11319000E9497199B01AC01C701B6010E94E11620
S113191029813A814B815C812093C9013093CA01AA
S11319204093CB015093CC012BED3FE049E450E4CC
S11319300E94CA176D877E878F87988B69817A8109
S11319408B819C810E94C5172B013C0129853A8516
S11319504B855C85CA01B9010E9497196B017C0112
S11319602D813E814F815885CA01B9010E94971982
S11319709B01AC01C701B6010E94E2160E94121A33
S11319809B01AC01C301B2019F770E9497196B01BF
S11319907C010E94F4148823E1F020E030E0A901E6
S11319A0C701B6010E94C01788235CF020E030E034
S11319B040EF51E4C701B6010E94E2166B017C01BD
S11319C008C00F2EC12CD12CF0EFEF2EF1E4FF2E26
S11319D0F02D2091C5013091C6014091C70150916D
S11319E0C801C701B6010E94E1162FE632E143E8BF
S11319F05AE30E94CA174B015C01A70196016BA927
S1131A007CA98DA99EA90E9497192B013C01A501CF
S1131A1094016FA978AD89AD9AAD0E9497199B0185
S1131A20AC01C301B2010E94E1162B013C01C0923A
S1131A30C501D092C601E092C701F092C80120E02E
S1131A4030E040E252E40E948A19181644F40F2E42
S1131A50412C512CF0E26F2EF2E47F2EF02D20E089
S1131A6030E040E252E4C301B2010E94CA176B01A4
S1131A707C012DEC3CEC4CEC5DE3C501B4010E940F
S1131A80C01788230CF52AE037ED43E25CE36D8947
S1131A907E898F89988D0E94C0178823ACF42DEC21
S1131AA03CEC4CE45EE369817A818B819C819F7775
S1131AB00E94971929813A814B815C810E94CA173F
S1131AC06D877E878F87988B8D849E84AF84B8883A
S1131AD0B7FAB094B7F8B09469817A818B819C810C
S1131AE09F772BED3FE049EC5FE30E94C01788230A
S1131AF00CF52D853E854F855889C701B6010E9496
S1131B00E116609322017093230180932401909342
S1131B102501A70196016D857E858F8598890E9490
S1131B20E21660931E0170931F018093200190932D
S1131B3021011EC0A7019601C501B4010E94E1164E
S1131B4060932201709323018093240190932501D3
S1131B50A70196016D857E858F8598890E94E1167F
S1131B6060931E0170931F018093200190932101C3
S1131B7020E030E0A901609122017091230180915D
S1131B802401909125010E94C017882314F42998F8
S1131B9001C0299A20E030E0A90160911E017091F2
S1131BA01F0180912001909121010E94C017882378
S1131BB014F42B9801C02B9A809022019090230159
S1131BC0A0902401B0902501E894B7F880922201F6
S1131BD090922301A0922401B0922501C0901E018D
S1131BE0D0901F01E0902001F0902101E894F7F8D3
S1131BF0C0921E01D0921F01E0922001F0922101B7
S1131C00A7019601C501B4010E948A1918162CF087
S1131C101C2D0D2D7E2C6F2C04C0182D092D7A2C13
S1131C206B2C29893A894B895C89612F702F872D08
S1131C30962D0E948A19181664F5212F302F472DEE
S1131C40562DC501B4010E94CA1729893A894B89C6
S1131C505C890E94971960932201709323018093F9
S1131C60240190932501212F302F472D562DC70194
S1131C70B6010E94CA1729893A894B895C890E9456
S1131C80971960931E0170931F0180932001909314
S1131C90210108E810E0F8016081718180E090E0A2
S1131CA00E94721820912201309123014091240155
S1131CB0509125010E9497190E94431870938B003C
S1131CC060938A00F8016081718180E090E00E9455
S1131CD0721820911E0130911F01409120015091F2
S1131CE021010E9497190E94431870938D006093FC
S1131CF08C0068960FB6F894DEBF0FBECDBFDF919F
S1131D00CF911F910F91FF90EF90DF90CF90BF90F4
S1131D10AF909F908F907F906F905F904F900895B9
S1131D20589A599A5A9A8CE08093B800E9E6F0E000
S1131D3080818062808380818F7E8083EA9A789418
S1131D4008951F93CF93DF93182FD62FC42F0E948B
S1131D50900E94EA9093BC00ECEBF0E09081992310
S1131D60ECF790E59093BB0094E89093BC00ECEB07
S1131D70F0E090819923ECF79091B900987F90322C
S1131D8029F484E98093BC0080E02DC081E0809335
S1131D90BB0084E88093BC00ECEBF0E090819923D5
S1131DA0ECF71093BB0084E88093BC00ECEBF0E00C
S1131DB080818823ECF7D093BB0084E88093BC0037
S1131DC0ECEBF0E080818823ECF7C093BB0084E85F
S1131DD08093BC00ECEBF0E080818823ECF784E98D
S1131DE08093BC0081E0DF91CF911F910895CF9340
S1131DF0DF939C0184EA8093BC00ECEBF0E09081DB
S1131E009923ECF781E58093BB0084E88093BC00C0
S1131E10ECEBF0E090819923ECF78091B900887F96
S1131E20883429F484E98093BC0080E041C084ECC8
S1131E308093BC00ECEBF0E090819923ECF74091A7
S1131E40BB00461309C0842F90E0019718161906A9
S1131E5044F040E050E01AC084E98093BC0080E084
S1131E6027C0D90150E041505109B901640F751FD1
S1131E70ECEBF0E084ECCBEBD0E080839081992311
S1131E80ECF798819D93A617B707B9F784E8809378
S1131E90BC00ECEBF0E090819923ECF78091BB005F
S1131EA0F901E40FF51F808384E98093BC0081E08D
S1131EB0DF91CF910895CF93DF93F89494EA9093B0
S1131EC0BC00ECEBF0E090819923ECF790E5909363
S1131ED0BB0094E89093BC00ECEBF0E09081992374
S1131EE0ECF79091B900987F903231F484E98093B3
S1131EF0BC00789480E02DC093E09093BB0094E8FC
S1131F009093BC00ECEBF0E090819923ECF7809384
S1131F10BB0084E88093BC00ECEBF0E08081882374
S1131F20ECF7442389F0DB01640F711DCBEBD0E0A7
S1131F30ECEBF0E094E88D91888390838081882392
S1131F40ECF7A617B707B9F784E98093BC00789437
S1131F5081E0DF91CF91089581E08093D70080EAFA
S1131F608093D80082E189BD09B400FEFDCF80E9E9
S1131F708093D8001092E0001092DC011092D901F5
S1131F808CE08093E20078940895CF93DF9390914E
S1131F90DC01992309F44CC09FB7F89424E0209302
S1131FA0E9002091DA01222349F02091E80025FD7F
S1131FB003C09FBF8FEF41C01092DA013091E4005B
S1131FC0375E2091E80025FD24C09FBF9091E40076
S1131FD0931781F09091DC01992361F1A9EEB0E0AF
S1131FE044E0E8EEF0E0C4EED0E00DC09FBF98817D
S1131FF0931305C081E08093DA018FEF1EC09091A6
S1132000DC019923C9F09FB7F8944C93208125FFF4
S1132010EDCF8093F1008091E80085FD03C08AE351
S11320208093E80085E08093DB019FBF80E005C0DA
S11320308FEF03C08FEF01C08FEFDF91CF91089531
S11320401F920F920FB60F9211248F939F93EF93C9
S1132050FF93E1EEF0E08081108283FF11C01092C3
S1132060E90091E09093EB001092EC0092E19093E0
S1132070ED0098E09093F0001092DC011092D901E9
S113208082FF13C08091DC01882379F08091DB0109
S1132090882359F081508093DB01811106C084E0CC
S11320A08093E9008AE38093E800FF91EF919F9188
S11320B08F910F900FBE0F901F9018951F920F9243
S11320C00FB60F9211240F931F932F933F934F93A7
S11320D05F936F937F938F939F93AF93BF93CF93AC
S11320E0DF93EF93FF931092E9008091E80083FF60
S11320F04CC1E1EFF0E0608180812081908130E08B
S1132100392B4081908150E0592B7081C08192EF2E
S11321109093E800863009F058C004C081E28093AF
S1132120EB003AC166E084E291E0FC01A591B49130
S11321302A173B0711F0079623C0FC013296A5919C
S1132140B4914A175B0711F007961AC0FC01349644
S113215045915491FC0136962491872F90E09C2B55
S11321608F3F910519F010F08FEF90E0821708F47B
S1132170282FA8EEB0E070E16EEFC1EFD0E003C00D
S1132180615099F6CBCF8C91982F9570E1F382FD35
S113219003C1322F213108F0372F332309F4F9C05A
S11321A0FA01832F94919883815031968111FACF4B
S11321B08FEF830F90E00196480F591F231B6C93F8
S11321C02111E1CF3031F9F2E7C0853061F48EEFAF
S11321D08093E800E8EEF0E0808180FFFDCF206886
S11321E02093E300D9C0893009F035C06111CDC016
S11321F02093DC011092D9011092DB018EEF8093C1
S1132200E80081E02DEC31E0C9EED0E0ABEEB0E0C7
S11322100CEE10E06DEE70E08883A9014F5F5F4F14
S1132220F90194919C93992361F0FA014491F80186
S11322304083F901329694912D5F3F4FFB019083C7
S113224001C09A018F5F853039F7EAEEF0E08EE144
S113225080831082A1C0883081F4603809F095C071
S1132260E8EEF0E0808180FFFDCF8091DC01809377
S1132270F1008EEF8093E8008FC08132B9F4613AA7
S113228009F083C0E8EEF0E0808180FFFDCFE2E357
S1132290F1E029E331E0A1EFB0E081918C93E21702
S11322A0F307D9F78EEF8093E80076C08032D1F43B
S11322B0613209F06AC0E8EEF0E0808182FFFDCF70
S11322C0E2E3F1E029E331E0A1EFB0E08C91819306
S11322D0E217F307D9F7E8EEF0E08BEF80838EEF97
S11322E080835AC0823271F4613209F04EC0209367
S11322F0D901E8EEF0E0808180FFFDCF8EEF80937E
S1132300E8004AC081111AC0E8EEF0E0808180FF45
S1132310FDCF623851F4E9EEF0E040838091EB00A8
S113232085FB882780F9108201C080E0E1EFF0E0AE
S1132330808310828EEF8093E8002EC0982F9D7FBB
S1132340913019F5623009F5232BF9F44F779FEF9B
S1132350940F9430D0F49EEF9093E8004093E900FA
S1132360833021F481E28093EB0016C089E18093ED
S1132370EB0081E090E002C0880F991F4A95E2F7D4
S1132380EAEEF0E08083108207C081E28093EB00E4
S113239003C06C932111F7CEFF91EF91DF91CF91A0
S11323A0BF91AF919F918F917F916F915F914F9169
S11323B03F912F911F910F910F900FBE0F901F907F
S11323C01895EF92FF920F931F93CF93DF93CDB79E
S11323D0DEB727970FB6F894DEBF0FBECDBF8E01D0
S11323E00F5F1F4F27E0F80111922A95E9F74AE0A1
S11323F0B8010E94851A7E01F8E0EF0EF11CF80185
S113240081918F0181110E94C50F0E151F05B9F727
S113241027960FB6F894DEBF0FBECDBFDF91CF91E4
S11324201F910F91FF90EF90089520E030E0ECEBC6
S1132430F0E08081882334F02F5F3F4F293E83E012
S11324403807B9F781E0283E334009F480E0089565
S11324508093BB0084E88093BC000E9415128823FB
S113246019F08091B900887F0895CF93C82F94EA1A
S11324709093BC000E941512882361F08C2F880F62
S11324800E942812803229F484E98093BC0080E001
S113249001C081E0CF9108950E94900E88E50E94CA
S11324A03512882309F4CDC080E30E9428128823C2
S11324B009F4C9C081E00E942812882309F4C5C028
S11324C084E98093BC0083EC99E00197F1F700C0A4
S11324D0000088E50E943512882309F4B8C080E022
S11324E00E942812882309F4B4C080E00E942812B4
S11324F0882309F4B0C080E00E942812882309F4DC
S1132500ACC080E00E942812882309F4A8C080E0AF
S11325100E942812882309F4A4C080E00E94281293
S1132520882309F4A0C080E00E942812882309F4BB
S11325309CC080E90E942812882309F498C084E989
S11325408093BC0083EC99E00197F1F700C0000090
S113255088E50E943512882309F48BC087E00E9425
S11325602812882309F487C080E00E942812882357
S113257009F483C081E40E942812882309F47FC0EF
S113258084E98093BC0083EC99E00197F1F700C0E3
S1132590000088E50E943512882309F472C08AE19C
S11325A00E942812882309F46EC080E40E94281235
S11325B0882309F46AC080E00E942812882309F461
S11325C066C084E98093BC0083EC99E00197F1F73D
S11325D000C0000088E50E943512882309F459C020
S11325E083E30E942812882309F455C083E00E94E3
S11325F02812882309F451C084E98093BC0083EC39
S113260099E00197F1F700C0000088E50E943512B7
S1132610882309F444C080E30E942812882309F423
S113262040C088E00E9428128823E9F184E980935D
S1132630BC0083EC99E00197F1F700C0000081E051
S1132640089580E0089580E0089580E0089580E092
S1132650089580E0089580E0089580E0089580E082
S1132660089580E0089580E0089580E0089580E072
S1132670089580E0089580E0089580E0089580E062
S1132680089580E0089580E0089580E0089580E052
S1132690089580E0089580E0089580E0089580E042
S11326A0089580E0089580E00895CF93C82F84EAC8
S11326B08093BC000E941512882369F08C2F880F28
S11326C08F5F0E942812883429F484E98093BC0027
S11326D080E001C081E0CF9108950F931F93CF93C1
S11326E0DF93CDB7DEB760970FB6F894DEBF0FBEA9
S11326F0CDBF8C01FE01319680E1DF011D928A95E8
S1132700E9F788E50E943512882309F469C086E355
S11327100E942812882309F465C084E98093BC00D0
S1132720B8E0BA95F1F7000088E50E9455138823B4
S113273009F45AC0BE016F5F7F4FAE01405F5F4F27
S1132740ECEBF0E084EC2BEB30E080839081992378
S1132750ECF7D9019C91DB019D93BD01A417B5074A
S1132760A1F784E88093BC00ECEBF0E0808188233F
S1132770ECF78091BB00888B84E98093BC00BE0198
S11327806C5F7F4FF801085E1F4FDB012C91322FE5
S11327903073CB010297DC018C9190E0B0E13B9F58
S11327A0800D911D112491838083422F407C50E041
S11327B0440F551F440F551FCB010197DC018C9129
S11327C0480F511D538342832F7030E03583248397
S11327D06D5F7F4F3696E017F107B9F681E005C0CB
S11327E080E003C080E001C080E060960FB6F894FA
S11327F0DEBF0FBECDBFDF91CF911F910F91089522
S11328002F923F924F925F926F927F928F929F92FC
S1132810AF92BF92CF92DF92EF92FF920F931F93EA
S1132820CF93DF93CDB7DEB762970FB6F894DEBFD0
S11328300FBECDBF9A8B898BCE0101960E947F0A71
S11328400F2EF1EE8F2EF1E09F2EF02D0F2EFBE3D5
S1132850EF2EF1E0FF2EF02D0F2EF3E6AF2EF1E078
S1132860BF2EF02D1D861E861F86188AC12CD12CE2
S1132870212C312CF401019111914F01C00ED11E74
S1132880F70141905190619071907F01B801012E40
S1132890000C880B990B0E9474189B01AC01C301B6
S11328A0B2010E9497199B01AC016D857E858F85CD
S11328B098890E94E2166D877E878F87988B2016F1
S11328C031060CF41801EA14FB04A1F6F4E62F1601
S11328D031045CF4E989FA8910821182128213822C
S11328E0148215821682178266C0B601DD0C880B2D
S11328F0990B0E9474189B01AC016D857E858F85B0
S113290098890E94CA1729853A854B855C850E945F
S1132910E2166B017C010E94C5174B015C016FEF4D
S113292073E062197309072E000C880B990B0E943F
S113293074182B013C0120E030E04FE254E4C5015F
S1132940B4010E949719A30192010E94971920E0F3
S113295030E048E453E40E94CA1729813A814B814C
S11329605C810E94E216E989FA896083718382831B
S11329709383C701B6010E94041A20E030E04FE2BD
S113298054E40E9497199B01AC01C301B2010E9457
S1132990971920E030E048E453E40E94CA172D81DF
S11329A03E814F8158850E94E216E989FA89648341
S11329B075838683978362960FB6F894DEBF0FBE45
S11329C0CDBFDF91CF911F910F91FF90EF90DF90DA
S11329D0CF90BF90AF909F908F907F906F905F90BB
S11329E04F903F902F90089580917A00882314F59A
S11329F02091DF013091E0018091DD019091DE01B1
S1132A00820F931F8132934044F085E090E09093CD
S1132A103A018093390181E00895809139019091C0
S1132A203A01009749F0019790933A018093390154
S1132A3081E0089580E0089580E00895EAE7F0E0F9
S1132A4080818F778083E091F501F091F601EC307D
S1132A50F10508F082C1E05AFF4F0C947F1A81E01F
S1132A6090E09093F6018093F501EBE7F0E080812C
S1132A708F7D8083ECE7F0E080818B7F8083808191
S1132A808D7F808380818E7F808380917800909178
S1132A9079009093E6018093E50180E05FC182E0D4
S1132AA090E09093F6018093F501EBE7F0E08081EC
S1132AB08F7D8083ECE7F0E080818B7F8083808151
S1132AC08D7F808380818160808380917800909164
S1132AD079009093EA018093E90180E03FC183E0AB
S1132AE090E09093F6018093F501EBE7F0E08081AC
S1132AF08F7D8083ECE7F0E0808184608083808137
S1132B008D7F808380818E7F8083809178009091F7
S1132B1079009093DE018093DD0180E01FC184E0A1
S1132B2090E09093F6018093F501EBE7F0E080816B
S1132B308F7D8083ECE7F0E08081846080838081F6
S1132B408D7F8083808181608083809178009091E3
S1132B5079009093EC018093EB0180E0FFC085E065
S1132B6090E09093F6018093F501EBE7F0E080812B
S1132B708F7D8083ECE7F0E08081846080838081B6
S1132B808260808380818E7F8083809178009091A1
S1132B9079009093F0018093EF0180E0DFC086E03C
S1132BA090E09093F6018093F501EBE7F0E08081EB
S1132BB08F7D8083ECE7F0E0808184608083808176
S1132BC0826080838081816080838091780090918D
S1132BD079009093F2018093F10180E0BFC087E017
S1132BE090E09093F6018093F501EBE7F0E08081AB
S1132BF080628083ECE7F0E080818B7F808380813A
S1132C008D7F808380818E7F8083809178009091F6
S1132C1079009093F4018093F30180E09FC088E0F1
S1132C2090E09093F6018093F501EBE7F0E080816A
S1132C3080628083ECE7F0E080818B7F80838081F9
S1132C408D7F8083808181608083809178009091E2
S1132C5079009093E2018093E10180E07FC089E0F4
S1132C6090E09093F6018093F501EBE7F0E080812A
S1132C7080628083ECE7F0E080818B7F80838081B9
S1132C808260808380818E7F8083809178009091A0
S1132C9079009093EE018093ED0180E05FC08AE0BB
S1132CA090E09093F6018093F501EBE7F0E08081EA
S1132CB080628083ECE7F0E080818B7F8083808179
S1132CC0826080838081816080838091780090918C
S1132CD079009093E8018093E70180E03FC08BE0A6
S1132CE090E09093F6018093F501EBE7F0E08081AA
S1132CF080628083ECE7F0E080818460808380815F
S1132D008D7F808380818E7F8083809178009091F5
S1132D1079009093E4018093E30180E01FC0109256
S1132D20F6011092F501EBE7F0E080818062808388
S1132D30ECE7F0E080818460808380818D7F8083F4
S1132D408081816080838091780090917900909354
S1132D50E0018093DF0181E001C080E0EAE7F0E078
S1132D609081906890839081906490830895CF932C
S1132D70DF93EB01009751F44AE082E20E945B0F7B
S1132D804AE0BE0181E20E945B0F18C081309105C8
S1132D9051F44AE082E20E945B0F4AE0BE0180E205
S1132DA00E945B0F0BC0029749F44AE081E20E9443
S1132DB05B0F4AE0BE0180E20E945B0FDF91CF917E
S1132DC008955058BB27AA270E94F9160C943C1961
S1132DD00E94031938F00E940A1920F039F49F3F29
S1132DE019F426F40C94D9180EF4E095E7FB0C942E
S1132DF0D318E92F0E94611958F3BA1762077307B1
S1132E008407950720F079F4A6F50C9483190EF441
S1132E10E0950B2EBA2FA02D0B01B90190010C01E6
S1132E20CA01A0011124FF27591B99F0593F50F4FE
S1132E30503E68F11A16F040A22F232F342F442756
S1132E40585FF3CF469537952795A795F04053954E
S1132E50C9F77EF41F16BA0B620B730B840BBAF01E
S1132E609150A1F0FF0FBB1F661F771F881FC2F789
S1132E700EC0BA0F621F731F841F48F4879577959D
S1132E806795B795F7959E3F08F0B0CF9395880F57
S1132E9008F09927EE0F9795879508950E940319D6
S1132EA060F080E891E009F49EEF0E940A1928F08E
S1132EB040E851E071F45EEF0CC00C94D9180C9406
S1132EC08319E92FE0780E94611940F3092E052A3D
S1132ED0B1F3261737074807590738F00E2E07F8BD
S1132EE0E02569F0E025E0640AC0EF6307F8009488
S1132EF007FADB01B9019D01DC01CA01AD01EF93C1
S1132F000E94E1170E943C190E9491175F9155237A
S1132F1039F02BED3FE049E450FD49EC0C94E21606
S1132F200895DF93DD27B92FBF7740E85FE31616D6
S1132F30170648075B0718F4D92F0E948F199F932F
S1132F408F937F936F930E94521AE8EDF0E00E94F2
S1132F50DC180E943C192F913F914F915F910E9480
S1132F60AA19DD2351F09058A2EA2AED3FE049EC7A
S1132F705FE3D0785D270E94F916DF910C943C1929
S1132F800E94AF1808F481E008950E941319E39594
S1132F900C944D190E94DE170C943C190E940A19D6
S1132FA058F00E94031940F029F45F3F29F00C9473
S1132FB0D31851110C9484190C94D9180E946119D6
S1132FC068F39923B1F3552391F3951B550BBB2754
S1132FD0AA2762177307840738F09F5F5F4F220F99
S1132FE0331F441FAA1FA9F335D00E2E3AF0E0E890
S1132FF032D091505040E695001CCAF72BD0FE2FDA
S113300029D0660F771F881FBB1F2617370748076D
S1133010AB07B0E809F0BB0B802DBF01FF27935825
S11330205F4F3AF09E3F510578F00C94D3180C94FE
S113303084195F3FE4F3983ED4F3869577956795BA
S1133040B795F7959F5FC9F7880F911D969587955A
S113305097F90895E1E0660F771F881FBB1F621779
S113306073078407BA0720F0621B730B840BBA0B37
S1133070EE1F88F7E09508950E9443186894B111F3
S11330800C94841908950E94691988F09F5798F048
S1133090B92F9927B751B0F0E1F0660F771F881F59
S11330A0991F1AF0BA95C9F714C0B13091F00E9473
S11330B08319B1E008950C948319672F782F88271A
S11330C0B85F39F0B93FCCF3869577956795B3959A
S11330D0D9F73EF490958095709561957F4F8F4F09
S11330E09F4F0895E89409C097FB3EF4909580950E
S11330F0709561957F4F8F4F9F4F9923A9F0F92FBA
S113310096E9BB279395F695879577956795B79537
S1133110F111F8CFFAF4BB0F11F460FF1BC06F5F1D
S11331207F4F8F4F9F4F16C0882311F096E911C02F
S1133130772321F09EE8872F762F05C0662371F050
S113314096E8862F70E060E02AF09A95660F771F64
S1133150881FDAF7880F9695879597F90895990F40
S11331600008550FAA0BE0E8FEEF16161706E8074D
S1133170F907C0F012161306E407F50798F0621B6E
S1133180730B840B950B39F40A2661F0232B242B43
S1133190252B21F408950A2609F4A140A6958FEF62
S11331A0811D811D089597F99F6780E870E060E0B4
S11331B008959FEF80EC0895DF93CF931F930F93AF
S11331C0FF92EF92DF927B018C01689406C0DA2EA5
S11331D0EF010E94AA19FE01E894A5912591359169
S11331E045915591A6F3EF010E94F916FE0197014E
S11331F0A801DA9469F7DF90EF90FF900F911F9187
S1133200CF91DF91089500240A9416161706180624
S11332100906089500240A941216130614060506D6
S113322008950C94D9180E946919D8F3E894E0E041
S1133230BB279F57F0F02AED3FE049EC06C0EE0FA4
S1133240BB0F661F771F881F28F0B23A6207730707
S1133250840728F0B25A620B730B840BE3959A959A
S113326072F7803830F49A95BB0F661F771F881F5A
S1133270D2F790480C94581A092E0394000C11F4B8
S1133280882352F0BB0F40F4BF2B11F460FF04C03D
S11332906F5F7F4F8F4F9F4F0895EF93E0FF07C0FD
S11332A0A2EA2AED3FE049EC5FEB0E94F9160E9486
S11332B03C190F90039401FC9058E5E0F1E00C9464
S11332C06B1A57FD9058440F551F59F05F3F71F02A
S11332D04795880F97FB991F61F09F3F79F0879579
S11332E00895121613061406551FF2CF4695F1DF02
S11332F008C0161617061806991FF1CF8695710592
S1133300610508940895E894BB2766277727CB01C5
S113331097F908950E94AF1808F48FEF08959B0160
S1133320AC0160E070E080E89FE30C94CA170E944F
S1133330AA190C943C190E94031938F00E940A1926
S113334020F0952311F00C94D3180C94D91811245F
S11333500C9484190E94611970F3959FC1F3950F21
S113336050E0551F629FF001729FBB27F00DB11D05
S1133370639FAA27F00DB11DAA1F649F6627B00D95
S1133380A11D661F829F2227B00DA11D621F739F7E
S1133390B00DA11D621F839FA00D611D221F749F8C
S11333A03327A00D611D231F849F600D211D822FD3
S11333B0762F6A2F11249F5750409AF0F1F08823FA
S11333C04AF0EE0FFF1FBB1F661F771F881F915027
S11333D05040A9F79E3F510580F00C94D3180C94EB
S11333E084195F3FE4F3983ED4F386957795679507
S11333F0B795F795E7959F5FC1F7FE2B880F911D51
S11334009695879597F908959F930E9413190F90A5
S113341007FCEE5F0C944D1919F416F40C94D918AA
S11334200C94561A0E946919B8F39923C9F3B6F398
S11334309F57550B87FF0E94641A0024A0E640EAB8
S1133440900180585695979528F4805C660F771FF5
S1133450881F20F026173707480730F4621B730BC8
S1133460840B202931294A2BA695179407942025EB
S113347031254A2758F7660F771F881F20F0261733
S11334803707480730F4620B730B840B200D311D92
S1133490411DA09581F7B901842F9158880F969505
S11334A0879508959B01AC010C9497199F3F31F0C7
S11334B0915020F4879577956795B795880F911D5E
S11334C09695879597F9089591505040660F771F08
S11334D0881FD2F708959F938F937F936F93FF93E1
S11334E0EF939B01AC010E949719EF91FF910E9409
S11334F0DC182F913F914F915F910C949719EE0F27
S1133500FF1F0590F491E02D0994BB274A3031F454
S1133510992322F4BDE2909581959F4F0C94911AC2
S1133520BB27FB015527AA27880F991FAA1FA41799
S113353010F0A41B83955051B9F7A05DAA3308F08D
S1133540A95DA193009779F7B111B1931192CB01C1
S11335500C94AA1ADC01FC01672F71917723E1F71F
S1133560329704C07C916D9370836291AE17BF074C
S10B3570C8F30895F894FFCF9D
S1133578A90000000000000000000AD7233CCDCCBD
S11335884C3E0000803FDB0F49403333333FCDCC02
S1133598CC3DCDCCCC3D00C07F4400C07F4400006E
S11335A8B44300E100000000080500DB0FC9BFC3F5
S11335B8B832BFC3B8B2BE00000000C3B8B23EC33D
S11335C8B8323FDB0FC93F378D2740DB0F494037FF
S10735D88D27C00077
S9030000FC
