:100000000C94EA000C9407010C9407010C94CE099F
:100010000C9407010C9407010C9407010C94070140
:100020000C9407010C9407010C94720F0C94B00F00
:100030000C9407010C9407010C9407010C94070120
:100040000C9407010C94AC090C94B8090C94C309E6
:100050000C9407010C9407010C9407010C94E2091D
:100060000C9407010C9407010C9407010C940701F0
:100070000C9407010C9407010C9407010C940701E0
:100080000C9407010C9407010C9407010C940701D0
:100090000C9407010C9407010C9407010C940701C0
:1000A0000C9407010C9407010C940701540957099B
:1000B0005A09650970097809730976098114A11430
:1000C000C114E11401152115411561158115A11502
:1000D000C115E115084AD73B3BCE016E84BCBFFD7C
:1000E000C12F3D6C74319ABD56833DDA3D00C77F08
:1000F00011BED9E4BB4C3E916BAAAABE00000080A1
:100100003F05A84CCDB2D44EB93836A9020C50B92F
:10011000918688083CA6AAAA2ABE000000803F005B
:1001200000010000B7011200020000740143000347
:100130000000700104010309045C011202030904B8
:10014000540106030309044A01080803340031007E
:100150003000000006034D003200000012034A0088
:100160002E0020004600690065006E00650000005A
:100170000403090409024300020100C0320904001B
:100180000001020201000524001001052401010103
:10019000042402060524060001070582031000401E
:1001A00009040100020A00000007050302400000E4
:1001B000070584024000001201000202000010C086
:1001C000167A040001010203010001C11201803608
:1001D0000181360011241FBECFEFDAE0DEBFCDBFB4
:1001E00011E0A0E0B1E0E8ECF3E302C005900D926D
:1001F000A835B107D9F721E0A8E5B1E001C01D920B
:10020000A53EB207E1F70E9485090C94E2190C940F
:100210000000CF93DF93E1E6F0E080E88083108276
:1002200085BF85BF50985198209A219A229A239A87
:10023000539A559A289829982A982B98469847981F
:100240000E94330E0E949E118823E1F378940E944D
:10025000FE0E4AE060E281E00E94440E8823C9F36A
:10026000E1E8F0E080818B7F808380818D7F8083D7
:1002700080818E7F808380818F7E80838081886073
:100280008083E0E8F0E080818D7F808380818E7FB5
:10029000808380818F7D808380818F7E8083C8E88A
:1002A000D0E08AEA99E2998388836881798180E045
:1002B00090E00E949A172DEC3CEC4CEC5DE30E9420
:1002C000BF180E946B1770938B0060938A0068813F
:1002D000798180E090E00E949A172DEC3CEC4CEC88
:1002E0005DE30E94BF180E946B1770938D006093AE
:1002F0008C00EFE6F0E08081826080838081846002
:100300008083808188608083E1E9F0E080818B7F59
:10031000808380818D7F80838081816080838081E4
:100320008F7E8083808188608083E0E9F0E0808137
:100330008D7F808380818E7F808380E89EE3909391
:1003400099008093980085B58B7F85BD85B58D7F9D
:1003500085BD85B58E7F85BD85B5877F85BD84B517
:100360008D7F84BD84B58E7F84BDEEE6F0E0808114
:1003700081608083CCE7D0E088818F778883888113
:1003800080648883EAE7F0E080818B7F80838081CE
:1003900082608083808181608083AEE7B0E08C9151
:1003A00081608C938C9182608C938C9180618C9312
:1003B0008C9180628C938C9180648C938C918068FA
:1003C0008C93ADE7B0E08C9181608C938C918260CE
:1003D0008C938C9184608C938C9188608C938C919D
:1003E00080618C938C9180628C9380818F7D8083DF
:1003F000ABE7B0E08C9180628C93888184608883C5
:1004000088818D7F888388818160888380818068EE
:100410008083808180648083DF91CF9108958230D2
:100420009105F9F02CF4009751F0019789F042C042
:100430008430910551F1F4F0059791F13BC0E8E566
:10044000F1E01182108281E090E09383828332C0D8
:10045000E8E5F1E01182108282E090E093838283EC
:1004600029C0E8E5F1E01182108283E090E09383F7
:10047000828320C0E8E5F1E081E090E09183808311
:1004800082E090E09383828315C0E8E5F1E081E0AB
:1004900090E09183808383E090E0938382830AC01D
:1004A000E8E5F1E082E090E09183808383E090E0F2
:1004B0009383828388E591E008952F923F924F9233
:1004C0005F926F927F928F929F92AF92BF92CF92E4
:1004D000DF92EF92FF920F931F93CF93DF9300D0A1
:1004E00000D0CDB7DEB75C014A013A832983062FDD
:1004F000172FF80141905190619071908F011C82EB
:100500001B82212C312C12C0F801C190D190E190B6
:10051000F1908F01A7019601C301B2010E94B218A8
:10052000181624F4260137012B803C808B819C8196
:1005300001969C838B83069739F7822D932D0E9419
:100540000F02FC012081318162817381F5014081BC
:1005500051812417350759F4F40131832083F501C3
:1005600082819381E981FA819183808337C0F5018B
:10057000828193812817390759F4F401318320834C
:10058000F50180819181E981FA819183808326C080
:100590006417750759F4F40171836083F501828152
:1005A0009381E981FA819183808318C06817790764
:1005B00059F4F40171836083F50180819181E981AF
:1005C000FA81918380830AC0F40191838083F501CD
:1005D00080819181E981FA81918380830F900F90CE
:1005E0000F900F90DF91CF911F910F91FF90EF909F
:1005F000DF90CF90BF90AF909F908F907F906F9043
:100600005F904F903F902F9008952F923F924F927E
:100610005F926F927F928F929F92AF92BF92CF9292
:10062000DF92EF92FF920F931F93CF93DF93CDB79B
:10063000DEB7C254D1090FB6F894DEBF0FBECDBFEE
:100640002C01FC010480F581E02DFAA3E9A3FC0153
:100650000081118169A17AA1601B710B072E000C2A
:10066000880B990B0E949C176B017C01F20106809C
:10067000F781E02DFEA3EDA3F20122803380ADA02F
:10068000BEA0A218B3089B01AC010E94BF1869A7C5
:100690007AA78BA79CA7AA9C4001AB9C900C900CBE
:1006A0001124092C000CAA08BB08A7019601C70158
:1006B000B6010E94BF186B017C01C501B4010E9404
:1006C0009C179B01AC01C701B6010E940A160E944B
:1006D0003A196BAF7CAF8DAF9EAFF2010084F1850C
:1006E000E02DFAA7E9A7BF01601B710B072E000CD4
:1006F000880B990B0E949C176B017C01F2016284AC
:1007000073845301A218B3089B01AC010E94BF1867
:100710006DA77EA78FA798ABAA9C4001AB9C900CBD
:10072000900C1124092C000CAA08BB08A701960103
:10073000C701B6010E94BF186B017C01C501B4015D
:100740000E949C179B01AC01C701B6010E940A16CA
:100750000E943A1923966CAF7DAF8EAF9FAF23975F
:10076000F2010484F585E02DFEA7EDA7BF01601B13
:10077000710B072E000C880B990B0E949C174B01E4
:100780005C01F2010684F785E02DFAABE9AB8F013D
:10079000021913099B01AC010E94BF186BAB7CAB23
:1007A0008DAB9EAB009F6001019FD00CD00C11243B
:1007B0000D2C000CEE08FF08A5019401C501B40141
:1007C0000E94BF184B015C01C701B6010E949C1733
:1007D0009B01AC01C501B4010E940A160E943A199E
:1007E0006BAB7CAB8DAB9EAB69A57AA529A13AA179
:1007F000621B730B072E000C880B990B0E949C1731
:100800004B015C0183014DA15EA1041B150B9B01F3
:10081000AC010E94BF186FAB78AF89AF9AAF009F51
:100820006001019FD00CD00C11240D2C000CEE089F
:10083000FF08A5019401C501B4010E94BF184B0136
:100840005C01C701B6010E949C179B01AC01C50168
:10085000B4010E940A160E943A196FAB78AF89AFB3
:100860009AAF6DA57EA589A19AA1681B790B072E69
:10087000000C880B990B0E949C174B015C0109A985
:100880001AA9EDA1FEA10E1B1F0B9B01AC010E943A
:10089000BF1869A37AA38BA39CA3009F6001019F4B
:1008A000D00CD00C11240D2C000CEE08FF08A50173
:1008B0009401C501B4010E94BF184B015C01C7013E
:1008C000B6010E949C179B01AC01C501B4010E94B6
:1008D0000A160E943A194B015C016DA57EA529A557
:1008E0003AA5621B730B072E000C880B990B0E9414
:1008F0009C1769A37AA38BA39CA309A91AA906191B
:1009000017099B01AC010E94BF186DA37EA38FA3A2
:1009100098A7009F6001019FD00CD00C11240D2CD2
:10092000000CEE08FF0829A13AA14BA15CA1CA0165
:10093000B9010E94BF1869A37AA38BA39CA3C70126
:10094000B6010E949C179B01AC0169A17AA18BA101
:100950009CA10E940A160E943A192BAD3CAD4DADE8
:100960005EAD29833A834B835C8323962CAD3DADEA
:100970004EAD5FAD23972D833E834F8358872BA9C0
:100980003CA94DA95EA929873A874B875C872FA987
:1009900038AD49AD5AAD2D873E874F87588B898A30
:1009A0009A8AAB8ABC8A6D8B7E8B8F8B988FAE01B7
:1009B0004F5F5F4F7A0100E010E0612C712CC12C79
:1009C000D12C212C312CF70181909190A190B190E4
:1009D0007F01262D372D4C2D5D2DC501B4010E94C0
:1009E000B218181634F4682C792CCA2CDB2C202E63
:1009F000312E0F5F1F4F0630110529F7822D932DE1
:100A00000E940F02FC01E080F180FA8EE98E0281E3
:100A100013811C8F0B8FEE0CFF1CEE0CFF1CE40CE3
:100A2000F51C000F111F000F111F040D151DF701FC
:100A300060817181F80180819181680F791F77232E
:100A400014F46F5F7F4F75956795072E000C880B28
:100A5000990B0E949C174B015C01F7016281738125
:100A6000F80182819381680F791F772314F46F5FF7
:100A70007F4F75956795072E000C880B990B0E9488
:100A80009C1769A37AA38BA39CA39E01215E3F4F71
:100A9000AE01435E5F4FBE016F5F7F4FCE0149964F
:100AA0000E945D020D8D1E8D000F111F000F111F82
:100AB000040D151D2F8C38A0220C331C220C331C66
:100AC000240C351CF80160817181F10180819181D4
:100AD000681B790B072E000C880B990B0E949C1742
:100AE0006B017C01F80162817381F1018281938144
:100AF000681B790B072E000C880B990B0E949C1722
:100B00009058A70196010E9489162BED3FE049EC11
:100B10005FE30E940A166B017C01A501940160E06D
:100B200070E080E094E40E9409164B015C0129A169
:100B30003AA14BA15CA160E070E08FEB93E40E94CE
:100B400009162B013C01C701B6010E942C1969A3AB
:100B50007AA38BA39CA3C701B6010E94ED166DA3D7
:100B60007EA38FA398A70CE511E029A13AA14BA180
:100B70005CA1C301B2010E94BF1869A77AA78BA725
:100B80009CA72DA13EA14FA158A5C501B4010E946B
:100B9000BF189B01AC0169A57AA58BA59CA50E94F5
:100BA0000916F80160837183828393832DA13EA18E
:100BB0004FA158A5C301B2010E94BF182B013C01EF
:100BC00029A13AA14BA15CA1C501B4010E94BF18A3
:100BD0009B01AC01C301B2010E940A16F8016483B3
:100BE000758386839783F7FAF094F7F8F094C086BC
:100BF000D186E286F386C801CE5BDF4F0FB6F8944C
:100C0000DEBF0FBECDBFDF91CF911F910F91FF903F
:100C1000EF90DF90CF90BF90AF909F908F907F909C
:100C20006F905F904F903F902F9008954F925F92FA
:100C30006F927F92AF92BF92CF92DF92EF92FF922C
:100C40000F931F93CF93DF93CDB7DEB768970FB69F
:100C5000F894DEBF0FBECDBFFC010DB71EB780817B
:100C600091819A838983808591859C838B838281FE
:100C700093819E838D838285938598878F838481DA
:100C800095819A878987848595859C878B878681BE
:100C900097819E878D8786859785988B8F87FE01A4
:100CA000719688E0DF011D928A95E9F7709720E040
:100CB00030E080E090E0408151814F3F534071F03F
:100CC000DC01AA0FBB1F41E050E04C0F5D1FA40FD9
:100CD000B51F51963C932E93509701962F5F3F4F2F
:100CE00034962430310539F7009709F489C0EDB600
:100CF000FEB66C01CC0CDD1CCC0CDD1CADB7BEB758
:100D0000AC19BD090FB6F894BEBF0FBEADBFEDB7AD
:100D1000FEB731965F011816190624F59E012F5E65
:100D20003F4FDF01CE0EDF1EF901419151919F012E
:100D3000FA01EE0FFF1FEE0FFF1F41E050E04C0FD6
:100D40005D1FE40FF51F4081518111965C934E9316
:100D50004281538113965C934E9312971496AC156F
:100D6000BD0511F7DB014D905D906D907C90139760
:100D7000E4E7F1E0408251826282738214964D90E2
:100D80005D906D907C901797448255826682778241
:100D900018964D915D916D917C911B97408751877D
:100DA00062877387049729F4C5010E940503DC015B
:100DB00002C0A4E7B1E04D915D916D917C911397D4
:100DC000E8E6F1E0408351836283738314964D918A
:100DD0005D916D917C9117974483558366837783EA
:100DE00018968D919D910D90BC91A02D8087918733
:100DF000A287B3870FB6F894FEBE0FBEEDBE20C02B
:100E0000FB0180819181A281B381E8E6F1E08083DA
:100E10009183A283B383DB011496CD90DD90ED9096
:100E2000FC901797C482D582E682F78218964D917E
:100E30005D916D917C911B97408751876287738785
:100E400088E691E00FB6F8941EBF0FBE0DBF6896FE
:100E50000FB6F894DEBF0FBECDBFDF91CF911F91CB
:100E60000F91FF90EF90DF90CF90BF90AF907F9069
:100E70006F905F904F900895AF92BF92CF92DF92A4
:100E8000EF92FF920F931F93C19AA0900C01B09024
:100E90000D01C0900E01D0900F01E0901001F09074
:100EA000110100911201109113012091A9013091BB
:100EB000AA014091AB015091AC016091AD017091DC
:100EC000AE018091AF019091B001E0910301EF93E9
:100ED000E0910201EF93E0910101EF93E0910001B5
:100EE000EF93E0910701EF93E0910601EF93E0911A
:100EF0000501EF93E0910401EF93E091A801EF93D6
:100F0000E091A701EF93E091A601EF93E091A50195
:100F1000EF93E0910B01EF93E0910A01EF93E091E1
:100F20000901EF93E0910801EF930E94890B8DB7BF
:100F30009EB740960FB6F8949EBF0FBE8DBF1F910F
:100F40000F91FF90EF90DF90CF90BF90AF900895FA
:100F50000E944614882309F453C080919001909117
:100F60009101A0919201B09193018093AD01909372
:100F7000AE01A093AF01B093B00180918C0190912C
:100F80008D01A0918E01B0918F018093A901909362
:100F9000AA01A093AB01B093AC018BED9FE0A9EC4B
:100FA000BFE380930C0190930D01A0930E01B093C9
:100FB0000F018DEC9CECACE4BDE38093A501909314
:100FC000A601A093A701B093A8018AE999E9A9E92C
:100FD000BFE38093080190930901A0930A01B093A5
:100FE0000B0180E090E0A0E0BFE3809310019093BC
:100FF0001101A0931201B09313016A9A729A089595
:101000000E94461481114EC0809184019091850107
:10101000A0918601B09187018093AD019093AE01BC
:10102000A093AF01B093B0018091800190918101B4
:10103000A0918201B09183018093A9019093AA01AC
:10104000A093AB01B093AC018BED9FE0A9E4B0E4B9
:1010500080930C0190930D01A0930E01B0930F01AA
:101060001092A5011092A6011092A7011092A8015A
:101070008DEC9CECACE0B0E4809308019093090106
:10108000A0930A01B0930B0180E090E0A0E0BFE3E1
:101090008093100190931101A0931201B09313015A
:1010A0006A9A72980895CF93DF93CDB7DEB72897E9
:1010B0000FB6F894DEBF0FBECDBFEAE7F0E0808147
:1010C000806180830E9470148823E1F0CE01019634
:1010D0000E94521389819A81AB81BC8180938401E3
:1010E00090938501A0938601B09387018D819E81A5
:1010F000AF81B8858093800190938101A093820194
:10110000B093830128960FB6F894DEBF0FBECDBF13
:10111000DF91CF9108958130910541F082309105A2
:1011200041F0892B41F45B985D9808955D9A5B9836
:1011300008955D985B9A0895E1E8F0E08081816010
:10114000808380918A0190918B010E948B08089581
:10115000E1E8F0E080818E7F808328982A9880E003
:1011600090E00E948B0808950E94A80820E030E0DB
:10117000A9016091900170919101809192019091EB
:1011800093010E94B21818166CF480E090E0A8EC6D
:10119000B3EC8093900190939101A0939201B0934E
:1011A0009301089580E090E0A8ECB3E4809390016F
:1011B00090939101A0939201B09393010895CF93DE
:1011C000DF93CDB7DEB72C970FB6F894DEBF0FBE16
:1011D000CDBF0E94890ACE0101960E94220A698130
:1011E0007A818B819C810E946417CB010E9433110C
:1011F00020E030E0A90169817A818B819C810E9485
:10120000B21818169CF480E090E0A8ECB3EC809340
:10121000900190939101A0939201B093930181E08A
:1012200090E090938B0180938A0112C080E090E05F
:10123000A8ECB3E48093900190939101A093920164
:10124000B093930182E090E090938B0180938A01A8
:101250002C960FB6F894DEBF0FBECDBFDF91CF91B5
:1012600008958091880190918901892B11F40E9441
:10127000DF0885B5846085BD85B5816085BD8091B9
:101280008A0190918B010E948B080895E0919A0148
:101290008E2F90E0FC01E05AF109E830F10540F5AD
:1012A000EA5AFF4F0C94A7190E94310908950E9431
:1012B0009C080895EBE9F1E0818180939901828196
:1012C000809398010E94A8080895EBE9F1E08181DC
:1012D000809399018281809398010E94A8080895C3
:1012E0000E94A80808950E94B40808950E94A808C2
:1012F00008956AE08BE991E00E949A0E80919B012B
:1013000080939A010E94460908956E9A76980E94E9
:1013100009010E94A8086A9A7298CAE7D0E010E40E
:101320000E94890A888184FD0E9453080E94A807B0
:10133000C1990E943C078091960190919701892B59
:1013400079F310929701109296016E9A8EB18127CF
:101350008EB90E947909E4CF1F920F920FB60F92B7
:101360001124289A2A9A0F900FBE0F901F9018955B
:101370001F920F920FB60F92112428980F900FBE54
:101380000F901F9018951F920F920FB60F92112475
:101390002A980F900FBE0F901F9018951F920F92D2
:1013A0000FB60F9211248F939F9381E090E090935A
:1013B0009701809396019F918F910F900FBE0F9090
:1013C0001F9018951F920F920FB60F9211242F9312
:1013D0003F934F935F936F937F938F939F93AF93BD
:1013E000BF93EF93FF938091940190919501843185
:1013F000910534F40196909395018093940111C066
:1014000080919A01813A21F080E090E00E948B085F
:1014100085B58B7F85BD85B58D7F85BD85B58E7F77
:1014200085BDFF91EF91BF91AF919F918F917F917A
:101430006F915F914F913F912F910F900FBE0F9041
:101440001F901895FC018091C1019091C201A0915B
:10145000C301B091C40180839183A283B38380913F
:10146000BD019091BE01A091BF01B091C0018483E4
:101470009583A683B7838091B9019091BA01A09119
:10148000BB01B091BC0180879187A287B38781E0BF
:1014900008958F929F92AF92BF92CF92DF92EF9278
:1014A000FF926B017C014B015C01E894B7F82BEDD6
:1014B0003FE049E450E4C501B4010E94B218181697
:1014C000BCF42BED3FE049EC50E4C701B6010E94AB
:1014D000BF18A50194010E94F2169B01AC01C7013F
:1014E000B6010E940916562F472F382F292F04C006
:1014F0005C2D4D2D3E2D2F2D652F742F832F922F78
:10150000FF90EF90DF90CF90BF90AF909F908F9023
:1015100008952F923F924F925F926F927F928F9297
:101520009F92AF92BF92CF92DF92EF92FF920F9372
:101530001F93CF93DF93CDB7DEB7A8970FB6F8947C
:10154000DEBF0FBECDBFCE0101960E94BF126B81E0
:101550007C810F81188549855A85AD85BE852F858B
:101560003889EB89FC898D899E89E980FA80FA8E19
:10157000E98E1C8F0B8FBE8FAD8FF8A3EF8F7AA3F0
:1015800069A35CA34BA33EA32DA398A78FA36CE1F3
:1015900071E0CE0149960E9416068C01FC018085FF
:1015A0009185A285B3850F2EFCE12F2EF1E03F2E11
:1015B000F02DF10180879187A287B387F8016085BC
:1015C0007185828593850E94490A2B013C01F801AF
:1015D000608771878287938724EA30E74DE75FE36E
:1015E00060817181828193810E94BF184B015C01EF
:1015F00020E037ED43E25CE36091C1017091C201EC
:101600008091C3019091C4010E94BF189B01AC015D
:10161000C501B4010E940A164B015C016093C1012F
:101620007093C2018093C3019093C40124EA30E710
:101630004DE75FE3F80164817581868197810E949F
:10164000BF186B017C0120E037ED43E25CE3609161
:10165000BD017091BE018091BF019091C0010E94B7
:10166000BF189B01AC01C701B6010E940A166B01AD
:101670007C016093BD017093BE018093BF01909384
:10168000C00124EA30E74DE75FE3C301B2010E94E5
:10169000BF182B013C0120E037ED43E25CE3609191
:1016A000B9017091BA018091BB019091BC010E9477
:1016B000BF189B01AC01C301B2010E940A166093DE
:1016C000B9017093BA018093BB019093BC01F10101
:1016D00080829182A282B382C482D582E682F7821E
:1016E000A8960FB6F894DEBF0FBECDBFDF91CF91A5
:1016F0001F910F91FF90EF90DF90CF90BF90AF9030
:101700009F908F907F906F905F904F903F902F9021
:1017100008954F925F926F927F928F929F92AF92B5
:10172000BF92CF92DF92EF92FF920F931F93CF93CE
:10173000DF93CDB7DEB768970FB6F894DEBF0FBE64
:10174000CDBF29013A01E98AFA8A0B8B1C8B2091C3
:10175000C1013091C2014091C3015091C4010E9466
:1017600009166D837E838F8398872091BD01309108
:10177000BE014091BF015091C001C301B2010E945E
:10178000091669877A878B879C872D813E814F81D7
:1017900058850E9489162091B9013091BA01409173
:1017A000BB015091BC010E9409160E94490A69833D
:1017B0007A838B839C832B013C01E89477F8A60104
:1017C0009501C301B2010E94B218181684F4298150
:1017D0003A814B815C81C301B2010E94F216A601DD
:1017E00095010E94BF1869837A838B839C83209123
:1017F000B5013091B6014091B7015091B8016981AE
:101800007A818B819C810E9409162FE632E143E8A0
:101810005AE30E94F2166D8B7E8B8F8B988F2981F5
:101820003A814B815C816BA57CA58DA59EA50E940C
:10183000BF186B017C012D893E894F89588D6FA59A
:1018400078A989A99AA90E94BF189B01AC01C70178
:10185000B6010E94091629813A814B815C8120934F
:10186000B5013093B6014093B7015093B8012BED09
:101870003FE049E450E40E94F2166D877E878F872F
:10188000988B69817A818B819C810E94ED162B0156
:101890003C0129853A854B855C85CA01B9010E94C6
:1018A000BF186B017C012D813E814F815885CA0193
:1018B000B9010E94BF189B01AC01C701B6010E948B
:1018C0000A160E943A199B01AC01C301B2019F772D
:1018D0000E94BF186B017C010E9446148823E1F02E
:1018E00020E030E0A901C701B6010E94E816882374
:1018F0005CF020E030E040EF51E4C701B6010E9407
:101900000A166B017C0108C00F2EC12CD12CF0EF00
:10191000EF2EF1E4FF2EF02D2091B1013091B201B4
:101920004091B3015091B401C701B6010E9409165C
:101930002FE632E143E85AE30E94F2164B015C01C4
:10194000A70196016BA97CA98DA99EA90E94BF1829
:101950002B013C01A50194016FA978AD89AD9AAD29
:101960000E94BF189B01AC01C301B2010E9409167D
:101970002B013C01C092B101D092B201E092B301BF
:10198000F092B40120E030E040E252E40E94B2184C
:10199000181644F40F2E412C512CF0E26F2EF2E475
:1019A0007F2EF02D20E030E040E252E4C301B2018E
:1019B0000E94F2166B017C012DEC3CEC4CEC5DE3DB
:1019C000C501B4010E94E81688230CF52AE037ED22
:1019D00043E25CE36D897E898F89988D0E94E816C9
:1019E0008823ACF42DEC3CEC4CE45EE369817A8115
:1019F0008B819C819F770E94BF1829813A814B81FE
:101A00005C810E94F2166D877E878F87988B8D840C
:101A10009E84AF84B888B7FAB094B7F8B09469815F
:101A20007A818B819C819F772BED3FE049EC5FE3CE
:101A30000E94E81688230CF52D853E854F85588930
:101A4000C701B6010E94091660931801709319012D
:101A500080931A0190931B01A70196016D857E85E5
:101A60008F8598890E940A1660931401709315015E
:101A700080931601909317011EC0A7019601C5011E
:101A8000B4010E94091660931801709319018093A4
:101A90001A0190931B01A70196016D857E858F85A4
:101AA00098890E9409166093140170931501809320
:101AB00016019093170120E030E0A9016091180110
:101AC0007091190180911A0190911B010E94E816F2
:101AD000882314F4299801C0299A20E030E0A90154
:101AE0006091140170911501809116019091170178
:101AF0000E94E816882314F42B9801C02B9A80903A
:101B0000180190901901A0901A01B0901B01E8945F
:101B1000B7F88092180190921901A0921A01B09220
:101B20001B01C0901401D0901501E0901601F090B7
:101B30001701E894F7F8C0921401D0921501E092D1
:101B40001601F0921701A7019601C501B4010E9488
:101B5000B21818162CF01C2D0D2D7E2C6F2C04C0E5
:101B6000182D092D7A2C6B2C29893A894B895C898F
:101B7000612F702F872D962D0E94B218181664F5CC
:101B8000212F302F472D562DC501B4010E94F2168A
:101B900029893A894B895C890E94BF186093180192
:101BA0007093190180931A0190931B01212F302FFC
:101BB000472D562DC701B6010E94F21629893A8990
:101BC0004B895C890E94BF186093140170931501C2
:101BD000809316019093170108E810E0F8016081E6
:101BE000718180E090E00E949A1720911801309155
:101BF000190140911A0150911B010E94BF180E94C7
:101C00006B1770938B0060938A00F801608171817B
:101C100080E090E00E949A17209114013091150104
:101C200040911601509117010E94BF180E946B1736
:101C300070938D0060938C0068960FB6F894DEBFA9
:101C40000FBECDBFDF91CF911F910F91FF90EF900D
:101C5000DF90CF90BF90AF909F908F907F906F90CC
:101C60005F904F900895589A599A5A9A8CE08093B1
:101C7000B800E9E6F0E080818062808380818F7E19
:101C80008083EA9A789408951F93CF93DF93182F57
:101C9000D62FC42F0E94330E94EA9093BC00ECEB35
:101CA000F0E090819923ECF790E59093BB0094E8E5
:101CB0009093BC00ECEBF0E090819923ECF79091CD
:101CC000B900987F903229F484E98093BC0080E0C9
:101CD0002DC081E08093BB0084E88093BC00ECEBD6
:101CE000F0E090819923ECF71093BB0084E8809397
:101CF000BC00ECEBF0E080818823ECF7D093BB00D4
:101D000084E88093BC00ECEBF0E080818823ECF762
:101D1000C093BB0084E88093BC00ECEBF0E08081D2
:101D20008823ECF784E98093BC0081E0DF91CF91B8
:101D30001F910895CF93DF939C0184EA8093BC00A8
:101D4000ECEBF0E090819923ECF781E58093BB0008
:101D500084E88093BC00ECEBF0E090819923ECF7F1
:101D60008091B900887F883429F484E98093BC008D
:101D700080E041C084EC8093BC00ECEBF0E090810B
:101D80009923ECF74091BB00461309C0842F90E0E3
:101D900001971816190644F040E050E01AC084E993
:101DA0008093BC0080E027C0D90150E04150510928
:101DB000B901640F751FECEBF0E084ECCBEBD0E0E5
:101DC000808390819923ECF798819D93A617B7079C
:101DD000B9F784E88093BC00ECEBF0E090819923A4
:101DE000ECF78091BB00F901E40FF51F808384E9D3
:101DF0008093BC0081E0DF91CF91089581E08093D2
:101E0000D70080EA8093D80082E189BD09B400FE42
:101E1000FDCF80E98093D8001092E0001092C801B5
:101E20001092C5018CE08093E20078940895CF93DE
:101E3000DF939091C801992309F44CC09FB7F8949F
:101E400024E02093E9002091C601222349F020914B
:101E5000E80025FD03C09FBF8FEF41C01092C6016F
:101E60003091E400375E2091E80025FD24C09FBF3B
:101E70009091E400931781F09091C801992361F14A
:101E8000A9EEB0E044E0E8EEF0E0C4EED0E00DC032
:101E90009FBF9881931305C081E08093C6018FEFA7
:101EA0001EC09091C8019923C9F09FB7F8944C9334
:101EB000208125FFEDCF8093F1008091E80085FD22
:101EC00003C08AE38093E80085E08093C7019FBF49
:101ED00080E005C08FEF03C08FEF01C08FEFDF916F
:101EE000CF9108951F920F920FB60F9211248F93E6
:101EF0009F93EF93FF93E1EEF0E08081108283FFE8
:101F000011C01092E90091E09093EB001092EC0068
:101F100092E19093ED0098E09093F0001092C80148
:101F20001092C50182FF13C08091C801882379F007
:101F30008091C701882359F081508093C701811196
:101F400006C084E08093E9008AE38093E800FF9173
:101F5000EF919F918F910F900FBE0F901F9018954A
:101F60001F920F920FB60F9211240F931F932F936E
:101F70003F934F935F936F937F938F939F93AF9311
:101F8000BF93CF93DF93EF93FF931092E90080917B
:101F9000E80083FF4CC1E1EFF0E0608180812081A7
:101FA000908130E0392B4081908150E0592B708135
:101FB000C08192EF9093E800863009F058C004C0C9
:101FC00081E28093EB003AC166E080E291E0FC019F
:101FD000A591B4912A173B0711F0079623C0FC0185
:101FE0003296A591B4914A175B0711F007961AC073
:101FF000FC01349645915491FC0136962491872F2B
:1020000090E09C2B8F3F910519F010F08FEF90E03E
:10201000821708F4282FA8EEB0E070E16EEFC1EF50
:10202000D0E003C0615099F6CBCF8C91982F95707A
:10203000E1F382FD03C1322F213108F0372F332322
:1020400009F4F9C0FA01832F949198838150319655
:102050008111FACF8FEF830F90E00196480F591F3F
:10206000231B6C932111E1CF3031F9F2E7C08530A9
:1020700061F48EEF8093E800E8EEF0E0808180FF6D
:10208000FDCF20682093E300D9C0893009F035C026
:102090006111CDC02093C8011092C5011092C701F3
:1020A0008EEF8093E80081E029EC31E0C9EED0E0CA
:1020B000ABEEB0E00CEE10E06DEE70E08883A901AD
:1020C0004F5F5F4FF90194919C93992361F0FA015E
:1020D0004491F8014083F901329694912D5F3F4F6E
:1020E000FB01908301C09A018F5F853039F7EAEEDA
:1020F000F0E08EE180831082A1C0883081F46038E6
:1021000009F095C0E8EEF0E0808180FFFDCF80917E
:10211000C8018093F1008EEF8093E8008FC0813278
:10212000B9F4613A09F083C0E8EEF0E0808180FF05
:10213000FDCFE8E2F1E02FE231E0A1EFB0E08191E4
:102140008C93E217F307D9F78EEF8093E80076C0FF
:102150008032D1F4613209F06AC0E8EEF0E08081AB
:1021600082FFFDCFE8E2F1E02FE231E0A1EFB0E045
:102170008C918193E217F307D9F7E8EEF0E08BEF4B
:1021800080838EEF80835AC0823271F4613209F00D
:102190004EC02093C501E8EEF0E0808180FFFDCFC6
:1021A0008EEF8093E8004AC081111AC0E8EEF0E09B
:1021B000808180FFFDCF623851F4E9EEF0E040838A
:1021C0008091EB0085FB882780F9108201C080E0B8
:1021D000E1EFF0E0808310828EEF8093E8002EC064
:1021E000982F9D7F913019F5623009F5232BF9F472
:1021F0004F779FEF940F9430D0F49EEF9093E800C8
:102200004093E900833021F481E28093EB0016C013
:1022100089E18093EB0081E090E002C0880F991F74
:102220004A95E2F7EAEEF0E08083108207C081E28F
:102230008093EB0003C06C932111F7CEFF91EF91D7
:10224000DF91CF91BF91AF919F918F917F916F91CE
:102250005F914F913F912F911F910F910F900FBE62
:102260000F901F901895EF92FF920F931F93CF93AB
:10227000DF93CDB7DEB727970FB6F894DEBF0FBE5A
:10228000CDBF8E010F5F1F4F27E0F80111922A95F5
:10229000E9F74AE0B8010E94AD197E01F8E0EF0EBF
:1022A000F11CF80181918F0181110E94170F0E1509
:1022B0001F05B9F727960FB6F894DEBF0FBECDBF46
:1022C000DF91CF911F910F91FF90EF90089520E043
:1022D00030E0ECEBF0E08081882334F02F5F3F4F5B
:1022E000293E83E03807B9F781E0283E334009F4FE
:1022F00080E008958093BB0084E88093BC000E9436
:102300006711882319F08091B900887F0895CF93D1
:10231000C82F94EA9093BC000E946711882361F053
:102320008C2F880F0E947A11803229F484E98093DF
:10233000BC0080E001C081E0CF9108950E94330E7F
:1023400088E50E948711882309F4CDC080E30E94AC
:102350007A11882309F4C9C081E00E947A11882388
:1023600009F4C5C084E98093BC0083EC99E001972F
:10237000F1F700C0000088E50E948711882309F466
:10238000B8C080E00E947A11882309F4B4C080E0CC
:102390000E947A11882309F4B0C080E00E947A116B
:1023A000882309F4ACC080E00E947A11882309F4E4
:1023B000A8C080E00E947A11882309F4A4C080E0BC
:1023C0000E947A11882309F4A0C080E00E947A114B
:1023D000882309F49CC080E90E947A11882309F4BB
:1023E00098C084E98093BC0083EC99E00197F1F7F1
:1023F00000C0000088E50E948711882309F48BC083
:1024000087E00E947A11882309F487C080E00E9447
:102410007A11882309F483C081E40E947A11882309
:1024200009F47FC084E98093BC0083EC99E00197B4
:10243000F1F700C0000088E50E948711882309F4A5
:1024400072C08AE10E947A11882309F46EC080E488
:102450000E947A11882309F46AC080E00E947A11F0
:10246000882309F466C084E98093BC0083EC99E07A
:102470000197F1F700C0000088E50E9487118823CA
:1024800009F459C083E30E947A11882309F455C0E6
:1024900083E00E947A11882309F451C084E9809373
:1024A000BC0083EC99E00197F1F700C0000088E5DB
:1024B0000E948711882309F444C080E30E947A11A6
:1024C000882309F440C088E00E947A118823E9F14A
:1024D00084E98093BC0083EC99E00197F1F700C098
:1024E000000081E0089580E0089580E0089580E094
:1024F000089580E0089580E0089580E0089580E0E8
:10250000089580E0089580E0089580E0089580E0D7
:10251000089580E0089580E0089580E0089580E0C7
:10252000089580E0089580E0089580E0089580E0B7
:10253000089580E0089580E0089580E0089580E0A7
:10254000089580E0089580E0089580E00895CF9395
:10255000C82F84EA8093BC000E946711882369F029
:102560008C2F880F8F5F0E947A11883429F484E9B8
:102570008093BC0080E001C081E0CF9108950F936B
:102580001F93CF93DF93CDB7DEB760970FB6F89464
:10259000DEBF0FBECDBF8C01FE01319680E1DF01B1
:1025A0001D928A95E9F788E50E948711882309F42E
:1025B00069C086E30E947A11882309F465C084E922
:1025C0008093BC00B8E0BA95F1F7000088E50E945E
:1025D000A712882309F45AC0BE016F5F7F4FAE0176
:1025E000405F5F4FECEBF0E084EC2BEB30E080835E
:1025F00090819923ECF7D9019C91DB019D93BD015A
:10260000A417B507A1F784E88093BC00ECEBF0E0D9
:1026100080818823ECF78091BB00888B84E98093CC
:10262000BC00BE016C5F7F4FF801085E1F4FDB01ED
:102630002C91322F3073CB010297DC018C9190E00A
:10264000B0E13B9F800D911D112491838083422F27
:10265000407C50E0440F551F440F551FCB0101979C
:10266000DC018C91480F511D538342832F7030E061
:10267000358324836D5F7F4F3696E017F107B9F6F7
:1026800081E005C080E003C080E001C080E060968A
:102690000FB6F894DEBF0FBECDBFDF91CF911F9173
:1026A0000F9108952F923F924F925F926F927F9277
:1026B0008F929F92AF92BF92CF92DF92EF92FF9252
:1026C0000F931F93CF93DF93CDB7DEB762970FB60B
:1026D000F894DEBF0FBECDBF9A8B898BCE010196D9
:1026E0000E94220A0F2EFFEC8F2EF1E09F2EF02D7C
:1026F0000F2EFFE2EF2EF1E0FF2EF02D0F2EF7E56B
:10270000AF2EF1E0BF2EF02D1D861E861F86188A83
:10271000C12CD12C212C312CF401019111914F01AC
:10272000C00ED11EF70141905190619071907F01D0
:10273000B801012E000C880B990B0E949C179B017D
:10274000AC01C301B2010E94BF189B01AC016D85B1
:102750007E858F8598890E940A166D877E878F8770
:10276000988B201631060CF41801EA14FB04A1F62C
:10277000F4E62F1631045CF4E989FA89108211829B
:1027800012821382148215821682178266C0B601E5
:10279000DD0C880B990B0E949C179B01AC016D8589
:1027A0007E858F8598890E94F21629853A854B850A
:1027B0005C850E940A166B017C010E94ED164B019C
:1027C0005C016FEF73E062197309072E000C880B30
:1027D000990B0E949C172B013C0120E030E04FE256
:1027E00054E4C501B4010E94BF18A30192010E94E4
:1027F000BF1820E030E048EC52E40E94F216298134
:102800003A814B815C810E940A16E989FA896083CA
:10281000718382839383C701B6010E942C1920E043
:1028200030E04FE254E40E94BF189B01AC01C301A9
:10283000B2010E94BF1820E030E048EC52E40E9450
:10284000F2162D813E814F8158850E940A16E98932
:10285000FA89648375838683978362960FB6F894AA
:10286000DEBF0FBECDBFDF91CF911F910F91FF90C3
:10287000EF90DF90CF90BF90AF909F908F907F9020
:102880006F905F904F903F902F90089580917A00C5
:10289000882314F52091CD013091CE018091CB0198
:1028A0009091CC01820F931F8132934044F084E1D8
:1028B00090E09093CA018093C90181E008958091CE
:1028C000C9019091CA01009749F001979093CA01FC
:1028D0008093C90181E0089580E0089580E0089523
:1028E000EAE7F0E080818F778083E091E301F09167
:1028F000E401EC30F10508F082C1E25AFF4F0C947C
:10290000A71981E090E09093E4018093E301EBE765
:10291000F0E080818F7D8083ECE7F0E080818B7F29
:10292000808380818D7F808380818E7F8083809172
:102930007800909179009093D4018093D30180E046
:102940005FC182E090E09093E4018093E301EBE7C4
:10295000F0E080818F7D8083ECE7F0E080818B7FE9
:10296000808380818D7F808380818160808380915E
:102970007800909179009093D8018093D70180E0FE
:102980003FC183E090E09093E4018093E301EBE7A3
:10299000F0E080818F7D8083ECE7F0E080818460CF
:1029A000808380818D7F808380818E7F80838091F2
:1029B0007800909179009093CC018093CB0180E0D6
:1029C0001FC184E090E09093E4018093E301EBE782
:1029D000F0E080818F7D8083ECE7F0E0808184608F
:1029E000808380818D7F80838081816080838091DE
:1029F0007800909179009093DA018093D90180E07A
:102A0000FFC085E090E09093E4018093E301EBE761
:102A1000F0E080818F7D8083ECE7F0E0808184604E
:102A2000808380818260808380818E7F808380919B
:102A30007800909179009093DE018093DD0180E031
:102A4000DFC086E090E09093E4018093E301EBE740
:102A5000F0E080818F7D8083ECE7F0E0808184600E
:102A60008083808182608083808181608083809187
:102A70007800909179009093E0018093DF0180E0ED
:102A8000BFC087E090E09093E4018093E301EBE71F
:102A9000F0E0808180628083ECE7F0E080818B7FD2
:102AA000808380818D7F808380818E7F80838091F1
:102AB0007800909179009093E2018093E10180E0A9
:102AC0009FC088E090E09093E4018093E301EBE7FE
:102AD000F0E0808180628083ECE7F0E080818B7F92
:102AE000808380818D7F80838081816080838091DD
:102AF0007800909179009093D0018093CF0180E08D
:102B00007FC089E090E09093E4018093E301EBE7DC
:102B1000F0E0808180628083ECE7F0E080818B7F51
:102B2000808380818260808380818E7F808380919A
:102B30007800909179009093DC018093DB0180E034
:102B40005FC08AE090E09093E4018093E301EBE7BB
:102B5000F0E0808180628083ECE7F0E080818B7F11
:102B60008083808182608083808181608083809186
:102B70007800909179009093D6018093D50180E000
:102B80003FC08BE090E09093E4018093E301EBE79A
:102B9000F0E0808180628083ECE7F0E080818460F7
:102BA000808380818D7F808380818E7F80838091F0
:102BB0007800909179009093D2018093D10180E0C8
:102BC0001FC01092E4011092E301EBE7F0E0808176
:102BD00080628083ECE7F0E0808184608083808184
:102BE0008D7F808380818160808380917800909147
:102BF00079009093CE018093CD0181E001C080E007
:102C0000EAE7F0E0908190689083908190649083EF
:102C100008955058BB27AA270E9421160C946418C7
:102C20000E942B1838F00E94321820F039F49F3F90
:102C300019F426F40C9401180EF4E095E7FB0C94BB
:102C4000FB17E92F0E94891858F3BA176207730718
:102C50008407950720F079F4A6F50C94AB180EF4D0
:102C6000E0950B2EBA2FA02D0B01B90190010C019C
:102C7000CA01A0011124FF27591B99F0593F50F4B4
:102C8000503E68F11A16F040A22F232F342F44270C
:102C9000585FF3CF469537952795A795F040539504
:102CA000C9F77EF41F16BA0B620B730B840BBAF0D4
:102CB0009150A1F0FF0FBB1F661F771F881FC2F73F
:102CC0000EC0BA0F621F731F841F48F48795779553
:102CD0006795B795F7959E3F08F0B0CF9395880F0D
:102CE00008F09927EE0F9795879508950E942B1865
:102CF00060F080E891E009F49EEF0E94321828F01D
:102D000040E851E071F45EEF0CC00C9401180C9493
:102D1000AB18E92FE0780E94891840F3092E052AA4
:102D2000B1F3261737074807590738F00E2E07F872
:102D3000E02569F0E025E0640AC0EF6307F800943D
:102D400007FADB01B9019D01DC01CA01AD01EF9376
:102D50000E9409170E9464180E94B9165F915523BA
:102D600039F02BED3FE049E450FD49EC0C940A1694
:102D70000895DF93DD27B92FBF7740E85FE316168C
:102D8000170648075B0718F4D92F0E94B7189F93BE
:102D90008F937F936F930E947A19E4EDF0E00E9485
:102DA00004180E9464182F913F914F915F910E94E7
:102DB000D218DD2351F09058A2EA2AED3FE049EC09
:102DC0005FE3D0785D270E942116DF910C94641890
:102DD0000E94D71708F481E008950E943B18E395FC
:102DE0000C9475180E9406170C9464180E943218EF
:102DF00058F00E942B1840F029F45F3F29F00C9402
:102E0000FB1751110C94AC180C9401180E948918EE
:102E100068F39923B1F3552391F3951B550BBB2709
:102E2000AA2762177307840738F09F5F5F4F220F4E
:102E3000331F441FAA1FA9F335D00E2E3AF0E0E845
:102E400032D091505040E695001CCAF72BD0FE2F8F
:102E500029D0660F771F881FBB1F26173707480723
:102E6000AB07B0E809F0BB0B802DBF01FF279358DB
:102E70005F4F3AF09E3F510578F00C94FB170C948D
:102E8000AC185F3FE4F3983ED4F386957795679549
:102E9000B795F7959F5FC9F7880F911D9695879510
:102EA00097F90895E1E0660F771F881FBB1F62172F
:102EB00073078407BA0720F0621B730B840BBA0BED
:102EC000EE1F88F7E09508950E946B176894B11182
:102ED0000C94AC1808950E94911888F09F5798F0B0
:102EE000B92F9927B751B0F0E1F0660F771F881F0F
:102EF000991F1AF0BA95C9F714C0B13091F00E9429
:102F0000AB18B1E008950C94AB18672F782F882781
:102F1000B85F39F0B93FCCF3869577956795B3954F
:102F2000D9F73EF490958095709561957F4F8F4FBE
:102F30009F4F0895E89409C097FB3EF490958095C3
:102F4000709561957F4F8F4F9F4F9923A9F0F92F6F
:102F500096E9BB279395F695879577956795B795ED
:102F6000F111F8CFFAF4BB0F11F460FF1BC06F5FD3
:102F70007F4F8F4F9F4F16C0882311F096E911C0E5
:102F8000772321F09EE8872F762F05C0662371F006
:102F900096E8862F70E060E02AF09A95660F771F1A
:102FA000881FDAF7880F9695879597F90895990FF6
:102FB0000008550FAA0BE0E8FEEF16161706E80703
:102FC000F907C0F012161306E407F50798F0621B24
:102FD000730B840B950B39F40A2661F0232B242BF9
:102FE000252B21F408950A2609F4A140A6958FEF18
:102FF000811D811D089597F99F6780E870E060E06A
:1030000008959FEF80EC0895DF93CF931F930F9364
:10301000FF92EF92DF927B018C01689406C0DA2E5A
:10302000EF010E94D218FE01E894A59125913591F7
:1030300045915591A6F3EF010E942116FE019701DB
:10304000A801DA9469F7DF90EF90FF900F911F913C
:10305000CF91DF91089500240A94161617061806DA
:103060000906089500240A9412161306140605068C
:1030700008950C9401180E949118D8F3E894E0E0A8
:10308000BB279F57F0F02AED3FE049EC06C0EE0F5A
:10309000BB0F661F771F881F28F0B23A62077307BD
:1030A000840728F0B25A620B730B840BE3959A9550
:1030B00072F7803830F49A95BB0F661F771F881F10
:1030C000D2F790480C948019092E0394000C11F447
:1030D000882352F0BB0F40F4BF2B11F460FF04C0F3
:1030E0006F5F7F4F8F4F9F4F0895EF93E0FF07C0B3
:1030F000A2EA2AED3FE049EC5FEB0E9421160E9414
:1031000064180F90039401FC9058E1E0F1E00C94F6
:10311000931957FD9058440F551F59F05F3F71F0B8
:103120004795880F97FB991F61F09F3F79F087952E
:103130000895121613061406551FF2CF4695F1DFB7
:1031400008C0161617061806991FF1CF8695710547
:10315000610508940895E894BB2766277727CB017B
:1031600097F908950E94D71708F48FEF08959B01EF
:10317000AC0160E070E080E89FE30C94F2160E94DE
:10318000D2180C9464180E942B1838F00E94321840
:1031900020F0952311F00C94FB170C9401181124C6
:1031A0000C94AC180E94891870F3959FC1F3950F89
:1031B00050E0551F629FF001729FBB27F00DB11DBB
:1031C000639FAA27F00DB11DAA1F649F6627B00D4B
:1031D000A11D661F829F2227B00DA11D621F739F34
:1031E000B00DA11D621F839FA00D611D221F749F42
:1031F0003327A00D611D231F849F600D211D822F89
:10320000762F6A2F11249F5750409AF0F1F08823AF
:103210004AF0EE0FFF1FBB1F661F771F881F9150DC
:103220005040A9F79E3F510580F00C94FB170C9479
:10323000AC185F3FE4F3983ED4F386957795679595
:10324000B795F795E7959F5FC1F7FE2B880F911D06
:103250009695879597F908959F930E943B180F9034
:1032600007FCEE5F0C94751819F416F40C94011811
:103270000C947E190E949118B8F39923C9F3B6F300
:103280009F57550B87FF0E948C190024A0E640EA47
:10329000900180585695979528F4805C660F771FAB
:1032A000881F20F026173707480730F4621B730B7E
:1032B000840B202931294A2BA695179407942025A1
:1032C00031254A2758F7660F771F881F20F02617E9
:1032D0003707480730F4620B730B840B200D311D48
:1032E000411DA09581F7B901842F9158880F9695BB
:1032F000879508959B01AC010C94BF189F3F31F056
:10330000915020F4879577956795B795880F911D13
:103310009695879597F9089591505040660F771FBD
:10332000881FD2F708959F938F937F936F93FF9396
:10333000EF939B01AC010E94BF18EF91FF910E9497
:1033400004182F913F914F915F910C94BF18EE0F8D
:10335000FF1F0590F491E02D0994BB274A3031F40A
:10336000992322F4BDE2909581959F4F0C94B91951
:10337000BB27FB015527AA27880F991FAA1FA4174F
:1033800010F0A41B83955051B9F7A05DAA3308F043
:10339000A95DA193009779F7B111B1931192CB0177
:1033A0000C94D219DC01FC01672F71917723E1F7AE
:1033B000329704C07C916D9370836291AE17BF0702
:0833C000C8F30895F894FFCF53
:1033C8000AD7233CCDCC4C3E0000803FDB0F494060
:1033D8003333333FCDCCCC3DCDCCCC3D00C07F4446
:1033E80000C07F440000B44300E10000000008DB97
:1033F8000FC9BFC3B832BFC3B8B2BE00000000C314
:10340800B8B23EC3B8323FDB0FC93F378D2740DB28
:083418000F4940378D27C00069
:00000001FF
