S01A00005265645F42756C6C5F4D61696E5F436F64652E7372656343
S11300000C94EA000C9407010C9407010C94B20AB6
S11300100C9407010C9407010C9407010C9407013C
S11300200C9407010C9407010C9456100C94941032
S11300300C9407010C9407010C9407010C9407011C
S11300400C9407010C94900A0C949C0A0C94A70A33
S11300500C9407010C9407010C9407010C94C60A34
S11300600C9407010C9407010C9407010C940701EC
S11300700C9407010C9407010C9407010C940701DC
S11300800C9407010C9407010C9407010C940701CC
S11300900C9407010C9407010C9407010C940701BC
S11300A00C9407010C9407010C940701340A370AD5
S11300B03A0A450A500A580A530A560A8216A216E0
S11300C0C216E21602172217421762178217A217E6
S11300D0C217E217084AD73B3BCE016E84BCBFFD72
S11300E0C12F3D6C74319ABD56833DDA3D00C77F04
S11300F011BED9E4BB4C3E916BAAAABE000000809D
S11301003F05A84CCDB2D44EB93836A9020C50B92B
S1130110918688083CA6AAAA2ABE000000803F0057
S113012000010000B7011200020000740143000343
S11301300000700104010309045C011202030904B4
S1130140540106030309044A01080803340031007A
S11301503000000006034D003200000012034A0084
S11301602E0020004600690065006E006500000056
S11301700403090409024300020100C03209040017
S113018000010202010005240010010524010101FF
S1130190042402060524060001070582031000401A
S11301A009040100020A00000007050302400000E0
S11301B0070584024000001201000202000010C082
S11301C0167A040001010203010001C11201803604
S11301D00181360011241FBECFEFDAE0DEBFCDBFB0
S11301E011E0A0E0B1E0EAECF7E302C005900D9263
S11301F0A236B107D9F721E0A2E6B1E001C01D9211
S1130200AB3EB207E1F70E94650A0C94E31B0C9421
S11302100000CF93DF93EC01E1E6F0E090E89083F7
S1130220108295BF95BF50985198209A219A229A8E
S1130230239A539A559A289829982A982B9846983D
S113024047980E94170F0E9482128823E1F3789442
S11302500E94E20F209741F44AE060E281E00E94AC
S1130260280F8823C9F314C0C130D10541F44AE0F2
S113027061E281E00E94280F8823C9F309C0229714
S113028039F44AE062E281E00E94280F8823C9F32E
S1130290E1E8F0E080818B7F808380818D7F8083A3
S11302A080818E7F808380818F7E8083808188603F
S11302B08083E0E8F0E080818D7F808380818E7F81
S11302C0808380818F7D808380818F7E8083C8E856
S11302D0D0E08AEA99E2998388836881798180E011
S11302E090E00E949B192DEC3CEC4CEC5DE30E94E9
S11302F0C01A0E946C1970938B0060938A00688105
S1130300798180E090E00E949B192DEC3CEC4CEC50
S11303105DE30E94C01A0E946C1970938D00609373
S11303208C00EFE6F0E080818260808380818460CD
S11303308083808188608083E1E9F0E080818B7F25
S1130340808380818D7F80838081816080838081B0
S11303508F7E8083808188608083E0E9F0E0808103
S11303608D7F808380818E7F808380E89EE390935D
S113037099008093980085B58B7F85BD85B58D7F69
S113038085BD85B58E7F85BD85B5877F85BD84B5E3
S11303908D7F84BD84B58E7F84BDEEE6F0E08081E0
S11303A081608083CCE7D0E088818F7788838881DF
S11303B080648883EAE7F0E080818B7F808380819A
S11303C082608083808181608083AEE7B0E08C911D
S11303D081608C938C9182608C938C9180618C93DE
S11303E08C9180628C938C9180648C938C918068C6
S11303F08C93ADE7B0E08C9181608C938C9182609A
S11304008C938C9184608C938C9188608C938C9168
S113041080618C938C9180628C9380818F7D8083AA
S1130420ABE7B0E08C9180628C9388818460888390
S113043088818D7F888388818160888380818068BA
S11304408083808180648083DF91CF91089582309E
S11304509105F9F02CF4009751F0019789F042C00E
S11304608430910551F1F4F0059791F13BC0E2E637
S1130470F1E01182108281E090E09383828332C0A4
S1130480E2E6F1E01182108282E090E093838283BD
S113049029C0E2E6F1E01182108283E090E09383C8
S11304A0828320C0E2E6F1E081E090E091838083E2
S11304B082E090E09383828315C0E2E6F1E081E07C
S11304C090E09183808383E090E0938382830AC0E9
S11304D0E2E6F1E082E090E09183808383E090E0C3
S11304E09383828382E691E008952F923F924F9204
S11304F05F926F927F928F929F92AF92BF92CF92B0
S1130500DF92EF92FF920F931F93CF93DF9300D06C
S113051000D0CDB7DEB75C014A013A832983062FA8
S1130520172FF80141905190619071908F011C82B6
S11305301B82212C312C12C0F801C190D190E19082
S1130540F1908F01A7019601C301B2010E94B31A71
S1130550181624F4260137012B803C808B819C8162
S113056001969C838B83069739F7822D932D0E94E5
S11305702702FC012081318162817381F501408170
S113058051812417350759F4F40131832083F5018F
S113059082819381E981FA819183808337C0F50157
S11305A0828193812817390759F4F4013183208318
S11305B0F50180819181E981FA819183808326C04C
S11305C06417750759F4F40171836083F50182811E
S11305D09381E981FA819183808318C06817790730
S11305E059F4F40171836083F50180819181E9817B
S11305F0FA81918380830AC0F40191838083F50199
S113060080819181E981FA81918380830F900F9099
S11306100F900F90DF91CF911F910F91FF90EF906A
S1130620DF90CF90BF90AF909F908F907F906F900E
S11306305F904F903F902F9008952F923F924F924A
S11306405F926F927F928F929F92AF92BF92CF925E
S1130650DF92EF92FF920F931F93CF93DF93CDB767
S1130660DEB7C254D1090FB6F894DEBF0FBECDBFBA
S11306702C01FC010480F581E02DFAA3E9A3FC011F
S11306800081118169A17AA1601B710B072E000CF6
S1130690880B990B0E949D196B017C01F201068065
S11306A0F781E02DFEA3EDA3F20122803380ADA0FB
S11306B0BEA0A218B3089B01AC010E94C01A69A78E
S11306C07AA78BA79CA7AA9C4001AB9C900C900C8A
S11306D01124092C000CAA08BB08A7019601C70124
S11306E0B6010E94C01A6B017C01C501B4010E94CD
S11306F09D199B01AC01C701B6010E940B180E9411
S11307003B1B6BAF7CAF8DAF9EAFF2010084F185D4
S1130710E02DFAA7E9A7BF01601B710B072E000C9F
S1130720880B990B0E949D196B017C01F201628474
S113073073845301A218B3089B01AC010E94C01A30
S11307406DA77EA78FA798ABAA9C4001AB9C900C89
S1130750900C1124092C000CAA08BB08A7019601CF
S1130760C701B6010E94C01A6B017C01C501B40126
S11307700E949D199B01AC01C701B6010E940B1890
S11307800E943B1B23966CAF7DAF8EAF9FAF239728
S1130790F2010484F585E02DFEA7EDA7BF01601BDF
S11307A0710B072E000C880B990B0E949D194B01AD
S11307B05C01F2010684F785E02DFAABE9AB8F0109
S11307C0021913099B01AC010E94C01A6BAB7CABEC
S11307D08DAB9EAB009F6001019FD00CD00C112407
S11307E00D2C000CEE08FF08A5019401C501B4010D
S11307F00E94C01A4B015C01C701B6010E949D19F9
S11308009B01AC01C501B4010E940B180E943B1B63
S11308106BAB7CAB8DAB9EAB69A57AA529A13AA144
S1130820621B730B072E000C880B990B0E949D19F9
S11308304B015C0183014DA15EA1041B150B9B01BF
S1130840AC010E94C01A6FAB78AF89AF9AAF009F1A
S11308506001019FD00CD00C11240D2C000CEE086B
S1130860FF08A5019401C501B4010E94C01A4B01FF
S11308705C01C701B6010E949D199B01AC01C50131
S1130880B4010E940B180E943B1B6FAB78AF89AF79
S11308909AAF6DA57EA589A19AA1681B790B072E35
S11308A0000C880B990B0E949D194B015C0109A94E
S11308B01AA9EDA1FEA10E1B1F0B9B01AC010E9406
S11308C0C01A69A37AA38BA39CA3009F6001019F14
S11308D0D00CD00C11240D2C000CEE08FF08A5013F
S11308E09401C501B4010E94C01A4B015C01C70107
S11308F0B6010E949D199B01AC01C501B4010E947F
S11309000B180E943B1B4B015C016DA57EA529A51C
S11309103AA5621B730B072E000C880B990B0E94DF
S11309209D1969A37AA38BA39CA309A91AA90619E3
S113093017099B01AC010E94C01A6DA37EA38FA36B
S113094098A7009F6001019FD00CD00C11240D2C9E
S1130950000CEE08FF0829A13AA14BA15CA1CA0131
S1130960B9010E94C01A69A37AA38BA39CA3C701EF
S1130970B6010E949D199B01AC0169A17AA18BA1CA
S11309809CA10E940B180E943B1B2BAD3CAD4DADAE
S11309905EAD29833A834B835C8323962CAD3DADB6
S11309A04EAD5FAD23972D833E834F8358872BA98C
S11309B03CA94DA95EA929873A874B875C872FA953
S11309C038AD49AD5AAD2D873E874F87588B898AFC
S11309D09A8AAB8ABC8A6D8B7E8B8F8B988FAE0183
S11309E04F5F5F4F7A0100E010E0612C712CC12C45
S11309F0D12C212C312CF70181909190A190B190B0
S1130A007F01262D372D4C2D5D2DC501B4010E948B
S1130A10B31A181634F4682C792CCA2CDB2C202E2B
S1130A20312E0F5F1F4F0630110529F7822D932DAC
S1130A300E942702FC01E080F180FA8EE98E028197
S1130A4013811C8F0B8FEE0CFF1CEE0CFF1CE40CAF
S1130A50F51C000F111F000F111F040D151DF701C8
S1130A6060817181F80180819181680F791F7723FA
S1130A7014F46F5F7F4F75956795072E000C880BF4
S1130A80990B0E949D194B015C01F70162817381EE
S1130A90F80182819381680F791F772314F46F5FC3
S1130AA07F4F75956795072E000C880B990B0E9454
S1130AB09D1969A37AA38BA39CA39E01215E3F4F3A
S1130AC0AE01435E5F4FBE016F5F7F4FCE0149961B
S1130AD00E9475020D8D1E8D000F111F000F111F36
S1130AE0040D151D2F8C38A0220C331C220C331C32
S1130AF0240C351CF80160817181F10180819181A0
S1130B00681B790B072E000C880B990B0E949D190A
S1130B106B017C01F80162817381F101828193810F
S1130B20681B790B072E000C880B990B0E949D19EA
S1130B309058A70196010E948A182BED3FE049ECDA
S1130B405FE30E940B186B017C01A501940160E036
S1130B5070E080E094E40E940A184B015C0129A132
S1130B603AA14BA15CA160E070E08FEB93E40E949A
S1130B700A182B013C01C701B6010E942D1B69A371
S1130B807AA38BA39CA3C701B6010E94EE186DA3A0
S1130B907EA38FA398A706E611E029A13AA14BA151
S1130BA05CA1C301B2010E94C01A69A77AA78BA7EE
S1130BB09CA72DA13EA14FA158A5C501B4010E9437
S1130BC0C01A9B01AC0169A57AA58BA59CA50E94BE
S1130BD00A18F80160837183828393832DA13EA157
S1130BE04FA158A5C301B2010E94C01A2B013C01B8
S1130BF029A13AA14BA15CA1C501B4010E94C01A6C
S1130C009B01AC01C301B2010E940B18F80164837B
S1130C10758386839783F7FAF094F7F8F094C08687
S1130C20D186E286F386C801CE5BDF4F0FB6F89417
S1130C30DEBF0FBECDBFDF91CF911F910F91FF900B
S1130C40EF90DF90CF90BF90AF909F908F907F9068
S1130C506F905F904F903F902F9008954F925F92C6
S1130C606F927F92AF92BF92CF92DF92EF92FF92F8
S1130C700F931F93CF93DF93CDB7DEB768970FB66B
S1130C80F894DEBF0FBECDBFFC010DB71EB7808147
S1130C9091819A838983808591859C838B838281CA
S1130CA093819E838D838285938598878F838481A6
S1130CB095819A878987848595859C878B8786818A
S1130CC097819E878D8786859785988B8F87FE0170
S1130CD0719688E0DF011D928A95E9F7709720E00C
S1130CE030E080E090E0408151814F3F534071F00B
S1130CF0DC01AA0FBB1F41E050E04C0F5D1FA40FA5
S1130D00B51F51963C932E93509701962F5F3F4FFA
S1130D1034962430310539F7009709F489C0EDB6CB
S1130D20FEB66C01CC0CDD1CCC0CDD1CADB7BEB723
S1130D30AC19BD090FB6F894BEBF0FBEADBFEDB779
S1130D40FEB731965F011816190624F59E012F5E31
S1130D503F4FDF01CE0EDF1EF901419151919F01FA
S1130D60FA01EE0FFF1FEE0FFF1F41E050E04C0FA2
S1130D705D1FE40FF51F4081518111965C934E93E2
S1130D804281538113965C934E9312971496AC153B
S1130D90BD0511F7DB014D905D906D907C9013972C
S1130DA0EEE7F1E0408251826282738214964D90A4
S1130DB05D906D907C90179744825582668277820D
S1130DC018964D915D916D917C911B974087518749
S1130DD062877387049729F4C5010E941D03DC010F
S1130DE002C0AEE7B1E04D915D916D917C91139796
S1130DF0E2E7F1E0408351836283738314964D915B
S1130E005D916D917C9117974483558366837783B5
S1130E1018968D919D910D90BC91A02D80879187FE
S1130E20A287B3870FB6F894FEBE0FBEEDBE20C0F6
S1130E30FB0180819181A281B381E2E7F1E08083AB
S1130E409183A283B383DB011496CD90DD90ED9062
S1130E50FC901797C482D582E682F78218964D914A
S1130E605D916D917C911B97408751876287738751
S1130E7082E791E00FB6F8941EBF0FBE0DBF6896CF
S1130E800FB6F894DEBF0FBECDBFDF91CF911F9197
S1130E900F91FF90EF90DF90CF90BF90AF907F9035
S1130EA06F905F904F900895AF92BF92CF92DF9270
S1130EB0EF92FF920F931F93C19AA0901601B090E6
S1130EC01701C0901801D0901901E0901A01F09018
S1130ED01B0100911C0110911D012091AD01309165
S1130EE0AE014091AF015091B0016091B101709198
S1130EF0B2018091B3019091B401E0910D01EF939F
S1130F00E0910C01EF93E0910B01EF93E0910A0162
S1130F10EF93E0911101EF93E0911001EF93E091D1
S1130F200F01EF93E0910E01EF93E091AC01EF9389
S1130F30E091AB01EF93E091AA01EF93E091A90155
S1130F40EF93E0911501EF93E0911401EF93E09199
S1130F501301EF93E0911201EF930E946D0C8DB792
S1130F609EB740960FB6F8949EBF0FBE8DBF1F91DB
S1130F700F91FF90EF90DF90CF90BF90AF900895C6
S1130F804F925F926F927F928F929F92AF92BF9295
S1130F90CF92DF92EF92FF92CF93DF93CDB7DEB77C
S1130FA02C970FB6F894DEBF0FBECDBF0E94471634
S1130FB0882309F489C0CE0101960E94060B809013
S1130FC0060190900701A0900801B0900901C0901B
S1130FD00201D0900301E0900401F0900501298101
S1130FE03A814B815C81C501B4010E940A182B012E
S1130FF03C012D813E814F815885C701B6010E9475
S11310000A18A30192010E948A1829853A854B8502
S11310105C850E940A189F772DEC3CEC4CE45DE360
S11310200E94E91888236CF483E393E3A3E7BFE306
S113103080931A0190931B01A0931C01B0931D018E
S11310400CC083E393E3A3E3BFE380931A0190937B
S11310501B01A0931C01B0931D018092B1019092D9
S1131060B201A092B301B092B401C092AD01D0928A
S1131070AE01E092AF01F092B0018BED9FE0A9ECDC
S1131080BFE38093160190931701A0931801B093C6
S113109019018DEC9CECACE4BDE38093A901909321
S11310A0AA01A093AB01B093AC018DEC9CECACEC29
S11310B0BFE38093120190931301A0931401B093A2
S11310C015016A9A729AA4C00E9447168111A0C0A1
S11310D0CE0101960E94060B80918A0190918B01AA
S11310E0813293400CF446C0C0900601D0900701B1
S11310F0E0900801F0900901A701960169817A81C5
S11311008B819C810E940A184B015C01E894B7F81A
S1131110A7019601609190017091910180919201D3
S1131120909193010E940A189B01AC015F77C5015D
S1131130B4010E94E9188823ECF4F7FAF094F7F864
S1131140F094C092B101D092B201E092B301F09256
S1131150B4018091020190910301A0910401B09126
S113116005018093AD019093AE01A093AF01B093BC
S1131170B00120C08091900190919101A0919201C1
S1131180B09193018093B1019093B201A093B30104
S1131190B093B40180918C0190918D01A0918E0146
S11311A0B0918F018093AD019093AE01A093AF01F4
S11311B0B093B0018BED9FE0A9E4B0E480931601F5
S11311C090931701A0931801B09319011092A901EB
S11311D01092AA011092AB011092AC018DEC9CEC20
S11311E0ACE0B0E48093120190931301A093140136
S11311F0B093150183E393E3A3E3BFE380931A0160
S113120090931B01A0931C01B0931D016A9A7298DC
S11312102C960FB6F894DEBF0FBECDBFDF91CF91F1
S1131220FF90EF90DF90CF90BF90AF909F908F9002
S11312307F906F905F904F900895CF93DF93CDB7D9
S1131240DEB728970FB6F894DEBF0FBECDBFEAE72E
S1131250F0E08081806180830E947116882361F1AF
S11312602091060130910701409108015091090134
S11312706091000170910101CE0101960E94361423
S113128090938B0180938A0189819A81AB81BC817F
S11312908093900190939101A0939201B093930154
S11312A08D819E81AF81B88580938C0190938D014F
S11312B0A0938E01B0938F0128960FB6F894DEBFE9
S11312C00FBECDBFDF91CF9108958130910541F0DC
S11312D08230910541F0892B41F45B985D98089523
S11312E05D9A5B9808955D985B9A0895E1E8F0E053
S11312F080818160808380919601909197010E9402
S113130065090895E1E8F0E080818E7F8083289864
S11313102A9880E090E00E94650908950E9482095D
S113132020E030E0A90160910601709107018091ED
S11313300801909109010E94B31A18166CF480E018
S113134090E0A8ECB3EC8093060190930701A0937E
S11313500801B0930901089580E090E0A8ECB3E49B
S11313608093060190930701A0930801B0930901AB
S11313700895CF93DF93CDB7DEB72C970FB6F894CB
S1131380DEBF0FBECDBF0E946D0BCE0101960E9441
S1131390060B69817A818B819C810E946519CB013E
S11313A00E94171220E030E0A90169817A818B81C3
S11313B09C810E94B31A18169CF480E090E0A8EC7B
S11313C0B3EC8093060190930701A0930801B093B6
S11313D0090181E090E0909397018093960112C0F7
S11313E080E090E0A8ECB3E48093060190930701B9
S11313F0A0930801B093090182E090E090939701D3
S11314008093960181E090E09093950180939401FC
S11314102C960FB6F894DEBF0FBECDBFDF91CF91EF
S113142008958091940190919501892B11F40E9463
S1131430B90985B5846085BD85B5816085BD809118
S11314409601909197010E9465090895E0919E018B
S11314508E2F90E0FC01E05AF109E830F10540F5E7
S1131460EA5AFF4F0C94A81B0E94110A08950E9487
S113147076090895EFE9F1E0818180939D018281ED
S113148080939C010E9482090895EFE9F1E0818133
S113149080939D01828180939C010E94820908951A
S11314A00E94820908950E948E0908950E9482096B
S11314B008956AE08FE991E00E947E0F80919F0178
S11314C080939E010E94260A08956E9A76988091D0
S11314D00001909101010E9409010E9482096A9A07
S11314E07298CAE7D0E010E40E946D0B888184FDF5
S11314F00E941D090E94C007C1990E94540780914F
S11315009A0190919B01892B79F310929B0110927F
S11315109A016E9A8EB181278EB90E94590AE4CF3E
S11315201F920F920FB60F921124289A2A9A0F90A5
S11315300FBE0F901F9018951F920F920FB60F9227
S1131540112428980F900FBE0F901F9018951F928A
S11315500F920FB60F9211242A980F900FBE0F907E
S11315601F9018951F920F920FB60F9211248F930C
S11315709F9381E090E090939B0180939A019F91C7
S11315808F910F900FBE0F901F9018951F920F927E
S11315900FB60F9211242F933F934F935F936F9342
S11315A07F938F939F93AF93BF93EF93FF93809118
S11315B09801909199018431910534F401969093A6
S11315C099018093980111C080919E01813A21F084
S11315D080E090E00E94650985B58B7F85BD85B567
S11315E08D7F85BD85B58E7F85BDFF91EF91BF91C0
S11315F0AF919F918F917F916F915F914F913F91A7
S11316002F910F900FBE0F901F901895FC018091A1
S1131610C5019091C601A091C701B091C801808312
S11316209183A283B3838091C1019091C201A0915F
S1131630C301B091C40184839583A683B783809149
S1131640BD019091BE01A091BF01B091C0018087FE
S11316509187A287B38781E008958F929F92AF927A
S1131660BF92CF92DF92EF92FF926B017C014B010C
S11316705C01E894B7F82BED3FE049E450E4C50180
S1131680B4010E94B31A1816BCF42BED3FE049ECE8
S113169050E4C701B6010E94C01AA50194010E943A
S11316A0F3189B01AC01C701B6010E940A18562F1A
S11316B0472F382F292F04C05C2D4D2D3E2D2F2D63
S11316C0652F742F832F922FFF90EF90DF90CF9090
S11316D0BF90AF909F908F9008952F923F924F921A
S11316E05F926F927F928F929F92AF92BF92CF92AE
S11316F0DF92EF92FF920F931F93CF93DF93CDB7B7
S1131700DEB7A8970FB6F894DEBF0FBECDBFCE01EB
S113171001960E94A3136B817C810F8118854985F2
S11317205A85AD85BE852F853889EB89FC898D89DD
S11317309E89E980FA80FA8EE98E1C8F0B8FBE8F0A
S1131740AD8FF8A3EF8F7AA369A35CA34BA33EA349
S11317502DA398A78FA366E271E0CE0149960E945B
S11317602E068C01FC0180859185A285B3850F2E00
S1131770F6E22F2EF1E03F2EF02DF10180879187C4
S1131780A287B387F80160857185828593850E945D
S11317902D0B2B013C01F8016087718782879387A9
S11317A024EA30E74DE75FE36081718182819381B0
S11317B00E94C01A4B015C0120E037ED43E25CE378
S11317C06091C5017091C6018091C7019091C801D3
S11317D00E94C01A9B01AC01C501B4010E940B1800
S11317E04B015C016093C5017093C6018093C701EE
S11317F09093C80124EA30E74DE75FE3F801648180
S11318007581868197810E94C01A6B017C0120E05A
S113181037ED43E25CE36091C1017091C2018091B4
S1131820C3019091C4010E94C01A9B01AC01C7017D
S1131830B6010E940B186B017C016093C101709387
S1131840C2018093C3019093C40124EA30E74DE7B9
S11318505FE3C301B2010E94C01A2B013C0120E0E6
S113186037ED43E25CE36091BD017091BE0180916C
S1131870BF019091C0010E94C01A9B01AC01C30139
S1131880B2010E940B186093BD017093BE01809356
S1131890BF019093C001F10180829182A282B38240
S11318A0C482D582E682F782A8960FB6F894DEBF8A
S11318B00FBECDBFDF91CF911F910F91FF90EF909D
S11318C0DF90CF90BF90AF909F908F907F906F905C
S11318D05F904F903F902F9008954F925F926F9238
S11318E07F928F929F92AF92BF92CF92DF92EF92AC
S11318F0FF920F931F93CF93DF93CDB7DEB7689713
S11319000FB6F894DEBF0FBECDBF29013A01E98AB4
S1131910FA8A0B8B1C8B2091C5013091C601409132
S1131920C7015091C8010E940A186D837E838F837A
S113193098872091C1013091C2014091C301509117
S1131940C401C301B2010E940A1869877A878B8790
S11319509C872D813E814F8158850E948A18209151
S1131960BD013091BE014091BF015091C0010E9460
S11319700A180E942D0B69837A838B839C832B0125
S11319803C01E89477F8A6019501C301B2010E94D5
S1131990B31A181684F429813A814B815C81C301FE
S11319A0B2010E94F318A60195010E94C01A69832E
S11319B07A838B839C832091B9013091BA01409141
S11319C0BB015091BC0169817A818B819C810E9409
S11319D00A182FE632E143E85AE30E94F3186D8BAC
S11319E07E8B8F8B988F29813A814B815C816BA58B
S11319F07CA58DA59EA50E94C01A6B017C012D8932
S1131A003E894F89588D6FA578A989A99AA90E9402
S1131A10C01A9B01AC01C701B6010E940A182981B2
S1131A203A814B815C812093B9013093BA01409390
S1131A30BB015093BC012BED3FE049E450E40E940C
S1131A40F3186D877E878F87988B69817A818B8164
S1131A509C810E94EE182B013C0129853A854B8517
S1131A605C85CA01B9010E94C01A6B017C012D81F9
S1131A703E814F815885CA01B9010E94C01A9B0159
S1131A80AC01C701B6010E940B180E943B1B9B01CD
S1131A90AC01C301B2019F770E94C01A6B017C01A3
S1131AA00E9447168823E1F020E030E0A901C70135
S1131AB0B6010E94E91888235CF020E030E040EF92
S1131AC051E4C701B6010E940B186B017C0108C0E8
S1131AD00F2EC12CD12CF0EFEF2EF1E4FF2EF02DC0
S1131AE02091B5013091B6014091B7015091B801F0
S1131AF0C701B6010E940A182FE632E143E85AE30F
S1131B000E94F3184B015C01A70196016BA97CA903
S1131B108DA99EA90E94C01A2B013C01A501940124
S1131B206FA978AD89AD9AAD0E94C01A9B01AC0132
S1131B30C301B2010E940A182B013C01C092B501F5
S1131B40D092B601E092B701F092B80120E030E003
S1131B5040E252E40E94B31A181644F40F2E412CAA
S1131B60512CF0E26F2EF2E47F2EF02D20E030E0D5
S1131B7040E252E4C301B2010E94F3186B017C01FC
S1131B802DEC3CEC4CEC5DE3C501B4010E94E9187A
S1131B9088230CF52AE037ED43E25CE36D897E8906
S1131BA08F89988D0E94E9188823ACF42DEC3CECC5
S1131BB04CE45EE369817A818B819C819F770E94EA
S1131BC0C01A29813A814B815C810E94F3186D8788
S1131BD07E878F87988B8D849E84AF84B888B7FA6C
S1131BE0B094B7F8B09469817A818B819C819F7796
S1131BF02BED3FE049EC5FE30E94E91888230CF5E4
S1131C002D853E854F855889C701B6010E940A1863
S1131C106093220170932301809324019093250102
S1131C20A70196016D857E858F8598890E940B1882
S1131C3060931E0170931F018093200190932101F2
S1131C401EC0A7019601C501B4010E940A18609341
S1131C502201709323018093240190932501A7010D
S1131C6096016D857E858F8598890E940A186093F8
S1131C701E0170931F01809320019093210120E0A5
S1131C8030E0A90160912201709123018091240127
S1131C90909125010E94E918882314F4299801C021
S1131CA0299A20E030E0A90160911E0170911F0182
S1131CB080912001909121010E94E918882314F455
S1131CC02B9801C02B9A8090220190902301A09020
S1131CD02401B0902501E894B7F8809222019092F3
S1131CE02301A0922401B0922501C0901E01D0903E
S1131CF01F01E0902001F0902101E894F7F8C092D0
S1131D001E01D0921F01E0922001F0922101A7014F
S1131D109601C501B4010E94B31A18162CF01C2DAB
S1131D200D2D7E2C6F2C04C0182D092D7A2C6B2CB4
S1131D3029893A894B895C89612F702F872D962DCB
S1131D400E94B31A181664F5212F302F472D562DF3
S1131D50C501B4010E94F31829893A894B895C8929
S1131D600E94C01A6093220170932301809324017E
S1131D7090932501212F302F472D562DC701B601F1
S1131D800E94F31829893A894B895C890E94C01AF8
S1131D9060931E0170931F01809320019093210191
S1131DA008E810E0F8016081718180E090E00E9411
S1131DB09B192091220130912301409124015091DB
S1131DC025010E94C01A0E946C1970938B006093C5
S1131DD08A00F8016081718180E090E00E949B1983
S1131DE020911E0130911F01409120015091210149
S1131DF00E94C01A0E946C1970938D0060938C002D
S1131E0068960FB6F894DEBF0FBECDBFDF91CF91B9
S1131E101F910F91FF90EF90DF90CF90BF90AF9004
S1131E209F908F907F906F905F904F900895589AF5
S1131E30599A5A9A8CE08093B800E9E6F0E08081E0
S1131E408062808380818F7E8083EA9A789408956B
S1131E501F93CF93DF93182FD62FC42F0E94170FF1
S1131E6094EA9093BC00ECEBF0E090819923ECF7BA
S1131E7090E59093BB0094E89093BC00ECEBF0E009
S1131E8090819923ECF79091B900987F903229F4CE
S1131E9084E98093BC0080E02DC081E08093BB0086
S1131EA084E88093BC00ECEBF0E090819923ECF79C
S1131EB01093BB0084E88093BC00ECEBF0E08081DD
S1131EC08823ECF7D093BB0084E88093BC00ECEB50
S1131ED0F0E080818823ECF7C093BB0084E8809312
S1131EE0BC00ECEBF0E080818823ECF784E980937C
S1131EF0BC0081E0DF91CF911F910895CF93DF93D0
S1131F009C0184EA8093BC00ECEBF0E0908199237F
S1131F10ECF781E58093BB0084E88093BC00ECEB94
S1131F20F0E090819923ECF78091B900887F8834A0
S1131F3029F484E98093BC0080E041C084EC809360
S1131F40BC00ECEBF0E090819923ECF74091BB00EE
S1131F50461309C0842F90E001971816190644F01F
S1131F6040E050E01AC084E98093BC0080E027C0C0
S1131F70D90150E041505109B901640F751FECEBD0
S1131F80F0E084ECCBEBD0E0808390819923ECF7F4
S1131F9098819D93A617B707B9F784E88093BC008E
S1131FA0ECEBF0E090819923ECF78091BB00F90110
S1131FB0E40FF51F808384E98093BC0081E0DF9106
S1131FC0CF91089581E08093D70080EA8093D80070
S1131FD082E189BD09B400FEFDCF80E98093D80079
S1131FE01092E0001092CC011092C9018CE0809311
S1131FF0E20078940895CF93DF939091CC019923D4
S113200009F44CC09FB7F89424E02093E900209190
S1132010CA01222349F02091E80025FD03C09FBF97
S11320208FEF41C01092CA013091E400375E2091D5
S1132030E80025FD24C09FBF9091E400931781F030
S11320409091CC01992361F1A9EEB0E044E0E8EE6F
S1132050F0E0C4EED0E00DC09FBF9881931305C09B
S113206081E08093CA018FEF1EC09091CC01992327
S1132070C9F09FB7F8944C93208125FFEDCF80934E
S1132080F1008091E80085FD03C08AE38093E800B5
S113209085E08093CB019FBF80E005C08FEF03C034
S11320A08FEF01C08FEFDF91CF9108951F920F92B0
S11320B00FB60F9211248F939F93EF93FF93E1EE4A
S11320C0F0E08081108283FF11C01092E90091E05A
S11320D09093EB001092EC0092E19093ED0098E065
S11320E09093F0001092CC011092C90182FF13C0AA
S11320F08091CC01882379F08091CB01882359F019
S113210081508093CB01811106C084E08093E90063
S11321108AE38093E800FF91EF919F918F910F9054
S11321200FBE0F901F9018951F920F920FB60F922B
S113213011240F931F932F933F934F935F936F93A8
S11321407F938F939F93AF93BF93CF93DF93EF933B
S1132150FF931092E9008091E80083FF4CC1E1EF06
S1132160F0E0608180812081908130E0392B4081D2
S1132170908150E0592B7081C08192EF9093E800D8
S1132180863009F058C004C081E28093EB003AC164
S113219066E080E291E0FC01A591B4912A173B0727
S11321A011F0079623C0FC013296A591B4914A1709
S11321B05B0711F007961AC0FC01349645915491BF
S11321C0FC0136962491872F90E09C2B8F3F91053C
S11321D019F010F08FEF90E0821708F4282FA8EE82
S11321E0B0E070E16EEFC1EFD0E003C0615099F64A
S11321F0CBCF8C91982F9570E1F382FD03C1322FE0
S1132200213108F0372F332309F4F9C0FA01832F61
S113221094919883815031968111FACF8FEF830F77
S113222090E00196480F591F231B6C932111E1CFB5
S11322303031F9F2E7C0853061F48EEF8093E80025
S1132240E8EEF0E0808180FFFDCF20682093E3007A
S1132250D9C0893009F035C06111CDC02093CC01BB
S11322601092C9011092CB018EEF8093E80081E0B7
S113227029EC31E0C9EED0E0ABEEB0E00CEE10E0BA
S11322806DEE70E08883A9014F5F5F4FF90194916F
S11322909C93992361F0FA014491F8014083F90178
S11322A0329694912D5F3F4FFB01908301C09A01B8
S11322B08F5F853039F7EAEEF0E08EE1808310829B
S11322C0A1C0883081F4603809F095C0E8EEF0E0F0
S11322D0808180FFFDCF8091CC018093F1008EEF4F
S11322E08093E8008FC08132B9F4613A09F083C069
S11322F0E8EEF0E0808180FFFDCFE2E3F1E029E346
S113230031E0A1EFB0E081918C93E217F307D9F7A4
S11323108EEF8093E80076C08032D1F4613209F008
S11323206AC0E8EEF0E0808182FFFDCFE2E3F1E0F5
S113233029E331E0A1EFB0E08C918193E217F30738
S1132340D9F7E8EEF0E08BEF80838EEF80835AC0FC
S1132350823271F4613209F04EC02093C901E8EE73
S1132360F0E0808180FFFDCF8EEF8093E8004AC0CB
S113237081111AC0E8EEF0E0808180FFFDCF623861
S113238051F4E9EEF0E040838091EB0085FB88276F
S113239080F9108201C080E0E1EFF0E080831082D8
S11323A08EEF8093E8002EC0982F9D7F913019F511
S11323B0623009F5232BF9F44F779FEF940F943093
S11323C0D0F49EEF9093E8004093E900833021F429
S11323D081E28093EB0016C089E18093EB0081E0F9
S11323E090E002C0880F991F4A95E2F7EAEEF0E008
S11323F08083108207C081E28093EB0003C06C935A
S11324002111F7CEFF91EF91DF91CF91BF91AF9161
S11324109F918F917F916F915F914F913F912F91F8
S11324201F910F910F900FBE0F901F901895EF9270
S1132430FF920F931F93CF93DF93CDB7DEB7279708
S11324400FB6F894DEBF0FBECDBF8E010F5F1F4FD6
S113245027E0F80111922A95E9F74AE0B8010E94B1
S1132460AE1B7E01F8E0EF0EF11CF80181918F01A3
S113247081110E94FB0F0E151F05B9F727960FB6A1
S1132480F894DEBF0FBECDBFDF91CF911F910F91A6
S1132490FF90EF90089520E030E0ECEBF0E08081D5
S11324A0882334F02F5F3F4F293E83E03807B9F784
S11324B081E0283E334009F480E008958093BB0016
S11324C084E88093BC000E944B12882319F0809109
S11324D0B900887F0895CF93C82F94EA9093BC00E5
S11324E00E944B12882361F08C2F880F0E945E1289
S11324F0803229F484E98093BC0080E001C081E04B
S1132500CF9108950E94170F88E50E946B128823CB
S113251009F4CDC080E30E945E12882309F4C9C087
S113252081E00E945E12882309F4C5C084E9809387
S1132530BC0083EC99E00197F1F700C0000088E546
S11325400E946B12882309F4B8C080E00E945E12D6
S1132550882309F4B4C080E00E945E12882309F441
S1132560B0C080E00E945E12882309F4ACC080E011
S11325700E945E12882309F4A8C080E00E945E12C3
S1132580882309F4A4C080E00E945E12882309F421
S1132590A0C080E00E945E12882309F49CC080E9F8
S11325A00E945E12882309F498C084E98093BC00D9
S11325B083EC99E00197F1F700C0000088E50E94E0
S11325C06B12882309F48BC087E00E945E12882373
S11325D009F487C080E00E945E12882309F483C056
S11325E081E40E945E12882309F47FC084E9809309
S11325F0BC0083EC99E00197F1F700C0000088E586
S11326000E946B12882309F472C08AE10E945E1250
S1132610882309F46EC080E40E945E12882309F4C2
S11326206AC080E00E945E12882309F466C084E9CF
S11326308093BC0083EC99E00197F1F700C000009F
S113264088E50E946B12882309F459C083E30E9431
S11326505E12882309F455C083E00E945E12882329
S113266009F451C084E98093BC0083EC99E001979C
S1132670F1F700C0000088E50E946B12882309F47A
S113268044C080E30E945E12882309F440C088E0BD
S11326900E945E128823E9F184E98093BC0083ECF4
S11326A099E00197F1F700C0000081E0089580E00F
S11326B0089580E0089580E0089580E0089580E022
S11326C0089580E0089580E0089580E0089580E012
S11326D0089580E0089580E0089580E0089580E002
S11326E0089580E0089580E0089580E0089580E0F2
S11326F0089580E0089580E0089580E0089580E0E2
S1132700089580E0089580E0089580E0089580E0D1
S1132710089580E00895CF93C82F84EA8093BC0085
S11327200E944B12882369F08C2F880F8F5F0E94C0
S11327305E12883429F484E98093BC0080E001C0EF
S113274081E0CF9108950F931F93CF93DF93CDB77B
S1132750DEB760970FB6F894DEBF0FBECDBF8C0115
S1132760FE01319680E1DF011D928A95E9F788E543
S11327700E946B12882309F469C086E30E945E12EA
S1132780882309F465C084E98093BC00B8E0BA9555
S1132790F1F7000088E50E948B13882309F45AC0DE
S11327A0BE016F5F7F4FAE01405F5F4FECEBF0E027
S11327B084EC2BEB30E0808390819923ECF7D901F2
S11327C09C91DB019D93BD01A417B507A1F784E893
S11327D08093BC00ECEBF0E080818823ECF78091DF
S11327E0BB00888B84E98093BC00BE016C5F7F4F83
S11327F0F801085E1F4FDB012C91322F3073CB019F
S11328000297DC018C9190E0B0E13B9F800D911D1B
S1132810112491838083422F407C50E0440F551F44
S1132820440F551FCB010197DC018C91480F511DBA
S1132830538342832F7030E0358324836D5F7F4F51
S11328403696E017F107B9F681E005C080E003C0D1
S113285080E001C080E060960FB6F894DEBF0FBE42
S1132860CDBFDF91CF911F910F9108952F923F9289
S11328704F925F926F927F928F929F92AF92BF928C
S1132880CF92DF92EF92FF920F931F93CF93DF9338
S1132890CDB7DEB76A970FB6F894DEBF0FBECDBFD3
S11328A09C8B8B8B7E8B6D8B2F8B388F498F5A8FA4
S11328B0CE0101960E94060B0F2EF5ED8F2EF1E04E
S11328C09F2EF02D0F2EF9E3AF2EF1E0BF2EF02D49
S11328D0E12CF12C1D861E861F86188AC12CD12C52
S11328E01A8A198A212C312CF401019111914F017A
S11328F0C00ED11EF50141905190619071905F011D
S1132900B801012E000C880B990B0E949D199B01A4
S1132910AC01C301B2010E94C01A9B01AC016D85D8
S11329207E858F8598890E940B186D877E878F8797
S1132930988B201631061CF4FA8AE98A1801FFEFF5
S1132940EF1AFF0A27E0E216F10471F631018989D2
S11329509A8907977CF4B601DD0C880B990B0E94C9
S11329609D199B01AC016D857E858F8598890E9498
S1132970F31864C0E5EDF1E0A684B784E088F1883B
S113298002891389B5010B2C000C880B990B0E944A
S11329909D192BE33BE64EE051E40E94C01A6D877B
S11329A07E878F87988BB7010F2C000C880B990BAF
S11329B00E949D1924EE3BEC46E151E40E94C01AAA
S11329C09B01AC016D857E858F8598890E940B18CB
S11329D06D877E878F87988BB801012E000C880B3A
S11329E0990B0E949D192FE732E94AE650E40E94B0
S11329F0C01A9B01AC016D857E858F8598890E94E4
S1132A000B186D877E878F87988BB5016E0D7F1DA0
S1132A10600F711F072E000C880B990B0E949D19E3
S1132A209B01AC016D857E858F8598890E94F31882
S1132A302BED3FE049EC50E40E940A18E4E66E16E0
S1132A4071040CF0ABC02090CF013090D001211460
S1132A50310409F000C18D899E89892B59F4EB89D1
S1132A60FC891082118212821382148215821682CA
S1132A701782F3C08D899E89019709F04EC020E02A
S1132A8030E046E952E46F89788D898D9A8D9F777D
S1132A900E940A184B015C01B7FAB094B7F8B094DD
S1132AA001E010E020E030E0A9016F89788D898D84
S1132AB09A8D0E94B31A181614F000E010E0EE2468
S1132AC0E394F12C20E030E0A9016F89788D898DA1
S1132AD09A8D0E94E918882314F0E12CF12CB80196
S1132AE06E197F09072E000C880B990B0E949D1903
S1132AF09B01AC01C501B4010E94C01AEB89FC8999
S1132B00608371838283938380E090E0A0E2B1ECE0
S1132B1084839583A683B783A0C08D899E890297F9
S1132B2009F09BC001E010E020E030E0A9016F89CA
S1132B30788D898D9A8D0E94E918882314F000E01D
S1132B4010E0EE24E394F12C20E030E0A9016F8939
S1132B50788D898D9A8D0E94B31A181614F0E12C81
S1132B60F12C0E191F0986EA809FB001819F700D18
S1132B701124072E000C880B990B0E949D19EB89D8
S1132B80FC89608371838283938380E090E0A8E46E
S1132B90B2E484839583A683B7835FC01092D00187
S1132BA01092CF0129853A854B855C850E940B18CC
S1132BB06B017C010E94EE184B015C016FEF73E026
S1132BC066197709072E000C880B990B0E949D1932
S1132BD02B013C0120E030E04FE254E4C501B40194
S1132BE00E94C01AA30192010E94C01A20E030EC96
S1132BF04FE754E40E94F31829813A814B815C81A8
S1132C000E940B18EB89FC89608371838283938310
S1132C10C701B6010E942D1B20E030E04FE254E4CE
S1132C200E94C01A9B01AC01C301B2010E94C01AE8
S1132C3020E030EC4FE754E40E94F3182D813E81EC
S1132C404F8158850E940B18EB89FC896483758336
S1132C508683978302C0212C312CC1016A960FB65A
S1132C60F894DEBF0FBECDBFDF91CF911F910F91BE
S1132C70FF90EF90DF90CF90BF90AF909F908F9098
S1132C807F906F905F904F903F902F900895809128
S1132C907A00882314F52091D3013091D4018091D6
S1132CA0D1019091D201820F931F8139914044F058
S1132CB08EE190E09093CE018093CD0181E0089560
S1132CC08091CD019091CE01009749F001979093A6
S1132CD0CE018093CD0181E0089580E0089580E0E5
S1132CE00895EAE7F0E080818F778083E091E9013D
S1132CF0F091EA01EC30F10508F082C1E25AFF4F8D
S1132D000C94A81B81E090E09093EA018093E90180
S1132D10EBE7F0E080818F7D8083ECE7F0E0808159
S1132D208B7F808380818D7F808380818E7F808371
S1132D3080917800909179009093DA018093D90181
S1132D4080E05FC182E090E09093EA018093E90122
S1132D50EBE7F0E080818F7D8083ECE7F0E0808119
S1132D608B7F808380818D7F80838081816080835D
S1132D7080917800909179009093DE018093DD0139
S1132D8080E03FC183E090E09093EA018093E90101
S1132D90EBE7F0E080818F7D8083ECE7F0E08081D9
S1132DA08460808380818D7F808380818E7F808317
S1132DB080917800909179009093D2018093D10111
S1132DC080E01FC184E090E09093EA018093E901E0
S1132DD0EBE7F0E080818F7D8083ECE7F0E0808199
S1132DE08460808380818D7F808380818160808303
S1132DF080917800909179009093E0018093DF01B5
S1132E0080E0FFC085E090E09093EA018093E901BF
S1132E10EBE7F0E080818F7D8083ECE7F0E0808158
S1132E208460808380818260808380818E7F8083C0
S1132E3080917800909179009093E4018093E3016C
S1132E4080E0DFC086E090E09093EA018093E9019E
S1132E50EBE7F0E080818F7D8083ECE7F0E0808118
S1132E6084608083808182608083808181608083AC
S1132E7080917800909179009093E6018093E50128
S1132E8080E0BFC087E090E09093EA018093E9017D
S1132E90EBE7F0E0808180628083ECE7F0E0808102
S1132EA08B7F808380818D7F808380818E7F8083F0
S1132EB080917800909179009093E8018093E701E4
S1132EC080E09FC088E090E09093EA018093E9015C
S1132ED0EBE7F0E0808180628083ECE7F0E08081C2
S1132EE08B7F808380818D7F8083808181608083DC
S1132EF080917800909179009093D6018093D501C8
S1132F0080E07FC089E090E09093EA018093E9013A
S1132F10EBE7F0E0808180628083ECE7F0E0808181
S1132F208B7F808380818260808380818E7F808399
S1132F3080917800909179009093E2018093E1016F
S1132F4080E05FC08AE090E09093EA018093E90119
S1132F50EBE7F0E0808180628083ECE7F0E0808141
S1132F608B7F808380818260808380818160808385
S1132F7080917800909179009093DC018093DB013B
S1132F8080E03FC08BE090E09093EA018093E901F8
S1132F90EBE7F0E0808180628083ECE7F0E0808101
S1132FA08460808380818D7F808380818E7F808315
S1132FB080917800909179009093D8018093D70103
S1132FC080E01FC01092EA011092E901EBE7F0E003
S1132FD0808180628083ECE7F0E08081846080837C
S1132FE080818D7F8083808181608083809178005F
S1132FF0909179009093D4018093D30181E001C032
S113300080E0EAE7F0E0908190689083908190649A
S1133010908308955058BB27AA270E9422180C9425
S1133020651A0E942C1A38F00E94331A20F039F4E1
S11330309F3F19F426F40C94021A0EF4E095E7FB72
S11330400C94FC19E92F0E948A1A58F3BA176207E4
S113305073078407950720F079F4A6F50C94AC1A4D
S11330600EF4E0950B2EBA2FA02D0B01B90190019F
S11330700C01CA01A0011124FF27591B99F0593FE3
S113308050F4503E68F11A16F040A22F232F342F2B
S11330904427585FF3CF469537952795A795F04079
S11330A05395C9F77EF41F16BA0B620B730B840B8E
S11330B0BAF09150A1F0FF0FBB1F661F771F881F46
S11330C0C2F70EC0BA0F621F731F841F48F487959E
S11330D077956795B795F7959E3F08F0B0CF939590
S11330E0880F08F09927EE0F9795879508950E9409
S11330F02C1A60F080E891E009F49EEF0E94331AE4
S113310028F040E851E071F45EEF0CC00C94021A10
S11331100C94AC1AE92FE0780E948A1A40F3092E25
S1133120052AB1F3261737074807590738F00E2E3A
S113313007F8E02569F0E025E0640AC0EF6307F8CA
S1133140009407FADB01B9019D01DC01CA01AD015C
S1133150EF930E940A190E94651A0E94BA185F919F
S1133160552339F02BED3FE049E450FD49EC0C9434
S11331700B180895DF93DD27B92FBF7740E85FE38D
S11331801616170648075B0718F4D92F0E94B81AB9
S11331909F938F937F936F930E947B1BE4EDF0E0EA
S11331A00E94051A0E94651A2F913F914F915F91D9
S11331B00E94D31ADD2351F09058A2EA2AED3FE091
S11331C049EC5FE3D0785D270E942218DF910C94CC
S11331D0651A0E94D81908F481E008950E943C1AE7
S11331E0E3950C94761A0E9407190C94651A0E94B0
S11331F0331A58F00E942C1A40F029F45F3F29F04A
S11332000C94FC1951110C94AD1A0C94021A0E94DE
S11332108A1A68F39923B1F3552391F3951B550B3F
S1133220BB27AA2762177307840738F09F5F5F4F95
S1133230220F331F441FAA1FA9F335D00E2E3AF0D4
S1133240E0E832D091505040E695001CCAF72BD0EC
S1133250FE2F29D0660F771F881FBB1F261737073D
S11332604807AB07B0E809F0BB0B802DBF01FF276F
S113327093585F4F3AF09E3F510578F00C94FC1937
S11332800C94AD1A5F3FE4F3983ED4F3869577959A
S11332906795B795F7959F5FC9F7880F911D969528
S11332A0879597F90895E1E0660F771F881FBB1F84
S11332B0621773078407BA0720F0621B730B840B31
S11332C0BA0BEE1F88F7E09508950E946C19689474
S11332D0B1110C94AD1A08950E94921A88F09F5768
S11332E098F0B92F9927B751B0F0E1F0660F771F26
S11332F0881F991F1AF0BA95C9F714C0B13091F01C
S11333000E94AC1AB1E008950C94AC1A672F782F80
S11333108827B85F39F0B93FCCF3869577956795E0
S1133320B395D9F73EF490958095709561957F4F4C
S11333308F4F9F4F0895E89409C097FB3EF49095F2
S11333408095709561957F4F8F4F9F4F9923A9F07A
S1133350F92F96E9BB279395F69587957795679509
S1133360B795F111F8CFFAF4BB0F11F460FF1BC04D
S11333706F5F7F4F8F4F9F4F16C0882311F096E9E0
S113338011C0772321F09EE8872F762F05C066238E
S113339071F096E8862F70E060E02AF09A95660F47
S11333A0771F881FDAF7880F9695879597F9089500
S11333B0990F0008550FAA0BE0E8FEEF1616170642
S11333C0E807F907C0F012161306E407F50798F0AA
S11333D0621B730B840B950B39F40A2661F0232BC3
S11333E0242B252B21F408950A2609F4A140A6953F
S11333F08FEF811D811D089597F99F6780E870E024
S113340060E008959FEF80EC0895DF93CF931F93BE
S11334100F93FF92EF92DF927B018C01689406C0B8
S1133420DA2EEF010E94D31AFE01E894A5912591AA
S1133430359145915591A6F3EF010E942218FE01A2
S11334409701A801DA9469F7DF90EF90FF900F914C
S11334501F91CF91DF91089500240A941616170640
S113346018060906089500240A9412161306140671
S1133470050608950C94021A0E94921AD8F3E8944F
S1133480E0E0BB279F57F0F02AED3FE049EC06C08F
S1133490EE0FBB0F661F771F881F28F0B23A620732
S11334A07307840728F0B25A620B730B840BE395FD
S11334B09A9572F7803830F49A95BB0F661F771F80
S11334C0881FD2F790480C94811B092E0394000C9A
S11334D011F4882352F0BB0F40F4BF2B11F460FFAA
S11334E004C06F5F7F4F8F4F9F4F0895EF93E0FFAE
S11334F007C0A2EA2AED3FE049EC5FEB0E942218E4
S11335000E94651A0F90039401FC9058E1E0F1E0E9
S11335100C94941B57FD9058440F551F59F05F3F6E
S113352071F04795880F97FB991F61F09F3F79F0E1
S113353087950895121613061406551FF2CF469563
S1133540F1DF08C0161617061806991FF1CF8695E5
S11335507105610508940895E894BB2766277727C9
S1133560CB0197F908950E94D81908F48FEF0895B4
S11335709B01AC0160E070E080E89FE30C94F318D9
S11335800E94D31A0C94651A0E942C1A38F00E94D7
S1133590331A20F0952311F00C94FC190C94021AA0
S11335A011240C94AD1A0E948A1A70F3959FC1F3EA
S11335B0950F50E0551F629FF001729FBB27F00DDD
S11335C0B11D639FAA27F00DB11DAA1F649F662732
S11335D0B00DA11D661F829F2227B00DA11D621F81
S11335E0739FB00DA11D621F839FA00D611D221F3B
S11335F0749F3327A00D611D231F849F600D211D1F
S1133600822F762F6A2F11249F5750409AF0F1F0A1
S113361088234AF0EE0FFF1FBB1F661F771F881F0A
S113362091505040A9F79E3F510580F00C94FC192D
S11336300C94AD1A5F3FE4F3983ED4F386957795E6
S11336406795B795F795E7959F5FC1F7FE2B880FB0
S1133650911D9695879597F908959F930E943C1A1A
S11336600F9007FCEE5F0C94761A19F416F40C9480
S1133670021A0C947F1B0E94921AB8F39923C9F37F
S1133680B6F39F57550B87FF0E948D1B0024A0E6BD
S113369040EA900180585695979528F4805C660F0F
S11336A0771F881F20F026173707480730F4621B5E
S11336B0730B840B202931294A2BA6951794079460
S11336C0202531254A2758F7660F771F881F20F0D9
S11336D026173707480730F4620B730B840B200D51
S11336E0311D411DA09581F7B901842F9158880F90
S11336F09695879508959B01AC010C94C01A9F3F41
S113370031F0915020F4879577956795B795880F98
S1133710911D9695879597F9089591505040660F9D
S1133720771F881FD2F708959F938F937F936F938A
S1133730FF93EF939B01AC010E94C01AEF91FF919C
S11337400E94051A2F913F914F915F910C94C01ADA
S1133750EE0FFF1F0590F491E02D0994BB274A302A
S113376031F4992322F4BDE2909581959F4F0C94F6
S1133770BA1BBB27FB015527AA27880F991FAA1F2D
S1133780A41710F0A41B83955051B9F7A05DAA3378
S113379008F0A95DA193009779F7B111B193119243
S11337A0CB010C94D31BDC01FC01672F71917723AF
S11337B0E1F7329704C07C916D9370836291AE17E8
S10D37C0BF07C8F30895F894FFCF83
S11337CA0200000070410000C8C30AD7233CCDCCD4
S11337DA4C3E0000803FDB0F49403333333FCDCCAE
S11337EACC3DCDCCCC3D00C07F4400C07F4400001A
S11337FAB44300E10000000008DB0FC9BFC3B832BC
S113380ABFC3B8B2BE00000000C3B8B23EC3B832E8
S113381A3FDB0FC93F378D2740DB0F4940378D27E0
S105382AC000D8
S9030000FC
