:100000000C9421010C943E010C943E010C94110AB5
:100010000C943E010C943E010C943E010C943E0164
:100020000C943E010C943E010C94B10F0C94EF0F14
:100030000C943E010C943E010C943E010C943E0144
:100040000C943E010C94EF090C94FB090C94060AE5
:100050000C943E010C943E010C943E010C94250A34
:100060000C943E010C943E010C943E010C943E0114
:100070000C943E010C943E010C943E010C943E0104
:100080000C943E010C943E010C943E010C943E01F4
:100090000C943E010C943E010C943E010C943E01E4
:1000A0000C943E010C943E010C943E0197099A0970
:1000B0009D09A809B309BB09B609B909DE14FE14E4
:1000C0001E153E155E157E159E15BE15DE15FE1518
:1000D0001E163E16084AD73B3BCE016E84BCBFFDC0
:1000E000C12F3D6C74319ABD56833DDA3D00C77F08
:1000F00011BED9E4BB4C3E916BAAAABE00000080A1
:100100003F05A84CCDB2D44EB93836A9020C50B92F
:10011000918688083CA6AAAA2ABE000000803F005B
:1001200000010000B7011200020000740143000347
:100130000000700104010309045C011202030904B8
:10014000540106030309044A01080803340031007E
:100150003000000006034D003200000012034A0088
:100160002E0020004600690065006E00650000005A
:100170000403090409024300020100C0320904001B
:100180000001020201000524001001052401010103
:10019000042402060524060001070582031000401E
:1001A00009040100020A00000007050302400000E4
:1001B000070584024000001201000202000010C086
:1001C000167A040001010203010001C11201803608
:1001D0000181362020495231353A200020204952F1
:1001E00031343A20002020495231333A2000202077
:1001F000495231312C31323A2000202049523130DD
:100200003A200020204952393A2000202049523813
:100210003A200020204952352C362C373A20002035
:10022000204952343A200020204952333A200020FD
:10023000204952323A20000A4952312C31363A20B4
:10024000000011241FBECFEFDAE0DEBFCDBF11E00A
:10025000A0E0B1E0E2E5F5E302C005900D92AA3519
:10026000B107D9F721E0AAE5B1E001C01D92A53E92
:10027000B207E1F70E94C8090C94A71A0C94000079
:10028000CF93DF93E1E6F0E080E88083108285BFC2
:1002900085BF50985198209A219A229A239A3E9A83
:1002A0003F9A289829982A982B98469847980E9410
:1002B000720E0E94F9118823E1F378940E943D0F99
:1002C0004AE060E281E00E94830E8823C9F3E1E8FE
:1002D000F0E080818B7F808380818D7F808380812F
:1002E0008E7F808380818F7E808380818860808301
:1002F000E0E8F0E080818D7F808380818E7F808345
:1003000080818F7D808380818F7E8083C8E8D0E06C
:100310008AEA99E2998388836881798180E090E014
:100320000E945F182DEC3CEC4CEC5DE30E948419BC
:100330000E94301870938B0060938A0068817981E5
:1003400080E090E00E945F182DEC3CEC4CEC5DE30B
:100350000E9484190E94301870938D0060938C0065
:10036000EFE6F0E08081826080838081846080831A
:10037000808188608083E1E9F0E080818B7F8083E9
:1003800080818D7F808380818160808380818F7E6A
:100390008083808188608083E0E9F0E080818D7FC8
:1003A000808380818E7F808380E89EE39093990094
:1003B0008093980085B58B7F85BD85B58D7F85BD84
:1003C00085B58E7F85BD85B5877F85BD84B58D7FDD
:1003D00084BD84B58E7F84BDEEE6F0E080818160CF
:1003E0008083CCE7D0E088818F77888388818064A0
:1003F0008883EAE7F0E080818B7F80838081826060
:100400008083808181608083AEE7B0E08C918160E1
:100410008C938C9182608C938C9180618C938C9165
:1004200080628C938C9180648C938C9180688C9387
:10043000ADE7B0E08C9181608C938C9182608C935D
:100440008C9184608C938C9188608C938C9180616A
:100450008C938C9180628C9380818F7D8083ABE7BD
:10046000B0E08C9180628C938881846088838881DD
:100470008D7F888388818160888380818068808384
:10048000808180648083DF91CF91089582309105CF
:10049000F9F02CF4009751F0019789F042C08430B4
:1004A000910551F1F4F0059791F13BC0EAE5F1E0D7
:1004B0001182108281E090E09383828332C0EAE56A
:1004C000F1E01182108282E090E09383828329C060
:1004D000EAE5F1E01182108283E090E09383828369
:1004E00020C0EAE5F1E081E090E09183808382E042
:1004F00090E09383828315C0EAE5F1E081E090E02B
:100500009183808383E090E0938382830AC0EAE54D
:10051000F1E082E090E09183808383E090E0938338
:1005200082838AE591E008952F923F924F925F92E5
:100530006F927F928F929F92AF92BF92CF92DF92F3
:10054000EF92FF920F931F93CF93DF9300D000D0D1
:10055000CDB7DEB75C014A013A832983062F172FF6
:10056000F80141905190619071908F011C821B8223
:10057000212C312C12C0F801C190D190E190F19062
:100580008F01A7019601C301B2010E9477191816C5
:1005900024F4260137012B803C808B819C810196BD
:1005A0009C838B83069739F7822D932D0E944602F8
:1005B000FC012081318162817381F501408151818B
:1005C0002417350759F4F40131832083F501828122
:1005D0009381E981FA819183808337C0F50182811B
:1005E00093812817390759F4F40131832083F501E9
:1005F00080819181E981FA819183808326C064178B
:10060000750759F4F40171836083F5018281938148
:10061000E981FA819183808318C06817790759F4BA
:10062000F40171836083F50180819181E981FA8110
:10063000918380830AC0F40191838083F5018081D6
:100640009181E981FA81918380830F900F900F90BF
:100650000F90DF91CF911F910F91FF90EF90DF905E
:10066000CF90BF90AF909F908F907F906F905F9052
:100670004F903F902F9008952F923F924F925F920C
:100680006F927F928F929F92AF92BF92CF92DF92A2
:10069000EF92FF920F931F93CF93DF93CDB7DEB707
:1006A000C254D1090FB6F894DEBF0FBECDBF2C01E6
:1006B000FC010480F581E02DFAA3E9A3FC0100818F
:1006C000118169A17AA1601B710B072E000C880BA8
:1006D000990B0E9461186B017C01F2010680F78181
:1006E000E02DFEA3EDA3F20122803380ADA0BEA0D9
:1006F000A218B3089B01AC010E94841969A77AA7CC
:100700008BA79CA7AA9C4001AB9C900C900C112439
:10071000092C000CAA08BB08A7019601C701B60165
:100720000E9484196B017C01C501B4010E9461180B
:100730009B01AC01C701B6010E94CF160E94FF19B0
:100740006BAF7CAF8DAF9EAFF2010084F185E02DE1
:10075000FAA7E9A7BF01601B710B072E000C880BDD
:10076000990B0E9461186B017C01F2016284738411
:100770005301A218B3089B01AC010E9484196DA714
:100780007EA78FA798ABAA9C4001AB9C900C900CC5
:100790001124092C000CAA08BB08A7019601C70167
:1007A000B6010E9484196B017C01C501B4010E944D
:1007B00061189B01AC01C701B6010E94CF160E94CF
:1007C000FF1923966CAF7DAF8EAF9FAF2397F201D9
:1007D0000484F585E02DFEA7EDA7BF01601B710B1A
:1007E000072E000C880B990B0E9461184B015C01CD
:1007F000F2010684F785E02DFAABE9AB8F0102190F
:1008000013099B01AC010E9484196BAB7CAB8DABCF
:100810009EAB009F6001019FD00CD00C11240D2CC9
:10082000000CEE08FF08A5019401C501B4010E9467
:1008300084194B015C01C701B6010E9461189B013C
:10084000AC01C501B4010E94CF160E94FF196BAB29
:100850007CAB8DAB9EAB69A57AA529A13AA1621BA1
:10086000730B072E000C880B990B0E9461184B012B
:100870005C0183014DA15EA1041B150B9B01AC0122
:100880000E9484196FAB78AF89AF9AAF009F600167
:10089000019FD00CD00C11240D2C000CEE08FF0889
:1008A000A5019401C501B4010E9484194B015C01AA
:1008B000C701B6010E9461189B01AC01C501B401DA
:1008C0000E94CF160E94FF196FAB78AF89AF9AAF25
:1008D0006DA57EA589A19AA1681B790B072E000C36
:1008E000880B990B0E9461184B015C0109A91AA998
:1008F000EDA1FEA10E1B1F0B9B01AC010E948419F0
:1009000069A37AA38BA39CA3009F6001019FD00CD5
:10091000D00C11240D2C000CEE08FF08A501940149
:10092000C501B4010E9484194B015C01C701B601E5
:100930000E9461189B01AC01C501B4010E94CF1651
:100940000E94FF194B015C016DA57EA529A53AA562
:10095000621B730B072E000C880B990B0E94611809
:1009600069A37AA38BA39CA309A91AA9061917093D
:100970009B01AC010E9484196DA37EA38FA398A74D
:10098000009F6001019FD00CD00C11240D2C000C95
:10099000EE08FF0829A13AA14BA15CA1CA01B90147
:1009A0000E94841969A37AA38BA39CA3C701B601F3
:1009B0000E9461189B01AC0169A17AA18BA19CA145
:1009C0000E94CF160E94FF192BAD3CAD4DAD5EAD20
:1009D00029833A834B835C8323962CAD3DAD4EAD8A
:1009E0005FAD23972D833E834F8358872BA93CA966
:1009F0004DA95EA929873A874B875C872FA938AD17
:100A000049AD5AAD2D873E874F87588B898A9A8A80
:100A1000AB8ABC8A6D8B7E8B8F8B988FAE014F5FBC
:100A20005F4F7A0100E010E0612C712CC12CD12CB9
:100A3000212C312CF70181909190A190B1907F01F0
:100A4000262D372D4C2D5D2DC501B4010E9477193F
:100A5000181634F4682C792CCA2CDB2C202E312E5D
:100A60000F5F1F4F0630110529F7822D932D0E942D
:100A70004602FC01E080F180FA8EE98E028113814A
:100A80001C8F0B8FEE0CFF1CEE0CFF1CE40CF51CF6
:100A9000000F111F000F111F040D151DF7016081BC
:100AA0007181F80180819181680F791F772314F497
:100AB0006F5F7F4F75956795072E000C880B990B1C
:100AC0000E9461184B015C01F70162817381F8019A
:100AD00082819381680F791F772314F46F5F7F4FB2
:100AE00075956795072E000C880B990B0E9461186D
:100AF00069A37AA38BA39CA39E01215E3F4FAE0105
:100B0000435E5F4FBE016F5F7F4FCE0149960E94EB
:100B100094020D8D1E8D000F111F000F111F040D6B
:100B2000151D2F8C38A0220C331C220C331C240CD6
:100B3000351CF80160817181F10180819181681B10
:100B4000790B072E000C880B990B0E9461186B0122
:100B50007C01F80162817381F10182819381681BBC
:100B6000790B072E000C880B990B0E946118905886
:100B7000A70196010E944E172BED3FE049EC5FE381
:100B80000E94CF166B017C01A501940160E070E02A
:100B900080E094E40E94CE164B015C0129A13AA1A9
:100BA0004BA15CA160E070E08FEB93E40E94CE1655
:100BB0002B013C01C701B6010E94F11969A37AA378
:100BC0008BA39CA3C701B6010E94B2176DA37EA39D
:100BD0008FA398A70EE511E029A13AA14BA15CA132
:100BE000C301B2010E94841969A77AA78BA79CA7A9
:100BF0002DA13EA14FA158A5C501B4010E948419A1
:100C00009B01AC0169A57AA58BA59CA50E94CE1677
:100C1000F80160837183828393832DA13EA14FA14C
:100C200058A5C301B2010E9484192B013C0129A1DE
:100C30003AA14BA15CA1C501B4010E9484199B019A
:100C4000AC01C301B2010E94CF16F8016483758321
:100C500086839783F7FAF094F7F8F094C086D186EC
:100C6000E286F386C801CE5BDF4F0FB6F894DEBF95
:100C70000FBECDBFDF91CF911F910F91FF90EF90ED
:100C8000DF90CF90BF90AF909F908F907F906F90AC
:100C90005F904F903F902F9008954F925F926F9288
:100CA0007F92AF92BF92CF92DF92EF92FF920F931B
:100CB0001F93CF93DF93CDB7DEB768970FB6F89445
:100CC000DEBF0FBECDBFFC010DB71EB78081918185
:100CD0009A838983808591859C838B83828193818C
:100CE0009E838D838285938598878F838481958168
:100CF0009A878987848595859C878B87868197814C
:100D00009E878D8786859785988B8F87FE01719644
:100D100088E0DF011D928A95E9F7709720E030E0C6
:100D200080E090E0408151814F3F534071F0DC0101
:100D3000AA0FBB1F41E050E04C0F5D1FA40FB51F71
:100D400051963C932E93509701962F5F3F4F3496C8
:100D50002430310539F7009709F489C0EDB6FEB6A5
:100D60006C01CC0CDD1CCC0CDD1CADB7BEB7AC19D6
:100D7000BD090FB6F894BEBF0FBEADBFEDB7FEB74D
:100D800031965F011816190624F59E012F5E3F4F1C
:100D9000DF01CE0EDF1EF901419151919F01FA0151
:100DA000EE0FFF1FEE0FFF1F41E050E04C0F5D1FE5
:100DB000E40FF51F4081518111965C934E9342815F
:100DC000538113965C934E9312971496AC15BD0500
:100DD00011F7DB014D905D906D907C901397E6E7E5
:100DE000F1E0408251826282738214964D905D9050
:100DF0006D907C9017974482558266827782189610
:100E00004D915D916D917C911B97408751876287D1
:100E10007387049729F4C5010E943C03DC0102C0DA
:100E2000A6E7B1E04D915D916D917C911397EAE653
:100E3000F1E0408351836283738314964D915D91F9
:100E40006D917C91179744835583668377831896B9
:100E50008D919D910D90BC91A02D80879187A28747
:100E6000B3870FB6F894FEBE0FBEEDBE20C0FB01E7
:100E700080819181A281B381EAE6F1E08083918350
:100E8000A283B383DB011496CD90DD90ED90FC90AE
:100E90001797C482D582E682F78218964D915D91AC
:100EA0006D917C911B9740875187628773878AE693
:100EB00091E00FB6F8941EBF0FBE0DBF68960FB637
:100EC000F894DEBF0FBECDBFDF91CF911F910F9180
:100ED000FF90EF90DF90CF90BF90AF907F906F909A
:100EE0005F904F900895AF92BF92CF92DF92EF92B2
:100EF000FF920F931F93C19AA0900C01B0900D0127
:100F0000C0900E01D0900F01E0901001F0901101FF
:100F100000911201109113012091AB013091AC01AD
:100F20004091AD015091AE016091AF017091B0015F
:100F30008091B1019091B201E0910301EF93E091B2
:100F40000201EF93E0910101EF93E0910001EF9333
:100F5000E0910701EF93E0910601EF93E091050125
:100F6000EF93E0910401EF93E091AA01EF93E091F8
:100F7000A901EF93E091A801EF93E091A701EF930E
:100F8000E0910B01EF93E0910A01EF93E0910901E9
:100F9000EF93E0910801EF930E94C80B8DB79EB7C5
:100FA00040960FB6F8949EBF0FBE8DBF1F910F9154
:100FB000FF90EF90DF90CF90BF90AF9008950E9488
:100FC000A114882309F453C0809192019091930158
:100FD000A0919401B09195018093AF019093B001DD
:100FE000A093B101B093B20180918E0190918F01D5
:100FF000A0919001B09191018093AB019093AC01CD
:10100000A093AD01B093AE018BED9FE0A9ECBFE3DF
:1010100080930C0190930D01A0930E01B0930F01EA
:101020008DEC9CECACE4BDE38093A7019093A80108
:10103000A093A901B093AA018AE999E9A9E9BFE3BC
:101040008093080190930901A0930A01B0930B01CA
:101050008DEC9CECACE4BFE3809310019093110104
:10106000A0931201B09313016A9A729A08950E9494
:10107000A11481114EC08091860190918701A091A9
:101080008801B09189018093AF019093B001A09342
:10109000B101B093B2018091820190918301A0913E
:1010A0008401B09185018093AB019093AC01A09332
:1010B000AD01B093AE018BED9FE0A9E4B0E4809365
:1010C0000C0190930D01A0930E01B0930F011092AB
:1010D000A7011092A8011092A9011092AA0186E618
:1010E00096E6A6EEBFE38093080190930901A093D2
:1010F0000A01B0930B018DEC9CECACE4BFE3809350
:10110000100190931101A0931201B09313016A9AF8
:1011100072980895CF93DF93CDB7DEB728970FB6B7
:10112000F894DEBF0FBECDBFEAE7F0E080818061BA
:1011300080830E94CB148823E1F0CE0101960E94A7
:10114000AD1389819A81AB81BC8180938601909394
:101150008701A0938801B09389018D819E81AF8121
:10116000B8858093820190938301A0938401B0930A
:10117000850128960FB6F894DEBF0FBECDBFDF9174
:10118000CF9108958130910541F08230910541F071
:10119000892B41F4479846980895469A47980895B0
:1011A0004698479A0895E1E8F0E080818160808365
:1011B00080918C0190918D010E94C2080895E1E810
:1011C000F0E080818E7F808328982A9880E090E0EC
:1011D0000E94C20808950E94DF0820E030E0A901C3
:1011E0006091920170919301809194019091950189
:1011F0000E94771918169CF480E090E0A8ECB3ECFC
:101200008093920190939301A0939401B0939501E0
:1012100082E090E090938D0180938C01089580E0AE
:1012200090E0A8ECB3E48093920190939301A09393
:101230009401B093950181E090E090938D018093AB
:101240008C010895CF93DF93CDB7DEB72C970FB6FF
:10125000F894DEBF0FBECDBF0E94C80ACE01019632
:101260000E94610A69817A818B819C810E94291880
:10127000CB010E948E1120E030E0A90169817A81C2
:101280008B819C810E94771918169CF480E090E075
:10129000A8ECB3EC8093920190939301A0939401F6
:1012A000B093950182E090E090938D0180938C0142
:1012B00012C080E090E0A8ECB3E480939201909398
:1012C0009301A0939401B093950181E090E09093F5
:1012D0008D0180938C012C960FB6F894DEBF0FBE63
:1012E000CDBFDF91CF91089580918A0190918B01BC
:1012F000892B11F40E94220985B5846085BD85B5CE
:10130000816085BD80918C0190918D010E94C20801
:101310000895E0919C018E2F90E0FC01E05AF109C4
:10132000E830F10540F5EA5AFF4F0C946C1A0E9420
:10133000740908950E94D3080895EDE9F1E08181D0
:1013400080939B01828180939A010E94DF08089517
:10135000EDE9F1E0818180939B01828180939A0184
:101360000E94DF0808950E94DF0808950E94EB089C
:1013700008950E94DF0808956AE08DE991E00E94D7
:10138000D90E80919D0180939C010E948909089546
:101390006E9A76980E9440010E94DF086A9A7298BD
:1013A000CAE7D0E010E40E94C80A888184FD0E9448
:1013B0008A080E94DF07C1990E94730780919801F3
:1013C00090919901892B79F31092990110929801CB
:1013D0006E9A8EB181278EB90E94BC09E4CF1F920C
:1013E0000F920FB60F921124289A2A9A0F900FBECF
:1013F0000F901F9018951F920F920FB60F92112405
:1014000028980F900FBE0F901F9018951F920F9263
:101410000FB60F9211242A980F900FBE0F901F90B5
:1014200018951F920F920FB60F9211248F939F93CE
:1014300081E090E090939901809398019F918F9122
:101440000F900FBE0F901F9018951F920F920FB61E
:101450000F9211242F933F934F935F936F937F933A
:101460008F939F93AF93BF93EF93FF9380919601D8
:10147000909197018A30910534F4019690939701E9
:10148000809396010DC080E090E00E94C20885B56F
:101490008B7F85BD85B58D7F85BD85B58E7F85BDEF
:1014A000FF91EF91BF91AF919F918F917F916F913C
:1014B0005F914F913F912F910F900FBE0F901F9012
:1014C0001895FC018091C3019091C401A091C501C0
:1014D000B091C60180839183A283B3838091BF01C1
:1014E0009091C001A091C101B091C2018483958304
:1014F000A683B7838091BB019091BC01A091BD01EF
:10150000B091BE0180879187A287B38781E008955B
:101510008F929F92AF92BF92CF92DF92EF92FF9203
:101520006B017C014B015C01E894B7F82BED3FE0C7
:1015300049E450E4C501B4010E9477191816BCF4BF
:101540002BED3FE049EC50E4C701B6010E9484193D
:10155000A50194010E94B7179B01AC01C701B60118
:101560000E94CE16562F472F382F292F04C05C2DEE
:101570004D2D3E2D2F2D652F742F832F922FFF90F1
:10158000EF90DF90CF90BF90AF909F908F90089595
:101590002F923F924F925F926F927F928F929F9283
:1015A000AF92BF92CF92DF92EF92FF920F931F9371
:1015B000CF93DF93CDB7DEB7A8970FB6F894DEBF11
:1015C0000FBECDBFCE0101960E941A136B817C81A4
:1015D0000F81188549855A85AD85BE852F85388947
:1015E000EB89FC898D899E89E980FA80FA8EE98EE3
:1015F0001C8F0B8FBE8FAD8FF8A3EF8F7AA369A3DB
:101600005CA34BA33EA32DA398A78FA36CE171E02D
:10161000CE0149960E944D068C01FC018085918582
:10162000A285B3850F2EFCE12F2EF1E03F2EF02D89
:10163000F10180879187A287B387F8016085718562
:10164000828593850E94880A2B013C01F8016087FE
:1016500071878287938724EA30E74DE75FE36081F3
:101660007181828193810E9484194B015C0120E089
:1016700037ED43E25CE36091C3017091C401809156
:10168000C5019091C6010E9484199B01AC01C5015E
:10169000B4010E94CF164B015C016093C3017093AB
:1016A000C4018093C5019093C60124EA30E74DE759
:1016B0005FE3F80164817581868197810E948419B6
:1016C0006B017C0120E037ED43E25CE36091BF01F8
:1016D0007091C0018091C1019091C2010E94841952
:1016E0009B01AC01C701B6010E94CF166B017C01C2
:1016F0006093BF017093C0018093C1019093C201B8
:1017000024EA30E74DE75FE3C301B2010E94841988
:101710002B013C0120E037ED43E25CE36091BB012B
:101720007091BC018091BD019091BE010E9484190D
:101730009B01AC01C301B2010E94CF166093BB01B3
:101740007093BC018093BD019093BE01F101808232
:101750009182A282B382C482D582E682F782A89661
:101760000FB6F894DEBF0FBECDBFDF91CF911F91B2
:101770000F91FF90EF90DF90CF90BF90AF909F9030
:101780008F907F906F905F904F903F902F90089533
:101790004F925F926F927F928F929F92AF92BF9281
:1017A000CF92DF92EF92FF920F931F93CF93DF932D
:1017B000CDB7DEB768970FB6F894DEBF0FBECDBFCA
:1017C00029013A01E98AFA8A0B8B1C8B2091C3010B
:1017D0003091C4014091C5015091C6010E94CE16BE
:1017E0006D837E838F8398872091BF013091C001E4
:1017F0004091C1015091C201C301B2010E94CE16B5
:1018000069877A878B879C872D813E814F81588598
:101810000E944E172091BB013091BC014091BD0147
:101820005091BE010E94CE160E94880A69837A8375
:101830008B839C832B013C01E89477F8A6019501EA
:10184000C301B2010E947719181684F429813A81E4
:101850004B815C81C301B2010E94B717A6019501BB
:101860000E94841969837A838B839C832091B701BA
:101870003091B8014091B9015091BA0169817A81E2
:101880008B819C810E94CE162FE632E143E85AE319
:101890000E94B7176D8B7E8B8F8B988F29813A8131
:1018A0004B815C816BA57CA58DA59EA50E948419AA
:1018B0006B017C012D893E894F89588D6FA578A9D0
:1018C00089A99AA90E9484199B01AC01C701B6019C
:1018D0000E94CE1629813A814B815C812093B70109
:1018E0003093B8014093B9015093BA012BED3FE01A
:1018F00049E450E40E94B7176D877E878F87988BE5
:1019000069817A818B819C810E94B2172B013C01F5
:1019100029853A854B855C85CA01B9010E948419E5
:101920006B017C012D813E814F815885CA01B9012F
:101930000E9484199B01AC01C701B6010E94CF1619
:101940000E94FF199B01AC01C301B2019F770E9465
:1019500084196B017C010E94A1148823E1F020E02E
:1019600030E0A901C701B6010E94AD1788235CF0E1
:1019700020E030E040EF51E4C701B6010E94CF16ED
:101980006B017C0108C00F2EC12CD12CF0EFEF2E83
:10199000F1E4FF2EF02D2091B3013091B40140917C
:1019A000B5015091B601C701B6010E94CE162FE6CF
:1019B00032E143E85AE30E94B7174B015C01A701EB
:1019C00096016BA97CA98DA99EA90E9484192B015F
:1019D0003C01A50194016FA978AD89AD9AAD0E9433
:1019E00084199B01AC01C301B2010E94CE162B01E8
:1019F0003C01C092B301D092B401E092B501F092E3
:101A0000B60120E030E040E252E40E947719181657
:101A100044F40F2E412C512CF0E26F2EF2E47F2E75
:101A2000F02D20E030E040E252E4C301B2010E9418
:101A3000B7176B017C012DEC3CEC4CEC5DE3C50170
:101A4000B4010E94AD1788230CF52AE037ED43E27C
:101A50005CE36D897E898F89988D0E94AD178823FC
:101A6000ACF42DEC3CEC4CE45EE369817A818B8133
:101A70009C819F770E94841929813A814B815C81E6
:101A80000E94B7176D877E878F87988B8D849E8481
:101A9000AF84B888B7FAB094B7F8B09469817A8106
:101AA0008B819C819F772BED3FE049EC5FE30E94A7
:101AB000AD1788230CF52D853E854F855889C701C4
:101AC000B6010E94CE16609318017093190180939D
:101AD0001A0190931B01A70196016D857E858F8564
:101AE00098890E94CF16609314017093150180931A
:101AF0001601909317011EC0A7019601C501B401FC
:101B00000E94CE16609318017093190180931A01F8
:101B100090931B01A70196016D857E858F8598891D
:101B20000E94CE16609314017093150180931601E4
:101B30009093170120E030E0A901609118017091A5
:101B4000190180911A0190911B010E94AD17882301
:101B500014F4299801C0299A20E030E0A90160918D
:101B600014017091150180911601909117010E9446
:101B7000AD17882314F42B9801C02B9A809018017C
:101B800090901901A0901A01B0901B01E894B7F849
:101B90008092180190921901A0921A01B0921B0133
:101BA000C0901401D0901501E0901601F09017013B
:101BB000E894F7F8C0921401D0921501E092160152
:101BC000F0921701A7019601C501B4010E9477198F
:101BD00018162CF01C2D0D2D7E2C6F2C04C0182DEA
:101BE000092D7A2C6B2C29893A894B895C89612FC4
:101BF000702F872D962D0E947719181664F5212FC6
:101C0000302F472D562DC501B4010E94B7172989E1
:101C10003A894B895C890E948419609318017093FA
:101C2000190180931A0190931B01212F302F472D0A
:101C3000562DC701B6010E94B71729893A894B89E9
:101C40005C890E948419609314017093150180933C
:101C500016019093170108E810E0F8016081718186
:101C600080E090E00E945F182091180130911901E6
:101C700040911A0150911B010E9484190E94301852
:101C800070938B0060938A00F8016081718180E01D
:101C900090E00E945F18209114013091150140914D
:101CA0001601509117010E9484190E9430187093F8
:101CB0008D0060938C0068960FB6F894DEBF0FBE5F
:101CC000CDBFDF91CF911F910F91FF90EF90DF90EB
:101CD000CF90BF90AF909F908F907F906F905F90CC
:101CE0004F900895589A599A5A9A8CE08093B80068
:101CF000E9E6F0E080818062808380818F7E80834E
:101D0000EA9A789408951F93CF93DF93182FD62FD4
:101D1000C42F0E94720E94EA9093BC00ECEBF0E0AA
:101D200090819923ECF790E59093BB0094E8909311
:101D3000BC00ECEBF0E090819923ECF79091B900B6
:101D4000987F903229F484E98093BC0080E02DC014
:101D500081E08093BB0084E88093BC00ECEBF0E072
:101D600090819923ECF71093BB0084E88093BC002A
:101D7000ECEBF0E080818823ECF7D093BB0084E8A3
:101D80008093BC00ECEBF0E080818823ECF7C093FB
:101D9000BB0084E88093BC00ECEBF0E080818823FA
:101DA000ECF784E98093BC0081E0DF91CF911F9133
:101DB0000895CF93DF939C0184EA8093BC00ECEB01
:101DC000F0E090819923ECF781E58093BB0084E8F3
:101DD0008093BC00ECEBF0E090819923ECF78091CC
:101DE000B900887F883429F484E98093BC0080E0BE
:101DF00041C084EC8093BC00ECEBF0E0908199232F
:101E0000ECF74091BB00461309C0842F90E0019786
:101E10001816190644F040E050E01AC084E9809397
:101E2000BC0080E027C0D90150E041505109B90100
:101E3000640F751FECEBF0E084ECCBEBD0E080831B
:101E400090819923ECF798819D93A617B707B9F76E
:101E500084E88093BC00ECEBF0E090819923ECF7F0
:101E60008091BB00F901E40FF51F808384E9809322
:101E7000BC0081E0DF91CF91089581E08093D7008D
:101E800080EA8093D80082E189BD09B400FEFDCFCD
:101E900080E98093D8001092E0001092CA0110925D
:101EA000C7018CE08093E20078940895CF93DF938C
:101EB0009091CA01992309F44CC09FB7F89424E08B
:101EC0002093E9002091C801222349F02091E800E5
:101ED00025FD03C09FBF8FEF41C01092C801309114
:101EE000E400375E2091E80025FD24C09FBF90915B
:101EF000E400931781F09091CA01992361F1A9EE52
:101F0000B0E044E0E8EEF0E0C4EED0E00DC09FBFEA
:101F10009881931305C081E08093C8018FEF1EC0A4
:101F20009091CA019923C9F09FB7F8944C932081EE
:101F300025FFEDCF8093F1008091E80085FD03C07F
:101F40008AE38093E80085E08093C9019FBF80E029
:101F500005C08FEF03C08FEF01C08FEFDF91CF91EE
:101F600008951F920F920FB60F9211248F939F9393
:101F7000EF93FF93E1EEF0E08081108283FF11C0C8
:101F80001092E90091E09093EB001092EC0092E146
:101F90009093ED0098E09093F0001092CA01109297
:101FA000C70182FF13C08091CA01882379F0809114
:101FB000C901882359F081508093C901811106C05D
:101FC00084E08093E9008AE38093E800FF91EF9139
:101FD0009F918F910F900FBE0F901F9018951F9299
:101FE0000F920FB60F9211240F931F932F933F93CD
:101FF0004F935F936F937F938F939F93AF93BF9311
:10200000CF93DF93EF93FF931092E9008091E80064
:1020100083FF4CC1E1EFF0E06081808120819081FD
:1020200030E0392B4081908150E0592B7081C08184
:1020300092EF9093E800863009F058C004C081E226
:102040008093EB003AC166E080E291E0FC01A5914B
:10205000B4912A173B0711F0079623C0FC01329672
:10206000A591B4914A175B0711F007961AC0FC01BD
:10207000349645915491FC0136962491872F90E037
:102080009C2B8F3F910519F010F08FEF90E0821795
:1020900008F4282FA8EEB0E070E16EEFC1EFD0E0B9
:1020A00003C0615099F6CBCF8C91982F9570E1F3D6
:1020B00082FD03C1322F213108F0372F332309F479
:1020C000F9C0FA01832F9491988381503196811140
:1020D000FACF8FEF830F90E00196480F591F231B13
:1020E0006C932111E1CF3031F9F2E7C0853061F412
:1020F0008EEF8093E800E8EEF0E0808180FFFDCF76
:1021000020682093E300D9C0893009F035C06111FF
:10211000CDC02093CA011092C7011092C9018EEF61
:102120008093E80081E029EC31E0C9EED0E0ABEE2D
:10213000B0E00CEE10E06DEE70E08883A9014F5F17
:102140005F4FF90194919C93992361F0FA014491B6
:10215000F8014083F901329694912D5F3F4FFB01C6
:10216000908301C09A018F5F853039F7EAEEF0E085
:102170008EE180831082A1C0883081F4603809F03C
:1021800095C0E8EEF0E0808180FFFDCF8091CA012C
:102190008093F1008EEF8093E8008FC08132B9F414
:1021A000613A09F083C0E8EEF0E0808180FFFDCF66
:1021B000E8E2F1E02FE231E0A1EFB0E081918C9311
:1021C000E217F307D9F78EEF8093E80076C08032EC
:1021D000D1F4613209F06AC0E8EEF0E0808182FF5C
:1021E000FDCFE8E2F1E02FE231E0A1EFB0E08C9129
:1021F0008193E217F307D9F7E8EEF0E08BEF8083E5
:102200008EEF80835AC0823271F4613209F04EC081
:102210002093C701E8EEF0E0808180FFFDCF8EEFD4
:102220008093E8004AC081111AC0E8EEF0E0808196
:1022300080FFFDCF623851F4E9EEF0E040838091F9
:10224000EB0085FB882780F9108201C080E0E1EF78
:10225000F0E0808310828EEF8093E8002EC0982FEC
:102260009D7F913019F5623009F5232BF9F44F77F2
:102270009FEF940F9430D0F49EEF9093E80040933A
:10228000E900833021F481E28093EB0016C089E1FC
:102290008093EB0081E090E002C0880F991F4A957F
:1022A000E2F7EAEEF0E08083108207C081E28093DB
:1022B000EB0003C06C932111F7CEFF91EF91DF91FA
:1022C000CF91BF91AF919F918F917F916F915F91CE
:1022D0004F913F912F911F910F910F900FBE0F9033
:1022E0001F9018950F931F93CF938C010F5F1F4F73
:1022F000FC01C491CC2371F0CA3019F48DE00E9426
:10230000560F8C2F0E94560FF801C4910F5F1F4F7C
:10231000C111F2CFCF911F910F910895EF92FF92CB
:102320000F931F93CF93DF93CDB7DEB727970FB6E9
:10233000F894DEBF0FBECDBF8E010F5F1F4F27E0A9
:10234000F80111922A95E9F74AE0B8010E94721A41
:102350007E01F8E0EF0EF11CF80181918F018111EF
:102360000E94560F0E151F05B9F727960FB6F89461
:10237000DEBF0FBECDBFDF91CF911F910F91FF90B8
:10238000EF90089520E030E0ECEBF0E080818823CE
:1023900034F02F5F3F4F293E83E03807B9F781E0E3
:1023A000283E334009F480E008958093BB0084E820
:1023B0008093BC000E94C211882319F08091B9005B
:1023C000887F0895CF93C82F94EA9093BC000E9411
:1023D000C211882361F08C2F880F0E94D5118032A2
:1023E00029F484E98093BC0080E001C081E0CF91B2
:1023F00008950E94720E88E50E94E211882309F474
:10240000CDC080E30E94D511882309F4C9C081E0C2
:102410000E94D511882309F4C5C084E98093BC00CB
:1024200083EC99E00197F1F700C0000088E50E9475
:10243000E211882309F4B8C080E00E94D5118823F6
:1024400009F4B4C080E00E94D511882309F4B0C01B
:1024500080E00E94D511882309F4ACC080E00E947E
:10246000D511882309F4A8C080E00E94D5118823E3
:1024700009F4A4C080E00E94D511882309F4A0C00B
:1024800080E00E94D511882309F49CC080E90E9455
:10249000D511882309F498C084E98093BC0083ECAB
:1024A00099E00197F1F700C0000088E50E94E21171
:1024B000882309F48BC087E00E94D511882309F492
:1024C00087C080E00E94D511882309F483C081E48D
:1024D0000E94D511882309F47FC084E98093BC0051
:1024E00083EC99E00197F1F700C0000088E50E94B5
:1024F000E211882309F472C08AE10E94D511882371
:1025000009F46EC080E40E94D511882309F46AC0E2
:1025100080E00E94D511882309F466C084E9809385
:10252000BC0083EC99E00197F1F700C0000088E55A
:102530000E94E211882309F459C083E30E94D51157
:10254000882309F455C083E00E94D511882309F43B
:1025500051C084E98093BC0083EC99E00197F1F7C6
:1025600000C0000088E50E94E211882309F444C0FD
:1025700080E30E94D511882309F440C088E00E94BE
:10258000D5118823E9F184E98093BC0083EC99E0BC
:102590000197F1F700C0000081E0089580E0089500
:1025A00080E0089580E0089580E0089580E0089537
:1025B00080E0089580E0089580E0089580E0089527
:1025C00080E0089580E0089580E0089580E0089517
:1025D00080E0089580E0089580E0089580E0089507
:1025E00080E0089580E0089580E0089580E00895F7
:1025F00080E0089580E0089580E0089580E00895E7
:1026000080E00895CF93C82F84EA8093BC000E9495
:10261000C211882369F08C2F880F8F5F0E94D5111B
:10262000883429F484E98093BC0080E001C081E013
:10263000CF9108950F931F93CF93DF93CDB7DEB75C
:1026400060970FB6F894DEBF0FBECDBF8C01FE01C0
:10265000319680E1DF011D928A95E9F788E50E94B5
:10266000E211882309F469C086E30E94D51188230A
:1026700009F465C084E98093BC00B8E0BA95F1F72D
:10268000000088E50E940213882309F45AC0BE01A5
:102690006F5F7F4FAE01405F5F4FECEBF0E084EC8B
:1026A0002BEB30E0808390819923ECF7D9019C914A
:1026B000DB019D93BD01A417B507A1F784E88093C2
:1026C000BC00ECEBF0E080818823ECF78091BB004C
:1026D000888B84E98093BC00BE016C5F7F4FF8015A
:1026E000085E1F4FDB012C91322F3073CB01029714
:1026F000DC018C9190E0B0E13B9F800D911D112495
:1027000091838083422F407C50E0440F551F440F3B
:10271000551FCB010197DC018C91480F511D53834C
:1027200042832F7030E0358324836D5F7F4F369670
:10273000E017F107B9F681E005C080E003C080E052
:1027400001C080E060960FB6F894DEBF0FBECDBF2B
:10275000DF91CF911F910F9108952F923F924F9249
:102760005F926F927F928F929F92AF92BF92CF9221
:10277000DF92EF92FF920F931F93CF93DF93CDB72A
:10278000DEB762970FB6F894DEBF0FBECDBF9A8B4F
:10279000898BCE0101960E94610A0F2EFFEC8F2ECD
:1027A000F1E09F2EF02D0F2EF1E3EF2EF1E0FF2E42
:1027B000F02D0F2EF9E5AF2EF1E0BF2EF02D1D8686
:1027C0001E861F86188AC12CD12C212C312CF40195
:1027D000019111914F01C00ED11EF701419051900E
:1027E000619071907F01B801012E000C880B990B4C
:1027F0000E9461189B01AC01C301B2010E948419BF
:102800009B01AC016D857E858F8598890E94CF16CE
:102810006D877E878F87988B201631060CF4180100
:10282000EA14FB04A1F6F4E62F1631045CF4E989FE
:10283000FA89108211821282138214821582168202
:10284000178266C0B601DD0C880B990B0E946118D7
:102850009B01AC016D857E858F8598890E94B71795
:1028600029853A854B855C850E94CF166B017C01DA
:102870000E94B2174B015C016FEF73E0621973099C
:10288000072E000C880B990B0E9461182B013C014C
:1028900020E030E04FE254E4C501B4010E94841905
:1028A000A30192010E94841920E030E048E453E43F
:1028B0000E94B71729813A814B815C810E94CF1613
:1028C000E989FA896083718382839383C701B601A2
:1028D0000E94F11920E030E04FE254E40E94841994
:1028E0009B01AC01C301B2010E94841920E030E0D9
:1028F00048E453E40E94B7172D813E814F815885EB
:102900000E94CF16E989FA89648375838683978349
:1029100062960FB6F894DEBF0FBECDBFDF91CF91A8
:102920001F910F91FF90EF90DF90CF90BF90AF90ED
:102930009F908F907F906F905F904F903F902F90DF
:10294000089580917A00882314F52091CD0130916B
:10295000CE018091CB019091CC01820F931F8132E7
:10296000934044F085E090E09093300180932F01F4
:1029700081E0089580912F0190913001009749F0F6
:1029800001979093300180932F0181E0089580E0BA
:10299000089580E00895CF93DF93EAE7F0E0808127
:1029A0008F778083E091E301F091E401EC30F10551
:1029B00008F0E8C1E25AFF4F0C946C1A81E090E0F5
:1029C0009093E4018093E301EBE7F0E080818F7D59
:1029D0008083ECE7F0E080818B7F808380818D7F36
:1029E000808380818E7F80838091780090917900B0
:1029F0009093D4018093D30180E0C5C182E090E040
:102A00009093E4018093E301EBE7F0E080818F7D18
:102A10008083ECE7F0E080818B7F808380818D7FF5
:102A2000808380818160808380917800909179009B
:102A30009093D8018093D70180E0A5C183E090E016
:102A40009093E4018093E301EBE7F0E080818F7DD8
:102A50008083ECE7F0E080818460808380818D7FDB
:102A6000808380818E7F808380917800909179002F
:102A70009093CC018093CB0180E085C184E090E00D
:102A80009093E4018093E301EBE7F0E080818F7D98
:102A90008083ECE7F0E080818460808380818D7F9B
:102AA000808380818160808380917800909179001B
:102AB0009093DA018093D90180E065C185E090E0D0
:102AC0009093E4018093E301EBE7F0E080818F7D58
:102AD0008083ECE7F0E08081846080838081826085
:102AE000808380818E7F80838091780090917900AF
:102AF0009093DE018093DD0180E045C186E090E0A7
:102B00009093E4018093E301EBE7F0E080818F7D17
:102B10008083ECE7F0E08081846080838081826044
:102B2000808380818160808380917800909179009A
:102B30009093E0018093DF0180E025C187E090E081
:102B40009093E4018093E301EBE7F0E08081806201
:102B50008083ECE7F0E080818B7F808380818D7FB4
:102B6000808380818E7F808380917800909179002E
:102B70009093E2018093E10180E005C188E090E05C
:102B80009093E4018093E301EBE7F0E080818062C1
:102B90008083ECE7F0E080818B7F808380818D7F74
:102BA000808380818160808380917800909179001A
:102BB0009093D0018093CF0180E0E5C089E090E060
:102BC0009093E4018093E301EBE7F0E08081806281
:102BD0008083ECE7F0E080818B7F8083808182605E
:102BE000808380818E7F80838091780090917900AE
:102BF0009093DC018093DB0180E0C5C08AE090E027
:102C00009093E4018093E301EBE7F0E08081806240
:102C10008083ECE7F0E080818B7F8083808182601D
:102C20008083808181608083809178009091790099
:102C30009093D6018093D50180E0A5C08BE090E011
:102C40009093E4018093E301EBE7F0E08081806200
:102C50008083ECE7F0E080818460808380818D7FD9
:102C6000808380818E7F808380917800909179002D
:102C70009093D2018093D10180E085C01092E4014D
:102C80001092E301EBE7F0E0808180628083ECE763
:102C9000F0E080818460808380818D7F808380816B
:102CA0008160808380917800909179009093CE012B
:102CB0008093CD0187E392E00E947211CFECD1E0C6
:102CC000888199810E948E118FE292E00E94721198
:102CD0008A819B810E948E1187E292E00E9472118C
:102CE0008091CD019091CE010E948E118FE192E0F2
:102CF0000E9472118C819D810E948E1183E192E06D
:102D00000E9472118E819F810E948E118BE092E051
:102D10000E947211888599850E948E1183E092E04D
:102D20000E9472118091CB019091CC010E948E1172
:102D30008AEF91E00E9472118A859B850E948E1114
:102D40008EEE91E00E9472118C859D850E948E11FD
:102D500085EE91E00E9472118E859F850E948E11F2
:102D60008CED91E00E947211888999890E948E11E0
:102D700083ED91E00E9472118A899B890E948E11D5
:102D800081E001C080E0EAE7F0E090819068908304
:102D9000908190649083DF91CF9108955058BB2724
:102DA000AA270E94E6160C9429190E94F01838F000
:102DB0000E94F71820F039F49F3F19F426F40C9480
:102DC000C6180EF4E095E7FB0C94C018E92F0E949A
:102DD0004E1958F3BA17620773078407950720F056
:102DE00079F4A6F50C9470190EF4E0950B2EBA2F19
:102DF000A02D0B01B90190010C01CA01A001112401
:102E0000FF27591B99F0593F50F4503E68F11A16AC
:102E1000F040A22F232F342F4427585FF3CF46953D
:102E200037952795A795F0405395C9F77EF41F165F
:102E3000BA0B620B730B840BBAF09150A1F0FF0F29
:102E4000BB1F661F771F881FC2F70EC0BA0F621F15
:102E5000731F841F48F4879577956795B795F79505
:102E60009E3F08F0B0CF9395880F08F09927EE0F9A
:102E70009795879508950E94F01860F080E891E09A
:102E800009F49EEF0E94F71828F040E851E071F431
:102E90005EEF0CC00C94C6180C947019E92FE07802
:102EA0000E944E1940F3092E052AB1F32617370761
:102EB0004807590738F00E2E07F8E02569F0E0259D
:102EC000E0640AC0EF6307F8009407FADB01B90178
:102ED0009D01DC01CA01AD01EF930E94CE170E9453
:102EE00029190E947E175F91552339F02BED3FE0A1
:102EF00049E450FD49EC0C94CF160895DF93DD278B
:102F0000B92FBF7740E85FE31616170648075B073F
:102F100018F4D92F0E947C199F938F937F936F93FE
:102F20000E943F1AE4EDF0E00E94C9180E9429199E
:102F30002F913F914F915F910E949719DD2351F09E
:102F40009058A2EA2AED3FE049EC5FE3D0785D2794
:102F50000E94E616DF910C9429190E949C1808F42F
:102F600081E008950E940019E3950C943A190E949B
:102F7000CB170C9429190E94F71858F00E94F018EA
:102F800040F029F45F3F29F00C94C01851110C94C3
:102F900071190C94C6180E944E1968F39923B1F365
:102FA000552391F3951B550BBB27AA27621773076F
:102FB000840738F09F5F5F4F220F331F441FAA1F03
:102FC000A9F335D00E2E3AF0E0E832D091505040BF
:102FD000E695001CCAF72BD0FE2F29D0660F771F6D
:102FE000881FBB1F261737074807AB07B0E809F053
:102FF000BB0B802DBF01FF2793585F4F3AF09E3FD8
:10300000510578F00C94C0180C9471195F3FE4F3EB
:10301000983ED4F3869577956795B795F7959F5F1A
:10302000C9F7880F911D9695879597F90895E1E066
:10303000660F771F881FBB1F621773078407BA07C5
:1030400020F0621B730B840BBA0BEE1F88F7E09520
:1030500008950E9430186894B1110C947119089564
:103060000E94561988F09F5798F0B92F9927B751A9
:10307000B0F0E1F0660F771F881F991F1AF0BA951C
:10308000C9F714C0B13091F00E947019B1E00895F1
:103090000C947019672F782F8827B85F39F0B93FE3
:1030A000CCF3869577956795B395D9F73EF49095CF
:1030B0008095709561957F4F8F4F9F4F0895E8944D
:1030C00009C097FB3EF490958095709561957F4F70
:1030D0008F4F9F4F9923A9F0F92F96E9BB2793951E
:1030E000F695879577956795B795F111F8CFFAF42E
:1030F000BB0F11F460FF1BC06F5F7F4F8F4F9F4F5F
:1031000016C0882311F096E911C0772321F09EE8BC
:10311000872F762F05C0662371F096E8862F70E022
:1031200060E02AF09A95660F771F881FDAF7880FFC
:103130009695879597F90895990F0008550FAA0B52
:10314000E0E8FEEF16161706E807F907C0F01216BA
:103150001306E407F50798F0621B730B840B950BBD
:1031600039F40A2661F0232B242B252B21F4089512
:103170000A2609F4A140A6958FEF811D811D0895AF
:1031800097F99F6780E870E060E008959FEF80EC1A
:103190000895DF93CF931F930F93FF92EF92DF92E7
:1031A0007B018C01689406C0DA2EEF010E9497190A
:1031B000FE01E894A5912591359145915591A6F38D
:1031C000EF010E94E616FE019701A801DA9469F763
:1031D000DF90EF90FF900F911F91CF91DF910895B5
:1031E00000240A94161617061806090608950024E6
:1031F0000A94121613061406050608950C94C618B0
:103200000E945619D8F3E894E0E0BB279F57F0F0EE
:103210002AED3FE049EC06C0EE0FBB0F661F771F9B
:10322000881F28F0B23A62077307840728F0B25A61
:10323000620B730B840BE3959A9572F7803830F428
:103240009A95BB0F661F771F881FD2F790480C9482
:10325000451A092E0394000C11F4882352F0BB0F79
:1032600040F4BF2B11F460FF04C06F5F7F4F8F4F9E
:103270009F4F0895EF93E0FF07C0A2EA2AED3FE0D9
:1032800049EC5FEB0E94E6160E9429190F90039407
:1032900001FC9058E1E0F1E00C94581A57FD905869
:1032A000440F551F59F05F3F71F04795880F97FB0A
:1032B000991F61F09F3F79F08795089512161306C4
:1032C0001406551FF2CF4695F1DF08C016161706F3
:1032D0001806991FF1CF8695710561050894089528
:1032E000E894BB2766277727CB0197F908950E94BA
:1032F0009C1808F48FEF08959B01AC0160E070E02A
:1033000080E89FE30C94B7170E9497190C94291931
:103310000E94F01838F00E94F71820F0952311F061
:103320000C94C0180C94C61811240C9471190E94A6
:103330004E1970F3959FC1F3950F50E0551F629F92
:10334000F001729FBB27F00DB11D639FAA27F00DFE
:10335000B11DAA1F649F6627B00DA11D661F829F25
:103360002227B00DA11D621F739FB00DA11D621F0A
:10337000839FA00D611D221F749F3327A00D611D27
:10338000231F849F600D211D822F762F6A2F112409
:103390009F5750409AF0F1F088234AF0EE0FFF1F3C
:1033A000BB1F661F771F881F91505040A9F79E3F93
:1033B000510580F00C94C0180C9471195F3FE4F330
:1033C000983ED4F3869577956795B795F795E795E9
:1033D0009F5FC1F7FE2B880F911D9695879597F9F2
:1033E00008959F930E9400190F9007FCEE5F0C94C4
:1033F0003A1919F416F40C94C6180C94431A0E9446
:103400005619B8F39923C9F3B6F39F57550B87FFA5
:103410000E94511A0024A0E640EA90018058569577
:10342000979528F4805C660F771F881F20F0261779
:103430003707480730F4621B730B840B20293129AE
:103440004A2BA69517940794202531254A2758F72B
:10345000660F771F881F20F026173707480730F4BC
:10346000620B730B840B200D311D411DA09581F75C
:10347000B901842F9158880F9695879508959B01DF
:10348000AC010C9484199F3F31F0915020F4879542
:1034900077956795B795880F911D9695879597F9BC
:1034A000089591505040660F771F881FD2F70895F6
:1034B0009F938F937F936F93FF93EF939B01AC0147
:1034C0000E948419EF91FF910E94C9182F913F919A
:1034D0004F915F910C948419EE0FFF1F0590F491AA
:1034E000E02D0994BB274A3031F4992322F4BDE240
:1034F000909581959F4F0C947E1ABB27FB01552711
:10350000AA27880F991FAA1FA41710F0A41B839540
:103510005051B9F7A05DAA3308F0A95DA1930097B7
:1035200079F7B111B1931192CB010C94971ADC0188
:10353000FC01672F71917723E1F7329704C07C91EA
:103540006D9370836291AE17BF07C8F30895F89426
:02355000FFCFAB
:103552000AD7233CCDCC4C3E0000803FDB0F4940D4
:103562003333333FCDCCCC3DCDCCCC3D00C07F44BA
:1035720000C07F440000B44300E1000000000805E1
:1035820000DB0FC9BFC3B832BFC3B8B2BE00000070
:1035920000C3B8B23EC3B8323FDB0FC93F378D27F5
:0A35A20040DB0F4940378D27C000C1
:00000001FF
