:100000000C94EA000C9407010C9407010C94380935
:100010000C9407010C9407010C9407010C94070140
:100020000C9407010C9407010C94F70D0C94350EF9
:100030000C9407010C9407010C9407010C94070120
:100040000C9407010C9416090C9422090C942D09A8
:100050000C9407010C9407010C9407010C94070100
:100060000C9407010C9407010C9407010C940701F0
:100070000C9407010C9407010C9407010C940701E0
:100080000C9407010C9407010C9407010C940701D0
:100090000C9407010C9407010C9407010C940701C0
:1000A0000C9407010C9407010C940701E508E8087B
:1000B000EB08F60801090909040907099212B212AE
:1000C000D212F21212133213521372139213B2138A
:1000D000D213F213084AD73B3BCE016E84BCBFFD5E
:1000E000C12F3D6C74319ABD56833DDA3D00C77F08
:1000F00011BED9E4BB4C3E916BAAAABE00000080A1
:100100003F05A84CCDB2D44EB93836A9020C50B92F
:10011000918688083CA6AAAA2ABE000000803F005B
:1001200000010000B7011200020000740143000347
:100130000000700104010309045C011202030904B8
:10014000540106030309044A01080803340031007E
:100150003000000006034D003200000012034A0088
:100160002E0020004600690065006E00650000005A
:100170000403090409024300020100C0320904001B
:100180000001020201000524001001052401010103
:10019000042402060524060001070582031000401E
:1001A00009040100020A00000007050302400000E4
:1001B000070584024000001201000202000010C086
:1001C000167A040001010203010001C11201803608
:1001D0000181360011241FBECFEFDAE0DEBFCDBFB4
:1001E00011E0A0E0B1E0E2E7FFE202C005900D926D
:1001F000A435B107D9F721E0A4E5B1E001C01D9213
:10020000AA3DB207E1F70E9495080C94B7170C9429
:1002100000000F931F93CF93DF93E1E6F0E080E8B7
:100220008083108285BF85BF50985198209A219A6B
:10023000229A239A289829982A982B980E94130D7D
:100240000E94EF0F8823E1F378940E94DE0D4AE0CC
:1002500060E281E00E94240DE1E8F0E080818B7F84
:10026000808380818D7F808380818E7F8083808169
:100270008F7E8083808188608083E0E8F0E08081E9
:100280008D7F808380818E7F808380818F7D80833E
:1002900080818F7E808308E810E0C0E8DEE3F8010B
:1002A000D183C0836081718180E090E00E94A415B9
:1002B0002DEC3CEC4CEC5DE30E94C9160E947515D8
:1002C00070938B0060938A00F8016081718180E0F7
:1002D00090E00E94A4152DEC3CEC4CEC5DE30E94F8
:1002E000C9160E94751570938D0060938C00EFE61F
:1002F000F0E080818260808380818460808380815F
:1003000088608083E1E9F0E080818B7F8083808159
:100310008D7F808380818160808380818F7E8083D8
:10032000808188608083E0E9F0E080818D7F808338
:1003300080818E7F8083D0939900C0939800CCE712
:10034000D0E088818F778883888180648883EAE71A
:10035000F0E080818B7F80838081826080838081D8
:1003600081608083AEE7B0E08C9181608C938C914A
:1003700082608C938C9180618C938C9180628C9341
:100380008C9180648C938C9180688C93ADE7B0E005
:100390008C9181608C938C9182608C938C91846021
:1003A0008C938C9188608C938C9180618C938C91D0
:1003B00080628C9380818F7D8083ABE7B0E08C91ED
:1003C00080628C9388818460888388818D7F888314
:1003D0008881816088838081806880838081806457
:1003E0008083DF91CF911F910F9108958230910505
:1003F000F9F02CF4009751F0019789F042C0843055
:10040000910551F1F4F0059791F13BC0E4E5F1E07D
:100410001182108281E090E09383828332C0E4E510
:10042000F1E01182108282E090E09383828329C000
:10043000E4E5F1E01182108283E090E0938382830F
:1004400020C0E4E5F1E081E090E09183808382E0E8
:1004500090E09383828315C0E4E5F1E081E090E0D1
:100460009183808383E090E0938382830AC0E4E5F4
:10047000F1E082E090E09183808383E090E09383D9
:10048000828384E591E008952F923F924F925F928C
:100490006F927F928F929F92AF92BF92CF92DF9294
:1004A000EF92FF920F931F93CF93DF9300D000D072
:1004B000CDB7DEB75C014A013A832983062F172F97
:1004C000F80141905190619071908F011C821B82C4
:1004D000212C312C12C0F801C190D190E190F19003
:1004E0008F01A7019601C301B2010E94BC16181624
:1004F00024F4260137012B803C808B819C8101965E
:100500009C838B83069739F7822D932D0E94F601E9
:10051000FC012081318142815381F50180819181EB
:100520002817390759F4F40131832083F5018281BA
:100530009381E981FA81918380833CC0F5016281D6
:1005400073812617370759F4F40131832083F501AD
:1005500080819181E981FA81918380832BC0481742
:10056000590759F4F40151834083F5018281938145
:10057000E981FA81918380831DC04617570759F49A
:10058000F40151834083F50180819181E981FA81F1
:10059000918380830FC06A9A729AF5018281938158
:1005A000F40191838083F50180819181E981FA8151
:1005B000918380830F900F900F900F90DF91CF91D8
:1005C0001F910F91FF90EF90DF90CF90BF90AF9071
:1005D0009F908F907F906F905F904F903F902F9063
:1005E00008952F923F924F925F926F927F928F92D7
:1005F0009F92AF92BF92CF92DF92EF92FF920F93B2
:100600001F93CF93DF93CDB7DEB7C254D1090FB696
:10061000F894DEBF0FBECDBF2C01FC010480F58134
:10062000E02DFAA3E9A3FC010081118169A17AA15F
:10063000601B710B072E000C880B990B0E94A615EE
:100640006B017C01F2010680F781E02DFEA3EDA392
:10065000F20122803380ADA0BEA0A218B3089B0196
:10066000AC010E94C91669A77AA78BA79CA7AA9C70
:100670004001AB9C900C900C1124092C000CAA0892
:10068000BB08A7019601C701B6010E94C9166B01FC
:100690007C01C501B4010E94A6159B01AC01C701F4
:1006A000B6010E941B140E9444176BAF7CAF8DAF44
:1006B0009EAFF2010084F185E02DFAA7E9A7BF0102
:1006C000601B710B072E000C880B990B0E94A6155E
:1006D0006B017C01F201628473845301A218B30898
:1006E0009B01AC010E94C9166DA77EA78FA798AB8E
:1006F000AA9C4001AB9C900C900C1124092C000C7E
:10070000AA08BB08A7019601C701B6010E94C91635
:100710006B017C01C501B4010E94A6159B01AC01CF
:10072000C701B6010E941B140E94441723966CAFA8
:100730007DAF8EAF9FAF2397F2010484F585E02D46
:10074000FEA7EDA7BF01601B710B072E000C880BE5
:10075000990B0E94A6154B015C01F2010684F785F6
:10076000E02DFAABE9AB8F01021913099B01AC0133
:100770000E94C9166BAB7CAB8DAB9EAB009F60013A
:10078000019FD00CD00C11240D2C000CEE08FF089A
:10079000A5019401C501B4010E94C9164B015C0179
:1007A000C701B6010E94A6159B01AC01C501B401A9
:1007B0000E941B140E9444176BAB7CAB8DAB9EABAD
:1007C00069A57AA529A13AA1621B730B072E000C1B
:1007D000880B990B0E94A6154B015C0183014DA16A
:1007E0005EA1041B150B9B01AC010E94C9166FABE7
:1007F00078AF89AF9AAF009F6001019FD00CD00CF9
:1008000011240D2C000CEE08FF08A5019401C50170
:10081000B4010E94C9164B015C01C701B6010E94D8
:10082000A6159B01AC01C501B4010E941B140E94D6
:1008300044176FAB78AF89AF9AAF6DA57EA589A13C
:100840009AA1681B790B072E000C880B990B0E944C
:10085000A6154B015C0109A91AA9EDA1FEA10E1B69
:100860001F0B9B01AC010E94C91669A37AA38BA33D
:100870009CA3009F6001019FD00CD00C11240D2C73
:10088000000CEE08FF08A5019401C501B4010E9407
:10089000C9164B015C01C701B6010E94A6159B0158
:1008A000AC01C501B4010E941B140E9444174B0106
:1008B0005C016DA57EA529A53AA5621B730B072EC9
:1008C000000C880B990B0E94A61569A37AA38BA331
:1008D0009CA309A91AA9061917099B01AC010E943A
:1008E000C9166DA37EA38FA398A7009F6001019FE7
:1008F000D00CD00C11240D2C000CEE08FF0829A1FF
:100900003AA14BA15CA1CA01B9010E94C91669A311
:100910007AA38BA39CA3C701B6010E94A6159B01D5
:10092000AC0169A17AA18BA19CA10E941B140E9419
:1009300044172BAD3CAD4DAD5EAD29833A834B835F
:100940005C8323962CAD3DAD4EAD5FAD23972D83DB
:100950003E834F8358872BA93CA94DA95EA92987BF
:100960003A874B875C872FA938AD49AD5AAD2D87A3
:100970003E874F87588B898A9A8AAB8ABC8A6D8B4F
:100980007E8B8F8B988FAE014F5F5F4F7A0100E0B7
:1009900010E0612C712CC12CD12C212C312CF701B1
:1009A00081909190A190B1907F01262D372D4C2DF3
:1009B0005D2DC501B4010E94BC16181634F4682CD4
:1009C000792CCA2CDB2C202E312E0F5F1F4F0630C6
:1009D000110529F7822D932D0E94F601FC01E0807C
:1009E000F180FA8EE98E028113811C8F0B8FEE0C41
:1009F000FF1CEE0CFF1CE40CF51C000F111F000F78
:100A0000111F040D151DF70160817181F8018081AE
:100A10009181680F791F772314F46F5F7F4F75956D
:100A20006795072E000C880B990B0E94A6154B01A9
:100A30005C01F70162817381F80182819381680F03
:100A4000791F772314F46F5F7F4F75956795072E95
:100A5000000C880B990B0E94A61569A37AA38BA39F
:100A60009CA39E01215E3F4FAE01435E5F4FBE01DE
:100A70006F5F7F4FCE0149960E9444020D8D1E8DFF
:100A8000000F111F000F111F040D151D2F8C38A012
:100A9000220C331C220C331C240C351CF801608101
:100AA0007181F10180819181681B790B072E000C07
:100AB000880B990B0E94A6156B017C01F8016281DD
:100AC0007381F10182819381681B790B072E000CE1
:100AD000880B990B0E94A6159058A70196010E94B9
:100AE0009A142BED3FE049EC5FE30E941B146B016D
:100AF0007C01A501940160E070E080E094E40E9434
:100B00001A144B015C0129A13AA14BA15CA160E040
:100B100070E08FEB93E40E941A142B013C01C70193
:100B2000B6010E94361769A37AA38BA39CA3C701C1
:100B3000B6010E94FE146DA37EA38FA398A708E5BB
:100B400011E029A13AA14BA15CA1C301B2010E940D
:100B5000C91669A77AA78BA79CA72DA13EA14FA173
:100B600058A5C501B4010E94C9169B01AC0169A535
:100B70007AA58BA59CA50E941A14F8016083718345
:100B8000828393832DA13EA14FA158A5C301B20139
:100B90000E94C9162B013C0129A13AA14BA15CA1DD
:100BA000C501B4010E94C9169B01AC01C301B20189
:100BB0000E941B14F8016483758386839783F7FA78
:100BC000F094F7F8F094C086D186E286F386C801E7
:100BD000CE5BDF4F0FB6F894DEBF0FBECDBFDF9107
:100BE000CF911F910F91FF90EF90DF90CF90BF902A
:100BF000AF909F908F907F906F905F904F903F90BD
:100C00002F9008954F925F926F927F92AF92BF9212
:100C1000CF92DF92EF92FF920F931F93CF93DF93C8
:100C2000CDB7DEB768970FB6F894DEBF0FBECDBF65
:100C3000FC010DB71EB7808191819A8389838085DD
:100C400091859C838B83828193819E838D83828512
:100C5000938598878F83848195819A8789878485F6
:100C600095859C878B87868197819E878D878685D2
:100C70009785988B8F87FE01719688E0DF011D9222
:100C80008A95E9F7709720E030E080E090E04081BD
:100C900051814F3F534071F0DC01AA0FBB1F41E06F
:100CA00050E04C0F5D1FA40FB51F51963C932E933F
:100CB000509701962F5F3F4F34962430310539F716
:100CC000009709F48BC0EDB6FEB66C01CC0CDD1CB0
:100CD000CC0CDD1CADB7BEB7AC19BD090FB6F8948E
:100CE000BEBF0FBEADBFEDB7FEB731965F011816A0
:100CF000190624F59E012F5E3F4FDF01CE0EDF1E49
:100D0000F901419151919F01FA01EE0FFF1FEE0F82
:100D1000FF1F41E050E04C0F5D1FE40FF51F4081C5
:100D2000518111965C934E934281538113965C934B
:100D30004E9312971496AC15BD0511F76E9A7698DE
:100D4000DB014D905D906D907C901397E0E7F1E0B2
:100D5000408251826282738214964D905D906D90B4
:100D60007C901797448255826682778218964D91BF
:100D70005D916D917C911B97408751876287738746
:100D8000049729F4C5010E94F102DC0102C0A0E72A
:100D9000B1E04D915D916D917C911397E4E6F1E0A6
:100DA000408351836283738314964D915D916D915D
:100DB0007C911797448355836683778318968D912A
:100DC0009D910D90BC91A02D80879187A287B387BC
:100DD0000FB6F894FEBE0FBEEDBE22C0FB018081AF
:100DE0009181A281B381E4E6F1E080839183A283C3
:100DF000B383DB011496CD90DD90ED90FC901797B6
:100E0000C482D582E682F78218964D915D916D91EC
:100E10007C911B9740875187628773876E9A769A79
:100E200084E691E00FB6F8941EBF0FBE0DBF689622
:100E30000FB6F894DEBF0FBECDBFDF91CF911F91EB
:100E40000F91FF90EF90DF90CF90BF90AF907F9089
:100E50006F905F904F900895AF92BF92CF92DF92C4
:100E6000EF92FF920F931F93C19AA0900801B09048
:100E70000901C0900A01D0900B01E0900C01F090A4
:100E80000D0100910E0110910F012091A1013091EF
:100E9000A2014091A3015091A4016091A50170911C
:100EA000A6018091A7019091A801E0919C01EF9388
:100EB000E0919B01EF93E0919A01EF93E09199010A
:100EC000EF93E0910301EF93E0910201EF93E09142
:100ED0000101EF93E0910001EF93E091A001EF9306
:100EE000E0919F01EF93E0919E01EF93E0919D01CE
:100EF000EF93E0910701EF93E0910601EF93E0910A
:100F00000501EF93E0910401EF930E94C30A8DB7AE
:100F10009EB740960FB6F8949EBF0FBE8DBF1F912F
:100F20000F91FF90EF90DF90CF90BF90AF9008951A
:100F30000E9471128823C9F18091880190918901E2
:100F4000A0918A01B0918B018093A5019093A60195
:100F5000A093A701B093A80180918401909185018D
:100F6000A0918601B09187018093A1019093A20185
:100F7000A093A301B093A4018BED9FE0A9ECBFE384
:100F80008093080190930901A0930A01B0930B018B
:100F900080E090E0A0E0BFE380930C0190930D010E
:100FA000A0930E01B0930F0108950E947112811158
:100FB00038C08091800190918101A0918201B0910F
:100FC00083018093A5019093A601A093A701B093FC
:100FD000A80180917C0190917D01A0917E01B0914A
:100FE0007F018093A1019093A201A093A301B093EC
:100FF000A4018BED9FE0A9E4B0E4809308019093F5
:101000000901A0930A01B0930B018AE999E9A9E9C2
:10101000BEE380930C0190930D01A0930E01B09359
:101020000F010895CF93DF93CDB7DEB728970FB6A2
:10103000F894DEBF0FBECDBFEAE7F0E080818061AB
:1010400080830E9481128823E1F0CE0101960E94E4
:10105000A31189819A81AB81BC8180938001909397
:101060008101A0938201B09383018D819E81AF8124
:10107000B88580937C0190937D01A0937E01B0930D
:101080007F0128960FB6F894DEBF0FBECDBFDF916B
:10109000CF910895CF93DF93CDB7DEB72C970FB6DE
:1010A000F894DEBF0FBECDBF0E94C309CE010196EA
:1010B0000E945C0920E030E0A90169817A818B817E
:1010C0009C810E94BC1618166CF480E090E0AFEA98
:1010D000B3EC8093880190938901A0938A01B09327
:1010E0008B010CC080E090E0AFEAB3E4809388010C
:1010F00090938901A0938A01B0938B012C960FB62F
:10110000F894DEBF0FBECDBFDF91CF910895E1E827
:10111000F0E08081816080830895E1E8F0E08081E3
:101120008E7F808328982A9808956E9A76980E94D8
:1011300009010E948D086A9A7298CAE7D0E00E945D
:10114000C309888184FD0E9412080E949807C19BF0
:10115000F6CF0E942C07F3CF0E948D0820E030E0EC
:10116000A901609188017091890180918A01909113
:101170008B010E94BC1618166CF480E090E0AFEA78
:10118000B3EC8093880190938901A0938A01B09376
:101190008B01089580E090E0AFEAB3E4809388018A
:1011A00090938901A0938A01B0938B010895E091F7
:1011B0008E018E2F90E0FC01E05AF109E830F10534
:1011C00040F5EA5AFF4F0C94B1170E944A0808955F
:1011D0000E9487080895EFE8F1E0818180938D01F6
:1011E000828180938C010E948D080895EFE8F1E0E0
:1011F000818180938D01828180938C010E948D0872
:1012000008950E948D0808950E94AC0808950E94D8
:101210008D0808956AE08FE891E00E947A0D809130
:101220008F0180938E010E94D70808951F920F921C
:101230000FB60F921124289A2A9A0F900FBE0F9082
:101240001F9018951F920F920FB60F921124289895
:101250000F900FBE0F901F9018951F920F920FB610
:101260000F9211242A980F900FBE0F901F9018957F
:101270001F920F920FB60F9211242F933F934F930B
:101280005F936F937F938F939F93AF93BF93EF93EE
:10129000FF930E940A09FF91EF91BF91AF919F9137
:1012A0008F917F916F915F914F913F912F910F900F
:1012B0000FBE0F901F901895FC018091B90190917D
:1012C000BA01A091BB01B091BC0180839183A2833C
:1012D000B3838091B5019091B601A091B701B0910F
:1012E000B80184839583A683B7838091B1019091DF
:1012F000B201A091B301B091B40180879187A28718
:10130000B38781E008958F929F92AF92BF92CF9260
:10131000DF92EF92FF926B017C014B015C01E8943C
:10132000B7F82BED3FE049E450E4C501B4010E9459
:10133000BC161816BCF42BED3FE049EC50E4C70195
:10134000B6010E94C916A50194010E9403159B01D4
:10135000AC01C701B6010E941A14562F472F382F2F
:10136000292F04C05C2D4D2D3E2D2F2D652F742F60
:10137000832F922FFF90EF90DF90CF90BF90AF9090
:101380009F908F9008952F923F924F925F926F920D
:101390007F928F929F92AF92BF92CF92DF92EF9205
:1013A000FF920F931F93CF93DF93CDB7DEB7A8972C
:1013B0000FB6F894DEBF0FBECDBFCE0101960E94DE
:1013C00010116B817C810F81188549855A85AD8507
:1013D000BE852F853889EB89FC898D899E89E980B6
:1013E000FA80FA8EE98E1C8F0B8FBE8FAD8FF8A31B
:1013F000EF8F7AA369A35CA34BA33EA32DA398A769
:101400008FA368E171E0CE0149960E9402068C012B
:10141000FC0180859185A285B3850F2EF8E12F2EE2
:10142000F1E03F2EF02DF10180879187A287B387ED
:10143000F80160857185828593850E9483092B015F
:101440003C01F801608771878287938724EA30E73F
:101450004DE75FE360817181828193810E94C916AB
:101460004B015C0120E037ED43E25CE36091B901A0
:101470007091BA018091BB019091BC010E94C91684
:101480009B01AC01C501B4010E941B144B015C011E
:101490006093B9017093BA018093BB019093BC0132
:1014A00024EA30E74DE75FE3F801648175818681C6
:1014B00097810E94C9166B017C0120E037ED43E261
:1014C0005CE36091B5017091B6018091B701909194
:1014D000B8010E94C9169B01AC01C701B6010E9468
:1014E0001B146B017C016093B5017093B60180936E
:1014F000B7019093B80124EA30E74DE75FE3C301F9
:10150000B2010E94C9162B013C0120E037ED43E2F5
:101510005CE36091B1017091B2018091B30190914F
:10152000B4010E94C9169B01AC01C301B2010E9423
:101530001B146093B1017093B2018093B301909337
:10154000B401F10180829182A282B382C482D582E9
:10155000E682F782A8960FB6F894DEBF0FBECDBF25
:10156000DF91CF911F910F91FF90EF90DF90CF907F
:10157000BF90AF909F908F907F906F905F904F90B3
:101580003F902F9008954F925F926F927F928F922B
:101590009F92AF92BF92CF92DF92EF92FF920F9302
:1015A0001F93CF93DF93CDB7DEB764970FB6F89450
:1015B000DEBF0FBECDBF29013A01ED86FE860F8743
:1015C000188B2091B9013091BA014091BB01509123
:1015D000BC010E941A146D837E838F8398872091AB
:1015E000B5013091B6014091B7015091B801C301E6
:1015F000B2010E941A1469877A878B879C872D8194
:101600003E814F8158850E949A142091B1013091FA
:10161000B2014091B3015091B4010E941A140E948A
:10162000830969837A838B839C832B013C01E89433
:1016300077F8A6019501C301B2010E94BC161816E5
:1016400084F429813A814B815C81C301B2010E94FB
:101650000315A60195010E94C91669837A838B83BD
:101660009C8329813A814B815C816FA178A589A5F2
:101670009AA50E94C9166B017C012091AD013091A1
:10168000AE014091AF015091B00169817A818B81A7
:101690009C810E941A142FE632E143E85AE30E942B
:1016A00003159B01AC016BA57CA58DA59EA50E9491
:1016B000C9169B01AC01C701B6010E941A14298109
:1016C0003A814B815C812093AD013093AE01409310
:1016D000AF015093B0012BED3FE049E450E40E948C
:1016E00003152B013C01DC01CB01B058898B9A8B8F
:1016F000AB8BBC8B69817A818B819C810E94FE14AB
:101700006B017C0129853A854B855C85CA01B9014D
:101710000E94C9164B015C012D813E814F81588585
:10172000CA01B9010E94C9169B01AC01C501B401EF
:101730000E941B140E9444179B01AC01C701B60113
:101740009F770E94C9166B017C019B01AC016FA5BC
:1017500078A989A99AA90E94C9164B015C01209118
:10176000A9013091AA014091AB015091AC01C70190
:10177000B6010E941A142FE632E143E85AE30E94B0
:1017800003159B01AC016BA97CA98DA99EA90E94A0
:10179000C9169B01AC01C501B4010E941A144B018A
:1017A0005C01C092A901D092AA01E092AB01F09233
:1017B000AC0120E030E040E252E40E94BC16181672
:1017C00044F40F2E812C912CF0E2AF2EF2E4BF2EC8
:1017D000F02D20E030E040E252E4C501B4010E9467
:1017E00003156B017C0169817A818B819C819F77D4
:1017F0002BED3FE049EC5FE30E94F9148823ECF401
:10180000A3019201C701B6010E941A14609314014A
:10181000709315018093160190931701A70196010B
:10182000C301B2010E941B14609310017093110157
:1018300080931201909313011EC0A701960169893C
:101840007A898B899C890E941A1460931401709381
:1018500015018093160190931701A7019601C3010A
:10186000B2010E941A1460931001709311018093C9
:1018700012019093130120E030E0A901609114015E
:101880007091150180911601909117010E94F91431
:10189000882314F4299801C0299A20E030E0A90196
:1018A00060911001709111018091120190911301CA
:1018B0000E94F914882314F42B9801C02B9A80906D
:1018C000140190901501A0901601B0901701E894B2
:1018D000B7F88092140190921501A0921601B0926F
:1018E0001701C0901001D0901101E0901201F0900A
:1018F0001301E894F7F8C0921001D0921101E09220
:101900001201F0921301A7019601C501B4010E94D2
:10191000BC1618162CF01C2D0D2D7E2C6F2C04C01F
:10192000182D092D7A2C6B2C2D853E854F855889D5
:10193000612F702F872D962D0E94BC16181664F506
:10194000212F302F472D562DC501B4010E940315BC
:101950002D853E854F8558890E94C91660931401D4
:10196000709315018093160190931701212F302F4A
:10197000472D562DC701B6010E9403152D853E85C2
:101980004F8558890E94C916609310017093110108
:10199000809312019093130108E810E0D8016D9133
:1019A0007C9180E090E00E94A41520911401309178
:1019B000150140911601509117010E94C9160E940D
:1019C000751570938B0060938A00F80160817181B6
:1019D00080E090E00E94A415209110013091110147
:1019E00040911201509113010E94C9160E94751571
:1019F00070938D0060938C0064960FB6F894DEBFF0
:101A00000FBECDBFDF91CF911F910F91FF90EF904F
:101A1000DF90CF90BF90AF909F908F907F906F900E
:101A20005F904F900895589A599A5A9A8CE08093F3
:101A3000B800E9E6F0E080818062808380818F7E5B
:101A40008083EA9A789408951F93CF93DF93182F99
:101A5000D62FC42F0E94130D94EA9093BC00ECEB98
:101A6000F0E090819923ECF790E59093BB0094E827
:101A70009093BC00ECEBF0E090819923ECF790910F
:101A8000B900987F903229F484E98093BC0080E00B
:101A90002DC081E08093BB0084E88093BC00ECEB18
:101AA000F0E090819923ECF71093BB0084E88093D9
:101AB000BC00ECEBF0E080818823ECF7D093BB0016
:101AC00084E88093BC00ECEBF0E080818823ECF7A5
:101AD000C093BB0084E88093BC00ECEBF0E0808115
:101AE0008823ECF784E98093BC0081E0DF91CF91FB
:101AF0001F910895CF93DF939C0184EA8093BC00EB
:101B0000ECEBF0E090819923ECF781E58093BB004A
:101B100084E88093BC00ECEBF0E090819923ECF733
:101B20008091B900887F883429F484E98093BC00CF
:101B300080E041C084EC8093BC00ECEBF0E090814D
:101B40009923ECF74091BB00461309C0842F90E025
:101B500001971816190644F040E050E01AC084E9D5
:101B60008093BC0080E027C0D90150E0415051096A
:101B7000B901640F751FECEBF0E084ECCBEBD0E027
:101B8000808390819923ECF798819D93A617B707DE
:101B9000B9F784E88093BC00ECEBF0E090819923E6
:101BA000ECF78091BB00F901E40FF51F808384E915
:101BB0008093BC0081E0DF91CF91089581E0809314
:101BC000D70080EA8093D80082E189BD09B400FE85
:101BD000FDCF80E98093D8001092E0001092BF0101
:101BE0001092BD018CE08093E200789408951F92DA
:101BF0000F920FB60F9211248F939F93EF93FF9341
:101C0000E1EEF0E08081108283FF11C01092E900C4
:101C100091E09093EB001092EC0092E19093ED0034
:101C200098E09093F0001092BF011092BD0182FFE6
:101C300013C08091BF01882379F08091BE01882371
:101C400059F081508093BE01811106C084E08093D9
:101C5000E9008AE38093E800FF91EF919F918F91D3
:101C60000F900FBE0F901F9018951F920F920FB6F6
:101C70000F9211240F931F932F933F934F935F93D2
:101C80006F937F938F939F93AF93BF93CF93DF9384
:101C9000EF93FF931092E9008091E80083FF4CC11D
:101CA000E1EFF0E0608180812081908130E0392B8C
:101CB0004081908150E0592B7081C08192EF9093C8
:101CC000E800863009F058C004C081E28093EB0040
:101CD0003AC166E080E291E0FC01A591B4912A1737
:101CE0003B0711F0079623C0FC013296A591B491F1
:101CF0004A175B0711F007961AC0FC01349645910C
:101D00005491FC0136962491872F90E09C2B8F3FB5
:101D1000910519F010F08FEF90E0821708F4282F4A
:101D2000A8EEB0E070E16EEFC1EFD0E003C061500B
:101D300099F6CBCF8C91982F9570E1F382FD03C17A
:101D4000322F213108F0372F332309F4F9C0FA017B
:101D5000832F94919883815031968111FACF8FEF20
:101D6000830F90E00196480F591F231B6C9321119C
:101D7000E1CF3031F9F2E7C0853061F48EEF809326
:101D8000E800E8EEF0E0808180FFFDCF206820933E
:101D9000E300D9C0893009F035C06111CDC020936E
:101DA000BF011092BD011092BE018EEF8093E8003A
:101DB00081E029EC31E0C9EED0E0ABEEB0E00CEE12
:101DC00010E06DEE70E08883A9014F5F5F4FF9016D
:101DD00094919C93992361F0FA014491F801408316
:101DE000F901329694912D5F3F4FFB01908301C022
:101DF0009A018F5F853039F7EAEEF0E08EE180835B
:101E00001082A1C0883081F4603809F095C0E8EEF6
:101E1000F0E0808180FFFDCF8091BF018093F100D1
:101E20008EEF8093E8008FC08132B9F4613A09F0F7
:101E300083C0E8EEF0E0808180FFFDCFE4E2F1E0D6
:101E40002BE231E0A1EFB0E081918C93E217F30730
:101E5000D9F78EEF8093E80076C08032D1F46132FA
:101E600009F06AC0E8EEF0E0808182FFFDCFE4E295
:101E7000F1E02BE231E0A1EFB0E08C918193E21729
:101E8000F307D9F7E8EEF0E08BEF80838EEF8083E5
:101E90005AC0823271F4613209F04EC02093BD0104
:101EA000E8EEF0E0808180FFFDCF8EEF8093E800C8
:101EB0004AC081111AC0E8EEF0E0808180FFFDCFBA
:101EC000623851F4E9EEF0E040838091EB0085FB4D
:101ED000882780F9108201C080E0E1EFF0E0808384
:101EE00010828EEF8093E8002EC0982F9D7F913056
:101EF00019F5623009F5232BF9F44F779FEF940F12
:101F00009430D0F49EEF9093E8004093E900833042
:101F100021F481E28093EB0016C089E18093EB000D
:101F200081E090E002C0880F991F4A95E2F7EAEE3F
:101F3000F0E08083108207C081E28093EB0003C051
:101F40006C932111F7CEFF91EF91DF91CF91BF916B
:101F5000AF919F918F917F916F915F914F913F9141
:101F60002F911F910F910F900FBE0F901F901895FA
:101F700020E030E0ECEBF0E08081882334F02F5F4C
:101F80003F4F293E83E03807B9F781E0283E3340D0
:101F900009F480E008958093BB0084E88093BC003E
:101FA0000E94B80F882319F08091B900887F0895A6
:101FB000CF93C82F94EA9093BC000E94B80F882357
:101FC00061F08C2F880F0E94CB0F803229F484E9B6
:101FD0008093BC0080E001C081E0CF9108950E9411
:101FE000130D88E50E94D80F882309F4CDC080E343
:101FF0000E94CB0F882309F4C9C081E00E94CB0F57
:10200000882309F4C5C084E98093BC0083EC99E07F
:102010000197F1F700C0000088E50E94D80F8823DF
:1020200009F4B8C080E00E94CB0F882309F4B4C043
:1020300080E00E94CB0F882309F4B0C080E00E94AA
:10204000CB0F882309F4ACC080E00E94CB0F88231B
:1020500009F4A8C080E00E94CB0F882309F4A4C033
:1020600080E00E94CB0F882309F4A0C080E00E948A
:10207000CB0F882309F49CC080E90E94CB0F8823F2
:1020800009F498C084E98093BC0083EC99E001973F
:10209000F1F700C0000088E50E94D80F882309F4FA
:1020A0008BC087E00E94CB0F882309F487C080E0B3
:1020B0000E94CB0F882309F483C081E40E94CB0FD8
:1020C000882309F47FC084E98093BC0083EC99E005
:1020D0000197F1F700C0000088E50E94D80F88231F
:1020E00009F472C08AE10E94CB0F882309F46EC004
:1020F00080E40E94CB0F882309F46AC080E00E942C
:10210000CB0F882309F466C084E98093BC0083EC7C
:1021100099E00197F1F700C0000088E50E94D80F10
:10212000882309F459C083E30E94CB0F882309F464
:1021300055C083E00E94CB0F882309F451C084E985
:102140008093BC0083EC99E00197F1F700C0000098
:1021500088E50E94D80F882309F444C080E30E94D8
:10216000CB0F882309F440C088E00E94CB0F88235E
:10217000E9F184E98093BC0083EC99E00197F1F7E1
:1021800000C0000081E0089580E0089580E0089597
:1021900080E0089580E0089580E0089580E008954B
:1021A00080E0089580E0089580E0089580E008953B
:1021B00080E0089580E0089580E0089580E008952B
:1021C00080E0089580E0089580E0089580E008951B
:1021D00080E0089580E0089580E0089580E008950B
:1021E00080E0089580E0089580E0089580E00895FB
:1021F000CF93C82F84EA8093BC000E94B80F882335
:1022000069F08C2F880F8F5F0E94CB0F883429F4E0
:1022100084E98093BC0080E001C081E0CF91089503
:102220000F931F93CF93DF93CDB7DEB760970FB6B1
:10223000F894DEBF0FBECDBF8C01FE01319680E168
:10224000DF011D928A95E9F788E50E94D80F88235F
:1022500009F469C086E30E94CB0F882309F465C0A6
:1022600084E98093BC00B8E0BA95F1F7000088E5F6
:102270000E94F810882309F45AC0BE016F5F7F4F97
:10228000AE01405F5F4FECEBF0E084EC2BEB30E015
:10229000808390819923ECF7D9019C91DB019D9378
:1022A000BD01A417B507A1F784E88093BC00ECEB4F
:1022B000F0E080818823ECF78091BB00888B84E973
:1022C0008093BC00BE016C5F7F4FF801085E1F4F1A
:1022D000DB012C91322F3073CB010297DC018C9102
:1022E00090E0B0E13B9F800D911D1124918380838C
:1022F000422F407C50E0440F551F440F551FCB0127
:102300000197DC018C91480F511D538342832F703C
:1023100030E0358324836D5F7F4F3696E017F107F9
:10232000B9F681E005C080E003C080E001C080E034
:1023300060960FB6F894DEBF0FBECDBFDF91CF9190
:102340001F910F9108952F923F924F925F926F923B
:102350007F928F929F92AF92BF92CF92DF92EF9235
:10236000FF920F931F93CF93DF93CDB7DEB76297A2
:102370000FB6F894DEBF0FBECDBF9A8B898BCE010E
:1023800001960E945C090F2EF4EC8F2EF1E09F2E37
:10239000F02D0F2EFBE2EF2EF1E0FF2EF02D0F2E91
:1023A000FBE5AF2EF1E0BF2EF02D1D861E861F86A9
:1023B000188AC12CD12C212C312CF40101911191BE
:1023C0004F01C00ED11EF701419051906190719064
:1023D0007F01B801012E000C880B990B0E94A615F5
:1023E0009B01AC01C301B2010E94C9169B01AC0163
:1023F0006D857E858F8598890E941B146D877E87E9
:102400008F87988B201631060CF41801EA14FB0410
:10241000A1F6F4E62F1631045CF4E989FA891082FA
:10242000118212821382148215821682178240C092
:10243000B601DD0C880B990B0E94A6159B01AC011F
:102440006D857E858F8598890E94031529853A853B
:102450004B855C850E941B146B017C010E94FE145D
:1024600020E030E040E251E40E94C91629813A811F
:102470004B815C810E941B14E989FA896083718316
:1024800082839383C701B6010E94361720E030E0B3
:1024900040E251E40E94C9162D813E814F8158854A
:1024A0000E941B14E989FA89648375838683978364
:1024B00062960FB6F894DEBF0FBECDBFDF91CF910D
:1024C0001F910F91FF90EF90DF90CF90BF90AF9052
:1024D0009F908F907F906F905F904F903F902F9044
:1024E00008952091C2013091C3018091C001909163
:1024F000C101280F391F81E02B3337400CF480E0F5
:102500000895EAE7F0E080818F778083E091D80139
:10251000F091D901EC30F10508F082C1E25AFF4F89
:102520000C94B11781E090E09093D9018093D80189
:10253000EBE7F0E080818F7D8083ECE7F0E0808145
:102540008B7F808380818D7F808380818E7F80835D
:1025500080917800909179009093C9018093C8018F
:1025600080E05FC182E090E09093D9018093D80130
:10257000EBE7F0E080818F7D8083ECE7F0E0808105
:102580008B7F808380818D7F808380818160808349
:1025900080917800909179009093CD018093CC0147
:1025A00080E03FC183E090E09093D9018093D8010F
:1025B000EBE7F0E080818F7D8083ECE7F0E08081C5
:1025C0008460808380818D7F808380818E7F808303
:1025D00080917800909179009093C1018093C0011F
:1025E00080E01FC184E090E09093D9018093D801EE
:1025F000EBE7F0E080818F7D8083ECE7F0E0808185
:102600008460808380818D7F8083808181608083EE
:1026100080917800909179009093CF018093CE01C2
:1026200080E0FFC085E090E09093D9018093D801CD
:10263000EBE7F0E080818F7D8083ECE7F0E0808144
:102640008460808380818260808380818E7F8083AC
:1026500080917800909179009093D3018093D2017A
:1026600080E0DFC086E090E09093D9018093D801AC
:10267000EBE7F0E080818F7D8083ECE7F0E0808104
:102680008460808380818260808380818160808398
:1026900080917800909179009093D5018093D40136
:1026A00080E0BFC087E090E09093D9018093D8018B
:1026B000EBE7F0E0808180628083ECE7F0E08081EE
:1026C0008B7F808380818D7F808380818E7F8083DC
:1026D00080917800909179009093D7018093D601F2
:1026E00080E09FC088E090E09093D9018093D8016A
:1026F000EBE7F0E0808180628083ECE7F0E08081AE
:102700008B7F808380818D7F8083808181608083C7
:1027100080917800909179009093C5018093C401D5
:1027200080E07FC089E090E09093D9018093D80148
:10273000EBE7F0E0808180628083ECE7F0E080816D
:102740008B7F808380818260808380818E7F808385
:1027500080917800909179009093D1018093D0017D
:1027600080E05FC08AE090E09093D9018093D80127
:10277000EBE7F0E0808180628083ECE7F0E080812D
:102780008B7F808380818260808380818160808371
:1027900080917800909179009093CB018093CA0149
:1027A00080E03FC08BE090E09093D9018093D80106
:1027B000EBE7F0E0808180628083ECE7F0E08081ED
:1027C0008460808380818D7F808380818E7F808301
:1027D00080917800909179009093C7018093C60111
:1027E00080E01FC01092D9011092D801EBE7F0E011
:1027F000808180628083ECE7F0E080818460808368
:1028000080818D7F8083808181608083809178004A
:10281000909179009093C3018093C20181E001C03F
:1028200080E0EAE7F0E09081906890839081906486
:10283000908308955058BB27AA270E9432140C9405
:102840006E160E94351638F00E943C1620F039F4BE
:102850009F3F19F426F40C940B160EF4E095E7FB59
:102860000C940516E92F0E94931658F3BA176207C5
:1028700073078407950720F079F4A6F50C94B51634
:102880000EF4E0950B2EBA2FA02D0B01B90190018B
:102890000C01CA01A0011124FF27591B99F0593FCF
:1028A00050F4503E68F11A16F040A22F232F342F17
:1028B0004427585FF3CF469537952795A795F04065
:1028C0005395C9F77EF41F16BA0B620B730B840B7A
:1028D000BAF09150A1F0FF0FBB1F661F771F881F32
:1028E000C2F70EC0BA0F621F731F841F48F487958A
:1028F00077956795B795F7959E3F08F0B0CF93957C
:10290000880F08F09927EE0F9795879508950E94F4
:10291000351660F080E891E009F49EEF0E943C16C5
:1029200028F040E851E071F45EEF0CC00C940B16F7
:102930000C94B516E92FE0780E94931640F3092E07
:10294000052AB1F3261737074807590738F00E2E26
:1029500007F8E02569F0E025E0640AC0EF6307F8B6
:10296000009407FADB01B9019D01DC01CA01AD0148
:10297000EF930E941A150E946E160E94CA145F916E
:10298000552339F02BED3FE049E450FD49EC0C9420
:102990001B140895DF93DD27B92FBF7740E85FE36D
:1029A0001616170648075B0718F4D92F0E94C116A0
:1029B0009F938F937F936F930E948417E4EDF0E0D1
:1029C0000E940E160E946E162F913F914F915F91BB
:1029D0000E94DC16DD2351F09058A2EA2AED3FE078
:1029E00049EC5FE3D0785D270E943214DF910C94AC
:1029F0006E160E94E11508F481E008950E944516C4
:102A0000E3950C947F160E9417150C946E160E9485
:102A10003C1658F00E94351640F029F45F3F29F02B
:102A20000C94051651110C94B6160C940B160E94BA
:102A3000931668F39923B1F3552391F3951B550B26
:102A4000BB27AA2762177307840738F09F5F5F4F81
:102A5000220F331F441FAA1FA9F335D00E2E3AF0C0
:102A6000E0E832D091505040E695001CCAF72BD0D8
:102A7000FE2F29D0660F771F881FBB1F2617370729
:102A80004807AB07B0E809F0BB0B802DBF01FF275B
:102A900093585F4F3AF09E3F510578F00C9405161D
:102AA0000C94B6165F3FE4F3983ED4F38695779581
:102AB0006795B795F7959F5FC9F7880F911D969514
:102AC000879597F90895E1E0660F771F881FBB1F70
:102AD000621773078407BA0720F0621B730B840B1D
:102AE000BA0BEE1F88F7E09508950E949B1688F0B8
:102AF0009F5798F0B92F9927B751B0F0E1F0660FC2
:102B0000771F881F991F1AF0BA95C9F714C0B13002
:102B100091F00E94B516B1E008950C94B516672F98
:102B2000782F8827B85F39F0B93FCCF38695779531
:102B30006795B395D9F73EF490958095709561951A
:102B40007F4F8F4F9F4F0895E89409C097FB3EF445
:102B500090958095709561957F4F8F4F9F4F9923EA
:102B6000A9F0F92F96E9BB279395F6958795779568
:102B70006795B795F111F8CFFAF4BB0F11F460FF28
:102B80001BC06F5F7F4F8F4F9F4F16C0882311F080
:102B900096E911C0772321F09EE8872F762F05C094
:102BA000662371F096E8862F70E060E02AF09A952F
:102BB000660F771F881FDAF7880F9695879597F924
:102BC0000895990F0008550FAA0BE0E8FEEF1616BE
:102BD0001706E807F907C0F012161306E407F50711
:102BE00098F0621B730B840B950B39F40A2661F085
:102BF000232B242B252B21F408950A2609F4A14028
:102C0000A6958FEF811D811D089597F99F6780E834
:102C100070E060E008959FEF80EC0895DF93CF931C
:102C20001F930F93FF92EF92DF927B018C016894C8
:102C300006C0DA2EEF010E94DC16FE01E894A59191
:102C40002591359145915591A6F3EF010E943214DB
:102C5000FE019701A801DA9469F7DF90EF90FF90E9
:102C60000F911F91CF91DF91089500240A941616B9
:102C7000170618060906089500240A94121613066A
:102C80001406050608950C940B160E949B16D8F3A3
:102C9000E894E0E0BB279F57F0F02AED3FE049ECD5
:102CA00006C0EE0FBB0F661F771F881F28F0B23AD1
:102CB00062077307840728F0B25A620B730B840B08
:102CC000E3959A9572F7803830F49A95BB0F661F9A
:102CD000771F881FD2F790480C948A17092E039407
:102CE000000C11F4882352F0BB0F40F4BF2B11F4F9
:102CF00060FF04C06F5F7F4F8F4F9F4F0895EF932A
:102D0000E0FF07C0A2EA2AED3FE049EC5FEB0E943A
:102D100032140E946E160F90039401FC9058E1E06B
:102D2000F1E00C949D1757FD9058440F551F59F032
:102D30005F3F71F04795880F97FB991F61F09F3FA8
:102D400079F087950895121613061406551FF2CFD1
:102D50004695F1DF08C0161617061806991FF1CF21
:102D600086957105610508940895E894BB27662748
:102D70007727CB0197F908950E94E11508F48FEFAA
:102D800008959B01AC0160E070E080E89FE30C9443
:102D900003150E94DC160C946E160E94351638F04E
:102DA0000E943C1620F0952311F00C9405160C940B
:102DB0000B1611240C94B6160E94931670F3959F6F
:102DC000C1F3950F50E0551F629FF001729FBB2722
:102DD000F00DB11D639FAA27F00DB11DAA1F649FBE
:102DE0006627B00DA11D661F829F2227B00DA11D71
:102DF000621F739FB00DA11D621F839FA00D611DF7
:102E0000221F749F3327A00D611D231F849F600D17
:102E1000211D822F762F6A2F11249F5750409AF040
:102E2000F1F088234AF0EE0FFF1FBB1F661F771FCC
:102E3000881F91505040A9F79E3F510580F00C9497
:102E400005160C94B6165F3FE4F3983ED4F38695CE
:102E500077956795B795F795E7959F5FC1F7FE2B37
:102E6000880F911D9695879597F908959F930E94D5
:102E700045160F9007FCEE5F0C947F1619F416F4BC
:102E80000C940B160C9488170E949B16B8F3992388
:102E9000C9F3B6F39F57550B87FF0E94961700247E
:102EA000A0E640EA900180585695979528F4805CFA
:102EB000660F771F881F20F026173707480730F462
:102EC000621B730B840B202931294A2BA69517947A
:102ED0000794202531254A2758F7660F771F881F4A
:102EE00020F026173707480730F4620B730B840B6A
:102EF000200D311D411DA09581F7B901842F9158F6
:102F0000880F9695879508959B01AC010C94C9167E
:102F10009F3F31F0915020F4879577956795B7954D
:102F2000880F911D9695879597F908959150504077
:102F3000660F771F881FD2F708959F938F937F9313
:102F40006F93FF93EF939B01AC010E94C916EF9121
:102F5000FF910E940E162F913F914F915F910C941B
:102F6000C916EE0FFF1F0590F491E02D0994F89417
:022F7000FFCF91
:102F7200CDCC4C3E0000803FDB0F49409A99993EF0
:102F8200CDCCCC3DCDCCCC3D00C07F4400C07F44F5
:102F92000000B44300E10000000008DB0FC9BFC31A
:102FA200B832BFC3B8B2BE00000000C3B8B23EC35D
:102FB200B8323FDB0FC93F378D2740DB0F4940371F
:042FC2008D27C00097
:00000001FF
