S01C00006D6F746F725F6472697665725F74657374696E672E737265638F
S11300000C9456000C9460000C9460000C946000F6
S11300100C9460000C9460000C9460000C946000DC
S11300200C9460000C9460000C9460000C946000CC
S11300300C9460000C9460000C9460000C946000BC
S11300400C9460000C94C2000C94D0000C94DD005D
S11300500C9460000C9460000C9460000C9460009C
S11300600C9460000C9460000C9460000C9460008C
S11300700C9460000C9460000C9460000C9460007C
S11300800C9460000C9460000C9460000C9460006C
S11300900C9460000C9460000C9460000C9460005C
S11300A00C9460000C9460000C94600011241FBE3A
S11300B0CFEFDAE0DEBFCDBF0E9462000C941202E3
S11300C00C9400006A9A72987894209A219A229A41
S11300D0239AE1E8F0E080818B7F808380818D7FAB
S11300E0808380818160808380818F7E8083808112
S11300F088608083E0E8F0E080818D7F8083808168
S11301008E7F808380818F7D808380818F7E8083BA
S1130110C8E8D0E08AEA99E2998388836881798182
S113012080E090E00E9417012AE939E949E95EE399
S11301300E947D010E94E80070938B0060938A0006
S11301406881798180E090E00E9417012AE939E909
S113015049E95EE30E947D010E94E80070938D00EE
S113016060938C00EFE6F0E0808182608083808180
S11301708460808380818860808328982A98299865
S11301802B98FFCF1F920F920FB60F921124289A2B
S11301902A9A6E9A76980F900FBE0F901F9018951A
S11301A01F920F920FB60F92112428986A9A729A8E
S11301B00F900FBE0F901F9018951F920F920FB6BD
S11301C00F9211242A980F900FBE0F901F9018952C
S11301D00E945C0188F09F5798F0B92F9927B75176
S11301E0B0F0E1F0660F771F881F991F1AF0BA95D7
S11301F0C9F714C0B13091F00E947601B1E00895BE
S11302000C947601672F782F8827B85F39F0B93FAF
S1130210CCF3869577956795B395D9F73EF4909589
S11302208095709561957F4F8F4F9F4F0895E89407
S113023009C097FB3EF490958095709561957F4F2A
S11302408F4F9F4F9923A9F0F92F96E9BB279395D8
S1130250F695879577956795B795F111F8CFFAF4E8
S1130260BB0F11F460FF1BC06F5F7F4F8F4F9F4F19
S113027016C0882311F096E911C0772321F09EE877
S1130280872F762F05C0662371F096E8862F70E0DD
S113029060E02AF09A95660F771F881FDAF7880FB7
S11302A09695879597F9089557FD9058440F551FD3
S11302B059F05F3F71F04795880F97FB991F61F0E4
S11302C09F3F79F087950895121613061406551F5B
S11302D0F2CF4695F1DF08C0161617061806991FC7
S11302E0F1CF86957105610508940895E894BB27BC
S11302F066277727CB0197F908950E9490010C9403
S113030001020E94F30138F00E94FA0120F09523C3
S113031011F00C94EA010C94F00111240C9477016F
S11303200E94540170F3959FC1F3950F50E0551F3F
S1130330629FF001729FBB27F00DB11D639FAA2736
S1130340F00DB11DAA1F649F6627B00DA11D661F85
S1130350829F2227B00DA11D621F739FB00DA11DA6
S1130360621F839FA00D611D221F749F3327A00D60
S1130370611D231F849F600D211D822F762F6A2FFC
S113038011249F5750409AF0F1F088234AF0EE0F61
S1130390FF1FBB1F661F771F881F91505040A9F78E
S11303A09E3F510580F00C94EA010C9477015F3F65
S11303B0E4F3983ED4F3869577956795B795F795CA
S11303C0E7959F5FC1F7FE2B880F911D9695879542
S11303D097F9089597F99F6780E870E060E00895C1
S11303E09FEF80EC089500240A9416161706180649
S11303F00906089500240A94121613061406050625
S11304000895092E0394000C11F4882352F0BB0FB5
S113041040F4BF2B11F460FF04C06F5F7F4F8F4F18
S10B04209F4F0895F894FFCFEB
S9030000FC
